{"abi":[{"type":"function","name":"isInitialized","inputs":[{"name":"smartAccount","type":"address","internalType":"address"}],"outputs":[{"name":"","type":"bool","internalType":"bool"}],"stateMutability":"view"},{"type":"function","name":"isModuleType","inputs":[{"name":"typeID","type":"uint256","internalType":"uint256"}],"outputs":[{"name":"","type":"bool","internalType":"bool"}],"stateMutability":"pure"},{"type":"function","name":"isValidSignatureWithSender","inputs":[{"name":"","type":"address","internalType":"address"},{"name":"hash","type":"bytes32","internalType":"bytes32"},{"name":"data","type":"bytes","internalType":"bytes"}],"outputs":[{"name":"","type":"bytes4","internalType":"bytes4"}],"stateMutability":"view"},{"type":"function","name":"name","inputs":[],"outputs":[{"name":"","type":"string","internalType":"string"}],"stateMutability":"pure"},{"type":"function","name":"onInstall","inputs":[{"name":"data","type":"bytes","internalType":"bytes"}],"outputs":[],"stateMutability":"nonpayable"},{"type":"function","name":"onUninstall","inputs":[{"name":"","type":"bytes","internalType":"bytes"}],"outputs":[],"stateMutability":"nonpayable"},{"type":"function","name":"owners","inputs":[{"name":"subAccout","type":"address","internalType":"address"}],"outputs":[{"name":"owner","type":"address","internalType":"address"}],"stateMutability":"view"},{"type":"function","name":"validateUserOp","inputs":[{"name":"userOp","type":"tuple","internalType":"struct PackedUserOperation","components":[{"name":"sender","type":"address","internalType":"address"},{"name":"nonce","type":"uint256","internalType":"uint256"},{"name":"initCode","type":"bytes","internalType":"bytes"},{"name":"callData","type":"bytes","internalType":"bytes"},{"name":"accountGasLimits","type":"bytes32","internalType":"bytes32"},{"name":"preVerificationGas","type":"uint256","internalType":"uint256"},{"name":"gasFees","type":"bytes32","internalType":"bytes32"},{"name":"paymasterAndData","type":"bytes","internalType":"bytes"},{"name":"signature","type":"bytes","internalType":"bytes"}]},{"name":"userOpHash","type":"bytes32","internalType":"bytes32"}],"outputs":[{"name":"","type":"uint256","internalType":"ERC7579ValidatorBase.ValidationData"}],"stateMutability":"view"},{"type":"function","name":"version","inputs":[],"outputs":[{"name":"","type":"string","internalType":"string"}],"stateMutability":"pure"},{"type":"error","name":"AlreadyInitialized","inputs":[{"name":"smartAccount","type":"address","internalType":"address"}]},{"type":"error","name":"NotInitialized","inputs":[{"name":"smartAccount","type":"address","internalType":"address"}]}],"bytecode":{"object":"0x6080604052348015600f57600080fd5b506108068061001f6000396000f3fe608060405234801561001057600080fd5b50600436106100935760003560e01c80638a91b0e3116100665780638a91b0e3146101495780639700320314610178578063d60b347f14610199578063ecd05961146101d7578063f551e2ee146101eb57600080fd5b8063022914a71461009857806306fdde03146100de57806354fd4d50146101135780636d61fe7014610134575b600080fd5b6100c16100a63660046105d2565b6000602081905290815260409020546001600160a01b031681565b6040516001600160a01b0390911681526020015b60405180910390f35b60408051808201909152601081526f27bbb730b13632ab30b634b230ba37b960811b60208201525b6040516100d591906105ef565b604080518082019091526005815264302e302e3160d81b6020820152610106565b610147610142366004610687565b610217565b005b610147610157366004610687565b505033600090815260208190526040902080546001600160a01b0319169055565b61018b6101863660046106c9565b610264565b6040519081526020016100d5565b6101c76101a73660046105d2565b6001600160a01b0390811660009081526020819052604090205416151590565b60405190151581526020016100d5565b6101c76101e5366004610714565b60011490565b6101fe6101f936600461072d565b61032c565b6040516001600160e01b031990911681526020016100d5565b6000819003610224575050565b6000610232828401846105d2565b33600090815260208190526040902080546001600160a01b0319166001600160a01b0392909216919091179055505050565b60008061030f610299846020527b19457468657265756d205369676e6564204d6573736167653a0a3332600052603c60042090565b6102a7610100870187610789565b8080601f016020809104026020016040519081016040528093929190818152602001838380828437600092018290525092508291506102eb905060208a018a6105d2565b6001600160a01b039081168252602082019290925260400160002054169190610376565b9050610324811565ffffffffffff600061047c565b949350505050565b336000908152602081905260408120546001600160a01b031661035181868686610489565b610363576001600160e01b031961036c565b630b135d3f60e11b5b9695505050505050565b6001600160a01b0390921691600083156104755760405183600052602083015160405260408351036103e6576040830151601b8160ff1c016020528060011b60011c60605250602060016080600060015afa805186183d15176103e457506000606052604052506001610475565b505b604183510361042c57606083015160001a6020526040830151606052602060016080600060015afa805186183d151761042a57506000606052604052506001610475565b505b600060605280604052631626ba7e60e01b808252846004830152602482016040815284516020018060448501828860045afa505060208160443d01858a5afa9051909114169150505b9392505050565b6000610324848484610582565b6001600160a01b0390931692600084156103245760405184600052604083036104f45760208481013560ff81901c601b01825285356040526001600160ff1b0316606052600160806000825afa805187183d15176104f257506000606052604052506001610324565b505b6041830361053757604084013560001a602052604084604037602060016080600060015afa805187183d151761053557506000606052604052506001610324565b505b600060605280604052631626ba7e60e01b80825285600483015260248201604081528460448401528486606485013760208160648701858b5afa905190911416915050949350505050565b600060d08265ffffffffffff16901b60a08465ffffffffffff16901b856105aa5760006105ad565b60015b60ff161717949350505050565b6001600160a01b03811681146105cf57600080fd5b50565b6000602082840312156105e457600080fd5b8135610475816105ba565b60006020808352835180602085015260005b8181101561061d57858101830151858201604001528201610601565b506000604082860101526040601f19601f8301168501019250505092915050565b60008083601f84011261065057600080fd5b50813567ffffffffffffffff81111561066857600080fd5b60208301915083602082850101111561068057600080fd5b9250929050565b6000806020838503121561069a57600080fd5b823567ffffffffffffffff8111156106b157600080fd5b6106bd8582860161063e565b90969095509350505050565b600080604083850312156106dc57600080fd5b823567ffffffffffffffff8111156106f357600080fd5b8301610120818603121561070657600080fd5b946020939093013593505050565b60006020828403121561072657600080fd5b5035919050565b6000806000806060858703121561074357600080fd5b843561074e816105ba565b935060208501359250604085013567ffffffffffffffff81111561077157600080fd5b61077d8782880161063e565b95989497509550505050565b6000808335601e198436030181126107a057600080fd5b83018035915067ffffffffffffffff8211156107bb57600080fd5b60200191503681900382131561068057600080fdfea2646970667358221220a3845283254aa3a01bc0bc891031c88f46e59dcd6b8a6d838c2b9767c362099064736f6c63430008190033","linkReferences":{}},"methodIdentifiers":{"isInitialized(address)":"d60b347f","isModuleType(uint256)":"ecd05961","isValidSignatureWithSender(address,bytes32,bytes)":"f551e2ee","name()":"06fdde03","onInstall(bytes)":"6d61fe70","onUninstall(bytes)":"8a91b0e3","owners(address)":"022914a7","validateUserOp((address,uint256,bytes,bytes,bytes32,uint256,bytes32,bytes,bytes),bytes32)":"97003203","version()":"54fd4d50"},"id":16}