{"abi":[{"type":"fallback","stateMutability":"payable"},{"type":"receive","stateMutability":"payable"},{"type":"function","name":"_getInitMSACalldata","inputs":[{"name":"$valdiators","type":"tuple[]","internalType":"struct BootstrapConfig[]","components":[{"name":"module","type":"address","internalType":"address"},{"name":"data","type":"bytes","internalType":"bytes"}]},{"name":"$executors","type":"tuple[]","internalType":"struct BootstrapConfig[]","components":[{"name":"module","type":"address","internalType":"address"},{"name":"data","type":"bytes","internalType":"bytes"}]},{"name":"_hook","type":"tuple","internalType":"struct BootstrapConfig","components":[{"name":"module","type":"address","internalType":"address"},{"name":"data","type":"bytes","internalType":"bytes"}]},{"name":"_fallbacks","type":"tuple[]","internalType":"struct BootstrapConfig[]","components":[{"name":"module","type":"address","internalType":"address"},{"name":"data","type":"bytes","internalType":"bytes"}]}],"outputs":[{"name":"init","type":"bytes","internalType":"bytes"}],"stateMutability":"view"},{"type":"function","name":"entryPoint","inputs":[],"outputs":[{"name":"","type":"address","internalType":"address"}],"stateMutability":"view"},{"type":"function","name":"getActiveFallbackHandler","inputs":[{"name":"functionSig","type":"bytes4","internalType":"bytes4"}],"outputs":[{"name":"","type":"tuple","internalType":"struct ModuleManager.FallbackHandler","components":[{"name":"handler","type":"address","internalType":"address"},{"name":"calltype","type":"bytes1","internalType":"CallType"}]}],"stateMutability":"view"},{"type":"function","name":"getActiveHook","inputs":[],"outputs":[{"name":"hook","type":"address","internalType":"address"}],"stateMutability":"view"},{"type":"function","name":"getExecutorsPaginated","inputs":[{"name":"cursor","type":"address","internalType":"address"},{"name":"size","type":"uint256","internalType":"uint256"}],"outputs":[{"name":"array","type":"address[]","internalType":"address[]"},{"name":"next","type":"address","internalType":"address"}],"stateMutability":"view"},{"type":"function","name":"getValidatorPaginated","inputs":[{"name":"cursor","type":"address","internalType":"address"},{"name":"size","type":"uint256","internalType":"uint256"}],"outputs":[{"name":"array","type":"address[]","internalType":"address[]"},{"name":"next","type":"address","internalType":"address"}],"stateMutability":"view"},{"type":"function","name":"initMSA","inputs":[{"name":"$valdiators","type":"tuple[]","internalType":"struct BootstrapConfig[]","components":[{"name":"module","type":"address","internalType":"address"},{"name":"data","type":"bytes","internalType":"bytes"}]},{"name":"$executors","type":"tuple[]","internalType":"struct BootstrapConfig[]","components":[{"name":"module","type":"address","internalType":"address"},{"name":"data","type":"bytes","internalType":"bytes"}]},{"name":"_hook","type":"tuple","internalType":"struct BootstrapConfig","components":[{"name":"module","type":"address","internalType":"address"},{"name":"data","type":"bytes","internalType":"bytes"}]},{"name":"_fallbacks","type":"tuple[]","internalType":"struct BootstrapConfig[]","components":[{"name":"module","type":"address","internalType":"address"},{"name":"data","type":"bytes","internalType":"bytes"}]}],"outputs":[],"stateMutability":"nonpayable"},{"type":"function","name":"singleInitMSA","inputs":[{"name":"validator","type":"address","internalType":"contract IModule"},{"name":"data","type":"bytes","internalType":"bytes"}],"outputs":[],"stateMutability":"nonpayable"},{"type":"error","name":"AccountAccessUnauthorized","inputs":[]},{"type":"error","name":"CannotRemoveLastValidator","inputs":[]},{"type":"error","name":"HookAlreadyInstalled","inputs":[{"name":"currentHook","type":"address","internalType":"address"}]},{"type":"error","name":"HookPostCheckFailed","inputs":[]},{"type":"error","name":"InvalidModule","inputs":[{"name":"module","type":"address","internalType":"address"}]},{"type":"error","name":"LinkedList_EntryAlreadyInList","inputs":[{"name":"entry","type":"address","internalType":"address"}]},{"type":"error","name":"LinkedList_InvalidEntry","inputs":[{"name":"entry","type":"address","internalType":"address"}]},{"type":"error","name":"LinkedList_InvalidPage","inputs":[]},{"type":"error","name":"NoFallbackHandler","inputs":[{"name":"selector","type":"bytes4","internalType":"bytes4"}]}],"bytecode":{"object":"0x6080604052348015600f57600080fd5b506113198061001f6000396000f3fe60806040526004361061007f5760003560e01c8063855713681161004e5780638557136814610272578063b0d691fe146102a0578063ea5f61d0146102c3578063eac9b20d146102e357610086565b80630a664dba146101d35780635e87556d14610205578063642219af146102325780636b0d5cc41461025257610086565b3661008657005b60003560e01c63bc197c81811463f23a6e6182141763150b7a02821417156100b257806020526020603cf35b50600080356001600160e01b03191681526000805160206112c48339815191526020526040902080546001600160a01b03811690600160a01b900460f81b8161012157604051632464e76d60e11b81526001600160e01b03196000351660048201526024015b60405180910390fd5b61012f81607f60f91b610399565b156101835760408051368101909152366000823760408051601481019091523360601b90526000803660140183865afa90506101713d60408051918201905290565b3d6000823e8161017f573d81fd5b3d81f35b61018e816000610399565b156101d15760408051368101909152366000823760408051601481019091523360601b9052600080366014018382875af190506101713d60408051918201905290565b005b3480156101df57600080fd5b506101e86103b0565b6040516001600160a01b0390911681526020015b60405180910390f35b34801561021157600080fd5b50610225610220366004610d53565b6103df565b6040516101fc9190610e60565b34801561023e57600080fd5b506101d161024d366004610d53565b610468565b34801561025e57600080fd5b506101d161026d366004610e8b565b6106b4565b34801561027e57600080fd5b5061029261028d366004610f10565b6106c4565b6040516101fc929190610f3c565b3480156102ac57600080fd5b506f71727de22e5e9d8baf0edac6f37da0326101e8565b3480156102cf57600080fd5b506102926102de366004610f10565b610701565b3480156102ef57600080fd5b5061036b6102fe366004610f9f565b604080518082018252600080825260209182018190526001600160e01b03199390931683526000805160206112c48339815191528152918190208151808301909252546001600160a01b0381168252600160a01b900460f81b6001600160f81b0319169181019190915290565b6040805182516001600160a01b031681526020928301516001600160f81b03191692810192909252016101fc565b6001600160f81b0319828116908216145b92915050565b60006103da7f36e05829dd1b9a4411d96a3549582172d7f071c1c0db5c573fcf94eb284316085490565b905090565b606030306001600160a01b031663642219af8a8a8a8a8a8a8a60405160240161040e97969594939291906110d9565b604051602081830303815290604052915060e01b6020820180516001600160e01b03838183161783525050505060405160200161044c929190611137565b6040516020818303038152906040529050979650505050505050565b60005b868110156104e7576104df88888381811061048857610488611163565b905060200281019061049a9190611179565b6104a8906020810190611199565b8989848181106104ba576104ba611163565b90506020028101906104cc9190611179565b6104da9060208101906111b6565b610731565b60010161046b565b5060005b848110156105a957600086868381811061050757610507611163565b90506020028101906105199190611179565b610527906020810190611199565b6001600160a01b0316146105a1576105a186868381811061054a5761054a611163565b905060200281019061055c9190611179565b61056a906020810190611199565b87878481811061057c5761057c611163565b905060200281019061058e9190611179565b61059c9060208101906111b6565b6107b8565b6001016104eb565b5060006105b96020850185611199565b6001600160a01b0316146105e9576105e96105d76020850185611199565b6105e460208601866111b6565b6107e3565b60005b818110156106aa57600083838381811061060857610608611163565b905060200281019061061a9190611179565b610628906020810190611199565b6001600160a01b0316146106a2576106a283838381811061064b5761064b611163565b905060200281019061065d9190611179565b61066b906020810190611199565b84848481811061067d5761067d611163565b905060200281019061068f9190611179565b61069d9060208101906111b6565b61086a565b6001016105ec565b5050505050505050565b6106bf838383610731565b505050565b606060007ff88ce1fdb7fb1cbd3282e49729100fa3f2d6ee9f797961fe4fb1871cea89ea026106f4818686610a1b565b92509250505b9250929050565b606060007ff88ce1fdb7fb1cbd3282e49729100fa3f2d6ee9f797961fe4fb1871cea89ea036106f4818686610a1b565b7ff88ce1fdb7fb1cbd3282e49729100fa3f2d6ee9f797961fe4fb1871cea89ea0261075c8185610bc8565b6040516306d61fe760e41b81526001600160a01b03851690636d61fe709061078a90869086906004016111fd565b600060405180830381600087803b1580156107a457600080fd5b505af11580156106aa573d6000803e3d6000fd5b7ff88ce1fdb7fb1cbd3282e49729100fa3f2d6ee9f797961fe4fb1871cea89ea0361075c8185610bc8565b600061080d7f36e05829dd1b9a4411d96a3549582172d7f071c1c0db5c573fcf94eb284316085490565b90506001600160a01b038116156108425760405163741cbe0360e01b81526001600160a01b0382166004820152602401610118565b61075c847f36e05829dd1b9a4411d96a3549582172d7f071c1c0db5c573fcf94eb2843160855565b60006108796004828486611211565b6108829161123b565b905060008383600481811061089957610899611163565b909101356001600160f81b0319169150600090506108ba8460058188611211565b8080601f0160208091040260200160405190810160405280939291908181526020018383808284376000920191909152509293506108fd9250859150610c9e9050565b1561094a5760405162461bcd60e51b815260206004820152601e60248201527f46756e6374696f6e2073656c6563746f7220616c7265616479207573656400006044820152606401610118565b6040805180820182526001600160a01b038881168083526001600160f81b0319861660208085019182526001600160e01b0319891660009081526000805160206112c483398151915290915285902093518454915160f81c600160a01b026001600160a81b03199092169316929092179190911790915590516306d61fe760e41b8152636d61fe70906109e1908490600401610e60565b600060405180830381600087803b1580156109fb57600080fd5b505af1158015610a0f573d6000803e3d6000fd5b50505050505050505050565b606060006001600160a01b038416600114801590610a405750610a3e8585610cd2565b155b15610a6957604051637c84ecfb60e01b81526001600160a01b0385166004820152602401610118565b82600003610a8a5760405163f725081760e01b815260040160405180910390fd5b8267ffffffffffffffff811115610aa357610aa361126b565b604051908082528060200260200182016040528015610acc578160200160208202803683370190505b506001600160a01b03808616600090815260208890526040812054929450911691505b6001600160a01b03821615801590610b1157506001600160a01b038216600114155b8015610b1c57508381105b15610b765781838281518110610b3457610b34611163565b6001600160a01b039283166020918202929092018101919091529281166000908152928790526040909220549091169080610b6e81611297565b915050610aef565b6001600160a01b038216600114801590610b905750600081115b15610bbc5782610ba16001836112b0565b81518110610bb157610bb1611163565b602002602001015191505b80835250935093915050565b6001600160a01b0381161580610be757506001600160a01b0381166001145b15610c1057604051637c84ecfb60e01b81526001600160a01b0382166004820152602401610118565b6001600160a01b038181166000908152602084905260409020541615610c5457604051631034f46960e21b81526001600160a01b0382166004820152602401610118565b60016000818152602093909352604080842080546001600160a01b039485168087529286208054959091166001600160a01b03199586161790559190935280549091169091179055565b6001600160e01b03191660009081526000805160206112c483398151915260205260409020546001600160a01b0316151590565b600060016001600160a01b03831614801590610d0757506001600160a01b038281166000908152602085905260409020541615155b9392505050565b60008083601f840112610d2057600080fd5b50813567ffffffffffffffff811115610d3857600080fd5b6020830191508360208260051b85010111156106fa57600080fd5b60008060008060008060006080888a031215610d6e57600080fd5b873567ffffffffffffffff80821115610d8657600080fd5b610d928b838c01610d0e565b909950975060208a0135915080821115610dab57600080fd5b610db78b838c01610d0e565b909750955060408a0135915080821115610dd057600080fd5b908901906040828c031215610de457600080fd5b90935060608901359080821115610dfa57600080fd5b50610e078a828b01610d0e565b989b979a50959850939692959293505050565b6000815180845260005b81811015610e4057602081850181015186830182015201610e24565b506000602082860101526020601f19601f83011685010191505092915050565b602081526000610d076020830184610e1a565b6001600160a01b0381168114610e8857600080fd5b50565b600080600060408486031215610ea057600080fd5b8335610eab81610e73565b9250602084013567ffffffffffffffff80821115610ec857600080fd5b818601915086601f830112610edc57600080fd5b813581811115610eeb57600080fd5b876020828501011115610efd57600080fd5b6020830194508093505050509250925092565b60008060408385031215610f2357600080fd5b8235610f2e81610e73565b946020939093013593505050565b604080825283519082018190526000906020906060840190828701845b82811015610f7e5781516001600160a01b031684529284019290840190600101610f59565b5050506001600160a01b039490941660209390930192909252509092915050565b600060208284031215610fb157600080fd5b81356001600160e01b031981168114610d0757600080fd5b81835281816020850137506000828201602090810191909152601f909101601f19169091010190565b60008135610fff81610e73565b6001600160a01b03168352602082013536839003601e1901811261102257600080fd5b820160208101903567ffffffffffffffff81111561103f57600080fd5b80360382131561104e57600080fd5b60406020860152611063604086018284610fc9565b95945050505050565b6000838385526020808601955060208560051b830101846000805b888110156110cb57858403601f19018a52823536899003603e190181126110ac578283fd5b6110b8858a8301610ff2565b9a86019a94505091840191600101611087565b509198975050505050505050565b6080815260006110ed60808301898b61106c565b828103602084015261110081888a61106c565b905082810360408401526111148187610ff2565b9050828103606084015261112981858761106c565b9a9950505050505050505050565b6001600160a01b038316815260406020820181905260009061115b90830184610e1a565b949350505050565b634e487b7160e01b600052603260045260246000fd5b60008235603e1983360301811261118f57600080fd5b9190910192915050565b6000602082840312156111ab57600080fd5b8135610d0781610e73565b6000808335601e198436030181126111cd57600080fd5b83018035915067ffffffffffffffff8211156111e857600080fd5b6020019150368190038213156106fa57600080fd5b60208152600061115b602083018486610fc9565b6000808585111561122157600080fd5b8386111561122e57600080fd5b5050820193919092039150565b6001600160e01b031981358181169160048510156112635780818660040360031b1b83161692505b505092915050565b634e487b7160e01b600052604160045260246000fd5b634e487b7160e01b600052601160045260246000fd5b6000600182016112a9576112a9611281565b5060010190565b818103818111156103aa576103aa61128156fef88ce1fdb7fb1cbd3282e49729100fa3f2d6ee9f797961fe4fb1871cea89ea04a26469706673582212208a1a419f5ad49131b6a5c4f449227bcf3e3aff17ecf47b732cfec35155d97dfb64736f6c63430008190033","linkReferences":{}},"methodIdentifiers":{"_getInitMSACalldata((address,bytes)[],(address,bytes)[],(address,bytes),(address,bytes)[])":"5e87556d","entryPoint()":"b0d691fe","getActiveFallbackHandler(bytes4)":"eac9b20d","getActiveHook()":"0a664dba","getExecutorsPaginated(address,uint256)":"ea5f61d0","getValidatorPaginated(address,uint256)":"85571368","initMSA((address,bytes)[],(address,bytes)[],(address,bytes),(address,bytes)[])":"642219af","singleInitMSA(address,bytes)":"6b0d5cc4"},"id":38}