{"abi":[{"type":"receive","stateMutability":"payable"},{"type":"function","name":"_validateSenderAndPaymaster","inputs":[{"name":"initCode","type":"bytes","internalType":"bytes"},{"name":"sender","type":"address","internalType":"address"},{"name":"paymasterAndData","type":"bytes","internalType":"bytes"}],"outputs":[],"stateMutability":"view"},{"type":"function","name":"addStake","inputs":[{"name":"unstakeDelaySec","type":"uint32","internalType":"uint32"}],"outputs":[],"stateMutability":"payable"},{"type":"function","name":"balanceOf","inputs":[{"name":"account","type":"address","internalType":"address"}],"outputs":[{"name":"","type":"uint256","internalType":"uint256"}],"stateMutability":"view"},{"type":"function","name":"delegateAndRevert","inputs":[{"name":"target","type":"address","internalType":"address"},{"name":"data","type":"bytes","internalType":"bytes"}],"outputs":[],"stateMutability":"nonpayable"},{"type":"function","name":"depositTo","inputs":[{"name":"account","type":"address","internalType":"address"}],"outputs":[],"stateMutability":"payable"},{"type":"function","name":"deposits","inputs":[{"name":"","type":"address","internalType":"address"}],"outputs":[{"name":"deposit","type":"uint256","internalType":"uint256"},{"name":"staked","type":"bool","internalType":"bool"},{"name":"stake","type":"uint112","internalType":"uint112"},{"name":"unstakeDelaySec","type":"uint32","internalType":"uint32"},{"name":"withdrawTime","type":"uint48","internalType":"uint48"}],"stateMutability":"view"},{"type":"function","name":"getDepositInfo","inputs":[{"name":"account","type":"address","internalType":"address"}],"outputs":[{"name":"info","type":"tuple","internalType":"struct IStakeManager.DepositInfo","components":[{"name":"deposit","type":"uint256","internalType":"uint256"},{"name":"staked","type":"bool","internalType":"bool"},{"name":"stake","type":"uint112","internalType":"uint112"},{"name":"unstakeDelaySec","type":"uint32","internalType":"uint32"},{"name":"withdrawTime","type":"uint48","internalType":"uint48"}]}],"stateMutability":"view"},{"type":"function","name":"getGasConsumed","inputs":[{"name":"account","type":"address","internalType":"address"},{"name":"phase","type":"uint256","internalType":"uint256"}],"outputs":[{"name":"","type":"uint256","internalType":"uint256"}],"stateMutability":"view"},{"type":"function","name":"getNonce","inputs":[{"name":"sender","type":"address","internalType":"address"},{"name":"key","type":"uint192","internalType":"uint192"}],"outputs":[{"name":"nonce","type":"uint256","internalType":"uint256"}],"stateMutability":"view"},{"type":"function","name":"getSenderAddress","inputs":[{"name":"initCode","type":"bytes","internalType":"bytes"}],"outputs":[],"stateMutability":"nonpayable"},{"type":"function","name":"getUserOpHash","inputs":[{"name":"userOp","type":"tuple","internalType":"struct PackedUserOperation","components":[{"name":"sender","type":"address","internalType":"address"},{"name":"nonce","type":"uint256","internalType":"uint256"},{"name":"initCode","type":"bytes","internalType":"bytes"},{"name":"callData","type":"bytes","internalType":"bytes"},{"name":"accountGasLimits","type":"bytes32","internalType":"bytes32"},{"name":"preVerificationGas","type":"uint256","internalType":"uint256"},{"name":"gasFees","type":"bytes32","internalType":"bytes32"},{"name":"paymasterAndData","type":"bytes","internalType":"bytes"},{"name":"signature","type":"bytes","internalType":"bytes"}]}],"outputs":[{"name":"","type":"bytes32","internalType":"bytes32"}],"stateMutability":"view"},{"type":"function","name":"handleAggregatedOps","inputs":[{"name":"opsPerAggregator","type":"tuple[]","internalType":"struct IEntryPoint.UserOpsPerAggregator[]","components":[{"name":"userOps","type":"tuple[]","internalType":"struct PackedUserOperation[]","components":[{"name":"sender","type":"address","internalType":"address"},{"name":"nonce","type":"uint256","internalType":"uint256"},{"name":"initCode","type":"bytes","internalType":"bytes"},{"name":"callData","type":"bytes","internalType":"bytes"},{"name":"accountGasLimits","type":"bytes32","internalType":"bytes32"},{"name":"preVerificationGas","type":"uint256","internalType":"uint256"},{"name":"gasFees","type":"bytes32","internalType":"bytes32"},{"name":"paymasterAndData","type":"bytes","internalType":"bytes"},{"name":"signature","type":"bytes","internalType":"bytes"}]},{"name":"aggregator","type":"address","internalType":"contract IAggregator"},{"name":"signature","type":"bytes","internalType":"bytes"}]},{"name":"beneficiary","type":"address","internalType":"address payable"}],"outputs":[],"stateMutability":"nonpayable"},{"type":"function","name":"handleOps","inputs":[{"name":"ops","type":"tuple[]","internalType":"struct PackedUserOperation[]","components":[{"name":"sender","type":"address","internalType":"address"},{"name":"nonce","type":"uint256","internalType":"uint256"},{"name":"initCode","type":"bytes","internalType":"bytes"},{"name":"callData","type":"bytes","internalType":"bytes"},{"name":"accountGasLimits","type":"bytes32","internalType":"bytes32"},{"name":"preVerificationGas","type":"uint256","internalType":"uint256"},{"name":"gasFees","type":"bytes32","internalType":"bytes32"},{"name":"paymasterAndData","type":"bytes","internalType":"bytes"},{"name":"signature","type":"bytes","internalType":"bytes"}]},{"name":"beneficiary","type":"address","internalType":"address payable"}],"outputs":[],"stateMutability":"nonpayable"},{"type":"function","name":"incrementNonce","inputs":[{"name":"key","type":"uint192","internalType":"uint192"}],"outputs":[],"stateMutability":"nonpayable"},{"type":"function","name":"init","inputs":[{"name":"entrypointAddr","type":"address","internalType":"address"}],"outputs":[],"stateMutability":"nonpayable"},{"type":"function","name":"innerHandleOp","inputs":[{"name":"callData","type":"bytes","internalType":"bytes"},{"name":"opInfo","type":"tuple","internalType":"struct EntryPoint.UserOpInfo","components":[{"name":"mUserOp","type":"tuple","internalType":"struct EntryPoint.MemoryUserOp","components":[{"name":"sender","type":"address","internalType":"address"},{"name":"nonce","type":"uint256","internalType":"uint256"},{"name":"verificationGasLimit","type":"uint256","internalType":"uint256"},{"name":"callGasLimit","type":"uint256","internalType":"uint256"},{"name":"paymasterVerificationGasLimit","type":"uint256","internalType":"uint256"},{"name":"paymasterPostOpGasLimit","type":"uint256","internalType":"uint256"},{"name":"preVerificationGas","type":"uint256","internalType":"uint256"},{"name":"paymaster","type":"address","internalType":"address"},{"name":"maxFeePerGas","type":"uint256","internalType":"uint256"},{"name":"maxPriorityFeePerGas","type":"uint256","internalType":"uint256"}]},{"name":"userOpHash","type":"bytes32","internalType":"bytes32"},{"name":"prefund","type":"uint256","internalType":"uint256"},{"name":"contextOffset","type":"uint256","internalType":"uint256"},{"name":"preOpGas","type":"uint256","internalType":"uint256"}]},{"name":"context","type":"bytes","internalType":"bytes"}],"outputs":[{"name":"actualGasCost","type":"uint256","internalType":"uint256"}],"stateMutability":"nonpayable"},{"type":"function","name":"nonceSequenceNumber","inputs":[{"name":"","type":"address","internalType":"address"},{"name":"","type":"uint192","internalType":"uint192"}],"outputs":[{"name":"","type":"uint256","internalType":"uint256"}],"stateMutability":"view"},{"type":"function","name":"simulateHandleOp","inputs":[{"name":"op","type":"tuple","internalType":"struct PackedUserOperation","components":[{"name":"sender","type":"address","internalType":"address"},{"name":"nonce","type":"uint256","internalType":"uint256"},{"name":"initCode","type":"bytes","internalType":"bytes"},{"name":"callData","type":"bytes","internalType":"bytes"},{"name":"accountGasLimits","type":"bytes32","internalType":"bytes32"},{"name":"preVerificationGas","type":"uint256","internalType":"uint256"},{"name":"gasFees","type":"bytes32","internalType":"bytes32"},{"name":"paymasterAndData","type":"bytes","internalType":"bytes"},{"name":"signature","type":"bytes","internalType":"bytes"}]},{"name":"target","type":"address","internalType":"address"},{"name":"targetCallData","type":"bytes","internalType":"bytes"}],"outputs":[{"name":"","type":"tuple","internalType":"struct IEntryPointSimulations.ExecutionResult","components":[{"name":"preOpGas","type":"uint256","internalType":"uint256"},{"name":"paid","type":"uint256","internalType":"uint256"},{"name":"accountValidationData","type":"uint256","internalType":"uint256"},{"name":"paymasterValidationData","type":"uint256","internalType":"uint256"},{"name":"targetSuccess","type":"bool","internalType":"bool"},{"name":"targetResult","type":"bytes","internalType":"bytes"}]}],"stateMutability":"nonpayable"},{"type":"function","name":"simulateValidation","inputs":[{"name":"userOp","type":"tuple","internalType":"struct PackedUserOperation","components":[{"name":"sender","type":"address","internalType":"address"},{"name":"nonce","type":"uint256","internalType":"uint256"},{"name":"initCode","type":"bytes","internalType":"bytes"},{"name":"callData","type":"bytes","internalType":"bytes"},{"name":"accountGasLimits","type":"bytes32","internalType":"bytes32"},{"name":"preVerificationGas","type":"uint256","internalType":"uint256"},{"name":"gasFees","type":"bytes32","internalType":"bytes32"},{"name":"paymasterAndData","type":"bytes","internalType":"bytes"},{"name":"signature","type":"bytes","internalType":"bytes"}]}],"outputs":[{"name":"","type":"tuple","internalType":"struct IEntryPointSimulations.ValidationResult","components":[{"name":"returnInfo","type":"tuple","internalType":"struct IEntryPoint.ReturnInfo","components":[{"name":"preOpGas","type":"uint256","internalType":"uint256"},{"name":"prefund","type":"uint256","internalType":"uint256"},{"name":"accountValidationData","type":"uint256","internalType":"uint256"},{"name":"paymasterValidationData","type":"uint256","internalType":"uint256"},{"name":"paymasterContext","type":"bytes","internalType":"bytes"}]},{"name":"senderInfo","type":"tuple","internalType":"struct IStakeManager.StakeInfo","components":[{"name":"stake","type":"uint256","internalType":"uint256"},{"name":"unstakeDelaySec","type":"uint256","internalType":"uint256"}]},{"name":"factoryInfo","type":"tuple","internalType":"struct IStakeManager.StakeInfo","components":[{"name":"stake","type":"uint256","internalType":"uint256"},{"name":"unstakeDelaySec","type":"uint256","internalType":"uint256"}]},{"name":"paymasterInfo","type":"tuple","internalType":"struct IStakeManager.StakeInfo","components":[{"name":"stake","type":"uint256","internalType":"uint256"},{"name":"unstakeDelaySec","type":"uint256","internalType":"uint256"}]},{"name":"aggregatorInfo","type":"tuple","internalType":"struct IEntryPoint.AggregatorStakeInfo","components":[{"name":"aggregator","type":"address","internalType":"address"},{"name":"stakeInfo","type":"tuple","internalType":"struct IStakeManager.StakeInfo","components":[{"name":"stake","type":"uint256","internalType":"uint256"},{"name":"unstakeDelaySec","type":"uint256","internalType":"uint256"}]}]}]}],"stateMutability":"nonpayable"},{"type":"function","name":"supportsInterface","inputs":[{"name":"interfaceId","type":"bytes4","internalType":"bytes4"}],"outputs":[{"name":"","type":"bool","internalType":"bool"}],"stateMutability":"view"},{"type":"function","name":"unlockStake","inputs":[],"outputs":[],"stateMutability":"nonpayable"},{"type":"function","name":"withdrawStake","inputs":[{"name":"withdrawAddress","type":"address","internalType":"address payable"}],"outputs":[],"stateMutability":"nonpayable"},{"type":"function","name":"withdrawTo","inputs":[{"name":"withdrawAddress","type":"address","internalType":"address payable"},{"name":"withdrawAmount","type":"uint256","internalType":"uint256"}],"outputs":[],"stateMutability":"nonpayable"},{"type":"event","name":"AccountDeployed","inputs":[{"name":"userOpHash","type":"bytes32","indexed":true,"internalType":"bytes32"},{"name":"sender","type":"address","indexed":true,"internalType":"address"},{"name":"factory","type":"address","indexed":false,"internalType":"address"},{"name":"paymaster","type":"address","indexed":false,"internalType":"address"}],"anonymous":false},{"type":"event","name":"BeforeExecution","inputs":[],"anonymous":false},{"type":"event","name":"Deposited","inputs":[{"name":"account","type":"address","indexed":true,"internalType":"address"},{"name":"totalDeposit","type":"uint256","indexed":false,"internalType":"uint256"}],"anonymous":false},{"type":"event","name":"PostOpRevertReason","inputs":[{"name":"userOpHash","type":"bytes32","indexed":true,"internalType":"bytes32"},{"name":"sender","type":"address","indexed":true,"internalType":"address"},{"name":"nonce","type":"uint256","indexed":false,"internalType":"uint256"},{"name":"revertReason","type":"bytes","indexed":false,"internalType":"bytes"}],"anonymous":false},{"type":"event","name":"SignatureAggregatorChanged","inputs":[{"name":"aggregator","type":"address","indexed":true,"internalType":"address"}],"anonymous":false},{"type":"event","name":"StakeLocked","inputs":[{"name":"account","type":"address","indexed":true,"internalType":"address"},{"name":"totalStaked","type":"uint256","indexed":false,"internalType":"uint256"},{"name":"unstakeDelaySec","type":"uint256","indexed":false,"internalType":"uint256"}],"anonymous":false},{"type":"event","name":"StakeUnlocked","inputs":[{"name":"account","type":"address","indexed":true,"internalType":"address"},{"name":"withdrawTime","type":"uint256","indexed":false,"internalType":"uint256"}],"anonymous":false},{"type":"event","name":"StakeWithdrawn","inputs":[{"name":"account","type":"address","indexed":true,"internalType":"address"},{"name":"withdrawAddress","type":"address","indexed":false,"internalType":"address"},{"name":"amount","type":"uint256","indexed":false,"internalType":"uint256"}],"anonymous":false},{"type":"event","name":"UserOperationEvent","inputs":[{"name":"userOpHash","type":"bytes32","indexed":true,"internalType":"bytes32"},{"name":"sender","type":"address","indexed":true,"internalType":"address"},{"name":"paymaster","type":"address","indexed":true,"internalType":"address"},{"name":"nonce","type":"uint256","indexed":false,"internalType":"uint256"},{"name":"success","type":"bool","indexed":false,"internalType":"bool"},{"name":"actualGasCost","type":"uint256","indexed":false,"internalType":"uint256"},{"name":"actualGasUsed","type":"uint256","indexed":false,"internalType":"uint256"}],"anonymous":false},{"type":"event","name":"UserOperationPrefundTooLow","inputs":[{"name":"userOpHash","type":"bytes32","indexed":true,"internalType":"bytes32"},{"name":"sender","type":"address","indexed":true,"internalType":"address"},{"name":"nonce","type":"uint256","indexed":false,"internalType":"uint256"}],"anonymous":false},{"type":"event","name":"UserOperationRevertReason","inputs":[{"name":"userOpHash","type":"bytes32","indexed":true,"internalType":"bytes32"},{"name":"sender","type":"address","indexed":true,"internalType":"address"},{"name":"nonce","type":"uint256","indexed":false,"internalType":"uint256"},{"name":"revertReason","type":"bytes","indexed":false,"internalType":"bytes"}],"anonymous":false},{"type":"event","name":"Withdrawn","inputs":[{"name":"account","type":"address","indexed":true,"internalType":"address"},{"name":"withdrawAddress","type":"address","indexed":false,"internalType":"address"},{"name":"amount","type":"uint256","indexed":false,"internalType":"uint256"}],"anonymous":false},{"type":"error","name":"DelegateAndRevert","inputs":[{"name":"success","type":"bool","internalType":"bool"},{"name":"ret","type":"bytes","internalType":"bytes"}]},{"type":"error","name":"FailedOp","inputs":[{"name":"opIndex","type":"uint256","internalType":"uint256"},{"name":"reason","type":"string","internalType":"string"}]},{"type":"error","name":"FailedOpWithRevert","inputs":[{"name":"opIndex","type":"uint256","internalType":"uint256"},{"name":"reason","type":"string","internalType":"string"},{"name":"inner","type":"bytes","internalType":"bytes"}]},{"type":"error","name":"PostOpReverted","inputs":[{"name":"returnData","type":"bytes","internalType":"bytes"}]},{"type":"error","name":"ReentrancyGuardReentrantCall","inputs":[]},{"type":"error","name":"SenderAddressResult","inputs":[{"name":"sender","type":"address","internalType":"address"}]},{"type":"error","name":"SignatureValidationFailed","inputs":[{"name":"aggregator","type":"address","internalType":"address"}]}],"bytecode":{"object":"0x60a0604052604051600e9060a1565b604051809103906000f0801580156029573d6000803e3d6000fd5b506001600160a01b039081166080526040805180820182526000808252825180840190935280835260208381019182528201839052905160048054919094166001600160a01b0319918216179093559051600555516006556008805490911630179055348015609757600080fd5b50600160025560ae565b6102128061440283390190565b60805161433c6100c66000396000505061433c6000f3fe6080604052600436106101435760003560e01c8063765e827f116100b6578063bb9fe6bf1161006f578063bb9fe6bf146104f4578063c23a5cea14610509578063c3bce00914610529578063dbed18e014610556578063ee5a97c814610576578063fc7e286d146105b957600080fd5b8063765e827f14610434578063850aaf6214610454578063957122ab1461047457806397b2dcb9146104945780639b249f69146104c1578063b760faf9146104e157600080fd5b80631b2e01b8116101085780631b2e01b81461020e578063205c28781461024657806322cdde4c1461026657806335567e1a146102865780635287ce12146102e657806370a08231146103fe57600080fd5b806242dc531461015857806301ffc9a71461018b5780630396cb60146101bb5780630bd28e3b146101ce57806319ab453c146101ee57600080fd5b366101535761015133610661565b005b600080fd5b34801561016457600080fd5b5061017861017336600461354c565b610682565b6040519081526020015b60405180910390f35b34801561019757600080fd5b506101ab6101a6366004613611565b61084e565b6040519015158152602001610182565b6101516101c936600461363b565b6108d6565b3480156101da57600080fd5b506101516101e9366004613678565b610b65565b3480156101fa57600080fd5b50610151610209366004613693565b610b9c565b34801561021a57600080fd5b506101786102293660046136b0565b600160209081526000928352604080842090915290825290205481565b34801561025257600080fd5b506101516102613660046136e5565b610bc2565b34801561027257600080fd5b5061017861028136600461372a565b610d13565b34801561029257600080fd5b506101786102a13660046136b0565b6001600160a01b03821660009081526001602090815260408083206001600160c01b038516845290915290819020549082901b67ffffffffffffffff19161792915050565b3480156102f257600080fd5b506103a3610301366004613693565b6040805160a081018252600080825260208201819052918101829052606081018290526080810191909152506001600160a01b031660009081526020818152604091829020825160a0810184528154815260019091015460ff811615159282019290925261010082046001600160701b031692810192909252600160781b810463ffffffff166060830152600160981b900465ffffffffffff16608082015290565b6040516101829190600060a082019050825182526020830151151560208301526001600160701b03604084015116604083015263ffffffff606084015116606083015265ffffffffffff608084015116608083015292915050565b34801561040a57600080fd5b50610178610419366004613693565b6001600160a01b031660009081526020819052604090205490565b34801561044057600080fd5b5061015161044f3660046137a2565b610d55565b34801561046057600080fd5b5061015161046f3660046137f8565b610ed1565b34801561048057600080fd5b5061015161048f36600461384c565b610f50565b3480156104a057600080fd5b506104b46104af3660046138d0565b61104d565b6040516101829190613981565b3480156104cd57600080fd5b506101516104dc3660046139d0565b61117f565b6101516104ef366004613693565b610661565b34801561050057600080fd5b5061015161122a565b34801561051557600080fd5b50610151610524366004613693565b61135e565b34801561053557600080fd5b5061054961054436600461372a565b611582565b6040516101829190613a11565b34801561056257600080fd5b506101516105713660046137a2565b611738565b34801561058257600080fd5b506101786105913660046136e5565b6001600160a01b03919091166000908152600360209081526040808320938352929052205490565b3480156105c557600080fd5b5061061e6105d4366004613693565b6000602081905290815260409020805460019091015460ff81169061010081046001600160701b031690600160781b810463ffffffff1690600160981b900465ffffffffffff1685565b6040805195865293151560208601526001600160701b039092169284019290925263ffffffff909116606083015265ffffffffffff16608082015260a001610182565b60015b600581101561067557600101610664565b61067e82611b51565b5050565b6000805a90503330146106dc5760405162461bcd60e51b815260206004820152601760248201527f4141393220696e7465726e616c2063616c6c206f6e6c7900000000000000000060448201526064015b60405180910390fd5b8451606081015160a082015181016127100160405a603f028161070157610701613ae4565b0410156107195763deaddead60e01b60005260206000fd5b8751600090156107ee5760005a9050600061073b856000015160008d87611b9a565b9050610778856000015160025a6107529086613b10565b6001600160a01b0390921660009081526003602090815260408083209383529290522055565b806107eb57600061078a610800611bb2565b8051909150156107e55785600001516001600160a01b03168b602001517f1c4fada7374c0a9ee8841fc38afe82932dc0f8e69012e927f061a8bae611a2018860200151846040516107dc929190613b23565b60405180910390a35b60019350505b50505b600088608001515a860301905061083e828a8a8a8080601f016020809104026020016040519081016040528093929190818152602001838380828437600092019190915250879250611bde915050565b955050505050505b949350505050565b60006001600160e01b0319821663307e35b760e11b148061087f57506001600160e01b0319821663122a0e9b60e31b145b8061089a57506001600160e01b0319821663cf28ef9760e01b145b806108b557506001600160e01b03198216633e84f02160e01b145b806108d057506301ffc9a760e01b6001600160e01b03198316145b92915050565b33600090815260208190526040902063ffffffff82166109385760405162461bcd60e51b815260206004820152601a60248201527f6d757374207370656369667920756e7374616b652064656c617900000000000060448201526064016106d3565b600181015463ffffffff600160781b9091048116908316101561099d5760405162461bcd60e51b815260206004820152601c60248201527f63616e6e6f7420646563726561736520756e7374616b652074696d650000000060448201526064016106d3565b60018101546000906109be90349061010090046001600160701b0316613b3c565b905060008111610a055760405162461bcd60e51b81526020600482015260126024820152711b9bc81cdd185ad9481cdc1958da599a595960721b60448201526064016106d3565b6001600160701b03811115610a4d5760405162461bcd60e51b815260206004820152600e60248201526d7374616b65206f766572666c6f7760901b60448201526064016106d3565b6040805160a08101825283548152600160208083018281526001600160701b0386811685870190815263ffffffff8a811660608801818152600060808a0181815233808352828a52918c90209a518b55965199909801805494519151965165ffffffffffff16600160981b0265ffffffffffff60981b1997909416600160781b029690961669ffffffffffffffffffff60781b1991909516610100026effffffffffffffffffffffffffff0019991515999099166effffffffffffffffffffffffffffff1990941693909317979097179190911691909117179055835185815290810192909252917fa5ae833d0bb1dcd632d98a8b70973e8516812898e19bf27b70071ebc8dc52c01910160405180910390a2505050565b3360009081526001602090815260408083206001600160c01b03851684529091528120805491610b9483613b4f565b919050555050565b600880546001600160a01b0319166001600160a01b038316179055610bbf611da1565b50565b3360009081526020819052604090208054821115610c225760405162461bcd60e51b815260206004820152601960248201527f576974686472617720616d6f756e7420746f6f206c617267650000000000000060448201526064016106d3565b8054610c2f908390613b10565b8155604080516001600160a01b03851681526020810184905233917fd1c19fbcd4551a5edfb66d43d2e337c04837afda3482b42bdf569a8fccdae5fb910160405180910390a26000836001600160a01b03168360405160006040518083038185875af1925050503d8060008114610cc2576040519150601f19603f3d011682016040523d82523d6000602084013e610cc7565b606091505b5050905080610d0d5760405162461bcd60e51b81526020600482015260126024820152716661696c656420746f20776974686472617760701b60448201526064016106d3565b50505050565b6000610d1e82611e16565b6040805160208101929092523090820152466060820152608001604051602081830303815290604052805190602001209050919050565b610d5d611e2f565b816000816001600160401b03811115610d7857610d78613346565b604051908082528060200260200182016040528015610db157816020015b610d9e6131c1565b815260200190600190039081610d965790505b50905060005b82811015610e2a576000828281518110610dd357610dd3613b68565b60200260200101519050600080610e0e848a8a87818110610df657610df6613b68565b9050602002810190610e089190613b7e565b85611e57565b91509150610e1f848383600061205d565b505050600101610db7565b506040516000907fbb47ee3e183a558b1a2ff0874b079f3fc5478b7454eacf2bfc5af2ff5878f972908290a160005b83811015610eb457610ea881888884818110610e7757610e77613b68565b9050602002810190610e899190613b7e565b858481518110610e9b57610e9b613b68565b60200260200101516121f9565b90910190600101610e59565b50610ebf84826124b5565b505050610ecc6001600255565b505050565b600080846001600160a01b03168484604051610eee929190613b9f565b600060405180830381855af49150503d8060008114610f29576040519150601f19603f3d011682016040523d82523d6000602084013e610f2e565b606091505b50915091508181604051632650415560e21b81526004016106d3929190613baf565b83158015610f6657506001600160a01b0383163b155b15610fb35760405162461bcd60e51b815260206004820152601960248201527f41413230206163636f756e74206e6f74206465706c6f7965640000000000000060448201526064016106d3565b6014811061102b576000610fca6014828486613bca565b610fd391613bf4565b60601c9050803b6000036110295760405162461bcd60e51b815260206004820152601b60248201527f41413330207061796d6173746572206e6f74206465706c6f796564000000000060448201526064016106d3565b505b60405162461bcd60e51b815260206004820152600060248201526044016106d3565b6110886040518060c0016040528060008152602001600081526020016000815260200160008152602001600015158152602001606081525090565b611090611e2f565b6110986131c1565b6110a1866125ae565b6000806110b060008985611e57565b9150915060006110c260008a866121f9565b9050600060606001600160a01b038a161561113a57896001600160a01b031689896040516110f1929190613b9f565b6000604051808303816000865af19150503d806000811461112e576040519150601f19603f3d011682016040523d82523d6000602084013e611133565b606091505b5090925090505b6040518060c001604052808760800151815260200184815260200186815260200185815260200183151581526020018281525096505050505050506108466001600255565b60006111936009546001600160a01b031690565b6001600160a01b031663570e1a3684846040518363ffffffff1660e01b81526004016111c0929190613c52565b6020604051808303816000875af11580156111df573d6000803e3d6000fd5b505050506040513d601f19601f820116820180604052508101906112039190613c66565b604051633653dc0360e11b81526001600160a01b03821660048201529091506024016106d3565b33600090815260208190526040812060018101549091600160781b90910463ffffffff1690036112895760405162461bcd60e51b815260206004820152600a6024820152691b9bdd081cdd185ad95960b21b60448201526064016106d3565b600181015460ff166112d15760405162461bcd60e51b8152602060048201526011602482015270616c726561647920756e7374616b696e6760781b60448201526064016106d3565b60018101546000906112f090600160781b900463ffffffff1642613c83565b60018301805460ff65ffffffffffff60981b011916600160981b65ffffffffffff841690810260ff19169190911790915560405190815290915033907ffa9b3c14cc825c412c9ed81b3ba365a5b459439403f18829e572ed53a4180f0a906020015b60405180910390a25050565b336000908152602081905260409020600181015461010090046001600160701b0316806113c45760405162461bcd60e51b81526020600482015260146024820152734e6f207374616b6520746f20776974686472617760601b60448201526064016106d3565b6001820154600160981b900465ffffffffffff166114245760405162461bcd60e51b815260206004820152601d60248201527f6d7573742063616c6c20756e6c6f636b5374616b65282920666972737400000060448201526064016106d3565b600182015442600160981b90910465ffffffffffff1611156114885760405162461bcd60e51b815260206004820152601b60248201527f5374616b65207769746864726177616c206973206e6f7420647565000000000060448201526064016106d3565b600182018054610100600160c81b0319169055604080516001600160a01b03851681526020810183905233917fb7c918e0e249f999e965cafeb6c664271b3f4317d296461500e71da39f0cbda3910160405180910390a26000836001600160a01b03168260405160006040518083038185875af1925050503d806000811461152c576040519150601f19603f3d011682016040523d82523d6000602084013e611531565b606091505b5050905080610d0d5760405162461bcd60e51b815260206004820152601860248201527f6661696c656420746f207769746864726177207374616b65000000000000000060448201526064016106d3565b61158a613259565b6115926131c1565b61159b836125ae565b6000806115aa60008685611e57565b9150915060006115c1846000015160e00151612688565b8451519091506000906115d390612688565b90506115f2604051806040016040528060008152602001600081525090565b36600061160260408b018b613ca9565b909250905060006014821015611619576000611634565b611627601460008486613bca565b61163091613bf4565b60601c5b905061163f81612688565b9350505050600085905060006040518060a0016040528089608001518152602001896040015181526020018881526020018781526020016116818a6060015190565b90526040805180820182526004546001600160a01b039081168252825180840190935260055483526006546020848101919091528201929092529192508316158015906116d857506001836001600160a01b031614155b15611705576040518060400160405280846001600160a01b0316815260200161170085612688565b905290505b6040805160a081018252928352602083019590955293810192909252506060810192909252608082015295945050505050565b611740611e2f565b816000805b828110156118ad573686868381811061176057611760613b68565b90506020028101906117729190613cef565b90503660006117818380613d05565b909250905060006117986040850160208601613693565b90506000196001600160a01b038216016117f45760405162461bcd60e51b815260206004820152601760248201527f4141393620696e76616c69642061676772656761746f7200000000000000000060448201526064016106d3565b6001600160a01b03811615611891576001600160a01b038116632dd8113384846118216040890189613ca9565b6040518563ffffffff1660e01b81526004016118409493929190613e72565b60006040518083038186803b15801561185857600080fd5b505afa925050508015611869575060015b6118915760405163086a9f7560e41b81526001600160a01b03821660048201526024016106d3565b61189b8287613b3c565b95505060019093019250611745915050565b506000816001600160401b038111156118c8576118c8613346565b60405190808252806020026020018201604052801561190157816020015b6118ee6131c1565b8152602001906001900390816118e65790505b5090506000805b848110156119de573688888381811061192357611923613b68565b90506020028101906119359190613cef565b90503660006119448380613d05565b9092509050600061195b6040850160208601613693565b90508160005b818110156119cc57600089898151811061197d5761197d613b68565b602002602001015190506000806119a08b898987818110610df657610df6613b68565b915091506119b08483838961205d565b8a6119ba81613b4f565b9b505060019093019250611961915050565b50506001909401935061190892505050565b506040517fbb47ee3e183a558b1a2ff0874b079f3fc5478b7454eacf2bfc5af2ff5878f97290600090a150600080805b85811015611b0c5736898983818110611a2957611a29613b68565b9050602002810190611a3b9190613cef565b9050611a4d6040820160208301613693565b6001600160a01b03167f575ff3acadd5ab348fe1855e217e0f3678f8d767d7494c9f9fefbee2e17cca4d60405160405180910390a2366000611a8f8380613d05565b90925090508060005b81811015611afb57611ada88858584818110611ab657611ab6613b68565b9050602002810190611ac89190613b7e565b8b8b81518110610e9b57610e9b613b68565b611ae49088613b3c565b965087611af081613b4f565b985050600101611a98565b505060019093019250611a0e915050565b506040516000907f575ff3acadd5ab348fe1855e217e0f3678f8d767d7494c9f9fefbee2e17cca4d908290a2611b4286826124b5565b5050505050610ecc6001600255565b6000611b5d82346126da565b9050816001600160a01b03167f2da466a7b24304f47e87fa2e1e5a81b9831ce54fec19055ce277ca2f39ba42c48260405161135291815260200190565b6000806000845160208601878987f195945050505050565b60603d82811115611bc05750815b604051602082018101604052818152816000602083013e9392505050565b6000805a855190915060009081611bf48261270d565b60e08301519091506001600160a01b038116611c135782519350611ccf565b809350600088511115611ccf57868202955060028a6002811115611c3957611c39613eef565b14611ccf5760a0830151604051637c627b2160e01b81526001600160a01b03831691637c627b2191611c75908e908d908c908990600401613f05565b600060405180830381600088803b158015611c8f57600080fd5b5087f193505050508015611ca1575060015b611ccf576000611cb2610800611bb2565b905080604051632b5e552f60e21b81526004016106d39190613f4f565b5a60a0840151606085015160808c015192880399909901980190880380821115611d02576064600a828403020498909801975b50506040890151878302965086811015611d5e5760028b6002811115611d2a57611d2a613eef565b03611d4d57809650611d3b8a612737565b611d488a6000898b612786565b611d93565b63deadaa5160e01b60005260206000fd5b868103611d6b86826126da565b506000808d6002811115611d8157611d81613eef565b149050611d908c828b8d612786565b50505b505050505050949350505050565b6008546040516135a560f21b602082015260609190911b6bffffffffffffffffffffffff19166022820152600160f81b603682015260009060370160408051808303601f190181529190528051602090910120600980546001600160a01b0319166001600160a01b0390921691909117905550565b6000611e2182612801565b805190602001209050919050565b6002805403611e5157604051633ee5aeb560e01b815260040160405180910390fd5b60028055565b60008060005a8451909150611e6c86826128b9565b611e7586610d13565b6020860152604081015161012082015161010083015160a08401516080850151606086015160c0870151861717171717176effffffffffffffffffffffffffffff811115611f055760405162461bcd60e51b815260206004820152601860248201527f41413934206761732076616c756573206f766572666c6f77000000000000000060448201526064016106d3565b6000611f348460c081015160a08201516080830151606084015160408501516101009095015194010101010290565b9050611f438a8a8a84876129c7565b9650611f5784600001518560200151612b95565b611fad5789604051631101335b60e11b81526004016106d3918152604060208201819052601a908201527f4141323520696e76616c6964206163636f756e74206e6f6e6365000000000000606082015260800190565b825a860311156120095789604051631101335b60e11b81526004016106d3918152604060208201819052601e908201527f41413236206f76657220766572696669636174696f6e4761734c696d69740000606082015260800190565b60e08401516060906001600160a01b0316156120305761202b8b8b8b85612be2565b975090505b604089018290528060608a015260a08a01355a870301896080018181525050505050505050935093915050565b60008061206985612da0565b91509150816001600160a01b0316836001600160a01b0316146120cf5785604051631101335b60e11b81526004016106d39181526040602082018190526014908201527320a0991a1039b4b3b730ba3ab9329032b93937b960611b606082015260800190565b80156121275785604051631101335b60e11b81526004016106d39181526040602082018190526017908201527f414132322065787069726564206f72206e6f7420647565000000000000000000606082015260800190565b600061213285612da0565b925090506001600160a01b0381161561218e5786604051631101335b60e11b81526004016106d39181526040602082018190526014908201527320a0999a1039b4b3b730ba3ab9329032b93937b960611b606082015260800190565b81156121f05786604051631101335b60e11b81526004016106d39181526040602082018190526021908201527f41413332207061796d61737465722065787069726564206f72206e6f742064756060820152606560f81b608082015260a00190565b50505050505050565b6000805a9050600061220c846060015190565b604051909150600090368261222460608a018a613ca9565b915091506060600082600381111561223b57843591505b506372288ed160e01b6001600160e01b03198216016122e95760008b8b6020015160405160240161226d929190613f62565b60408051601f198184030181529181526020820180516001600160e01b0316638dd7712f60e01b1790525190915030906242dc53906122b49084908f908d9060240161402e565b604051602081830303815290604052915060e01b6020820180516001600160e01b03838183161783525050505092505061233e565b306001600160a01b03166242dc5385858d8b60405160240161230e949392919061406e565b604051602081830303815290604052915060e01b6020820180516001600160e01b03838183161783525050505091505b602060008351602085016000305af195506000519850846040525050505050806124ab5760003d806020036123795760206000803e60005191505b5063deaddead60e01b81036123cc5787604051631101335b60e11b81526004016106d3918152604060208201819052600f908201526e41413935206f7574206f662067617360881b606082015260800190565b63deadaa5160e01b810361241d57600086608001515a6123ec9087613b10565b6123f69190613b3c565b604088015190915061240788612737565b6124148860008385612786565b95506124a99050565b855180516020808901519201516001600160a01b0390911691907ff62676f440ff169a3a9afdbf812e89e7f95975ee8e5c31214ffdef631c5f479290612464610800611bb2565b604051612472929190613b23565b60405180910390a3600086608001515a61248c9087613b10565b6124969190613b3c565b90506124a56002888684611bde565b9550505b505b5050509392505050565b6001600160a01b03821661250b5760405162461bcd60e51b815260206004820152601860248201527f4141393020696e76616c69642062656e6566696369617279000000000000000060448201526064016106d3565b6000826001600160a01b03168260405160006040518083038185875af1925050503d8060008114612558576040519150601f19603f3d011682016040523d82523d6000602084013e61255d565b606091505b5050905080610ecc5760405162461bcd60e51b815260206004820152601f60248201527f41413931206661696c65642073656e6420746f2062656e65666963696172790060448201526064016106d3565b6125b6611da1565b3063957122ab6125c96040840184613ca9565b6125d66020860186613693565b6125e360e0870187613ca9565b6040518663ffffffff1660e01b81526004016126039594939291906140a5565b60006040518083038186803b15801561261b57600080fd5b505afa92505050801561262c575060015b610bbf576126386140e7565b806308c379a00361267c575061264c614103565b80612657575061267e565b80511561067e57600081604051631101335b60e11b81526004016106d3929190613b23565b505b3d6000803e3d6000fd5b604080518082018252600080825260208083018281526001600160a01b03959095168252819052919091206001015461010081046001600160701b03168252600160781b900463ffffffff1690915290565b6001600160a01b038216600090815260208190526040812080548290612701908590613b3c565b91829055509392505050565b6101008101516101208201516000919080820361272b575092915050565b61084682488301612df3565b80518051602080840151928101516040519081526001600160a01b0390921692917f67b4fa9642f42120bf031f3051d1824b0fe25627945b27b8a6a65d5761d5482e910160405180910390a350565b835160e081015181516020808801519301516040516001600160a01b039384169492909316927f49628fd1471006c1482da88028e9ce4dbb080b815c9b0344d39e5a8e6ec1419f916127f39189908990899093845291151560208401526040830152606082015260800190565b60405180910390a450505050565b606081356020830135600061282161281c6040870187613ca9565b612e0b565b9050600061283561281c6060880188613ca9565b9050608086013560a087013560c0880135600061285861281c60e08c018c613ca9565b604080516001600160a01b039a909a1660208b015289810198909852606089019690965250608087019390935260a086019190915260c085015260e08401526101008084019190915281518084039091018152610120909201905292915050565b6128c66020830183613693565b6001600160a01b03168152602082810135908201526001600160801b036080808401358281166060850152811c604084015260a084013560c0808501919091528401359182166101008401521c61012082015236600061292960e0850185613ca9565b909250905080156129ac5760348110156129855760405162461bcd60e51b815260206004820152601d60248201527f4141393320696e76616c6964207061796d6173746572416e644461746100000060448201526064016106d3565b61298f8282612e1e565b60a086015260808501526001600160a01b031660e0840152610d0d565b600060e084018190526080840181905260a084015250505050565b82518051600091906129e688876129e160408b018b613ca9565b612e86565b60e082015160006001600160a01b038216612a2a576001600160a01b038316600090815260208190526040902054878111612a2357808803612a26565b60005b9150505b60005a60208a01516040516306608bdf60e21b81529192506001600160a01b038616916319822f7c918a91612a65918f91889060040161418c565b60206040518083038160008887f193505050508015612aa1575060408051601f3d908101601f19168201909252612a9e918101906141b1565b60015b612acc578a612ab1610800611bb2565b6040516365c8fd4d60e01b81526004016106d39291906141ca565b809650612afe8560015a85036001600160a01b0390921660009081526003602090815260408083209383529290522055565b506001600160a01b038316612b87576001600160a01b03841660009081526020819052604090208054808a1115612b81578c604051631101335b60e11b81526004016106d39181526040602082018190526017908201527f41413231206469646e2774207061792070726566756e64000000000000000000606082015260800190565b89900390555b505050505095945050505050565b6001600160a01b038216600090815260016020908152604080832084821c80855292528220805484916001600160401b038316919085612bd483613b4f565b909155501495945050505050565b60606000805a855160e08101516001600160a01b03811660009081526020819052604090208054939450919290919087811015612c6b578a604051631101335b60e11b81526004016106d3918152604060208201819052601e908201527f41413331207061796d6173746572206465706f73697420746f6f206c6f770000606082015260800190565b8781038260000181905550600084608001519050836001600160a01b03166352b7512c828d8d602001518d6040518563ffffffff1660e01b8152600401612cb49392919061418c565b60006040518083038160008887f193505050508015612cf557506040513d6000823e601f3d908101601f19168201604052612cf29190810190614207565b60015b612d20578b612d05610800611bb2565b6040516365c8fd4d60e01b81526004016106d3929190614292565b9098509650805a87031115612d91578b604051631101335b60e11b81526004016106d39181526040602082018190526027908201527f41413336206f766572207061796d6173746572566572696669636174696f6e47606082015266185cd31a5b5a5d60ca1b608082015260a00190565b50505050505094509492505050565b60008082600003612db657506000928392509050565b6000612dc184613150565b9050806040015165ffffffffffff16421180612de85750806020015165ffffffffffff1642105b905194909350915050565b6000818310612e025781612e04565b825b9392505050565b6000604051828085833790209392505050565b60008080612e2f6014828688613bca565b612e3891613bf4565b60601c612e49602460148789613bca565b612e52916142cf565b60801c612e6360346024888a613bca565b612e6c916142cf565b9194506001600160801b0316925060801c90509250925092565b8015610d0d578251516001600160a01b0381163b15612ef15784604051631101335b60e11b81526004016106d3918152604060208201819052601f908201527f414131302073656e64657220616c726561647920636f6e737472756374656400606082015260800190565b60005a90506000612f0a6009546001600160a01b031690565b6001600160a01b031663570e1a3687600001516040015187876040518463ffffffff1660e01b8152600401612f40929190613c52565b60206040518083038160008887f1158015612f5f573d6000803e3d6000fd5b50505050506040513d601f19601f82011682018060405250810190612f849190613c66565b9050612f978360005a6107529086613b10565b6001600160a01b038116612ff75786604051631101335b60e11b81526004016106d3918152604060208201819052601b908201527f4141313320696e6974436f6465206661696c6564206f72204f4f470000000000606082015260800190565b826001600160a01b0316816001600160a01b0316146130615786604051631101335b60e11b81526004016106d391815260406020808301829052908201527f4141313420696e6974436f6465206d7573742072657475726e2073656e646572606082015260800190565b806001600160a01b03163b6000036130c45786604051631101335b60e11b81526004016106d391815260406020808301829052908201527f4141313520696e6974436f6465206d757374206372656174652073656e646572606082015260800190565b60006130d36014828789613bca565b6130dc91613bf4565b60601c9050836001600160a01b031687602001517fd51a9c61267aa6196961883ecf5ff2da6619c37dac0fa92122513fb32c032d2d838a6000015160e0015160405161313e9291906001600160a01b0392831681529116602082015260400190565b60405180910390a35050505050505050565b60408051606081018252600080825260208201819052918101919091528160a081901c65ffffffffffff811660000361318c575065ffffffffffff5b604080516060810182526001600160a01b03909316835260d09490941c602083015265ffffffffffff16928101929092525090565b6040518060a0016040528061323460405180610140016040528060006001600160a01b0316815260200160008152602001600081526020016000815260200160008152602001600081526020016000815260200160006001600160a01b0316815260200160008152602001600081525090565b8152602001600080191681526020016000815260200160008152602001600081525090565b6040518060a001604052806132966040518060a0016040528060008152602001600081526020016000815260200160008152602001606081525090565b81526020016132b8604051806040016040528060008152602001600081525090565b81526020016132da604051806040016040528060008152602001600081525090565b81526020016132fc604051806040016040528060008152602001600081525090565b815260200161330961330e565b905290565b604051806040016040528060006001600160a01b03168152602001613309604051806040016040528060008152602001600081525090565b634e487b7160e01b600052604160045260246000fd5b60a081018181106001600160401b038211171561337b5761337b613346565b60405250565b601f8201601f191681016001600160401b03811182821017156133a6576133a6613346565b6040525050565b60405161014081016001600160401b03811182821017156133d0576133d0613346565b60405290565b60006001600160401b038211156133ef576133ef613346565b50601f01601f191660200190565b6001600160a01b0381168114610bbf57600080fd5b803561341d816133fd565b919050565b60008183036101c081121561343657600080fd5b6040516134428161335c565b8092506101408083121561345557600080fd5b61345d6133ad565b925061346885613412565b83526020850135602084015260408501356040840152606085013560608401526080850135608084015260a085013560a084015260c085013560c08401526134b260e08601613412565b60e084015261010085810135908401526101208086013590840152918152908301356020820152610160830135604082015261018083013560608201526101a090920135608090920191909152919050565b60008083601f84011261351657600080fd5b5081356001600160401b0381111561352d57600080fd5b60208301915083602082850101111561354557600080fd5b9250929050565b600080600080610200858703121561356357600080fd5b84356001600160401b038082111561357a57600080fd5b818701915087601f83011261358e57600080fd5b8135613599816133d6565b6040516135a68282613381565b8281528a60208487010111156135bb57600080fd5b826020860160208301376000602084830101528098505050506135e18860208901613422565b94506101e08701359150808211156135f857600080fd5b5061360587828801613504565b95989497509550505050565b60006020828403121561362357600080fd5b81356001600160e01b031981168114612e0457600080fd5b60006020828403121561364d57600080fd5b813563ffffffff81168114612e0457600080fd5b80356001600160c01b038116811461341d57600080fd5b60006020828403121561368a57600080fd5b612e0482613661565b6000602082840312156136a557600080fd5b8135612e04816133fd565b600080604083850312156136c357600080fd5b82356136ce816133fd565b91506136dc60208401613661565b90509250929050565b600080604083850312156136f857600080fd5b8235613703816133fd565b946020939093013593505050565b6000610120828403121561372457600080fd5b50919050565b60006020828403121561373c57600080fd5b81356001600160401b0381111561375257600080fd5b61084684828501613711565b60008083601f84011261377057600080fd5b5081356001600160401b0381111561378757600080fd5b6020830191508360208260051b850101111561354557600080fd5b6000806000604084860312156137b757600080fd5b83356001600160401b038111156137cd57600080fd5b6137d98682870161375e565b90945092505060208401356137ed816133fd565b809150509250925092565b60008060006040848603121561380d57600080fd5b8335613818816133fd565b925060208401356001600160401b0381111561383357600080fd5b61383f86828701613504565b9497909650939450505050565b60008060008060006060868803121561386457600080fd5b85356001600160401b038082111561387b57600080fd5b61388789838a01613504565b90975095506020880135915061389c826133fd565b909350604087013590808211156138b257600080fd5b506138bf88828901613504565b969995985093965092949392505050565b600080600080606085870312156138e657600080fd5b84356001600160401b03808211156138fd57600080fd5b61390988838901613711565b95506020870135915061391b826133fd565b909350604086013590808211156135f857600080fd5b60005b8381101561394c578181015183820152602001613934565b50506000910152565b6000815180845261396d816020860160208601613931565b601f01601f19169290920160200192915050565b60208152815160208201526020820151604082015260408201516060820152606082015160808201526080820151151560a0820152600060a083015160c08084015261084660e0840182613955565b600080602083850312156139e357600080fd5b82356001600160401b038111156139f957600080fd5b613a0585828601613504565b90969095509350505050565b602080825282516101408383015280516101608401529081015161018083015260408101516101a083015260608101516101c08301526080015160a06101e0830152600090613a64610200840182613955565b90506020840151613a82604085018280518252602090810151910152565b506040840151805160808581019190915260209182015160a08601526060860151805160c087015282015160e086015285015180516001600160a01b031661010086015280820151805161012087015290910151610140850152509392505050565b634e487b7160e01b600052601260045260246000fd5b634e487b7160e01b600052601160045260246000fd5b818103818111156108d0576108d0613afa565b8281526040602082015260006108466040830184613955565b808201808211156108d0576108d0613afa565b600060018201613b6157613b61613afa565b5060010190565b634e487b7160e01b600052603260045260246000fd5b6000823561011e19833603018112613b9557600080fd5b9190910192915050565b8183823760009101908152919050565b82151581526040602082015260006108466040830184613955565b60008085851115613bda57600080fd5b83861115613be757600080fd5b5050820193919092039150565b6bffffffffffffffffffffffff198135818116916014851015613c215780818660140360031b1b83161692505b505092915050565b81835281816020850137506000828201602090810191909152601f909101601f19169091010190565b602081526000610846602083018486613c29565b600060208284031215613c7857600080fd5b8151612e04816133fd565b65ffffffffffff818116838216019080821115613ca257613ca2613afa565b5092915050565b6000808335601e19843603018112613cc057600080fd5b8301803591506001600160401b03821115613cda57600080fd5b60200191503681900382131561354557600080fd5b60008235605e19833603018112613b9557600080fd5b6000808335601e19843603018112613d1c57600080fd5b8301803591506001600160401b03821115613d3657600080fd5b6020019150600581901b360382131561354557600080fd5b6000808335601e19843603018112613d6557600080fd5b83016020810192503590506001600160401b03811115613d8457600080fd5b80360382131561354557600080fd5b6000610120613db284613da585613412565b6001600160a01b03169052565b60208301356020850152613dc96040840184613d4e565b826040870152613ddc8387018284613c29565b92505050613ded6060840184613d4e565b8583036060870152613e00838284613c29565b925050506080830135608085015260a083013560a085015260c083013560c0850152613e2f60e0840184613d4e565b85830360e0870152613e42838284613c29565b92505050610100613e5581850185613d4e565b86840383880152613e67848284613c29565b979650505050505050565b6040808252810184905260006060600586901b830181019083018783805b89811015613ed857868503605f190184528235368c900361011e19018112613eb6578283fd5b613ec2868d8301613d93565b9550506020938401939290920191600101613e90565b505050508281036020840152613e67818587613c29565b634e487b7160e01b600052602160045260246000fd5b600060038610613f2557634e487b7160e01b600052602160045260246000fd5b85825260806020830152613f3c6080830186613955565b6040830194909452506060015292915050565b602081526000612e046020830184613955565b604081526000613f756040830185613d93565b90508260208301529392505050565b805180516001600160a01b031683526020810151602084015260408101516040840152606081015160608401526080810151608084015260a081015160a084015260c081015160c084015260e0810151613fe960e08501826001600160a01b03169052565b5061010081810151908401526101209081015190830152602081015161014083015260408101516101608301526060810151610180830152608001516101a090910152565b600061020080835261404281840187613955565b90506140516020840186613f84565b8281036101e08401526140648185613955565b9695505050505050565b60006102008083526140838184018789613c29565b90506140926020840186613f84565b8281036101e0840152613e678185613955565b6060815260006140b9606083018789613c29565b6001600160a01b038616602084015282810360408401526140db818587613c29565b98975050505050505050565b600060033d11156141005760046000803e5060005160e01c5b90565b600060443d10156141115790565b6040516003193d81016004833e81513d6001600160401b03816024840111818411171561414057505050505090565b82850191508151818111156141585750505050505090565b843d87010160208285010111156141725750505050505090565b61418160208286010187613381565b509095945050505050565b60608152600061419f6060830186613d93565b60208301949094525060400152919050565b6000602082840312156141c357600080fd5b5051919050565b82815260606020820152600d60608201526c10504c8cc81c995d995c9d1959609a1b608082015260a06040820152600061084660a0830184613955565b6000806040838503121561421a57600080fd5b82516001600160401b0381111561423057600080fd5b8301601f8101851361424157600080fd5b805161424c816133d6565b6040516142598282613381565b82815287602084860101111561426e57600080fd5b61427f836020830160208701613931565b6020969096015195979596505050505050565b82815260606020820152600d60608201526c10504cccc81c995d995c9d1959609a1b608082015260a06040820152600061084660a0830184613955565b6fffffffffffffffffffffffffffffffff198135818116916010851015613c215760109490940360031b84901b169092169291505056fea264697066735822122095c9dbd43955717f0eac008d8e672882db5e8e506f5598932e6f044c978a971064736f6c634300081900336080604052348015600f57600080fd5b506101f38061001f6000396000f3fe608060405234801561001057600080fd5b506004361061002b5760003560e01c8063570e1a3614610030575b600080fd5b61004361003e3660046100ec565b61005f565b6040516001600160a01b03909116815260200160405180910390f35b60008061006f601482858761015e565b61007891610188565b60601c9050600061008c846014818861015e565b8080601f016020809104026020016040519081016040528093929190818152602001838380828437600092018290525084519495509360209350849250905082850182875af190506000519350806100e357600093505b50505092915050565b600080602083850312156100ff57600080fd5b823567ffffffffffffffff8082111561011757600080fd5b818501915085601f83011261012b57600080fd5b81358181111561013a57600080fd5b86602082850101111561014c57600080fd5b60209290920196919550909350505050565b6000808585111561016e57600080fd5b8386111561017b57600080fd5b5050820193919092039150565b6bffffffffffffffffffffffff1981358181169160148510156101b55780818660140360031b1b83161692505b50509291505056fea264697066735822122025223d84eccf2243a365ad7a816cc8e3a747cde4bf7fcc0d5df6c0b381fa1a4764736f6c63430008190033","linkReferences":{}},"methodIdentifiers":{"_validateSenderAndPaymaster(bytes,address,bytes)":"957122ab","addStake(uint32)":"0396cb60","balanceOf(address)":"70a08231","delegateAndRevert(address,bytes)":"850aaf62","depositTo(address)":"b760faf9","deposits(address)":"fc7e286d","getDepositInfo(address)":"5287ce12","getGasConsumed(address,uint256)":"ee5a97c8","getNonce(address,uint192)":"35567e1a","getSenderAddress(bytes)":"9b249f69","getUserOpHash((address,uint256,bytes,bytes,bytes32,uint256,bytes32,bytes,bytes))":"22cdde4c","handleAggregatedOps(((address,uint256,bytes,bytes,bytes32,uint256,bytes32,bytes,bytes)[],address,bytes)[],address)":"dbed18e0","handleOps((address,uint256,bytes,bytes,bytes32,uint256,bytes32,bytes,bytes)[],address)":"765e827f","incrementNonce(uint192)":"0bd28e3b","init(address)":"19ab453c","innerHandleOp(bytes,((address,uint256,uint256,uint256,uint256,uint256,uint256,address,uint256,uint256),bytes32,uint256,uint256,uint256),bytes)":"0042dc53","nonceSequenceNumber(address,uint192)":"1b2e01b8","simulateHandleOp((address,uint256,bytes,bytes,bytes32,uint256,bytes32,bytes,bytes),address,bytes)":"97b2dcb9","simulateValidation((address,uint256,bytes,bytes,bytes32,uint256,bytes32,bytes,bytes))":"c3bce009","supportsInterface(bytes4)":"01ffc9a7","unlockStake()":"bb9fe6bf","withdrawStake(address)":"c23a5cea","withdrawTo(address,uint256)":"205c2878"},"id":65}