{"abi":[{"type":"function","name":"addOrder","inputs":[{"name":"executionConfig","type":"tuple","internalType":"struct SchedulingBase.ExecutionConfig","components":[{"name":"executeInterval","type":"uint48","internalType":"uint48"},{"name":"numberOfExecutions","type":"uint16","internalType":"uint16"},{"name":"numberOfExecutionsCompleted","type":"uint16","internalType":"uint16"},{"name":"startDate","type":"uint48","internalType":"uint48"},{"name":"isEnabled","type":"bool","internalType":"bool"},{"name":"lastExecutionTime","type":"uint48","internalType":"uint48"},{"name":"executionData","type":"bytes","internalType":"bytes"}]}],"outputs":[],"stateMutability":"nonpayable"},{"type":"function","name":"executeOrder","inputs":[{"name":"jobId","type":"uint256","internalType":"uint256"}],"outputs":[],"stateMutability":"nonpayable"},{"type":"function","name":"getAccountJobCount","inputs":[{"name":"smartAccount","type":"address","internalType":"address"}],"outputs":[{"name":"","type":"uint256","internalType":"uint256"}],"stateMutability":"view"},{"type":"function","name":"getAccountJobDetails","inputs":[{"name":"smartAccount","type":"address","internalType":"address"},{"name":"jobId","type":"uint256","internalType":"uint256"}],"outputs":[{"name":"","type":"tuple","internalType":"struct SchedulingBase.ExecutionConfig","components":[{"name":"executeInterval","type":"uint48","internalType":"uint48"},{"name":"numberOfExecutions","type":"uint16","internalType":"uint16"},{"name":"numberOfExecutionsCompleted","type":"uint16","internalType":"uint16"},{"name":"startDate","type":"uint48","internalType":"uint48"},{"name":"isEnabled","type":"bool","internalType":"bool"},{"name":"lastExecutionTime","type":"uint48","internalType":"uint48"},{"name":"executionData","type":"bytes","internalType":"bytes"}]}],"stateMutability":"view"},{"type":"function","name":"isInitialized","inputs":[{"name":"smartAccount","type":"address","internalType":"address"}],"outputs":[{"name":"","type":"bool","internalType":"bool"}],"stateMutability":"view"},{"type":"function","name":"isModuleType","inputs":[{"name":"typeID","type":"uint256","internalType":"uint256"}],"outputs":[{"name":"","type":"bool","internalType":"bool"}],"stateMutability":"pure"},{"type":"function","name":"name","inputs":[],"outputs":[{"name":"","type":"string","internalType":"string"}],"stateMutability":"pure"},{"type":"function","name":"onInstall","inputs":[{"name":"data","type":"bytes","internalType":"bytes"}],"outputs":[],"stateMutability":"nonpayable"},{"type":"function","name":"onUninstall","inputs":[{"name":"","type":"bytes","internalType":"bytes"}],"outputs":[],"stateMutability":"nonpayable"},{"type":"function","name":"toggleOrder","inputs":[{"name":"jobId","type":"uint256","internalType":"uint256"}],"outputs":[],"stateMutability":"nonpayable"},{"type":"function","name":"validateSessionParams","inputs":[{"name":"destinationContract","type":"address","internalType":"address"},{"name":"callValue","type":"uint256","internalType":"uint256"},{"name":"callData","type":"bytes","internalType":"bytes"},{"name":"_sessionKeyData","type":"bytes","internalType":"bytes"},{"name":"","type":"bytes","internalType":"bytes"}],"outputs":[{"name":"","type":"address","internalType":"address"}],"stateMutability":"view"},{"type":"function","name":"version","inputs":[],"outputs":[{"name":"","type":"string","internalType":"string"}],"stateMutability":"pure"},{"type":"event","name":"ExecutionAdded","inputs":[{"name":"smartAccount","type":"address","indexed":true,"internalType":"address"},{"name":"jobId","type":"uint256","indexed":true,"internalType":"uint256"}],"anonymous":false},{"type":"event","name":"ExecutionStatusUpdated","inputs":[{"name":"smartAccount","type":"address","indexed":true,"internalType":"address"},{"name":"jobId","type":"uint256","indexed":true,"internalType":"uint256"}],"anonymous":false},{"type":"event","name":"ExecutionTriggered","inputs":[{"name":"smartAccount","type":"address","indexed":true,"internalType":"address"},{"name":"jobId","type":"uint256","indexed":true,"internalType":"uint256"}],"anonymous":false},{"type":"event","name":"ExecutionsCancelled","inputs":[{"name":"smartAccount","type":"address","indexed":true,"internalType":"address"}],"anonymous":false},{"type":"error","name":"AlreadyInitialized","inputs":[{"name":"smartAccount","type":"address","internalType":"address"}]},{"type":"error","name":"InvalidExecution","inputs":[]},{"type":"error","name":"InvalidInstall","inputs":[]},{"type":"error","name":"InvalidJob","inputs":[]},{"type":"error","name":"NotInitialized","inputs":[{"name":"smartAccount","type":"address","internalType":"address"}]}],"bytecode":{"object":"0x6080604052348015600f57600080fd5b5061192d8061001f6000396000f3fe608060405234801561001057600080fd5b50600436106100b45760003560e01c80638805cbd2116100715780638805cbd2146101975780638a91b0e3146101aa57806394f61134146101bd578063c20bccb9146101d0578063d60b347f146101fb578063ecd059611461023657600080fd5b806306fdde03146100b957806316d7543c146100f75780632c200f381461012e57806354fd4d501461014357806362060401146101645780636d61fe7014610184575b600080fd5b60408051808201909152601081526f5363686564756c6564204f726465727360801b60208201525b6040516100ee9190610fe6565b60405180910390f35b610120610105366004611015565b6001600160a01b031660009081526001602052604090205490565b6040519081526020016100ee565b61014161013c366004611032565b61024a565b005b604080518082019091526005815264302e302e3160d81b60208201526100e1565b61017761017236600461106d565b610256565b6040516100ee9190611099565b61014161019236600461116a565b6103bc565b6101416101a53660046111ac565b610590565b6101416101b836600461116a565b6105f6565b6101416101cb3660046111ac565b610699565b6101e36101de3660046111c5565b610894565b6040516001600160a01b0390911681526020016100ee565b610226610209366004611015565b6001600160a01b0316600090815260016020526040902054151590565b60405190151581526020016100ee565b6102266102443660046111ac565b60021490565b6102538161094e565b50565b6040805160e08101825260008082526020820181905291810182905260608082018390526080820183905260a082019290925260c08101919091526001600160a01b038316600090815260208181526040808320858452825291829020825160e081018452815465ffffffffffff808216835261ffff600160301b8304811695840195909552600160401b820490941694820194909452600160501b84048316606082015260ff600160801b85041615156080820152600160881b90930490911660a083015260018101805460c0840191906103319061127b565b80601f016020809104026020016040519081016040528092919081815260200182805461035d9061127b565b80156103aa5780601f1061037f576101008083540402835291602001916103aa565b820191906000526020600020905b81548152906001019060200180831161038d57829003601f168201915b50505050508152505090505b92915050565b33600090815260016020526040902054156103ea576040516309f50fe960e11b815260040160405180910390fd5b60008080806103fb85870187611351565b33600090815260016020819052604082205495995093975091955093509161042291611419565b3360009081526001602052604081208054929350906104408361142c565b90915550506040805160e08101825265ffffffffffff808816825261ffff808816602080850191825260008587018181528a86166060880190815260016080890181815260a08a0185815260c08b018e81523387528688528c87208e88529097529a9094208951815497519451935195519b518a16600160881b0265ffffffffffff60881b199c1515600160801b029c909c1666ffffffffffffff60801b19968b16600160501b0265ffffffffffff60501b19958b16600160401b029590951667ffffffffffffffff60401b1996909a16600160301b0267ffffffffffffffff1990991691909a16179690961792909216959095179490941716939093179490941784559051919291908201906105579082611496565b505060405182915033907fa0040a18a6bc952417eda9c747097db88239fa30568c9c41a762001bbd2328e790600090a350505050505050565b33600081815260208181526040808320858452909152808220805460ff60801b198116600160801b9182900460ff161590910217815590519092849290917f4e18125ae9768c1a406b877d8836a624ebaa0a04994069ebfd8436c18b2f082f9190a35050565b33600090815260016020819052604090912054905b81811161065b5733600090815260208181526040808320848452909152812080546001600160b81b0319168155906106466001830182610f19565b505080806106539061142c565b91505061060b565b5033600081815260016020526040808220829055517fd36f1e173abc6614f68eb2f836abf163f8f5acfcc26756e20be3c703488ed1229190a2505050565b806106a381610b58565b336000908152602081815260408083208584529091528120600181018054919291829182918291906106d49061127b565b80601f01602080910402602001604051908101604052809291908181526020018280546107009061127b565b801561074d5780601f106107225761010080835404028352916020019161074d565b820191906000526020600020905b81548152906001019060200180831161073057829003601f168201915b50505050508060200190518101906107659190611556565b9350935093509350600061077c3386868686610c4b565b865465ffffffffffff60881b1916600160881b4265ffffffffffff16021780885590915060019087906008906107be908490600160401b900461ffff166115ab565b92506101000a81548161ffff021916908361ffff160217905550336001600160a01b031663d691c9646107ef610cef565b6107f884610d06565b6040518363ffffffff1660e01b81526004016108159291906115cd565b6000604051808303816000875af1158015610834573d6000803e3d6000fd5b505050506040513d6000823e601f3d908101601f1916820160405261085c91908101906115e6565b50604051889033907fb96859dbec9de56526b77118cd2561f267d2f5f96f666f54946532170fe3be4490600090a35050505050505050565b6000806108a3858701876116e5565b905060006108b46004828a8c61173d565b6108bd91611767565b905060006108ce896004818d61173d565b8101906108db91906111ac565b90506001600160e01b0319821663253d844d60e21b146108fa57600080fd5b8260200151811461091e5760405163038e47a360e51b815260040160405180910390fd5b6001600160a01b038c16301461093357600080fd5b8a1561093e57600080fd5b5050519998505050505050505050565b33600090815260016020819052604082205461096991611419565b3360009081526001602052604081208054929350906109878361142c565b90915550506040805160e08101909152806109a56020850185611797565b65ffffffffffff1681526020018360200160208101906109c591906117b2565b61ffff168152600060208201526040016109e56080850160608601611797565b65ffffffffffff1681526001602082015260006040820152606001610a0d60c08501856117cd565b8080601f0160208091040260200160405190810160405280939291908181526020018383808284376000920182905250939094525050338152602081815260408083208684528252918290208451815492860151938601516060870151608088015160a089015165ffffffffffff94851667ffffffffffffffff1990971696909617600160301b61ffff988916021767ffffffffffffffff60401b1916600160401b979093169690960265ffffffffffff60501b191691909117600160501b918316919091021766ffffffffffffff60801b1916600160801b9415159490940265ffffffffffff60881b191693909317600160881b939092169290920217815560c08301519091506001820190610b249082611496565b505060405182915033907fa0040a18a6bc952417eda9c747097db88239fa30568c9c41a762001bbd2328e790600090a35050565b3360009081526020818152604080832084845290915290208054600160801b900460ff16610b99576040516329adbb2960e01b815260040160405180910390fd5b80544290610bb99065ffffffffffff80821691600160881b900416611814565b65ffffffffffff161015610be0576040516329adbb2960e01b815260040160405180910390fd5b805461ffff600160301b82048116600160401b9092041610610c15576040516329adbb2960e01b815260040160405180910390fd5b805442600160501b90910465ffffffffffff161115610c47576040516329adbb2960e01b815260040160405180910390fd5b5050565b6040805160028082526060828101909352816020015b610c69610f53565b815260200190600190039081610c61579050509050610c9d8573e592427a0aece92de3edee1f18e0157c0586156485610d2f565b81600081518110610cb057610cb0611833565b6020026020010181905250610cc88686868686610da2565b81600181518110610cdb57610cdb611833565b602002602001018190525095945050505050565b6000610d01600160f81b828080610eae565b905090565b606081604051602001610d199190611849565b6040516020818303038152906040529050919050565b610d37610f53565b604080516060810182526001600160a01b038087168252600060208301528251908616602482015260448101859052909182019060640160408051601f198184030181529190526020810180516001600160e01b031663095ea7b360e01b1790529052949350505050565b610daa610f53565b604080516060808201835273e592427a0aece92de3edee1f18e0157c058615648252600060208084018290528451610100810186526001600160a01b038b81168083528b8216938301938452610bb88389019081528e8316968401968752426080850190815260a085018d815260c086019788528c851660e09096019586528a516024810194909452955184166044840152905162ffffff166064830152955182166084820152945160a4860152915160c4850152915160e484015290511661010482015290918201906101240160408051601f198184030181529190526020810180516001600160e01b031663414bf38960e01b17905290529695505050505050565b604080516001600160f81b03198087166020830152851660218201526000602282018190526001600160e01b03198516602683015269ffffffffffffffffffff198416602a8301529101604051602081830303815290604052610f10906118d3565b95945050505050565b508054610f259061127b565b6000825580601f10610f35575050565b601f0160209004906000526020600020908101906102539190610f7d565b604051806060016040528060006001600160a01b0316815260200160008152602001606081525090565b5b80821115610f925760008155600101610f7e565b5090565b60005b83811015610fb1578181015183820152602001610f99565b50506000910152565b60008151808452610fd2816020860160208601610f96565b601f01601f19169290920160200192915050565b602081526000610ff96020830184610fba565b9392505050565b6001600160a01b038116811461025357600080fd5b60006020828403121561102757600080fd5b8135610ff981611000565b60006020828403121561104457600080fd5b813567ffffffffffffffff81111561105b57600080fd5b820160e08185031215610ff957600080fd5b6000806040838503121561108057600080fd5b823561108b81611000565b946020939093013593505050565b60208152600065ffffffffffff808451166020840152602084015161ffff80821660408601528060408701511660608601525050806060850151166080840152506080830151151560a083015260a08301516110ff60c084018265ffffffffffff169052565b5060c083015160e080840152611119610100840182610fba565b949350505050565b60008083601f84011261113357600080fd5b50813567ffffffffffffffff81111561114b57600080fd5b60208301915083602082850101111561116357600080fd5b9250929050565b6000806020838503121561117d57600080fd5b823567ffffffffffffffff81111561119457600080fd5b6111a085828601611121565b90969095509350505050565b6000602082840312156111be57600080fd5b5035919050565b60008060008060008060008060a0898b0312156111e157600080fd5b88356111ec81611000565b975060208901359650604089013567ffffffffffffffff8082111561121057600080fd5b61121c8c838d01611121565b909850965060608b013591508082111561123557600080fd5b6112418c838d01611121565b909650945060808b013591508082111561125a57600080fd5b506112678b828c01611121565b999c989b5096995094979396929594505050565b600181811c9082168061128f57607f821691505b6020821081036112af57634e487b7160e01b600052602260045260246000fd5b50919050565b803565ffffffffffff811681146112cb57600080fd5b919050565b803561ffff811681146112cb57600080fd5b634e487b7160e01b600052604160045260246000fd5b604051601f8201601f1916810167ffffffffffffffff81118282101715611321576113216112e2565b604052919050565b600067ffffffffffffffff821115611343576113436112e2565b50601f01601f191660200190565b6000806000806080858703121561136757600080fd5b611370856112b5565b935061137e602086016112d0565b925061138c604086016112b5565b9150606085013567ffffffffffffffff8111156113a857600080fd5b8501601f810187136113b957600080fd5b80356113cc6113c782611329565b6112f8565b8181528860208385010111156113e157600080fd5b8160208401602083013760006020838301015280935050505092959194509250565b634e487b7160e01b600052601160045260246000fd5b808201808211156103b6576103b6611403565b60006001820161143e5761143e611403565b5060010190565b601f821115611491576000816000526020600020601f850160051c8101602086101561146e5750805b601f850160051c820191505b8181101561148d5782815560010161147a565b5050505b505050565b815167ffffffffffffffff8111156114b0576114b06112e2565b6114c4816114be845461127b565b84611445565b602080601f8311600181146114f957600084156114e15750858301515b600019600386901b1c1916600185901b17855561148d565b600085815260208120601f198616915b8281101561152857888601518255948401946001909101908401611509565b50858210156115465787850151600019600388901b60f8161c191681555b5050505050600190811b01905550565b6000806000806080858703121561156c57600080fd5b845161157781611000565b602086015190945061158881611000565b6040860151606087015191945092506115a081611000565b939692955090935050565b61ffff8181168382160190808211156115c6576115c6611403565b5092915050565b8281526040602082015260006111196040830184610fba565b600060208083850312156115f957600080fd5b825167ffffffffffffffff8082111561161157600080fd5b818501915085601f83011261162557600080fd5b815181811115611637576116376112e2565b8060051b6116468582016112f8565b918252838101850191858101908984111561166057600080fd5b86860192505b838310156116d85782518581111561167e5760008081fd5b8601603f81018b136116905760008081fd5b8781015160406116a26113c783611329565b8281528d828486010111156116b75760008081fd5b6116c6838c8301848701610f96565b85525050509186019190860190611666565b9998505050505050505050565b6000604082840312156116f757600080fd5b6040516040810181811067ffffffffffffffff8211171561171a5761171a6112e2565b604052823561172881611000565b81526020928301359281019290925250919050565b6000808585111561174d57600080fd5b8386111561175a57600080fd5b5050820193919092039150565b6001600160e01b0319813581811691600485101561178f5780818660040360031b1b83161692505b505092915050565b6000602082840312156117a957600080fd5b610ff9826112b5565b6000602082840312156117c457600080fd5b610ff9826112d0565b6000808335601e198436030181126117e457600080fd5b83018035915067ffffffffffffffff8211156117ff57600080fd5b60200191503681900382131561116357600080fd5b65ffffffffffff8181168382160190808211156115c6576115c6611403565b634e487b7160e01b600052603260045260246000fd5b600060208083018184528085518083526040925060408601915060408160051b87010184880160005b838110156118c557888303603f19018552815180516001600160a01b03168452878101518885015286015160608785018190526118b181860183610fba565b968901969450505090860190600101611872565b509098975050505050505050565b805160208083015191908110156112af5760001960209190910360031b1b1691905056fea26469706673582212203d1a7253ee0d2309ebb558c2c0b1d43c86a9656f79ba48c0cdacb6c87055b8f264736f6c63430008190033","linkReferences":{}},"methodIdentifiers":{"addOrder((uint48,uint16,uint16,uint48,bool,uint48,bytes))":"2c200f38","executeOrder(uint256)":"94f61134","getAccountJobCount(address)":"16d7543c","getAccountJobDetails(address,uint256)":"62060401","isInitialized(address)":"d60b347f","isModuleType(uint256)":"ecd05961","name()":"06fdde03","onInstall(bytes)":"6d61fe70","onUninstall(bytes)":"8a91b0e3","toggleOrder(uint256)":"8805cbd2","validateSessionParams(address,uint256,bytes,bytes,bytes)":"c20bccb9","version()":"54fd4d50"},"id":17}