{"abi":[{"type":"constructor","inputs":[],"stateMutability":"nonpayable"},{"type":"function","name":"uniswap","inputs":[],"outputs":[{"name":"","type":"address","internalType":"contract ISwapRouter"}],"stateMutability":"view"}],"bytecode":{"object":"0x608060405234801561001057600080fd5b50600060405161001f9061011c565b604051809103906000f08015801561003b573d6000803e3d6000fd5b50905061008173e592427a0aece92de3edee1f18e0157c05861564826001600160a01b0316803b806020016040519081016040528181526000908060200190933c6100ad565b50600080546001600160a01b03191673e592427a0aece92de3edee1f18e0157c05861564179055610188565b604051635a6b63c160e11b8152737109709ecfa91a80626ff3989d68f67f5b1dd12d9063b4d6c782906100e69085908590600401610129565b600060405180830381600087803b15801561010057600080fd5b505af1158015610114573d6000803e3d6000fd5b505050505050565b61020f8061022783390190565b60018060a01b03831681526000602060406020840152835180604085015260005b818110156101665785810183015185820160600152820161014a565b506000606082860101526060601f19601f830116850101925050509392505050565b6091806101966000396000f3fe6080604052348015600f57600080fd5b506004361060285760003560e01c80632681f7e414602d575b600080fd5b600054603f906001600160a01b031681565b6040516001600160a01b03909116815260200160405180910390f3fea26469706673582212206794e58800ab251da188193b845f6d4065d61c1f2b8f33a702b17fa2966e2dab64736f6c634300081900336080604052348015600f57600080fd5b506101f08061001f6000396000f3fe60806040526004361061004a5760003560e01c8063414bf3891461004f578063c04b8d5914610076578063db3e21981461004f578063f28c049814610076578063fa461e331461008b575b600080fd5b61006461005d3660046100c7565b60a0013590565b60405190815260200160405180910390f35b6100646100843660046100fd565b6060013590565b34801561009757600080fd5b506100ac6100a636600461013a565b50505050565b005b600061010082840312156100c157600080fd5b50919050565b600061010082840312156100da57600080fd5b6100e483836100ae565b9392505050565b600060a082840312156100c157600080fd5b60006020828403121561010f57600080fd5b813567ffffffffffffffff81111561012657600080fd5b610132848285016100eb565b949350505050565b6000806000806060858703121561015057600080fd5b8435935060208501359250604085013567ffffffffffffffff8082111561017657600080fd5b818701915087601f83011261018a57600080fd5b81358181111561019957600080fd5b8860208285010111156101ab57600080fd5b9598949750506020019450505056fea26469706673582212202dff756171993b6a3bb0cbe11c87f55e5adb27f4169e723b06269456d51dce3364736f6c63430008190033","linkReferences":{}},"methodIdentifiers":{"uniswap()":"2681f7e4"},"id":66}