{"abi":[{"type":"function","name":"isInitialized","inputs":[{"name":"smartAccount","type":"address","internalType":"address"}],"outputs":[{"name":"","type":"bool","internalType":"bool"}],"stateMutability":"view"},{"type":"function","name":"isModuleType","inputs":[{"name":"typeID","type":"uint256","internalType":"uint256"}],"outputs":[{"name":"","type":"bool","internalType":"bool"}],"stateMutability":"view"},{"type":"function","name":"onInstall","inputs":[{"name":"data","type":"bytes","internalType":"bytes"}],"outputs":[],"stateMutability":"nonpayable"},{"type":"function","name":"onUninstall","inputs":[{"name":"data","type":"bytes","internalType":"bytes"}],"outputs":[],"stateMutability":"nonpayable"},{"type":"function","name":"targetFunction","inputs":[],"outputs":[{"name":"","type":"bool","internalType":"bool"}],"stateMutability":"nonpayable"},{"type":"error","name":"AlreadyInitialized","inputs":[{"name":"smartAccount","type":"address","internalType":"address"}]},{"type":"error","name":"NotInitialized","inputs":[{"name":"smartAccount","type":"address","internalType":"address"}]}],"bytecode":{"object":"0x6080604052348015600f57600080fd5b506101a08061001f6000396000f3fe608060405234801561001057600080fd5b50600436106100575760003560e01c80636d61fe701461005c5780638a91b0e31461005c578063a341a91b14610070578063d60b347f14610087578063ecd059611461009b575b600080fd5b61006e61006a3660046100af565b5050565b005b60015b604051901515815260200160405180910390f35b610073610095366004610121565b50600090565b6100736100a9366004610151565b60031490565b600080602083850312156100c257600080fd5b823567ffffffffffffffff808211156100da57600080fd5b818501915085601f8301126100ee57600080fd5b8135818111156100fd57600080fd5b86602082850101111561010f57600080fd5b60209290920196919550909350505050565b60006020828403121561013357600080fd5b81356001600160a01b038116811461014a57600080fd5b9392505050565b60006020828403121561016357600080fd5b503591905056fea26469706673582212200a18d245fd07bc61a8e3c467fd529c26f21edfc5fb6d77d15ea399441b4b989264736f6c63430008190033","linkReferences":{}},"methodIdentifiers":{"isInitialized(address)":"d60b347f","isModuleType(uint256)":"ecd05961","onInstall(bytes)":"6d61fe70","onUninstall(bytes)":"8a91b0e3","targetFunction()":"a341a91b"},"id":7}