{"abi":[{"type":"function","name":"handle","inputs":[{"name":"account","type":"address","internalType":"address"},{"name":"sender","type":"address","internalType":"address"},{"name":"value","type":"uint256","internalType":"uint256"},{"name":"data","type":"bytes","internalType":"bytes"}],"outputs":[{"name":"result","type":"bytes","internalType":"bytes"}],"stateMutability":"nonpayable"},{"type":"function","name":"isInitialized","inputs":[{"name":"smartAccount","type":"address","internalType":"address"}],"outputs":[{"name":"","type":"bool","internalType":"bool"}],"stateMutability":"view"},{"type":"function","name":"isModuleType","inputs":[{"name":"isType","type":"uint256","internalType":"uint256"}],"outputs":[{"name":"","type":"bool","internalType":"bool"}],"stateMutability":"pure"},{"type":"function","name":"name","inputs":[],"outputs":[{"name":"","type":"string","internalType":"string"}],"stateMutability":"pure"},{"type":"function","name":"nonce","inputs":[{"name":"account","type":"address","internalType":"address"}],"outputs":[{"name":"","type":"uint256","internalType":"uint256"}],"stateMutability":"view"},{"type":"function","name":"onInstall","inputs":[{"name":"data","type":"bytes","internalType":"bytes"}],"outputs":[],"stateMutability":"nonpayable"},{"type":"function","name":"onUninstall","inputs":[{"name":"data","type":"bytes","internalType":"bytes"}],"outputs":[],"stateMutability":"nonpayable"},{"type":"function","name":"version","inputs":[],"outputs":[{"name":"","type":"string","internalType":"string"}],"stateMutability":"pure"},{"type":"error","name":"AlreadyInitialized","inputs":[{"name":"smartAccount","type":"address","internalType":"address"}]},{"type":"error","name":"NotInitialized","inputs":[{"name":"smartAccount","type":"address","internalType":"address"}]}],"bytecode":{"object":"0x6080604052348015600f57600080fd5b50610c8d8061001f6000396000f3fe608060405234801561001057600080fd5b50600436106100885760003560e01c806370ae92d21161005b57806370ae92d2146101125780638a91b0e3146100fe578063d60b347f14610140578063ecd059611461016457600080fd5b806306fdde031461008d57806325d6803f146100ca57806354fd4d50146100dd5780636d61fe70146100fe575b600080fd5b60408051808201909152600f81526e233630b9b43637b0b72632b73232b960891b60208201525b6040516100c191906106a3565b60405180910390f35b6100b46100d8366004610717565b610178565b6040805180820190915260058152640312e302e360dc1b60208201526100b4565b61011061010c36600461078a565b5050565b005b6101326101203660046107cc565b60006020819052908152604090205481565b6040519081526020016100c1565b61015461014e3660046107cc565b50600090565b60405190151581526020016100c1565b6101546101723660046107e9565b60021490565b6060600482101561018857600080fd5b60006101976004828587610802565b6101a09161082c565b9050632e2cb75760e21b6001600160e01b031982160161020c576000806101ca8560048189610802565b8101906101d7919061085c565b915091506101e689838361031c565b604080519115156020830152015b60405160208183030381529060405293505050610311565b6309899cc760e21b6001600160e01b0319821601610258576000806102348560048189610802565b810190610241919061085c565b6040805160006020820152929450909250016101f4565b6307140d6960e21b6001600160e01b031982160161029d576000604080516001600160a01b039092166020830152016040516020818303038152906040529150610311565b6351800b1160e11b6001600160e01b03198216016103115760008080806102c7876004818b610802565b8101906102d491906108f7565b93509350935093506102e98b858585856103ac565b6040805191151560208301520160405160208183030381529060405295505050505050610313565b505b95945050505050565b6040516331a9108f60e11b8152600481018290526000906001600160a01b03841690636352211e90602401602060405180830381865afa925050508015610380575060408051601f3d908101601f1916820190925261037d918101906109a6565b60015b61038c575060006103a5565b846001600160a01b0316816001600160a01b0316149150505b9392505050565b600080828060200190518101906103c39190610a10565b50909150600190508160018111156103dd576103dd610a8b565b03610442576040516001600160a01b0380891660248301528716604482015260648101859052610440903390879060009060840160408051601f198184030181529190526020810180516001600160e01b03166323b872dd60e01b17905261050c565b505b60007f439148f0bbc682ca079e46d6e2c2f0c1e3b820f1a291b069d8882abf8cf18dd9876001600160a01b03166323e30c8b8a898960008a6040518663ffffffff1660e01b815260040161049a959493929190610aa1565b6020604051808303816000875af11580156104b9573d6000803e3d6000fd5b505050506040513d601f19601f820116820180604052508101906104dd9190610ae6565b149050806104ea57600080fd5b6104f588878761031c565b6104fe57600080fd5b506001979650505050505050565b6060600061051c818080806105c2565b9050856001600160a01b031663d691c96482610539888888610624565b6040518363ffffffff1660e01b8152600401610556929190610aff565b6000604051808303816000875af1158015610575573d6000803e3d6000fd5b505050506040513d6000823e601f3d908101601f1916820160405261059d9190810190610b18565b6000815181106105af576105af610bdb565b6020026020010151915050949350505050565b604080516001600160f81b03198087166020830152851660218201526000602282018190526001600160e01b03198516602683015269ffffffffffffffffffff198416602a830152910160405160208183030381529060405261031390610bf1565b606083838360405160200161063b93929190610c18565b60405160208183030381529060405290509392505050565b60005b8381101561066e578181015183820152602001610656565b50506000910152565b6000815180845261068f816020860160208601610653565b601f01601f19169290920160200192915050565b6020815260006103a56020830184610677565b6001600160a01b03811681146106cb57600080fd5b50565b60008083601f8401126106e057600080fd5b50813567ffffffffffffffff8111156106f857600080fd5b60208301915083602082850101111561071057600080fd5b9250929050565b60008060008060006080868803121561072f57600080fd5b853561073a816106b6565b9450602086013561074a816106b6565b935060408601359250606086013567ffffffffffffffff81111561076d57600080fd5b610779888289016106ce565b969995985093965092949392505050565b6000806020838503121561079d57600080fd5b823567ffffffffffffffff8111156107b457600080fd5b6107c0858286016106ce565b90969095509350505050565b6000602082840312156107de57600080fd5b81356103a5816106b6565b6000602082840312156107fb57600080fd5b5035919050565b6000808585111561081257600080fd5b8386111561081f57600080fd5b5050820193919092039150565b6001600160e01b031981358181169160048510156108545780818660040360031b1b83161692505b505092915050565b6000806040838503121561086f57600080fd5b823561087a816106b6565b946020939093013593505050565b634e487b7160e01b600052604160045260246000fd5b604051601f8201601f1916810167ffffffffffffffff811182821017156108c7576108c7610888565b604052919050565b600067ffffffffffffffff8211156108e9576108e9610888565b50601f01601f191660200190565b6000806000806080858703121561090d57600080fd5b8435610918816106b6565b93506020850135610928816106b6565b925060408501359150606085013567ffffffffffffffff81111561094b57600080fd5b8501601f8101871361095c57600080fd5b803561096f61096a826108cf565b61089e565b81815288602083850101111561098457600080fd5b8160208401602083013760006020838301015280935050505092959194509250565b6000602082840312156109b857600080fd5b81516103a5816106b6565b600082601f8301126109d457600080fd5b81516109e261096a826108cf565b8181528460208386010111156109f757600080fd5b610a08826020830160208701610653565b949350505050565b600080600060608486031215610a2557600080fd5b835160028110610a3457600080fd5b602085015190935067ffffffffffffffff80821115610a5257600080fd5b610a5e878388016109c3565b93506040860151915080821115610a7457600080fd5b50610a81868287016109c3565b9150509250925092565b634e487b7160e01b600052602160045260246000fd5b6001600160a01b03868116825285166020820152604081018490526060810183905260a060808201819052600090610adb90830184610677565b979650505050505050565b600060208284031215610af857600080fd5b5051919050565b828152604060208201526000610a086040830184610677565b60006020808385031215610b2b57600080fd5b825167ffffffffffffffff80821115610b4357600080fd5b818501915085601f830112610b5757600080fd5b815181811115610b6957610b69610888565b8060051b610b7885820161089e565b9182528381018501918581019089841115610b9257600080fd5b86860192505b83831015610bce57825185811115610bb05760008081fd5b610bbe8b89838a01016109c3565b8352509186019190860190610b98565b9998505050505050505050565b634e487b7160e01b600052603260045260246000fd5b80516020808301519190811015610c12576000198160200360031b1b821691505b50919050565b6bffffffffffffffffffffffff198460601b16815282601482015260008251610c48816034850160208701610653565b9190910160340194935050505056fea2646970667358221220957e05e2fc72ad6268c23863c713b5cbee6500e90cdac1ae918d33c701c2c2ca64736f6c63430008190033","linkReferences":{}},"methodIdentifiers":{"handle(address,address,uint256,bytes)":"25d6803f","isInitialized(address)":"d60b347f","isModuleType(uint256)":"ecd05961","name()":"06fdde03","nonce(address)":"70ae92d2","onInstall(bytes)":"6d61fe70","onUninstall(bytes)":"8a91b0e3","version()":"54fd4d50"},"id":9}