{"abi":[{"type":"function","name":"ecdsaFactorConfig","inputs":[{"name":"smartAccount","type":"address","internalType":"address"}],"outputs":[{"name":"signer","type":"address","internalType":"address"},{"name":"validAfter","type":"uint48","internalType":"uint48"},{"name":"validBefore","type":"uint48","internalType":"uint48"}],"stateMutability":"view"},{"type":"function","name":"getMultiFactorConfig","inputs":[{"name":"smartAccount","type":"address","internalType":"address"}],"outputs":[{"name":"","type":"tuple","internalType":"struct MultiFactor.MultiFactorConfig","components":[{"name":"threshold","type":"uint8","internalType":"uint8"},{"name":"subValidators","type":"address[]","internalType":"address[]"}]}],"stateMutability":"view"},{"type":"function","name":"isInitialized","inputs":[{"name":"smartAccount","type":"address","internalType":"address"}],"outputs":[{"name":"","type":"bool","internalType":"bool"}],"stateMutability":"view"},{"type":"function","name":"isModuleType","inputs":[{"name":"typeID","type":"uint256","internalType":"uint256"}],"outputs":[{"name":"","type":"bool","internalType":"bool"}],"stateMutability":"pure"},{"type":"function","name":"isValidSignatureWithSender","inputs":[{"name":"sender","type":"address","internalType":"address"},{"name":"hash","type":"bytes32","internalType":"bytes32"},{"name":"data","type":"bytes","internalType":"bytes"}],"outputs":[{"name":"","type":"bytes4","internalType":"bytes4"}],"stateMutability":"view"},{"type":"function","name":"name","inputs":[],"outputs":[{"name":"","type":"string","internalType":"string"}],"stateMutability":"pure"},{"type":"function","name":"onInstall","inputs":[{"name":"data","type":"bytes","internalType":"bytes"}],"outputs":[],"stateMutability":"nonpayable"},{"type":"function","name":"onUninstall","inputs":[{"name":"deInit","type":"bytes","internalType":"bytes"}],"outputs":[],"stateMutability":"nonpayable"},{"type":"function","name":"setConfig","inputs":[{"name":"subValidators","type":"address[]","internalType":"address[]"},{"name":"deInitDatas","type":"bytes[]","internalType":"bytes[]"},{"name":"initDatas","type":"bytes[]","internalType":"bytes[]"},{"name":"threshold","type":"uint8","internalType":"uint8"}],"outputs":[],"stateMutability":"nonpayable"},{"type":"function","name":"setECDSAFactor","inputs":[{"name":"config","type":"tuple","internalType":"struct ECDSAFactor.FactorConfig","components":[{"name":"signer","type":"address","internalType":"address"},{"name":"validAfter","type":"uint48","internalType":"uint48"},{"name":"validBefore","type":"uint48","internalType":"uint48"}]}],"outputs":[],"stateMutability":"nonpayable"},{"type":"function","name":"validateUserOp","inputs":[{"name":"userOp","type":"tuple","internalType":"struct PackedUserOperation","components":[{"name":"sender","type":"address","internalType":"address"},{"name":"nonce","type":"uint256","internalType":"uint256"},{"name":"initCode","type":"bytes","internalType":"bytes"},{"name":"callData","type":"bytes","internalType":"bytes"},{"name":"accountGasLimits","type":"bytes32","internalType":"bytes32"},{"name":"preVerificationGas","type":"uint256","internalType":"uint256"},{"name":"gasFees","type":"bytes32","internalType":"bytes32"},{"name":"paymasterAndData","type":"bytes","internalType":"bytes"},{"name":"signature","type":"bytes","internalType":"bytes"}]},{"name":"userOpHash","type":"bytes32","internalType":"bytes32"}],"outputs":[{"name":"","type":"uint256","internalType":"ERC7579ValidatorBase.ValidationData"}],"stateMutability":"nonpayable"},{"type":"function","name":"version","inputs":[],"outputs":[{"name":"","type":"string","internalType":"string"}],"stateMutability":"pure"},{"type":"error","name":"AlreadyInitialized","inputs":[{"name":"smartAccount","type":"address","internalType":"address"}]},{"type":"error","name":"InvalidParams","inputs":[]},{"type":"error","name":"InvalidParamsLength","inputs":[]},{"type":"error","name":"InvalidThreshold","inputs":[{"name":"length","type":"uint256","internalType":"uint256"},{"name":"threshold","type":"uint256","internalType":"uint256"}]},{"type":"error","name":"NotInitialized","inputs":[{"name":"smartAccount","type":"address","internalType":"address"}]},{"type":"error","name":"ValidatorIsAlreadyUsed","inputs":[{"name":"smartaccount","type":"address","internalType":"address"},{"name":"validator","type":"address","internalType":"address"}]}],"bytecode":{"object":"0x6080604052348015600f57600080fd5b506122748061001f6000396000f3fe608060405234801561001057600080fd5b50600436106100b45760003560e01c8063cb48e12611610071578063cb48e1261461016f578063d60b347f14610182578063de8cc37a146101b9578063e6f068b71461022b578063ecd059611461024b578063f551e2ee1461025e57600080fd5b806306fdde03146100b957806354fd4d50146100f25780636d61fe70146101135780638a91b0e314610128578063970032031461013b5780639b701f7a1461015c575b600080fd5b60408051808201909152600b81526a26bab63a34a330b1ba37b960a91b60208201525b6040516100e9919061169b565b60405180910390f35b604080518082019091526005815264302e302e3160d81b60208201526100dc565b6101266101213660046116fd565b61028a565b005b6101266101363660046116fd565b61031f565b61014e61014936600461184d565b6103d8565b6040519081526020016100e9565b61012661016a366004611a29565b6106f8565b61012661017d366004611b1f565b61070a565b6101a9610190366004611b37565b503360009081526001602052604090205460ff16151590565b60405190151581526020016100e9565b6101fd6101c7366004611b37565b6000602081905290815260409020546001600160a01b0381169065ffffffffffff600160a01b8204811691600160d01b90041683565b604080516001600160a01b03909416845265ffffffffffff92831660208501529116908201526060016100e9565b61023e610239366004611b37565b61072a565b6040516100e99190611b54565b6101a9610259366004611bad565b6107ce565b61027161026c366004611bc6565b6107f5565b6040516001600160e01b031990911681526020016100e9565b6000819003610297575050565b3360009081526001602052604090205460ff16156102f25760405162461bcd60e51b8152602060048201526013602482015272105b1c9958591e48125b9a5d1a585b1a5e9959606a1b60448201526064015b60405180910390fd5b600080808061030385870187611a29565b935093509350935061031784848484610aff565b505050505050565b606081156103365761033382840184611c21565b90505b33600081815260016020818152604092839020918201805484518184028101840190955280855292946103ab94909390928301828280156103a057602002820191906000526020600020905b81546001600160a01b03168152600190910190602001808311610382575b505050505084610d19565b60408051600081526020810191829052516103ca9160018401916115d1565b50805460ff19169055505050565b60008060008461010001518060200190518101906103f69190611d10565b86516001600160a01b031660009081526001602052604081208351939550919350909190816001600160401b038111156104325761043261173e565b60405190808252806020026020018201604052801561045b578160200160208202803683370190505b50905060005b8281101561054b5760005b82518110156104ff5782818151811061048757610487611dcb565b60200260200101518783815181106104a1576104a1611dcb565b602002602001015160016104b59190611de1565b036104f75760405162461bcd60e51b81526020600482015260126024820152711a5b99195e08185b1c9958591e481d5cd95960721b60448201526064016102e9565b60010161046c565b5085818151811061051257610512611dcb565b602002602001015160016105269190611de1565b82828151811061053857610538611dcb565b6020908102919091010152600101610461565b50825460ff1682108061055f575083518214155b15610572576001955050505050506106f2565b6000806000805b858110156106db576000876001018a838151811061059957610599611dcb565b6020026020010151815481106105b1576105b1611dcb565b60009182526020822001546001600160a01b031691503082036105f8576105f18d8b85815181106105e4576105e4611dcb565b6020026020010151610fa2565b905061068f565b89838151811061060a5761060a611dcb565b60200260200101518e6101000181905250816001600160a01b031663970032038f8f6040518363ffffffff1660e01b8152600401610649929190611e02565b6020604051808303816000875af1158015610668573d6000803e3d6000fd5b505050506040513d601f19601f8201168201806040525081019061068c9190611ed2565b90505b60018181161465ffffffffffff60a083901c1660d083901c888210156106b3578198505b878111156106bf578097505b82156106ca57600196505b505060019093019250610579915050565b506106e781848461105d565b985050505050505050505b92915050565b61070484848484610aff565b50505050565b33600090815260208190526040902081906107258282611eff565b505050565b6040805180820190915260008152606060208201526001600160a01b03821660009081526001602081815260409283902083518085018552815460ff168152928101805485518185028101850190965280865293949193858401938301828280156107be57602002820191906000526020600020905b81546001600160a01b031681526001909101906020018083116107a0575b5050505050815250509050919050565b6000600182036107e057506001919050565b600282036107f057506001919050565b919050565b6000808061080584860186611f79565b3360009081526001602052604081208351939550919350909190816001600160401b038111156108375761083761173e565b604051908082528060200260200182016040528015610860578160200160208202803683370190505b50905060005b828110156109505760005b82518110156109045782818151811061088c5761088c611dcb565b60200260200101518783815181106108a6576108a6611dcb565b602002602001015160016108ba9190611de1565b036108fc5760405162461bcd60e51b81526020600482015260126024820152711a5b99195e08185b1c9958591e481d5cd95960721b60448201526064016102e9565b600101610871565b5085818151811061091757610917611dcb565b6020026020010151600161092b9190611de1565b82828151811061093d5761093d611dcb565b6020908102919091010152600101610866565b50825460ff16821080610964575083518214155b1561097f57506001600160e01b03199450610af79350505050565b60005b82811015610ae6576000846001018783815181106109a2576109a2611dcb565b6020026020010151815481106109ba576109ba611dcb565b6000918252602090912001546001600160a01b03169050308103610a1c576109fb8b8784815181106109ee576109ee611dcb565b602002602001015161106a565b610a1757506001600160e01b03199650610af795505050505050565b610add565b6000816001600160a01b031663f551e2ee8e8e8a8781518110610a4157610a41611dcb565b60200260200101516040518463ffffffff1660e01b8152600401610a6793929190612027565b602060405180830381865afa158015610a84573d6000803e3d6000fd5b505050506040513d601f19601f82011682018060405250810190610aa8919061204e565b90506001600160e01b03198116630b135d3f60e11b14610adb57506001600160e01b03199750610af79650505050505050565b505b50600101610982565b50630b135d3f60e11b955050505050505b949350505050565b83516000816001600160401b03811115610b1b57610b1b61173e565b604051908082528060200260200182016040528015610b44578160200160208202803683370190505b50905060005b82811015610c3f5760005b8251811015610bf257828181518110610b7057610b70611dcb565b60200260200101516001600160a01b0316888381518110610b9357610b93611dcb565b60200260200101516001600160a01b031603610bea5760405162461bcd60e51b81526020600482015260166024820152751d985b1a59185d1bdc88185b1c9958591e481d5cd95960521b60448201526064016102e9565b600101610b55565b50868181518110610c0557610c05611dcb565b6020026020010151828281518110610c1f57610c1f611dcb565b6001600160a01b0390921660209283029190910190910152600101610b4a565b508260ff1682108015610c56575060028360ff1610155b15610c8057604051637b7a98f160e01b81526004810183905260ff841660248201526044016102e9565b83518214610ca157604051633e5431b160e21b815260040160405180910390fd5b84518214610cc257604051633e5431b160e21b815260040160405180910390fd5b610ccd338787610d19565b610cd8338786611104565b33600090815260016020818152604090922088519092610cfe92840191908a01906115d1565b50805460ff191660ff94909416939093179092555050505050565b80516000816001600160401b03811115610d3557610d3561173e565b604051908082528060200260200182016040528015610d8257816020015b60408051606080820183526000808352602083015291810191909152815260200190600190039081610d535790505b50905060005b82811015610f1d576000858281518110610da457610da4611dcb565b60200260200101519050306001600160a01b0316816001600160a01b031603610e5b576040805160608082018352600080835260208084018290528385018290528451928301855230835282015282519192909190820190610e0a908490602401612078565b60408051601f198184030181529190526020810180516001600160e01b03166365a4709360e11b17905290528451859085908110610e4a57610e4a611dcb565b602002602001018190525050610f14565b848281518110610e6d57610e6d611dcb565b602002602001015151600014610f14576040518060600160405280826001600160a01b0316815260200160008152602001868481518110610eb057610eb0611dcb565b6020026020010151604051602401610ec8919061169b565b60408051601f198184030181529190526020810180516001600160e01b0316638a91b0e360e01b17905290528351849084908110610f0857610f08611dcb565b60200260200101819052505b50600101610d88565b50846001600160a01b031663d691c964610f35611466565b610f3e8461147d565b6040518363ffffffff1660e01b8152600401610f5b9291906120b0565b6000604051808303816000875af1158015610f7a573d6000803e3d6000fd5b505050506040513d6000823e601f3d908101601f1916820160405261031791908101906120c9565b33600090815260208181526040808320815160608101835290546001600160a01b038116825265ffffffffffff600160a01b8204811694830194909452600160d01b90049092169082015281611026611020866020527b19457468657265756d205369676e6564204d6573736167653a0a3332600052603c60042090565b856114a6565b6001600160a01b031682600001516001600160a01b031614905061105481158360400151846020015161105d565b95945050505050565b6000610af7848484611537565b33600090815260208181526040808320815160608101835290546001600160a01b038116825265ffffffffffff600160a01b8204811694830194909452600160d01b9004909216908201526110ed6110e7856020527b19457468657265756d205369676e6564204d6573736167653a0a3332600052603c60042090565b846114a6565b90516001600160a01b039081169116149392505050565b81518151849190801590821480159061111a5750805b1561113857604051635435b28960e11b815260040160405180910390fd5b6000826001600160401b038111156111525761115261173e565b60405190808252806020026020018201604052801561119f57816020015b604080516060808201835260008083526020830152918101919091528152602001906001900390816111705790505b50905060005b838110156113d75760008782815181106111c1576111c1611dcb565b60200260200101519050306001600160a01b0316816001600160a01b031603611292576040518060600160405280306001600160a01b031681526020016000815260200188848151811061121757611217611dcb565b602002602001015180602001905181019061123291906120fd565b6040516024016112429190612078565b60408051601f198184030181529190526020810180516001600160e01b03166365a4709360e11b1790529052835184908490811061128257611282611dcb565b60200260200101819052506113ce565b60405163112d3a7d60e01b8152600160048201526001600160a01b038281166024830152606060448301526000606483015287169063112d3a7d90608401602060405180830381865afa1580156112ed573d6000803e3d6000fd5b505050506040513d601f19601f82011682018060405250810190611311919061216e565b6113ce5786828151811061132757611327611dcb565b6020026020010151516000146113ce576040518060600160405280826001600160a01b031681526020016000815260200188848151811061136a5761136a611dcb565b6020026020010151604051602401611382919061169b565b60408051601f198184030181529190526020810180516001600160e01b03166306d61fe760e41b179052905283518490849081106113c2576113c2611dcb565b60200260200101819052505b506001016111a5565b50836001600160a01b031663d691c9646113ef611466565b6113f88461147d565b6040518363ffffffff1660e01b81526004016114159291906120b0565b6000604051808303816000875af1158015611434573d6000803e3d6000fd5b505050506040513d6000823e601f3d908101601f1916820160405261145c91908101906120c9565b5050505050505050565b6000611478600160f81b82808061156f565b905090565b6060816040516020016114909190612190565b6040516020818303038152906040529050919050565b60405160019083600052602083015160405260408351036114e257604083015160ff81901c601b016020526001600160ff1b0316606052611508565b604183510361150357606083015160001a6020526040830151606052611508565b600091505b6020600160806000855afa5191503d61152957638baa579f6000526004601cfd5b600060605260405292915050565b600060d08265ffffffffffff16901b60a08465ffffffffffff16901b8561155f576000611562565b60015b60ff161717949350505050565b604080516001600160f81b03198087166020830152851660218201526000602282018190526001600160e01b03198516602683015269ffffffffffffffffffff198416602a83015291016040516020818303038152906040526110549061221a565b828054828255906000526020600020908101928215611626579160200282015b8281111561162657825182546001600160a01b0319166001600160a01b039091161782556020909201916001909101906115f1565b50611632929150611636565b5090565b5b808211156116325760008155600101611637565b60005b8381101561166657818101518382015260200161164e565b50506000910152565b6000815180845261168781602086016020860161164b565b601f01601f19169290920160200192915050565b6020815260006116ae602083018461166f565b9392505050565b60008083601f8401126116c757600080fd5b5081356001600160401b038111156116de57600080fd5b6020830191508360208285010111156116f657600080fd5b9250929050565b6000806020838503121561171057600080fd5b82356001600160401b0381111561172657600080fd5b611732858286016116b5565b90969095509350505050565b634e487b7160e01b600052604160045260246000fd5b60405161012081016001600160401b03811182821017156117775761177761173e565b60405290565b604051601f8201601f191681016001600160401b03811182821017156117a5576117a561173e565b604052919050565b6001600160a01b03811681146117c257600080fd5b50565b80356107f0816117ad565b60006001600160401b038211156117e9576117e961173e565b50601f01601f191660200190565b600082601f83011261180857600080fd5b813561181b611816826117d0565b61177d565b81815284602083860101111561183057600080fd5b816020850160208301376000918101602001919091529392505050565b6000806040838503121561186057600080fd5b82356001600160401b038082111561187757600080fd5b90840190610120828703121561188c57600080fd5b611894611754565b61189d836117c5565b8152602083013560208201526040830135828111156118bb57600080fd5b6118c7888286016117f7565b6040830152506060830135828111156118df57600080fd5b6118eb888286016117f7565b6060830152506080830135608082015260a083013560a082015260c083013560c082015260e08301358281111561192157600080fd5b61192d888286016117f7565b60e083015250610100808401358381111561194757600080fd5b611953898287016117f7565b91830191909152509660209590950135955050505050565b60006001600160401b038211156119845761198461173e565b5060051b60200190565b600082601f83011261199f57600080fd5b813560206119af6118168361196b565b82815260059290921b840181019181810190868411156119ce57600080fd5b8286015b84811015611a0d5780356001600160401b038111156119f15760008081fd5b6119ff8986838b01016117f7565b8452509183019183016119d2565b509695505050505050565b803560ff811681146107f057600080fd5b60008060008060808587031215611a3f57600080fd5b84356001600160401b0380821115611a5657600080fd5b818701915087601f830112611a6a57600080fd5b81356020611a7a6118168361196b565b82815260059290921b8401810191818101908b841115611a9957600080fd5b948201945b83861015611ac0578535611ab1816117ad565b82529482019490820190611a9e565b98505088013592505080821115611ad657600080fd5b611ae28883890161198e565b94506040870135915080821115611af857600080fd5b50611b058782880161198e565b925050611b1460608601611a18565b905092959194509250565b600060608284031215611b3157600080fd5b50919050565b600060208284031215611b4957600080fd5b81356116ae816117ad565b6020808252825160ff16828201528281015160408084015280516060840181905260009291820190839060808601905b80831015611a0d5783516001600160a01b03168252928401926001929092019190840190611b84565b600060208284031215611bbf57600080fd5b5035919050565b60008060008060608587031215611bdc57600080fd5b8435611be7816117ad565b93506020850135925060408501356001600160401b03811115611c0957600080fd5b611c15878288016116b5565b95989497509550505050565b600060208284031215611c3357600080fd5b81356001600160401b03811115611c4957600080fd5b610af78482850161198e565b600082601f830112611c6657600080fd5b81516020611c766118168361196b565b82815260059290921b84018101918181019086841115611c9557600080fd5b8286015b84811015611a0d5780516001600160401b03811115611cb85760008081fd5b8701603f81018913611cca5760008081fd5b848101516040611cdc611816836117d0565b8281528b82848601011115611cf15760008081fd5b611d008389830184870161164b565b8652505050918301918301611c99565b60008060408385031215611d2357600080fd5b82516001600160401b0380821115611d3a57600080fd5b818501915085601f830112611d4e57600080fd5b81516020611d5e6118168361196b565b82815260059290921b84018101918181019089841115611d7d57600080fd5b948201945b83861015611d9b57855182529482019490820190611d82565b91880151919650909350505080821115611db457600080fd5b50611dc185828601611c55565b9150509250929050565b634e487b7160e01b600052603260045260246000fd5b808201808211156106f257634e487b7160e01b600052601160045260246000fd5b60408152611e1c6040820184516001600160a01b03169052565b6020830151606082015260006040840151610120806080850152611e4461016085018361166f565b91506060860151603f19808685030160a0870152611e62848361166f565b9350608088015160c087015260a088015160e087015260c08801519150610100828188015260e08901519250818786030184880152611ea1858461166f565b94508089015193505080868503016101408701525050611ec1828261166f565b925050508260208301529392505050565b600060208284031215611ee457600080fd5b5051919050565b65ffffffffffff811681146117c257600080fd5b8135611f0a816117ad565b81546001600160a01b031981166001600160a01b039290921691821783556020840135611f3681611eeb565b65ffffffffffff60a01b60a09190911b166001600160d01b0319918216831781178455604085013591611f6883611eeb565b921760d09190911b90911617905550565b60008060408385031215611f8c57600080fd5b82356001600160401b0380821115611fa357600080fd5b818501915085601f830112611fb757600080fd5b81356020611fc76118168361196b565b82815260059290921b84018101918181019089841115611fe657600080fd5b948201945b8386101561200457853582529482019490820190611feb565b9650508601359250508082111561201a57600080fd5b50611dc18582860161198e565b60018060a01b0384168152826020820152606060408201526000611054606083018461166f565b60006020828403121561206057600080fd5b81516001600160e01b0319811681146116ae57600080fd5b81516001600160a01b0316815260208083015165ffffffffffff90811691830191909152604092830151169181019190915260600190565b828152604060208201526000610af7604083018461166f565b6000602082840312156120db57600080fd5b81516001600160401b038111156120f157600080fd5b610af784828501611c55565b60006060828403121561210f57600080fd5b604051606081018181106001600160401b03821117156121315761213161173e565b604052825161213f816117ad565b8152602083015161214f81611eeb565b6020820152604083015161216281611eeb565b60408201529392505050565b60006020828403121561218057600080fd5b815180151581146116ae57600080fd5b600060208083018184528085518083526040925060408601915060408160051b87010184880160005b8381101561220c57888303603f19018552815180516001600160a01b03168452878101518885015286015160608785018190526121f88186018361166f565b9689019694505050908601906001016121b9565b509098975050505050505050565b80516020808301519190811015611b315760001960209190910360031b1b1691905056fea2646970667358221220ef3c740ca6894b607012be7b67381bf71471dd3547cf5b532e6795fb7f896c1464736f6c63430008190033","linkReferences":{}},"methodIdentifiers":{"ecdsaFactorConfig(address)":"de8cc37a","getMultiFactorConfig(address)":"e6f068b7","isInitialized(address)":"d60b347f","isModuleType(uint256)":"ecd05961","isValidSignatureWithSender(address,bytes32,bytes)":"f551e2ee","name()":"06fdde03","onInstall(bytes)":"6d61fe70","onUninstall(bytes)":"8a91b0e3","setConfig(address[],bytes[],bytes[],uint8)":"9b701f7a","setECDSAFactor((address,uint48,uint48))":"cb48e126","validateUserOp((address,uint256,bytes,bytes,bytes32,uint256,bytes32,bytes,bytes),bytes32)":"97003203","version()":"54fd4d50"},"id":15}