{"abi":[{"type":"function","name":"getTokengatedTxHash","inputs":[{"name":"transaction","type":"bytes","internalType":"bytes"},{"name":"_nonce","type":"uint256","internalType":"uint256"}],"outputs":[{"name":"","type":"bytes32","internalType":"bytes32"}],"stateMutability":"view"},{"type":"function","name":"handle","inputs":[{"name":"borrower","type":"address","internalType":"address"},{"name":"sender","type":"address","internalType":"address"},{"name":"value","type":"uint256","internalType":"uint256"},{"name":"data","type":"bytes","internalType":"bytes"}],"outputs":[{"name":"result","type":"bytes","internalType":"bytes"}],"stateMutability":"nonpayable"},{"type":"function","name":"isInitialized","inputs":[{"name":"smartAccount","type":"address","internalType":"address"}],"outputs":[{"name":"","type":"bool","internalType":"bool"}],"stateMutability":"view"},{"type":"function","name":"isModuleType","inputs":[{"name":"isType","type":"uint256","internalType":"uint256"}],"outputs":[{"name":"","type":"bool","internalType":"bool"}],"stateMutability":"pure"},{"type":"function","name":"name","inputs":[],"outputs":[{"name":"","type":"string","internalType":"string"}],"stateMutability":"pure"},{"type":"function","name":"nonce","inputs":[{"name":"account","type":"address","internalType":"address"}],"outputs":[{"name":"","type":"uint256","internalType":"uint256"}],"stateMutability":"view"},{"type":"function","name":"onInstall","inputs":[{"name":"data","type":"bytes","internalType":"bytes"}],"outputs":[],"stateMutability":"nonpayable"},{"type":"function","name":"onUninstall","inputs":[{"name":"data","type":"bytes","internalType":"bytes"}],"outputs":[],"stateMutability":"nonpayable"},{"type":"function","name":"version","inputs":[],"outputs":[{"name":"","type":"string","internalType":"string"}],"stateMutability":"pure"},{"type":"error","name":"AlreadyInitialized","inputs":[{"name":"smartAccount","type":"address","internalType":"address"}]},{"type":"error","name":"NotInitialized","inputs":[{"name":"smartAccount","type":"address","internalType":"address"}]}],"bytecode":{"object":"0x6080604052348015600f57600080fd5b5061087b8061001f6000396000f3fe608060405234801561001057600080fd5b50600436106100935760003560e01c806370ae92d21161006657806370ae92d21461011f5780638a91b0e31461010b578063a73efc0b1461014d578063d60b347f14610160578063ecd059611461018457600080fd5b806306fdde031461009857806325d6803f146100d757806354fd4d50146100ea5780636d61fe701461010b575b600080fd5b604080518082019091526011815270466c6173686c6f616e43616c6c6261636b60781b60208201525b6040516100ce91906103d8565b60405180910390f35b6100c16100e5366004610453565b610198565b6040805180820190915260058152640312e302e360dc1b60208201526100c1565b61011d6101193660046104c6565b5050565b005b61013f61012d366004610508565b60006020819052908152604090205481565b6040519081526020016100ce565b61013f61015b3660046105ea565b610264565b61017461016e366004610508565b50600090565b60405190151581526020016100ce565b61017461019236600461062f565b60021490565b606060048210156101a857600080fd5b60006101b76004828587610648565b6101c091610672565b905063dc1cf37560e01b6001600160e01b0319821601610259576000808080806101ed886004818c610648565b8101906101fa91906106a2565b945094509450945094506102128c8686868686610297565b604080517f439148f0bbc682ca079e46d6e2c2f0c1e3b820f1a291b069d8882abf8cf18dd9602082015201604051602081830303815290604052965050505050505061025b565b505b95945050505050565b60008282604051602001610279929190610718565b60405160208183030381529060405280519060200120905092915050565b6000806000838060200190518101906102b09190610787565b92509250925060006102e6826000808d6001600160a01b03166001600160a01b0316815260200190815260200160002054610264565b905060008a6001600160a01b0316836040516103029190610802565b6000604051808303816000865af19150503d806000811461033f576040519150601f19603f3d011682016040523d82523d6000602084013e610344565b606091505b505090508061035257600080fd5b6001600160a01b038b1660009081526020819052604081208054916103768361081e565b91905055505050505050505050505050565b60005b838110156103a357818101518382015260200161038b565b50506000910152565b600081518084526103c4816020860160208601610388565b601f01601f19169290920160200192915050565b6020815260006103eb60208301846103ac565b9392505050565b6001600160a01b038116811461040757600080fd5b50565b60008083601f84011261041c57600080fd5b50813567ffffffffffffffff81111561043457600080fd5b60208301915083602082850101111561044c57600080fd5b9250929050565b60008060008060006080868803121561046b57600080fd5b8535610476816103f2565b94506020860135610486816103f2565b935060408601359250606086013567ffffffffffffffff8111156104a957600080fd5b6104b58882890161040a565b969995985093965092949392505050565b600080602083850312156104d957600080fd5b823567ffffffffffffffff8111156104f057600080fd5b6104fc8582860161040a565b90969095509350505050565b60006020828403121561051a57600080fd5b81356103eb816103f2565b634e487b7160e01b600052604160045260246000fd5b604051601f8201601f1916810167ffffffffffffffff8111828210171561056457610564610525565b604052919050565b600067ffffffffffffffff82111561058657610586610525565b50601f01601f191660200190565b600082601f8301126105a557600080fd5b81356105b86105b38261056c565b61053b565b8181528460208386010111156105cd57600080fd5b816020850160208301376000918101602001919091529392505050565b600080604083850312156105fd57600080fd5b823567ffffffffffffffff81111561061457600080fd5b61062085828601610594565b95602094909401359450505050565b60006020828403121561064157600080fd5b5035919050565b6000808585111561065857600080fd5b8386111561066557600080fd5b5050820193919092039150565b6001600160e01b0319813581811691600485101561069a5780818660040360031b1b83161692505b505092915050565b600080600080600060a086880312156106ba57600080fd5b85356106c5816103f2565b945060208601356106d5816103f2565b93506040860135925060608601359150608086013567ffffffffffffffff8111156106ff57600080fd5b61070b88828901610594565b9150509295509295909350565b6000835161072a818460208801610388565b9190910191825250602001919050565b600082601f83011261074b57600080fd5b81516107596105b38261056c565b81815284602083860101111561076e57600080fd5b61077f826020830160208701610388565b949350505050565b60008060006060848603121561079c57600080fd5b8351600281106107ab57600080fd5b602085015190935067ffffffffffffffff808211156107c957600080fd5b6107d58783880161073a565b935060408601519150808211156107eb57600080fd5b506107f88682870161073a565b9150509250925092565b60008251610814818460208701610388565b9190910192915050565b60006001820161083e57634e487b7160e01b600052601160045260246000fd5b506001019056fea2646970667358221220419e646d10af7a5e6ff7f2f9d991c2fad8a5d3d061d77e14e5de9982cad7044f64736f6c63430008190033","linkReferences":{}},"methodIdentifiers":{"getTokengatedTxHash(bytes,uint256)":"a73efc0b","handle(address,address,uint256,bytes)":"25d6803f","isInitialized(address)":"d60b347f","isModuleType(uint256)":"ecd05961","name()":"06fdde03","nonce(address)":"70ae92d2","onInstall(bytes)":"6d61fe70","onUninstall(bytes)":"8a91b0e3","version()":"54fd4d50"},"id":8}