{"abi":[{"type":"function","name":"entryPoint","inputs":[],"outputs":[{"name":"","type":"address","internalType":"address"}],"stateMutability":"view"},{"type":"error","name":"AccountAccessUnauthorized","inputs":[]}],"bytecode":{"object":"0x6080604052348015600f57600080fd5b50608680601d6000396000f3fe6080604052348015600f57600080fd5b506004361060285760003560e01c8063b0d691fe14602d575b600080fd5b604080516f71727de22e5e9d8baf0edac6f37da032815290519081900360200190f3fea2646970667358221220ce230ec393b1ee1eb2d0679456ebf04fd5a0453d1e2fd069f554a04cf6308e9364736f6c63430008190033","linkReferences":{}},"methodIdentifiers":{"entryPoint()":"b0d691fe"},"id":89}