{"abi":[{"type":"function","name":"deployModule","inputs":[{"name":"code","type":"bytes","internalType":"bytes"},{"name":"deployParams","type":"bytes","internalType":"bytes"},{"name":"salt","type":"bytes32","internalType":"bytes32"},{"name":"data","type":"bytes","internalType":"bytes"}],"outputs":[{"name":"moduleAddr","type":"address","internalType":"address"}],"stateMutability":"nonpayable"},{"type":"function","name":"deployModuleCreate3","inputs":[{"name":"code","type":"bytes","internalType":"bytes"},{"name":"deployParams","type":"bytes","internalType":"bytes"},{"name":"salt","type":"bytes32","internalType":"bytes32"},{"name":"data","type":"bytes","internalType":"bytes"}],"outputs":[{"name":"moduleAddr","type":"address","internalType":"address"}],"stateMutability":"nonpayable"},{"type":"function","name":"deployModuleViaFactory","inputs":[{"name":"factory","type":"address","internalType":"address"},{"name":"callOnFactory","type":"bytes","internalType":"bytes"},{"name":"data","type":"bytes","internalType":"bytes"}],"outputs":[{"name":"moduleAddr","type":"address","internalType":"address"}],"stateMutability":"nonpayable"},{"type":"function","name":"getModule","inputs":[{"name":"moduleAddress","type":"address","internalType":"address"}],"outputs":[{"name":"","type":"tuple","internalType":"struct ModuleRecord","components":[{"name":"resolverUID","type":"bytes32","internalType":"bytes32"},{"name":"sender","type":"address","internalType":"address"},{"name":"metadata","type":"bytes","internalType":"bytes"}]}],"stateMutability":"view"},{"type":"function","name":"getResolver","inputs":[],"outputs":[{"name":"_resolverUID","type":"bytes32","internalType":"bytes32"}],"stateMutability":"view"},{"type":"function","name":"registerResolver","inputs":[{"name":"resolver","type":"address","internalType":"address"}],"outputs":[{"name":"_resolverUID","type":"bytes32","internalType":"bytes32"}],"stateMutability":"nonpayable"},{"type":"function","name":"setRegistry","inputs":[{"name":"_registry","type":"address","internalType":"address"}],"outputs":[],"stateMutability":"nonpayable"},{"type":"function","name":"setResolverUID","inputs":[{"name":"_resolverUID","type":"bytes32","internalType":"bytes32"}],"outputs":[],"stateMutability":"nonpayable"},{"type":"error","name":"InvalidResolver","inputs":[]}],"bytecode":{"object":"0x6080604052600080546001600160a01b03191673e0cde9239d16bef05e62bbf7aa93e420f464c8261790557fdf658e5595d93baa803af242dc6e175b4cbef04de73509b50b944d1b2d167bb6600155348015605957600080fd5b5061097c806100696000396000f3fe608060405234801561001057600080fd5b50600436106100885760003560e01c8063a9dc491d1161005b578063a9dc491d14610123578063b5de8d4c1461012b578063bc7a8d171461014b578063ef2b3c571461015e57600080fd5b80635934cdb51461008d5780638b0611bc146100bd5780639f3e1b53146100d2578063a91ee0dc146100f3575b600080fd5b6100a061009b36600461057e565b610171565b6040516001600160a01b0390911681526020015b60405180910390f35b6100d06100cb3660046105f4565b600155565b005b6100e56100e036600461060d565b6101ff565b6040519081526020016100b4565b6100d061010136600461060d565b600080546001600160a01b0319166001600160a01b0392909216919091179055565b6100e5610276565b61013e61013936600461060d565b610315565b6040516100b49190610681565b6100a06101593660046106c0565b6103a3565b6100a061016c3660046106c0565b610434565b60008061017c610276565b600054604051636a6fb3df60e01b81529192506001600160a01b031690636a6fb3df906101b3908890889088908790600401610752565b6020604051808303816000875af11580156101d2573d6000803e3d6000fd5b505050506040513d601f19601f820116820180604052508101906101f6919061079a565b95945050505050565b60008054604051639f3e1b5360e01b81526001600160a01b03848116600483015290911690639f3e1b53906024016020604051808303816000875af115801561024c573d6000803e3d6000fd5b505050506040513d601f19601f8201168201806040525081019061027091906107b7565b92915050565b6001546000805460405163753761ef60e11b8152600481018490526001600160a01b039091169063ea6ec3de906024016040805180830381865afa1580156102c2573d6000803e3d6000fd5b505050506040513d601f19601f820116820180604052508101906102e691906107d0565b80519091506001600160a01b031661031157604051631b68fd9560e21b815260040160405180910390fd5b5090565b60408051606080820183526000808352602083015291810191909152600054604051632d77a35360e21b81526001600160a01b0384811660048301529091169063b5de8d4c90602401600060405180830381865afa15801561037b573d6000803e3d6000fd5b505050506040513d6000823e601f3d908101601f19168201604052610270919081019061082f565b6000806103ae610276565b600054604051631dceb66f60e11b81529192506001600160a01b031690633b9d6cde906103e790899089908990899088906004016108f4565b6020604051808303816000875af1158015610406573d6000803e3d6000fd5b505050506040513d601f19601f8201168201806040525081019061042a919061079a565b9695505050505050565b60008061043f610276565b600054604051636e7da1d160e11b81529192506001600160a01b03169063dcfb43a2906103e790899089908990899088906004016108f4565b6001600160a01b038116811461048d57600080fd5b50565b634e487b7160e01b600052604160045260246000fd5b6040516060810167ffffffffffffffff811182821017156104c9576104c9610490565b60405290565b604051601f8201601f1916810167ffffffffffffffff811182821017156104f8576104f8610490565b604052919050565b600067ffffffffffffffff82111561051a5761051a610490565b50601f01601f191660200190565b600082601f83011261053957600080fd5b813561054c61054782610500565b6104cf565b81815284602083860101111561056157600080fd5b816020850160208301376000918101602001919091529392505050565b60008060006060848603121561059357600080fd5b833561059e81610478565b9250602084013567ffffffffffffffff808211156105bb57600080fd5b6105c787838801610528565b935060408601359150808211156105dd57600080fd5b506105ea86828701610528565b9150509250925092565b60006020828403121561060657600080fd5b5035919050565b60006020828403121561061f57600080fd5b813561062a81610478565b9392505050565b60005b8381101561064c578181015183820152602001610634565b50506000910152565b6000815180845261066d816020860160208601610631565b601f01601f19169290920160200192915050565b602081528151602082015260018060a01b036020830151166040820152600060408301516060808401526106b86080840182610655565b949350505050565b600080600080608085870312156106d657600080fd5b843567ffffffffffffffff808211156106ee57600080fd5b6106fa88838901610528565b9550602087013591508082111561071057600080fd5b61071c88838901610528565b945060408701359350606087013591508082111561073957600080fd5b5061074687828801610528565b91505092959194509250565b6001600160a01b038516815260806020820181905260009061077690830186610655565b82810360408401526107888186610655565b91505082606083015295945050505050565b6000602082840312156107ac57600080fd5b815161062a81610478565b6000602082840312156107c957600080fd5b5051919050565b6000604082840312156107e257600080fd5b6040516040810181811067ffffffffffffffff8211171561080557610805610490565b604052825161081381610478565b8152602083015161082381610478565b60208201529392505050565b6000602080838503121561084257600080fd5b825167ffffffffffffffff8082111561085a57600080fd5b908401906060828703121561086e57600080fd5b6108766104a6565b825181528383015161088781610478565b8185015260408301518281111561089d57600080fd5b80840193505086601f8401126108b257600080fd5b825191506108c261054783610500565b82815287858486010111156108d657600080fd5b6108e583868301878701610631565b60408201529695505050505050565b60a08152600061090760a0830188610655565b82810360208401526109198188610655565b905085604084015282810360608401526109338186610655565b915050826080830152969550505050505056fea2646970667358221220f50b8c5ba3f9b4ef62af4c6c53bdb720df365f61bbfd53bcf6bc965a75c26bdb64736f6c63430008190033","linkReferences":{}},"methodIdentifiers":{"deployModule(bytes,bytes,bytes32,bytes)":"ef2b3c57","deployModuleCreate3(bytes,bytes,bytes32,bytes)":"bc7a8d17","deployModuleViaFactory(address,bytes,bytes)":"5934cdb5","getModule(address)":"b5de8d4c","getResolver()":"a9dc491d","registerResolver(address)":"9f3e1b53","setRegistry(address)":"a91ee0dc","setResolverUID(bytes32)":"8b0611bc"},"id":14}