{"abi":[{"type":"function","name":"isInitialized","inputs":[{"name":"smartAccount","type":"address","internalType":"address"}],"outputs":[{"name":"","type":"bool","internalType":"bool"}],"stateMutability":"pure"},{"type":"function","name":"isModuleType","inputs":[{"name":"typeID","type":"uint256","internalType":"uint256"}],"outputs":[{"name":"","type":"bool","internalType":"bool"}],"stateMutability":"pure"},{"type":"function","name":"isValidSignatureWithSender","inputs":[{"name":"sender","type":"address","internalType":"address"},{"name":"hash","type":"bytes32","internalType":"bytes32"},{"name":"data","type":"bytes","internalType":"bytes"}],"outputs":[{"name":"","type":"bytes4","internalType":"bytes4"}],"stateMutability":"view"},{"type":"function","name":"onInstall","inputs":[{"name":"data","type":"bytes","internalType":"bytes"}],"outputs":[],"stateMutability":"nonpayable"},{"type":"function","name":"onUninstall","inputs":[{"name":"data","type":"bytes","internalType":"bytes"}],"outputs":[],"stateMutability":"nonpayable"},{"type":"function","name":"validateUserOp","inputs":[{"name":"userOp","type":"tuple","internalType":"struct PackedUserOperation","components":[{"name":"sender","type":"address","internalType":"address"},{"name":"nonce","type":"uint256","internalType":"uint256"},{"name":"initCode","type":"bytes","internalType":"bytes"},{"name":"callData","type":"bytes","internalType":"bytes"},{"name":"accountGasLimits","type":"bytes32","internalType":"bytes32"},{"name":"preVerificationGas","type":"uint256","internalType":"uint256"},{"name":"gasFees","type":"bytes32","internalType":"bytes32"},{"name":"paymasterAndData","type":"bytes","internalType":"bytes"},{"name":"signature","type":"bytes","internalType":"bytes"}]},{"name":"userOpHash","type":"bytes32","internalType":"bytes32"}],"outputs":[{"name":"","type":"uint256","internalType":"ERC7579ValidatorBase.ValidationData"}],"stateMutability":"nonpayable"},{"type":"error","name":"AlreadyInitialized","inputs":[{"name":"smartAccount","type":"address","internalType":"address"}]},{"type":"error","name":"NotInitialized","inputs":[{"name":"smartAccount","type":"address","internalType":"address"}]}],"bytecode":{"object":"0x6080604052348015600f57600080fd5b5061032f8061001f6000396000f3fe608060405234801561001057600080fd5b50600436106100625760003560e01c80636d61fe70146100675780638a91b0e314610067578063970032031461007b578063d60b347f146100a1578063ecd05961146100c5578063f551e2ee146100d9575b600080fd5b6100796100753660046101c2565b5050565b005b61008e610089366004610204565b610110565b6040519081526020015b60405180910390f35b6100b56100af36600461026b565b50600090565b6040519015158152602001610098565b6100b56100d3366004610286565b60011490565b6100f76100e736600461029f565b630b135d3f60e11b949350505050565b6040516001600160e01b03199091168152602001610098565b6000610125600065ffffffffffff600061012c565b9392505050565b6000610139848484610141565b949350505050565b600060d08265ffffffffffff16901b60a08465ffffffffffff16901b8561016957600061016c565b60015b60ff161717949350505050565b60008083601f84011261018b57600080fd5b50813567ffffffffffffffff8111156101a357600080fd5b6020830191508360208285010111156101bb57600080fd5b9250929050565b600080602083850312156101d557600080fd5b823567ffffffffffffffff8111156101ec57600080fd5b6101f885828601610179565b90969095509350505050565b6000806040838503121561021757600080fd5b823567ffffffffffffffff81111561022e57600080fd5b8301610120818603121561024157600080fd5b946020939093013593505050565b80356001600160a01b038116811461026657600080fd5b919050565b60006020828403121561027d57600080fd5b6101258261024f565b60006020828403121561029857600080fd5b5035919050565b600080600080606085870312156102b557600080fd5b6102be8561024f565b935060208501359250604085013567ffffffffffffffff8111156102e157600080fd5b6102ed87828801610179565b9598949750955050505056fea2646970667358221220556f85ad296a2de623b3fa1f2c08585ba1d41c8b2e4dfd9546867b6ea268502264736f6c63430008190033","linkReferences":{}},"methodIdentifiers":{"isInitialized(address)":"d60b347f","isModuleType(uint256)":"ecd05961","isValidSignatureWithSender(address,bytes32,bytes)":"f551e2ee","onInstall(bytes)":"6d61fe70","onUninstall(bytes)":"8a91b0e3","validateUserOp((address,uint256,bytes,bytes,bytes32,uint256,bytes32,bytes,bytes),bytes32)":"97003203"},"id":221}