{"abi":[{"type":"function","name":"addOrder","inputs":[{"name":"executionConfig","type":"tuple","internalType":"struct SchedulingBase.ExecutionConfig","components":[{"name":"executeInterval","type":"uint48","internalType":"uint48"},{"name":"numberOfExecutions","type":"uint16","internalType":"uint16"},{"name":"numberOfExecutionsCompleted","type":"uint16","internalType":"uint16"},{"name":"startDate","type":"uint48","internalType":"uint48"},{"name":"isEnabled","type":"bool","internalType":"bool"},{"name":"lastExecutionTime","type":"uint48","internalType":"uint48"},{"name":"executionData","type":"bytes","internalType":"bytes"}]}],"outputs":[],"stateMutability":"nonpayable"},{"type":"function","name":"executeOrder","inputs":[{"name":"jobId","type":"uint256","internalType":"uint256"}],"outputs":[],"stateMutability":"nonpayable"},{"type":"function","name":"getAccountJobCount","inputs":[{"name":"smartAccount","type":"address","internalType":"address"}],"outputs":[{"name":"","type":"uint256","internalType":"uint256"}],"stateMutability":"view"},{"type":"function","name":"getAccountJobDetails","inputs":[{"name":"smartAccount","type":"address","internalType":"address"},{"name":"jobId","type":"uint256","internalType":"uint256"}],"outputs":[{"name":"","type":"tuple","internalType":"struct SchedulingBase.ExecutionConfig","components":[{"name":"executeInterval","type":"uint48","internalType":"uint48"},{"name":"numberOfExecutions","type":"uint16","internalType":"uint16"},{"name":"numberOfExecutionsCompleted","type":"uint16","internalType":"uint16"},{"name":"startDate","type":"uint48","internalType":"uint48"},{"name":"isEnabled","type":"bool","internalType":"bool"},{"name":"lastExecutionTime","type":"uint48","internalType":"uint48"},{"name":"executionData","type":"bytes","internalType":"bytes"}]}],"stateMutability":"view"},{"type":"function","name":"isInitialized","inputs":[{"name":"smartAccount","type":"address","internalType":"address"}],"outputs":[{"name":"","type":"bool","internalType":"bool"}],"stateMutability":"view"},{"type":"function","name":"isModuleType","inputs":[{"name":"typeID","type":"uint256","internalType":"uint256"}],"outputs":[{"name":"","type":"bool","internalType":"bool"}],"stateMutability":"pure"},{"type":"function","name":"name","inputs":[],"outputs":[{"name":"","type":"string","internalType":"string"}],"stateMutability":"pure"},{"type":"function","name":"onInstall","inputs":[{"name":"data","type":"bytes","internalType":"bytes"}],"outputs":[],"stateMutability":"nonpayable"},{"type":"function","name":"onUninstall","inputs":[{"name":"","type":"bytes","internalType":"bytes"}],"outputs":[],"stateMutability":"nonpayable"},{"type":"function","name":"toggleOrder","inputs":[{"name":"jobId","type":"uint256","internalType":"uint256"}],"outputs":[],"stateMutability":"nonpayable"},{"type":"function","name":"validateSessionParams","inputs":[{"name":"destinationContract","type":"address","internalType":"address"},{"name":"callValue","type":"uint256","internalType":"uint256"},{"name":"callData","type":"bytes","internalType":"bytes"},{"name":"_sessionKeyData","type":"bytes","internalType":"bytes"},{"name":"","type":"bytes","internalType":"bytes"}],"outputs":[{"name":"","type":"address","internalType":"address"}],"stateMutability":"view"},{"type":"function","name":"version","inputs":[],"outputs":[{"name":"","type":"string","internalType":"string"}],"stateMutability":"pure"},{"type":"event","name":"ExecutionAdded","inputs":[{"name":"smartAccount","type":"address","indexed":true,"internalType":"address"},{"name":"jobId","type":"uint256","indexed":true,"internalType":"uint256"}],"anonymous":false},{"type":"event","name":"ExecutionStatusUpdated","inputs":[{"name":"smartAccount","type":"address","indexed":true,"internalType":"address"},{"name":"jobId","type":"uint256","indexed":true,"internalType":"uint256"}],"anonymous":false},{"type":"event","name":"ExecutionTriggered","inputs":[{"name":"smartAccount","type":"address","indexed":true,"internalType":"address"},{"name":"jobId","type":"uint256","indexed":true,"internalType":"uint256"}],"anonymous":false},{"type":"event","name":"ExecutionsCancelled","inputs":[{"name":"smartAccount","type":"address","indexed":true,"internalType":"address"}],"anonymous":false},{"type":"error","name":"AlreadyInitialized","inputs":[{"name":"smartAccount","type":"address","internalType":"address"}]},{"type":"error","name":"InvalidExecution","inputs":[]},{"type":"error","name":"InvalidInstall","inputs":[]},{"type":"error","name":"InvalidJob","inputs":[]},{"type":"error","name":"NotInitialized","inputs":[{"name":"smartAccount","type":"address","internalType":"address"}]}],"bytecode":{"object":"0x6080604052348015600f57600080fd5b506116bf8061001f6000396000f3fe608060405234801561001057600080fd5b50600436106100b45760003560e01c80638805cbd2116100715780638805cbd21461019a5780638a91b0e3146101ad57806394f61134146101c0578063c20bccb9146101d3578063d60b347f146101fe578063ecd059611461023957600080fd5b806306fdde03146100b957806316d7543c146100fa5780632c200f381461013157806354fd4d501461014657806362060401146101675780636d61fe7014610187575b600080fd5b6040805180820190915260138152725363686564756c6564205472616e736665727360681b60208201525b6040516100f19190610d85565b60405180910390f35b610123610108366004610db4565b6001600160a01b031660009081526001602052604090205490565b6040519081526020016100f1565b61014461013f366004610dd1565b61024d565b005b604080518082019091526005815264302e302e3160d81b60208201526100e4565b61017a610175366004610e0c565b610259565b6040516100f19190610e38565b610144610195366004610f09565b6103bf565b6101446101a8366004610f4b565b610593565b6101446101bb366004610f09565b6105f9565b6101446101ce366004610f4b565b61069c565b6101e66101e1366004610f64565b610883565b6040516001600160a01b0390911681526020016100f1565b61022961020c366004610db4565b6001600160a01b0316600090815260016020526040902054151590565b60405190151581526020016100f1565b610229610247366004610f4b565b60021490565b6102568161093d565b50565b6040805160e08101825260008082526020820181905291810182905260608082018390526080820183905260a082019290925260c08101919091526001600160a01b038316600090815260208181526040808320858452825291829020825160e081018452815465ffffffffffff808216835261ffff600160301b8304811695840195909552600160401b820490941694820194909452600160501b84048316606082015260ff600160801b85041615156080820152600160881b90930490911660a083015260018101805460c0840191906103349061101a565b80601f01602080910402602001604051908101604052809291908181526020018280546103609061101a565b80156103ad5780601f10610382576101008083540402835291602001916103ad565b820191906000526020600020905b81548152906001019060200180831161039057829003601f168201915b50505050508152505090505b92915050565b33600090815260016020526040902054156103ed576040516309f50fe960e11b815260040160405180910390fd5b60008080806103fe858701876110f0565b336000908152600160208190526040822054959950939750919550935091610425916111b8565b336000908152600160205260408120805492935090610443836111cb565b90915550506040805160e08101825265ffffffffffff808816825261ffff808816602080850191825260008587018181528a86166060880190815260016080890181815260a08a0185815260c08b018e81523387528688528c87208e88529097529a9094208951815497519451935195519b518a16600160881b0265ffffffffffff60881b199c1515600160801b029c909c1666ffffffffffffff60801b19968b16600160501b0265ffffffffffff60501b19958b16600160401b029590951667ffffffffffffffff60401b1996909a16600160301b0267ffffffffffffffff1990991691909a161796909617929092169590951794909417169390931794909417845590519192919082019061055a9082611235565b505060405182915033907fa0040a18a6bc952417eda9c747097db88239fa30568c9c41a762001bbd2328e790600090a350505050505050565b33600081815260208181526040808320858452909152808220805460ff60801b198116600160801b9182900460ff161590910217815590519092849290917f4e18125ae9768c1a406b877d8836a624ebaa0a04994069ebfd8436c18b2f082f9190a35050565b33600090815260016020819052604090912054905b81811161065e5733600090815260208181526040808320848452909152812080546001600160b81b0319168155906106496001830182610ce7565b50508080610656906111cb565b91505061060e565b5033600081815260016020526040808220829055517fd36f1e173abc6614f68eb2f836abf163f8f5acfcc26756e20be3c703488ed1229190a2505050565b806106a681610b47565b3360009081526020818152604080832085845290915281206001810180549192916106d09061101a565b80601f01602080910402602001604051908101604052809291908181526020018280546106fc9061101a565b80156107495780601f1061071e57610100808354040283529160200191610749565b820191906000526020600020905b81548152906001019060200180831161072c57829003601f168201915b5050505050806020019051810190610761919061133a565b825465ffffffffffff60881b1916600160881b4265ffffffffffff16021780845590915060019083906008906107a3908490600160401b900461ffff166113da565b92506101000a81548161ffff021916908361ffff160217905550336001600160a01b031663d691c9646107d4610c3a565b6107eb846000015185602001518660400151610c4d565b6040518363ffffffff1660e01b81526004016108089291906113fc565b6000604051808303816000875af1158015610827573d6000803e3d6000fd5b505050506040513d6000823e601f3d908101601f1916820160405261084f9190810190611415565b50604051849033907fb96859dbec9de56526b77118cd2561f267d2f5f96f666f54946532170fe3be4490600090a350505050565b600080610892858701876114d8565b905060006108a36004828a8c611530565b6108ac9161155a565b905060006108bd896004818d611530565b8101906108ca9190610f4b565b90506001600160e01b0319821663253d844d60e21b146108e957600080fd5b8260200151811461090d5760405163038e47a360e51b815260040160405180910390fd5b6001600160a01b038c16301461092257600080fd5b8a1561092d57600080fd5b5050519998505050505050505050565b336000908152600160208190526040822054610958916111b8565b336000908152600160205260408120805492935090610976836111cb565b90915550506040805160e0810190915280610994602085018561158a565b65ffffffffffff1681526020018360200160208101906109b491906115a5565b61ffff168152600060208201526040016109d4608085016060860161158a565b65ffffffffffff16815260016020820152600060408201526060016109fc60c08501856115c0565b8080601f0160208091040260200160405190810160405280939291908181526020018383808284376000920182905250939094525050338152602081815260408083208684528252918290208451815492860151938601516060870151608088015160a089015165ffffffffffff94851667ffffffffffffffff1990971696909617600160301b61ffff988916021767ffffffffffffffff60401b1916600160401b979093169690960265ffffffffffff60501b191691909117600160501b918316919091021766ffffffffffffff60801b1916600160801b9415159490940265ffffffffffff60881b191693909317600160881b939092169290920217815560c08301519091506001820190610b139082611235565b505060405182915033907fa0040a18a6bc952417eda9c747097db88239fa30568c9c41a762001bbd2328e790600090a35050565b3360009081526020818152604080832084845290915290208054600160801b900460ff16610b88576040516329adbb2960e01b815260040160405180910390fd5b80544290610ba89065ffffffffffff80821691600160881b900416611607565b65ffffffffffff161015610bcf576040516329adbb2960e01b815260040160405180910390fd5b805461ffff600160301b82048116600160401b9092041610610c04576040516329adbb2960e01b815260040160405180910390fd5b805442600160501b90910465ffffffffffff161115610c36576040516329adbb2960e01b815260040160405180910390fd5b5050565b6000610c4881808080610c7c565b905090565b6060838383604051602001610c6493929190611626565b60405160208183030381529060405290509392505050565b604080516001600160f81b03198087166020830152851660218201526000602282018190526001600160e01b03198516602683015269ffffffffffffffffffff198416602a8301529101604051602081830303815290604052610cde90611665565b95945050505050565b508054610cf39061101a565b6000825580601f10610d03575050565b601f01602090049060005260206000209081019061025691905b80821115610d315760008155600101610d1d565b5090565b60005b83811015610d50578181015183820152602001610d38565b50506000910152565b60008151808452610d71816020860160208601610d35565b601f01601f19169290920160200192915050565b602081526000610d986020830184610d59565b9392505050565b6001600160a01b038116811461025657600080fd5b600060208284031215610dc657600080fd5b8135610d9881610d9f565b600060208284031215610de357600080fd5b813567ffffffffffffffff811115610dfa57600080fd5b820160e08185031215610d9857600080fd5b60008060408385031215610e1f57600080fd5b8235610e2a81610d9f565b946020939093013593505050565b60208152600065ffffffffffff808451166020840152602084015161ffff80821660408601528060408701511660608601525050806060850151166080840152506080830151151560a083015260a0830151610e9e60c084018265ffffffffffff169052565b5060c083015160e080840152610eb8610100840182610d59565b949350505050565b60008083601f840112610ed257600080fd5b50813567ffffffffffffffff811115610eea57600080fd5b602083019150836020828501011115610f0257600080fd5b9250929050565b60008060208385031215610f1c57600080fd5b823567ffffffffffffffff811115610f3357600080fd5b610f3f85828601610ec0565b90969095509350505050565b600060208284031215610f5d57600080fd5b5035919050565b60008060008060008060008060a0898b031215610f8057600080fd5b8835610f8b81610d9f565b975060208901359650604089013567ffffffffffffffff80821115610faf57600080fd5b610fbb8c838d01610ec0565b909850965060608b0135915080821115610fd457600080fd5b610fe08c838d01610ec0565b909650945060808b0135915080821115610ff957600080fd5b506110068b828c01610ec0565b999c989b5096995094979396929594505050565b600181811c9082168061102e57607f821691505b60208210810361104e57634e487b7160e01b600052602260045260246000fd5b50919050565b803565ffffffffffff8116811461106a57600080fd5b919050565b803561ffff8116811461106a57600080fd5b634e487b7160e01b600052604160045260246000fd5b604051601f8201601f1916810167ffffffffffffffff811182821017156110c0576110c0611081565b604052919050565b600067ffffffffffffffff8211156110e2576110e2611081565b50601f01601f191660200190565b6000806000806080858703121561110657600080fd5b61110f85611054565b935061111d6020860161106f565b925061112b60408601611054565b9150606085013567ffffffffffffffff81111561114757600080fd5b8501601f8101871361115857600080fd5b803561116b611166826110c8565b611097565b81815288602083850101111561118057600080fd5b8160208401602083013760006020838301015280935050505092959194509250565b634e487b7160e01b600052601160045260246000fd5b808201808211156103b9576103b96111a2565b6000600182016111dd576111dd6111a2565b5060010190565b601f821115611230576000816000526020600020601f850160051c8101602086101561120d5750805b601f850160051c820191505b8181101561122c57828155600101611219565b5050505b505050565b815167ffffffffffffffff81111561124f5761124f611081565b6112638161125d845461101a565b846111e4565b602080601f83116001811461129857600084156112805750858301515b600019600386901b1c1916600185901b17855561122c565b600085815260208120601f198616915b828110156112c7578886015182559484019460019091019084016112a8565b50858210156112e55787850151600019600388901b60f8161c191681555b5050505050600190811b01905550565b600082601f83011261130657600080fd5b8151611314611166826110c8565b81815284602083860101111561132957600080fd5b610eb8826020830160208701610d35565b60006020828403121561134c57600080fd5b815167ffffffffffffffff8082111561136457600080fd5b908301906060828603121561137857600080fd5b60405160608101818110838211171561139357611393611081565b60405282516113a181610d9f565b8152602083810151908201526040830151828111156113bf57600080fd5b6113cb878286016112f5565b60408301525095945050505050565b61ffff8181168382160190808211156113f5576113f56111a2565b5092915050565b828152604060208201526000610eb86040830184610d59565b6000602080838503121561142857600080fd5b825167ffffffffffffffff8082111561144057600080fd5b818501915085601f83011261145457600080fd5b81518181111561146657611466611081565b8060051b611475858201611097565b918252838101850191858101908984111561148f57600080fd5b86860192505b838310156114cb578251858111156114ad5760008081fd5b6114bb8b89838a01016112f5565b8352509186019190860190611495565b9998505050505050505050565b6000604082840312156114ea57600080fd5b6040516040810181811067ffffffffffffffff8211171561150d5761150d611081565b604052823561151b81610d9f565b81526020928301359281019290925250919050565b6000808585111561154057600080fd5b8386111561154d57600080fd5b5050820193919092039150565b6001600160e01b031981358181169160048510156115825780818660040360031b1b83161692505b505092915050565b60006020828403121561159c57600080fd5b610d9882611054565b6000602082840312156115b757600080fd5b610d988261106f565b6000808335601e198436030181126115d757600080fd5b83018035915067ffffffffffffffff8211156115f257600080fd5b602001915036819003821315610f0257600080fd5b65ffffffffffff8181168382160190808211156113f5576113f56111a2565b6bffffffffffffffffffffffff198460601b16815282601482015260008251611656816034850160208701610d35565b91909101603401949350505050565b8051602080830151919081101561104e5760001960209190910360031b1b1691905056fea264697066735822122062f1d2ce750a9800522f32e8ede2ab37072f774914f7dfbcc8052fe46d9a76d364736f6c63430008190033","linkReferences":{}},"methodIdentifiers":{"addOrder((uint48,uint16,uint16,uint48,bool,uint48,bytes))":"2c200f38","executeOrder(uint256)":"94f61134","getAccountJobCount(address)":"16d7543c","getAccountJobDetails(address,uint256)":"62060401","isInitialized(address)":"d60b347f","isModuleType(uint256)":"ecd05961","name()":"06fdde03","onInstall(bytes)":"6d61fe70","onUninstall(bytes)":"8a91b0e3","toggleOrder(uint256)":"8805cbd2","validateSessionParams(address,uint256,bytes,bytes,bytes)":"c20bccb9","version()":"54fd4d50"},"id":18}