{"abi":[{"type":"function","name":"getAuthorizedKey","inputs":[{"name":"account","type":"address","internalType":"address"}],"outputs":[{"name":"passkey","type":"tuple","internalType":"struct PassKeyId","components":[{"name":"pubKeyX","type":"uint256","internalType":"uint256"},{"name":"pubKeyY","type":"uint256","internalType":"uint256"},{"name":"keyId","type":"string","internalType":"string"}]}],"stateMutability":"view"},{"type":"function","name":"isInitialized","inputs":[{"name":"smartAccount","type":"address","internalType":"address"}],"outputs":[{"name":"","type":"bool","internalType":"bool"}],"stateMutability":"view"},{"type":"function","name":"isModuleType","inputs":[{"name":"typeID","type":"uint256","internalType":"uint256"}],"outputs":[{"name":"","type":"bool","internalType":"bool"}],"stateMutability":"pure"},{"type":"function","name":"isValidSignatureWithSender","inputs":[{"name":"","type":"address","internalType":"address"},{"name":"","type":"bytes32","internalType":"bytes32"},{"name":"","type":"bytes","internalType":"bytes"}],"outputs":[{"name":"","type":"bytes4","internalType":"bytes4"}],"stateMutability":"view"},{"type":"function","name":"name","inputs":[],"outputs":[{"name":"","type":"string","internalType":"string"}],"stateMutability":"pure"},{"type":"function","name":"onInstall","inputs":[{"name":"data","type":"bytes","internalType":"bytes"}],"outputs":[],"stateMutability":"nonpayable"},{"type":"function","name":"onUninstall","inputs":[{"name":"","type":"bytes","internalType":"bytes"}],"outputs":[],"stateMutability":"nonpayable"},{"type":"function","name":"smartAccountPassKeys","inputs":[{"name":"account","type":"address","internalType":"address"}],"outputs":[{"name":"pubKeyX","type":"uint256","internalType":"uint256"},{"name":"pubKeyY","type":"uint256","internalType":"uint256"},{"name":"keyId","type":"string","internalType":"string"}],"stateMutability":"view"},{"type":"function","name":"validateUserOp","inputs":[{"name":"userOp","type":"tuple","internalType":"struct PackedUserOperation","components":[{"name":"sender","type":"address","internalType":"address"},{"name":"nonce","type":"uint256","internalType":"uint256"},{"name":"initCode","type":"bytes","internalType":"bytes"},{"name":"callData","type":"bytes","internalType":"bytes"},{"name":"accountGasLimits","type":"bytes32","internalType":"bytes32"},{"name":"preVerificationGas","type":"uint256","internalType":"uint256"},{"name":"gasFees","type":"bytes32","internalType":"bytes32"},{"name":"paymasterAndData","type":"bytes","internalType":"bytes"},{"name":"signature","type":"bytes","internalType":"bytes"}]},{"name":"userOpHash","type":"bytes32","internalType":"bytes32"}],"outputs":[{"name":"","type":"uint256","internalType":"ERC7579ValidatorBase.ValidationData"}],"stateMutability":"nonpayable"},{"type":"function","name":"version","inputs":[],"outputs":[{"name":"","type":"string","internalType":"string"}],"stateMutability":"pure"},{"type":"event","name":"NewPassKeyRegistered","inputs":[{"name":"smartAccount","type":"address","indexed":true,"internalType":"address"},{"name":"keyId","type":"string","indexed":false,"internalType":"string"}],"anonymous":false},{"type":"error","name":"AlreadyInitedForSmartAccount","inputs":[{"name":"smartAccount","type":"address","internalType":"address"}]},{"type":"error","name":"AlreadyInitialized","inputs":[{"name":"smartAccount","type":"address","internalType":"address"}]},{"type":"error","name":"InvalidAuthenticatorData","inputs":[]},{"type":"error","name":"InvalidClientData","inputs":[]},{"type":"error","name":"NoPassKeyRegisteredForSmartAccount","inputs":[{"name":"smartAccount","type":"address","internalType":"address"}]},{"type":"error","name":"NotInitialized","inputs":[{"name":"smartAccount","type":"address","internalType":"address"}]}],"bytecode":{"object":"0x6080604052348015600f57600080fd5b50611d2c8061001f6000396000f3fe608060405234801561001057600080fd5b506004361061009e5760003560e01c80638d2bc529116100665780638d2bc5291461014b578063970032031461016d578063d60b347f1461018e578063ecd05961146101c9578063f551e2ee146101dd57600080fd5b806306fdde03146100a357806354fd4d50146100e25780636d61fe70146101035780637d57e7a1146101185780638a91b0e314610138575b600080fd5b6040805180820190915260118152702bb2b120baba34372b30b634b230ba37b960791b60208201525b6040516100d991906115c9565b60405180910390f35b604080518082019091526005815264302e302e3160d81b60208201526100cc565b610116610111366004611625565b610209565b005b61012b610126366004611683565b610255565b6040516100d9919061169e565b610116610146366004611625565b610355565b61015e610159366004611683565b610361565b6040516100d9939291906116cd565b61018061017b3660046116f5565b61040c565b6040519081526020016100d9565b6101b961019c366004611683565b6001600160a01b0316600090815260208190526040902054151590565b60405190151581526020016100d9565b6101b96101d7366004611740565b60011490565b6101f06101eb366004611759565b6105bd565b6040516001600160e01b031990911681526020016100d9565b60006102178284018461188b565b336000908152602081815260409182902083518155908301516001820155908201519192508291600282019061024d90826119a5565b505050505050565b61027960405180606001604052806000815260200160008152602001606081525090565b600080836001600160a01b03166001600160a01b0316815260200190815260200160002060405180606001604052908160008201548152602001600182015481526020016002820180546102cc90611923565b80601f01602080910402602001604051908101604052809291908181526020018280546102f890611923565b80156103455780601f1061031a57610100808354040283529160200191610345565b820191906000526020600020905b81548152906001019060200180831161032857829003601f168201915b5050505050815250509050919050565b61035d6105cf565b5050565b6000602081905290815260409020805460018201546002830180549293919261038990611923565b80601f01602080910402602001604051908101604052809291908181526020018280546103b590611923565b80156104025780601f106103d757610100808354040283529160200191610402565b820191906000526020600020905b8154815290600101906020018083116103e557829003601f168201915b5050505050905083565b60008080808080610421610100890189611a65565b81019061042e9190611acc565b955095509550955095505060008060006104468b3590565b6001600160a01b03166001600160a01b03168152602001908152602001600020604051806060016040529081600082015481526020016001820154815260200160028201805461049590611923565b80601f01602080910402602001604051908101604052809291908181526020018280546104c190611923565b801561050e5780601f106104e35761010080835404028352916020019161050e565b820191906000526020600020905b8154815290600101906020018083116104f157829003601f168201915b5050509190925250508151919250501580159061052e5750602081015115155b61056e5760405162461bcd60e51b815260206004820152600d60248201526c12d95e481b9bdd08199bdd5b99609a1b604482015260640160405180910390fd5b60408051808201909152815181526020808301519082015260006105978888888d898988610624565b90506105ac811565ffffffffffff6000610652565b985050505050505050505b92915050565b6001600160e01b03195b949350505050565b6040805160608101825260008082526020808301828152845180830186528381528486019081523384529183905293909120825181559251600184015551909190600282019061061f90826119a5565b505050565b600080610635898989898989610669565b90506000610644828686610830565b9a9950505050505050505050565b600061065f848484610929565b90505b9392505050565b6000856001600160f81b031916868860208151811061068a5761068a611bb4565b0160200151166001600160f81b031916146106b857604051637e49a3c960e11b815260040160405180910390fd5b60006106e4856040516020016106d091815260200190565b604051602081830303815290604052610961565b90506000816040516020016106f99190611bca565b60405160208183030381529060405280519060200120905080826040516020016107239190611bca565b60405160208183030381529060405280519060200120146107575760405163ebab5d2960e01b815260040160405180910390fd5b5050600060028660405161076b9190611bca565b602060405180830381855afa158015610788573d6000803e3d6000fd5b5050506040513d601f19601f820116820180604052508101906107ab9190611be6565b9050600088826040516020016107c2929190611bff565b60405160208183030381529060405290506002816040516107e39190611bca565b602060405180830381855afa158015610800573d6000803e3d6000fd5b5050506040513d601f19601f820116820180604052508101906108239190611be6565b9998505050505050505050565b8151600090158061085057508251600080516020611c9783398151915211155b8061085d57506020830151155b8061087a57506020830151600080516020611c9783398151915211155b1561088757506000610662565b815160208301516108989190610a8a565b6108a457506000610662565b60006108b68460016020020151610b83565b90506000600080516020611c9783398151915282870990506000600080516020611c97833981519152838760006020020151098551602087015191925060009161090291908585610bfc565b8751909150600080516020611c978339815191528181038308159998505050505050505050565b600060d08265ffffffffffff16901b60a08465ffffffffffff16901b85610951576000610954565b60015b60ff161717949350505050565b6060815160000361098057505060408051602081019091526000815290565b6000604051806060016040528060408152602001611cb7604091399050600060016003855160026109b19190611c37565b6109bb9190611c4a565b6109c6906004611c6c565b6109d09190611c83565b67ffffffffffffffff8111156109e8576109e86117b3565b6040519080825280601f01601f191660200182016040528015610a12576020820181803683370190505b509050600182016020820185865187015b80821015610a7e576003820191508151603f8160121c168501518453600184019350603f81600c1c168501518453600184019350603f8160061c168501518453600184019350603f8116850151845350600183019250610a23565b50929695505050505050565b6000821580610aa65750600160601b63ffffffff60c01b031983145b80610aaf575081155b80610ac75750600160601b63ffffffff60c01b031982145b15610ad4575060006105b7565b6000600160601b63ffffffff60c01b031983840990506000600160601b63ffffffff60c01b0319807fffffffff00000001000000000000000000000000fffffffffffffffffffffffc8709600160601b63ffffffff60c01b031987600160601b63ffffffff60c01b0319898a0909089050600160601b63ffffffff60c01b03197f5ac635d8aa3a93e7b3ebbd55769886bc651d06b0cc53b0f63bce3c3e27d2604b820891909114949350505050565b6000610b8d61155b565b60208152602080820152602060408201528260608201527fffffffff00000000ffffffffffffffffbce6faada7179e84f3b9cac2fc63254f6080820152600080516020611c9783398151915260a082015260208160c08360006005600019f1610bf557600080fd5b5192915050565b600080808060ff610c0b61155b565b60008089158015610c1a575088155b15610c2f5760009750505050505050506105c7565b610c7b7f6b17d1f2e12c4247f8bce6e563a440f277037d812deb33a0f4a13945d898c2967f4fe342e2fe1a7f9b8ee7eb4a7c0f9e162bce33576b315ececbb6406837bf51f58e8e6112a9565b809250819350505060018a851c1660018a861c1660011b015b80610cb65760018503945060018b861c1660018b871c1660011b019050610c94565b5060018a851c1660018a861c1660011b01965060018703610d18577f6b17d1f2e12c4247f8bce6e563a440f277037d812deb33a0f4a13945d898c29697507f4fe342e2fe1a7f9b8ee7eb4a7c0f9e162bce33576b315ececbb6406837bf51f594505b60028703610d27578b97508a94505b60038703610d36578197508094505b60018403935060019650600195505b83600019111561122d57600160601b63ffffffff60c01b031985600209600160601b63ffffffff60c01b0319818209600160601b63ffffffff60c01b0319818b09600160601b63ffffffff60c01b03198284099250600160601b63ffffffff60c01b031980600160601b63ffffffff60c01b03198c8e08600160601b63ffffffff60c01b03198d600160601b63ffffffff60c01b0319038f0809600309600160601b63ffffffff60c01b03198a85099950600160601b63ffffffff60c01b03198b84099a50600160601b63ffffffff60c01b031980836002600160601b0363ffffffff60c01b031909600160601b63ffffffff60c01b0319838409089b50600160601b63ffffffff60c01b03198083600160601b63ffffffff60c01b0319038e0882099250600160601b63ffffffff60c01b031983600160601b63ffffffff60c01b03198b870908985060018e891c1660018e8a1c1660011b01905080610ec25788600160601b63ffffffff60c01b031903985050505050611222565b60018103610f11577f6b17d1f2e12c4247f8bce6e563a440f277037d812deb33a0f4a13945d898c29693507f4fe342e2fe1a7f9b8ee7eb4a7c0f9e162bce33576b315ececbb6406837bf51f592505b60028103610f20578f93508e92505b60038103610f2f578593508492505b8a610f4857509199506001985088975095506112229050565b600160601b63ffffffff60c01b031989600160601b63ffffffff60c01b03198c860908600160601b63ffffffff60c01b03198d600160601b63ffffffff60c01b031903600160601b63ffffffff60c01b03198e880908935080611114578361111457600160601b63ffffffff60c01b03198a6002600160601b0363ffffffff60c01b0319099450600160601b63ffffffff60c01b03198586099350600160601b63ffffffff60c01b0319848e099250600160601b63ffffffff60c01b0319848609600160601b63ffffffff60c01b03198d8f089150600160601b63ffffffff60c01b03198d600160601b63ffffffff60c01b0319038f089050600160601b63ffffffff60c01b03198183099150600160601b63ffffffff60c01b0319826003099250600160601b63ffffffff60c01b03198c82099b5050600160601b63ffffffff60c01b03198c85099b50600160601b63ffffffff60c01b031980846002600160601b0363ffffffff60c01b031909600160601b63ffffffff60c01b0319848509089c50600160601b63ffffffff60c01b0319808e600160601b63ffffffff60c01b031903850883099350600160601b63ffffffff60c01b0319808b8709850899505050505050611222565b600160601b63ffffffff60c01b03198485099150600160601b63ffffffff60c01b0319848309600160601b63ffffffff60c01b0319838e099c50600160601b63ffffffff60c01b0319818d099b50600160601b63ffffffff60c01b0319838f09600160601b63ffffffff60c01b031980826002600160601b0363ffffffff60c01b031909600160601b63ffffffff60c01b031984600160601b63ffffffff60c01b031903600160601b63ffffffff60c01b031987880908089350600160601b63ffffffff60c01b031980838e09600160601b63ffffffff60c01b031985600160601b63ffffffff60c01b031988600160601b63ffffffff60c01b031903860809089b50505050809b50505050505b600184039350610d45565b86606084015260208352602080840152602060408401526002600160601b0363ffffffff60c01b03196080840152600160601b63ffffffff60c01b031960a084015260208360c08560006005600019f161128657600080fd5b600160601b63ffffffff60c01b0319835189099c9b505050505050505050505050565b6000808080866112c05785859350935050506112fe565b846112d25787879350935050506112fe565b6112e188886001808a8a611307565b929a50909850925090506112f78888848461148b565b9350935050505b94509492505050565b600080600080886000036113265750849250839150600190508061147e565b600160601b63ffffffff60c01b0319988903988981898809089450600160601b63ffffffff60c01b03198a600160601b63ffffffff60c01b031903600160601b63ffffffff60c01b03198a8909089550600160601b63ffffffff60c01b03198687099350600160601b63ffffffff60c01b03198685099250600160601b63ffffffff60c01b03198489099150600160601b63ffffffff60c01b03198388099050600160601b63ffffffff60c01b0319848b099750600160601b63ffffffff60c01b031980896002600160601b0363ffffffff60c01b031909600160601b63ffffffff60c01b031985600160601b63ffffffff60c01b031903600160601b63ffffffff60c01b0319898a0908089350600160601b63ffffffff60c01b031980848b09600160601b63ffffffff60c01b031987600160601b63ffffffff60c01b031988600160601b63ffffffff60c01b0319038d08090892505b9650965096509692505050565b6000806000611499846114f8565b9050600160601b63ffffffff60c01b031981870991506000600160601b63ffffffff60c01b03198287099050600160601b63ffffffff60c01b03198182099150600160601b63ffffffff60c01b03198289099350505094509492505050565b600061150261155b565b60208152602080820152602060408201528260608201526002600160601b0363ffffffff60c01b03196080820152600160601b63ffffffff60c01b031960a082015260208160c08360006005600019f1610bf557600080fd5b6040518060c001604052806006906020820280368337509192915050565b60005b8381101561159457818101518382015260200161157c565b50506000910152565b600081518084526115b5816020860160208601611579565b601f01601f19169290920160200192915050565b602081526000610662602083018461159d565b60008083601f8401126115ee57600080fd5b50813567ffffffffffffffff81111561160657600080fd5b60208301915083602082850101111561161e57600080fd5b9250929050565b6000806020838503121561163857600080fd5b823567ffffffffffffffff81111561164f57600080fd5b61165b858286016115dc565b90969095509350505050565b80356001600160a01b038116811461167e57600080fd5b919050565b60006020828403121561169557600080fd5b61066282611667565b602081528151602082015260208201516040820152600060408301516060808401526105c7608084018261159d565b8381528260208201526060604082015260006116ec606083018461159d565b95945050505050565b6000806040838503121561170857600080fd5b823567ffffffffffffffff81111561171f57600080fd5b8301610120818603121561173257600080fd5b946020939093013593505050565b60006020828403121561175257600080fd5b5035919050565b6000806000806060858703121561176f57600080fd5b61177885611667565b935060208501359250604085013567ffffffffffffffff81111561179b57600080fd5b6117a7878288016115dc565b95989497509550505050565b634e487b7160e01b600052604160045260246000fd5b6040516060810167ffffffffffffffff811182821017156117ec576117ec6117b3565b60405290565b6040805190810167ffffffffffffffff811182821017156117ec576117ec6117b3565b600067ffffffffffffffff80841115611830576118306117b3565b604051601f8501601f19908116603f01168101908282118183101715611858576118586117b3565b8160405280935085815286868601111561187157600080fd5b858560208301376000602087830101525050509392505050565b60006020828403121561189d57600080fd5b813567ffffffffffffffff808211156118b557600080fd5b90830190606082860312156118c957600080fd5b6118d16117c9565b82358152602083013560208201526040830135828111156118f157600080fd5b80840193505085601f84011261190657600080fd5b61191586843560208601611815565b604082015295945050505050565b600181811c9082168061193757607f821691505b60208210810361195757634e487b7160e01b600052602260045260246000fd5b50919050565b601f82111561061f576000816000526020600020601f850160051c810160208610156119865750805b601f850160051c820191505b8181101561024d57828155600101611992565b815167ffffffffffffffff8111156119bf576119bf6117b3565b6119d3816119cd8454611923565b8461195d565b602080601f831160018114611a0857600084156119f05750858301515b600019600386901b1c1916600185901b17855561024d565b600085815260208120601f198616915b82811015611a3757888601518255948401946001909101908401611a18565b5085821015611a555787850151600019600388901b60f8161c191681555b5050505050600190811b01905550565b6000808335601e19843603018112611a7c57600080fd5b83018035915067ffffffffffffffff821115611a9757600080fd5b60200191503681900382131561161e57600080fd5b600082601f830112611abd57600080fd5b61066283833560208501611815565b60008060008060008060e08789031215611ae557600080fd5b8635955060208088013567ffffffffffffffff80821115611b0557600080fd5b611b118b838c01611aac565b975060408a013591506001600160f81b031982168214611b3057600080fd5b90955060608901359080821115611b4657600080fd5b50611b538a828b01611aac565b945050608088013592508860bf890112611b6c57600080fd5b611b746117f2565b8060e08a018b811115611b8657600080fd5b60a08b015b81811015611ba25780358452928401928401611b8b565b50508093505050509295509295509295565b634e487b7160e01b600052603260045260246000fd5b60008251611bdc818460208701611579565b9190910192915050565b600060208284031215611bf857600080fd5b5051919050565b60008351611c11818460208801611579565b9190910191825250602001919050565b634e487b7160e01b600052601160045260246000fd5b808201808211156105b7576105b7611c21565b600082611c6757634e487b7160e01b600052601260045260246000fd5b500490565b80820281158282048414176105b7576105b7611c21565b818103818111156105b7576105b7611c2156feffffffff00000000ffffffffffffffffbce6faada7179e84f3b9cac2fc6325514142434445464748494a4b4c4d4e4f505152535455565758595a6162636465666768696a6b6c6d6e6f707172737475767778797a303132333435363738392d5fa26469706673582212208c5dfe73e69f1ff8ff335405305a63c1ac37163efad2dc2020860dc8121beac464736f6c63430008190033","linkReferences":{}},"methodIdentifiers":{"getAuthorizedKey(address)":"7d57e7a1","isInitialized(address)":"d60b347f","isModuleType(uint256)":"ecd05961","isValidSignatureWithSender(address,bytes32,bytes)":"f551e2ee","name()":"06fdde03","onInstall(bytes)":"6d61fe70","onUninstall(bytes)":"8a91b0e3","smartAccountPassKeys(address)":"8d2bc529","validateUserOp((address,uint256,bytes,bytes,bytes32,uint256,bytes32,bytes,bytes),bytes32)":"97003203","version()":"54fd4d50"},"id":22}