{"abi":[{"type":"function","name":"exec","inputs":[{"name":"account","type":"address","internalType":"address"},{"name":"to","type":"address","internalType":"address"},{"name":"value","type":"uint256","internalType":"uint256"},{"name":"callData","type":"bytes","internalType":"bytes"}],"outputs":[{"name":"","type":"bytes","internalType":"bytes"}],"stateMutability":"nonpayable"},{"type":"function","name":"execBatch","inputs":[{"name":"account","type":"address","internalType":"contract IERC7579Account"},{"name":"execs","type":"tuple[]","internalType":"struct Execution[]","components":[{"name":"target","type":"address","internalType":"address"},{"name":"value","type":"uint256","internalType":"uint256"},{"name":"callData","type":"bytes","internalType":"bytes"}]}],"outputs":[{"name":"returnData","type":"bytes[]","internalType":"bytes[]"}],"stateMutability":"nonpayable"},{"type":"function","name":"executeViaAccount","inputs":[{"name":"account","type":"address","internalType":"contract IERC7579Account"},{"name":"target","type":"address","internalType":"address"},{"name":"value","type":"uint256","internalType":"uint256"},{"name":"callData","type":"bytes","internalType":"bytes"}],"outputs":[{"name":"returnData","type":"bytes[]","internalType":"bytes[]"}],"stateMutability":"nonpayable"},{"type":"function","name":"isInitialized","inputs":[{"name":"smartAccount","type":"address","internalType":"address"}],"outputs":[{"name":"","type":"bool","internalType":"bool"}],"stateMutability":"pure"},{"type":"function","name":"isModuleType","inputs":[{"name":"typeID","type":"uint256","internalType":"uint256"}],"outputs":[{"name":"","type":"bool","internalType":"bool"}],"stateMutability":"pure"},{"type":"function","name":"onInstall","inputs":[{"name":"data","type":"bytes","internalType":"bytes"}],"outputs":[],"stateMutability":"nonpayable"},{"type":"function","name":"onUninstall","inputs":[{"name":"data","type":"bytes","internalType":"bytes"}],"outputs":[],"stateMutability":"nonpayable"},{"type":"error","name":"AlreadyInitialized","inputs":[{"name":"smartAccount","type":"address","internalType":"address"}]},{"type":"error","name":"NotInitialized","inputs":[{"name":"smartAccount","type":"address","internalType":"address"}]}],"bytecode":{"object":"0x6080604052348015600f57600080fd5b50610b158061001f6000396000f3fe608060405234801561001057600080fd5b506004361061007d5760003560e01c80636d61fe701161005b5780636d61fe70146100de5780638a91b0e3146100de578063d60b347f146100f2578063ecd059611461011657600080fd5b806328b7b036146100825780633006a107146100ab57806359053a55146100cb575b600080fd5b6100956100903660046104cc565b61012a565b6040516100a2919061058f565b60405180910390f35b6100be6100b93660046104cc565b610178565b6040516100a291906105a9565b6100be6100d936600461060d565b610236565b6100f06100ec366004610695565b5050565b005b6101066101003660046106d7565b50600090565b60405190151581526020016100a2565b6101066101243660046106f4565b60021490565b606061016e86868686868080601f0160208091040260200160405190810160405280939291908181526020018383808284376000920191909152506102cd92505050565b9695505050505050565b6060856001600160a01b031663d691c964610191610383565b6101d2888888888080601f01602080910402602001604051908101604052809392919081815260200183838082843760009201919091525061039692505050565b6040518363ffffffff1660e01b81526004016101ef92919061070d565b6000604051808303816000875af115801561020e573d6000803e3d6000fd5b505050506040513d6000823e601f3d908101601f1916820160405261016e91908101906107e2565b6060836001600160a01b031663d691c96461024f6103c5565b61026161025c86886108d4565b6103d7565b6040518363ffffffff1660e01b815260040161027e92919061070d565b6000604051808303816000875af115801561029d573d6000803e3d6000fd5b505050506040513d6000823e601f3d908101601f191682016040526102c591908101906107e2565b949350505050565b606060006102dd81808080610400565b9050856001600160a01b031663d691c964826102fa888888610396565b6040518363ffffffff1660e01b815260040161031792919061070d565b6000604051808303816000875af1158015610336573d6000803e3d6000fd5b505050506040513d6000823e601f3d908101601f1916820160405261035e91908101906107e2565b600081518110610370576103706109d9565b6020026020010151915050949350505050565b600061039181808080610400565b905090565b60608383836040516020016103ad939291906109ef565b60405160208183030381529060405290509392505050565b6000610391600160f81b828080610400565b6060816040516020016103ea9190610a2e565b6040516020818303038152906040529050919050565b604080516001600160f81b03198087166020830152851660218201526000602282018190526001600160e01b03198516602683015269ffffffffffffffffffff198416602a830152910160405160208183030381529060405261046290610ab8565b95945050505050565b6001600160a01b038116811461048057600080fd5b50565b60008083601f84011261049557600080fd5b50813567ffffffffffffffff8111156104ad57600080fd5b6020830191508360208285010111156104c557600080fd5b9250929050565b6000806000806000608086880312156104e457600080fd5b85356104ef8161046b565b945060208601356104ff8161046b565b935060408601359250606086013567ffffffffffffffff81111561052257600080fd5b61052e88828901610483565b969995985093965092949392505050565b60005b8381101561055a578181015183820152602001610542565b50506000910152565b6000815180845261057b81602086016020860161053f565b601f01601f19169290920160200192915050565b6020815260006105a26020830184610563565b9392505050565b600060208083016020845280855180835260408601915060408160051b87010192506020870160005b8281101561060057603f198886030184526105ee858351610563565b945092850192908501906001016105d2565b5092979650505050505050565b60008060006040848603121561062257600080fd5b833561062d8161046b565b9250602084013567ffffffffffffffff8082111561064a57600080fd5b818601915086601f83011261065e57600080fd5b81358181111561066d57600080fd5b8760208260051b850101111561068257600080fd5b6020830194508093505050509250925092565b600080602083850312156106a857600080fd5b823567ffffffffffffffff8111156106bf57600080fd5b6106cb85828601610483565b90969095509350505050565b6000602082840312156106e957600080fd5b81356105a28161046b565b60006020828403121561070657600080fd5b5035919050565b8281526040602082015260006102c56040830184610563565b634e487b7160e01b600052604160045260246000fd5b6040516060810167ffffffffffffffff8111828210171561075f5761075f610726565b60405290565b604051601f8201601f1916810167ffffffffffffffff8111828210171561078e5761078e610726565b604052919050565b600067ffffffffffffffff8211156107b0576107b0610726565b5060051b60200190565b600067ffffffffffffffff8211156107d4576107d4610726565b50601f01601f191660200190565b600060208083850312156107f557600080fd5b825167ffffffffffffffff8082111561080d57600080fd5b818501915085601f83011261082157600080fd5b815161083461082f82610796565b610765565b81815260059190911b8301840190848101908883111561085357600080fd5b8585015b838110156108c75780518581111561086f5760008081fd5b8601603f81018b136108815760008081fd5b87810151604061089361082f836107ba565b8281528d828486010111156108a85760008081fd5b6108b7838c830184870161053f565b8652505050918601918601610857565b5098975050505050505050565b60006108e261082f84610796565b80848252602080830192508560051b85013681111561090057600080fd5b855b818110156109cd57803567ffffffffffffffff808211156109235760008081fd5b8189019150606082360312156109395760008081fd5b61094161073c565b823561094c8161046b565b815282860135868201526040808401358381111561096a5760008081fd5b939093019236601f85011261098157600092508283fd5b8335925061099161082f846107ba565b83815236888587010111156109a65760008081fd5b83888601898301376000938101880193909352810191909152865250938201938201610902565b50919695505050505050565b634e487b7160e01b600052603260045260246000fd5b6bffffffffffffffffffffffff198460601b16815282601482015260008251610a1f81603485016020870161053f565b91909101603401949350505050565b600060208083018184528085518083526040925060408601915060408160051b87010184880160005b83811015610aaa57888303603f19018552815180516001600160a01b0316845287810151888501528601516060878501819052610a9681860183610563565b968901969450505090860190600101610a57565b509098975050505050505050565b80516020808301519190811015610ad9576000198160200360031b1b821691505b5091905056fea26469706673582212205dd6d4c78b8821262f200c3feef861b2ca6c911f3625e0e6f6a7eb142741150b64736f6c63430008190033","linkReferences":{}},"methodIdentifiers":{"exec(address,address,uint256,bytes)":"28b7b036","execBatch(address,(address,uint256,bytes)[])":"59053a55","executeViaAccount(address,address,uint256,bytes)":"3006a107","isInitialized(address)":"d60b347f","isModuleType(uint256)":"ecd05961","onInstall(bytes)":"6d61fe70","onUninstall(bytes)":"8a91b0e3"},"id":98}