{"abi":[{"type":"function","name":"entryPoint","inputs":[],"outputs":[{"name":"","type":"address","internalType":"address"}],"stateMutability":"view"},{"type":"error","name":"AccountAccessUnauthorized","inputs":[]}],"bytecode":{"object":"0x6080604052348015600f57600080fd5b50608680601d6000396000f3fe6080604052348015600f57600080fd5b506004361060285760003560e01c8063b0d691fe14602d575b600080fd5b604080516f71727de22e5e9d8baf0edac6f37da032815290519081900360200190f3fea26469706673582212205ae8f752d13c43bf512216ea1c4e56e1cff9a40e01a01aebccb4e6777b962e9164736f6c63430008190033","linkReferences":{}},"methodIdentifiers":{"entryPoint()":"b0d691fe"},"id":162}