{"abi":[{"type":"function","name":"auxiliary","inputs":[],"outputs":[{"name":"entrypoint","type":"address","internalType":"contract IEntryPoint"},{"name":"gasSimulation","type":"address","internalType":"contract UserOpGasLog"},{"name":"fallbackHandler","type":"address","internalType":"contract ExtensibleFallbackHandler"},{"name":"bootstrap","type":"address","internalType":"contract Bootstrap"},{"name":"registry","type":"address","internalType":"contract MockRegistry"},{"name":"initialTrustedAttester","type":"address","internalType":"address"},{"name":"mockFactory","type":"address","internalType":"contract MockFactory"}],"stateMutability":"view"}],"bytecode":{"object":"0x6080604052348015600f57600080fd5b5060e58061001e6000396000f3fe6080604052348015600f57600080fd5b506004361060285760003560e01c8063cb802c5514602d575b600080fd5b6000546001546002546003546004546005546006546064966001600160a01b03908116968116958116948116938116928116911687565b604080516001600160a01b03988916815296881660208801529487168686015292861660608601529085166080850152841660a084015290921660c082015290519081900360e00190f3fea264697066735822122064752252c7e5f924b5161e175422cfc26a7e0e93b9cc58e13fa416b86c9b6f8864736f6c63430008190033","linkReferences":{}},"methodIdentifiers":{"auxiliary()":"cb802c55"},"id":193}