{"abi":[{"type":"fallback","stateMutability":"payable"},{"type":"receive","stateMutability":"payable"},{"type":"function","name":"accountId","inputs":[],"outputs":[{"name":"accountImplementationId","type":"string","internalType":"string"}],"stateMutability":"view"},{"type":"function","name":"domainSeparator","inputs":[],"outputs":[{"name":"","type":"bytes32","internalType":"bytes32"}],"stateMutability":"view"},{"type":"function","name":"entryPoint","inputs":[],"outputs":[{"name":"","type":"address","internalType":"address"}],"stateMutability":"view"},{"type":"function","name":"execute","inputs":[{"name":"mode","type":"bytes32","internalType":"ModeCode"},{"name":"executionCalldata","type":"bytes","internalType":"bytes"}],"outputs":[],"stateMutability":"payable"},{"type":"function","name":"executeFromExecutor","inputs":[{"name":"mode","type":"bytes32","internalType":"ModeCode"},{"name":"executionCalldata","type":"bytes","internalType":"bytes"}],"outputs":[{"name":"returnData","type":"bytes[]","internalType":"bytes[]"}],"stateMutability":"payable"},{"type":"function","name":"executeUserOp","inputs":[{"name":"userOp","type":"tuple","internalType":"struct PackedUserOperation","components":[{"name":"sender","type":"address","internalType":"address"},{"name":"nonce","type":"uint256","internalType":"uint256"},{"name":"initCode","type":"bytes","internalType":"bytes"},{"name":"callData","type":"bytes","internalType":"bytes"},{"name":"accountGasLimits","type":"bytes32","internalType":"bytes32"},{"name":"preVerificationGas","type":"uint256","internalType":"uint256"},{"name":"gasFees","type":"bytes32","internalType":"bytes32"},{"name":"paymasterAndData","type":"bytes","internalType":"bytes"},{"name":"signature","type":"bytes","internalType":"bytes"}]},{"name":"userOpHash","type":"bytes32","internalType":"bytes32"}],"outputs":[],"stateMutability":"payable"},{"type":"function","name":"getActiveFallbackHandler","inputs":[],"outputs":[{"name":"","type":"address","internalType":"address"}],"stateMutability":"view"},{"type":"function","name":"getActiveHook","inputs":[],"outputs":[{"name":"hook","type":"address","internalType":"address"}],"stateMutability":"view"},{"type":"function","name":"getExecutorsPaginated","inputs":[{"name":"cursor","type":"address","internalType":"address"},{"name":"size","type":"uint256","internalType":"uint256"}],"outputs":[{"name":"array","type":"address[]","internalType":"address[]"},{"name":"next","type":"address","internalType":"address"}],"stateMutability":"view"},{"type":"function","name":"getValidatorPaginated","inputs":[{"name":"start","type":"address","internalType":"address"},{"name":"pageSize","type":"uint256","internalType":"uint256"}],"outputs":[{"name":"array","type":"address[]","internalType":"address[]"},{"name":"next","type":"address","internalType":"address"}],"stateMutability":"view"},{"type":"function","name":"initializeAccount","inputs":[{"name":"data","type":"bytes","internalType":"bytes"}],"outputs":[],"stateMutability":"payable"},{"type":"function","name":"installModule","inputs":[{"name":"moduleType","type":"uint256","internalType":"uint256"},{"name":"module","type":"address","internalType":"address"},{"name":"initData","type":"bytes","internalType":"bytes"}],"outputs":[],"stateMutability":"payable"},{"type":"function","name":"isModuleInstalled","inputs":[{"name":"moduleType","type":"uint256","internalType":"uint256"},{"name":"module","type":"address","internalType":"address"},{"name":"","type":"bytes","internalType":"bytes"}],"outputs":[{"name":"","type":"bool","internalType":"bool"}],"stateMutability":"view"},{"type":"function","name":"isValidSignature","inputs":[{"name":"hash","type":"bytes32","internalType":"bytes32"},{"name":"data","type":"bytes","internalType":"bytes"}],"outputs":[{"name":"","type":"bytes4","internalType":"bytes4"}],"stateMutability":"view"},{"type":"function","name":"supportsExecutionMode","inputs":[{"name":"encodedMode","type":"bytes32","internalType":"ModeCode"}],"outputs":[{"name":"","type":"bool","internalType":"bool"}],"stateMutability":"pure"},{"type":"function","name":"supportsModule","inputs":[{"name":"moduleTypeId","type":"uint256","internalType":"uint256"}],"outputs":[{"name":"","type":"bool","internalType":"bool"}],"stateMutability":"pure"},{"type":"function","name":"uninstallModule","inputs":[{"name":"moduleType","type":"uint256","internalType":"uint256"},{"name":"module","type":"address","internalType":"address"},{"name":"deInitData","type":"bytes","internalType":"bytes"}],"outputs":[],"stateMutability":"payable"},{"type":"function","name":"validateUserOp","inputs":[{"name":"userOp","type":"tuple","internalType":"struct PackedUserOperation","components":[{"name":"sender","type":"address","internalType":"address"},{"name":"nonce","type":"uint256","internalType":"uint256"},{"name":"initCode","type":"bytes","internalType":"bytes"},{"name":"callData","type":"bytes","internalType":"bytes"},{"name":"accountGasLimits","type":"bytes32","internalType":"bytes32"},{"name":"preVerificationGas","type":"uint256","internalType":"uint256"},{"name":"gasFees","type":"bytes32","internalType":"bytes32"},{"name":"paymasterAndData","type":"bytes","internalType":"bytes"},{"name":"signature","type":"bytes","internalType":"bytes"}]},{"name":"userOpHash","type":"bytes32","internalType":"bytes32"},{"name":"missingAccountFunds","type":"uint256","internalType":"uint256"}],"outputs":[{"name":"validSignature","type":"uint256","internalType":"uint256"}],"stateMutability":"payable"},{"type":"event","name":"ModuleInstalled","inputs":[{"name":"moduleTypeId","type":"uint256","indexed":false,"internalType":"uint256"},{"name":"module","type":"address","indexed":false,"internalType":"address"}],"anonymous":false},{"type":"event","name":"ModuleUninstalled","inputs":[{"name":"moduleTypeId","type":"uint256","indexed":false,"internalType":"uint256"},{"name":"module","type":"address","indexed":false,"internalType":"address"}],"anonymous":false},{"type":"error","name":"AccountAccessUnauthorized","inputs":[]},{"type":"error","name":"AccountInitializationFailed","inputs":[]},{"type":"error","name":"CannotRemoveLastValidator","inputs":[]},{"type":"error","name":"ExecutionFailed","inputs":[]},{"type":"error","name":"HookAlreadyInstalled","inputs":[{"name":"currentHook","type":"address","internalType":"address"}]},{"type":"error","name":"HookPostCheckFailed","inputs":[]},{"type":"error","name":"InitializerError","inputs":[]},{"type":"error","name":"InvalidModule","inputs":[{"name":"module","type":"address","internalType":"address"}]},{"type":"error","name":"LinkedListError","inputs":[]},{"type":"error","name":"LinkedList_AlreadyInitialized","inputs":[]},{"type":"error","name":"LinkedList_AlreadyInitialized","inputs":[]},{"type":"error","name":"LinkedList_EntryAlreadyInList","inputs":[{"name":"entry","type":"address","internalType":"address"}]},{"type":"error","name":"LinkedList_EntryAlreadyInList","inputs":[{"name":"entry","type":"address","internalType":"address"}]},{"type":"error","name":"LinkedList_InvalidEntry","inputs":[{"name":"entry","type":"address","internalType":"address"}]},{"type":"error","name":"LinkedList_InvalidEntry","inputs":[{"name":"entry","type":"address","internalType":"address"}]},{"type":"error","name":"LinkedList_InvalidPage","inputs":[]},{"type":"error","name":"LinkedList_InvalidPage","inputs":[]},{"type":"error","name":"MismatchModuleTypeId","inputs":[{"name":"moduleTypeId","type":"uint256","internalType":"uint256"}]},{"type":"error","name":"NoFallbackHandler","inputs":[]},{"type":"error","name":"Unsupported","inputs":[]},{"type":"error","name":"UnsupportedCallType","inputs":[{"name":"callType","type":"bytes1","internalType":"CallType"}]},{"type":"error","name":"UnsupportedExecType","inputs":[{"name":"execType","type":"bytes1","internalType":"ExecType"}]},{"type":"error","name":"UnsupportedModuleType","inputs":[{"name":"moduleTypeId","type":"uint256","internalType":"uint256"}]},{"type":"error","name":"ValidatorStorageHelperError","inputs":[]}],"bytecode":{"object":"0x6080604052348015600f57600080fd5b50612be48061001f6000396000f3fe60806040526004361061010d5760003560e01c80639cfd7cff11610095578063d691c96411610064578063d691c9641461039f578063e9ae5c53146103bf578063ea5f61d0146103d2578063f2dc691d146103f2578063f698da251461041257610114565b80639cfd7cff14610327578063a71763a814610349578063b0d691fe1461035c578063d03c79141461037f57610114565b80634b6a1419116100dc5780634b6a14191461029057806385571368146102a55780638acf4c6a146102d35780638dd7712f146103015780639517e29f1461031457610114565b80630a664dba146101be578063112d3a7d146102025780631626ba7e1461023257806319822f7c1461026f57610114565b3661011457005b60003560e01c63bc197c81811463f23a6e6182141763150b7a028214171561014057806020526020603cf35b50336000908152602081905260409020600101546001600160a01b03168061017b57604051632c4bc0b360e11b815260040160405180910390fd5b60006101b433833460003661018e610427565b6040516020016101a09392919061214a565b604051602081830303815290604052610433565b9050805160208201f35b3480156101ca57600080fd5b50336000908152600260205260409020546001600160a01b03165b6040516001600160a01b0390911681526020015b60405180910390f35b34801561020e57600080fd5b5061022261021d3660046121d1565b6104dc565b60405190151581526020016101f9565b34801561023e57600080fd5b5061025661024d36600461222c565b60009392505050565b6040516001600160e01b031990911681526020016101f9565b61028261027d366004612290565b61056c565b6040519081526020016101f9565b6102a361029e3660046122dd565b610638565b005b3480156102b157600080fd5b506102c56102c036600461231e565b6106d6565b6040516101f992919061234a565b3480156102df57600080fd5b50336000908152602081905260409020600101546001600160a01b03166101e5565b6102a361030f3660046123ad565b6106f3565b6102a36103223660046121d1565b6107e9565b34801561033357600080fd5b5061033c610970565b6040516101f99190612441565b6102a36103573660046121d1565b610a1f565b34801561036857600080fd5b506f71727de22e5e9d8baf0edac6f37da0326101e5565b34801561038b57600080fd5b5061022261039a366004612454565b610b46565b6103b26103ad36600461222c565b610b87565b6040516101f9919061246d565b6102a36103cd36600461222c565b610d22565b3480156103de57600080fd5b506102c56103ed36600461231e565b610e6e565b3480156103fe57600080fd5b5061022261040d366004612454565b610e98565b34801561041e57600080fd5b50610282610ee7565b60131936013560601c90565b60606000856001600160a01b0316635229073f86868660006040518563ffffffff1660e01b815260040161046a94939291906124d1565b6000604051808303816000875af1158015610489573d6000803e3d6000fd5b505050506040513d6000823e601f3d908101601f191682016040526104b191908101906125de565b92509050806104d357604051632b3f6d1160e21b815260040160405180910390fd5b50949350505050565b6000600185036104f6576104ef84610f40565b9050610564565b60028503610507576104ef84610f54565b6003850361053557336000908152602081905260409020600101546001600160a01b038086169116146104ef565b6004850361056057336000908152600260205260409020546001600160a01b038086169116146104ef565b5060005b949350505050565b60006020840135606081901c9061058282610f40565b6105985761058f86610f6d565b92505050610631565b60006105e3338460008a8a6040516024016105b4929190612699565b60408051601f198184030181529190526020810180516001600160e01b0316639700320360e01b179052610433565b9050808060200190518101906105f99190612798565b9350841561062d5761062d87356f71727de22e5e9d8baf0edac6f37da0328760405180602001604052806000815250611023565b5050505b9392505050565b6106406110bb565b60008061064f838501856127b1565b915091506000826001600160a01b03168260405161066d919061283e565b600060405180830381855af49150503d80600081146106a8576040519150601f19603f3d011682016040523d82523d6000602084013e6106ad565b606091505b50509050806106cf57604051631b79777760e11b815260040160405180910390fd5b5050505050565b606060006106e760013386866110e3565b915091505b9250929050565b6f71727de22e5e9d8baf0edac6f37da03261070c610427565b6001600160a01b031614806107395750610724610427565b6001600160a01b0316336001600160a01b0316145b61075657604051635629665f60e11b815260040160405180910390fd5b600030610766606085018561285a565b6107749160049082906128a0565b6040516107829291906128ca565b600060405180830381855af49150503d80600081146107bd576040519150601f19603f3d011682016040523d82523d6000602084013e6107c2565b606091505b50509050806107e457604051632b3f6d1160e21b815260040160405180910390fd5b505050565b6f71727de22e5e9d8baf0edac6f37da032610802610427565b6001600160a01b0316148061082f575061081a610427565b6001600160a01b0316336001600160a01b0316145b61084c57604051635629665f60e11b815260040160405180910390fd5b60018403610899576108948383838080601f0160208091040260200160405190810160405280939291908181526020018383808284376000920191909152506112a792505050565b610928565b600284036108e1576108948383838080601f0160208091040260200160405190810160405280939291908181526020018383808284376000920191909152506112fe92505050565b600384036108f45761089483838361132f565b600484036109075761089483838361137f565b60405163041c38b360e41b8152600481018590526024015b60405180910390fd5b604080518581526001600160a01b03851660208201527fd21d0b289f126c4b473ea641963e766833c2f13866e4ff480abd787c100ef12391015b60405180910390a150505050565b60606000336001600160a01b031663ffa1ad746040518163ffffffff1660e01b8152600401600060405180830381865afa1580156109b2573d6000803e3d6000fd5b505050506040513d6000823e601f3d908101601f191682016040526109da91908101906128da565b9050806040516020016109ed919061283e565b60408051601f1981840301815290829052610a0a91602001612922565b60405160208183030381529060405291505090565b6f71727de22e5e9d8baf0edac6f37da032610a38610427565b6001600160a01b03161480610a655750610a50610427565b6001600160a01b0316336001600160a01b0316145b610a8257604051635629665f60e11b815260040160405180910390fd5b60018403610acf57610aca8383838080601f01602080910402602001604051908101604052809392919081815260200183838082843760009201919091525061140392505050565b610b08565b60028403610ae257610aca838383611473565b60038403610af557610aca8383836114b8565b6004840361090757610aca8383836114f7565b604080518581526001600160a01b03851660208201527f341347516a9de374859dfda710fa4828b2d48cb57d4fbe4c1149612b8e02276e9101610962565b600081610b5781600160f81b61152d565b15610b655750600192915050565b610b7081600061152d565b15610b7e5750600192915050565b50600092915050565b6060610b99610b94610427565b610f54565b610bca57610ba5610427565b604051635c93ff2f60e11b81526001600160a01b03909116600482015260240161091f565b336000908152600260205260409020546001600160a01b03168015801590606090610bfb57610bf88361153f565b90505b86610c0a81600160f81b61152d565b15610c2d5786358701602081019035610c243383836115a9565b96505050610d11565b610c3881600061152d565b15610cec57600080366000610c4d8b8b6116b8565b6040805160018082528183019092529498509296509094509250816020015b6060815260200190600190039081610c6c579050509850610cc533858585858080601f01602080910402602001604051908101604052809392919081815260200183838082843760009201919091525061043392505050565b89600081518110610cd857610cd8612967565b602002602001018190525050505050610d11565b604051632e5bf3f960e21b81526001600160f81b03198216600482015260240161091f565b50811561062d5761062d8382611709565b336000908152600260205260409020546001600160a01b03168015801590606090610d5357610d508361153f565b90505b6f71727de22e5e9d8baf0edac6f37da032610d6c610427565b6001600160a01b03161480610d995750610d84610427565b6001600160a01b0316336001600160a01b0316145b610db657604051635629665f60e11b815260040160405180910390fd5b85610dc581600160f81b61152d565b15610de65785358601602081019035610ddf338383611770565b5050610e55565b610df181600061152d565b15610cec57600080366000610e068a8a6116b8565b9350935093509350610e5033858585858080601f01602080910402602001604051908101604052809392919081815260200183838082843760009201919091525061102392505050565b505050505b508115610e6657610e668382611709565b505050505050565b33600090815260208190526040812060609190610e8c818686611809565b92509250509250929050565b600060018203610eaa57506001919050565b60028203610eba57506001919050565b60038203610eca57506001919050565b60048203610eda57506001919050565b506000919050565b919050565b604080517f47e79534a245952e8b16893a336b85a3d9ea9fa8c573f3d803afb92a794692186020820152469181019190915230606082015260009060800160405160208183030381529060405280519060200120905090565b6000610f4e600133846119b5565b92915050565b33600090815260208190526040812061063181846119f9565b600080600080366000610f7f87611a33565b94509450945094509450610f91873590565b8551602087012060405163934f3a1160e01b81526001600160a01b03929092169163934f3a1191610fca9189908790879060040161297d565b60006040518083038186803b158015610fe257600080fd5b505afa925050508015610ff3575060015b61100a5761100360018486611c5a565b9550611019565b61101660008486611c5a565b95505b5050505050919050565b60405163468721a760e01b81526000906001600160a01b0386169063468721a7906110589087908790879087906004016124d1565b6020604051808303816000875af1158015611077573d6000803e3d6000fd5b505050506040513d601f19601f8201168201806040525081019061109b91906129b4565b9050806106cf57604051632b3f6d1160e21b815260040160405180910390fd5b336000818152602081905260409020906110d790600190611c92565b6110e081611d0d565b50565b606060006001600160a01b03841660011480159061110957506111078686866119b5565b155b1561113257604051637c84ecfb60e01b81526001600160a01b038516600482015260240161091f565b826000036111535760405163f725081760e01b815260040160405180910390fd5b826001600160401b0381111561116b5761116b61251c565b604051908082528060200260200182016040528015611194578160200160208202803683370190505b506001600160a01b038086166000908152602089815260408083208a85168452909152812054929450911691505b6001600160a01b038216158015906111e457506001600160a01b038216600114155b80156111ef57508381105b15611254578183828151811061120757611207612967565b6001600160a01b039283166020918202929092018101919091529281166000908152888452604080822089841683529094529290922054909116908061124c816129e5565b9150506111c2565b6001600160a01b03821660011480159061126e5750600081115b1561129a578261127f6001836129fe565b8151811061128f5761128f612967565b602002602001015191505b8083525094509492505050565b6112b360013384611d6a565b6112fa33836000846040516024016112cb9190612441565b60408051601f198184030181529190526020810180516001600160e01b03166306d61fe760e41b179052611023565b5050565b3360009081526020819052604090206113178184611e5f565b6107e433846000856040516024016112cb9190612441565b336000818152602081905260408082206001810180546001600160a01b0319166001600160a01b038916179055905190926113799290918791906112cb9088908890602401612a11565b50505050565b336000908152600260205260409020546001600160a01b031680156113c25760405163741cbe0360e01b81526001600160a01b038216600482015260240161091f565b3360008181526002602052604080822080546001600160a01b0319166001600160a01b03891617905551611379929187916112cb9088908890602401612a11565b6000808280602001905181019061141a9190612a25565b909250905061142c6001338487611f35565b61137933856000846040516024016114449190612441565b60408051601f198184030181529190526020810180516001600160e01b0316638a91b0e360e01b179052611023565b3360009081526020819052604081209080611490848601866127b1565b90925090506114a083838861202c565b610e6633876000846040516024016114449190612441565b336000818152602081905260408082206001810180546001600160a01b0319169055905190926113799290918791906114449088908890602401612a11565b3360008181526002602052604080822080546001600160a01b0319169055516107e4929186916114449087908790602401612a11565b6001600160f81b031990811691161490565b606061159633836000611550610427565b346000366040516024016115679493929190612a5f565b60408051601f198184030181529190526020810180516001600160e01b031663d68f602560e01b179052610433565b806020019051810190610f4e9190612a91565b606081806001600160401b038111156115c4576115c461251c565b6040519080825280602002602001820160405280156115f757816020015b60608152602001906001900390816115e25790505b50915060005b818110156116af573685858381811061161857611618612967565b905060200281019061162a9190612ac5565b90506116898761163d6020840184612adb565b602084013561164f604086018661285a565b8080601f01602080910402602001604051908101604052809392919081815260200183838082843760009201919091525061043392505050565b84838151811061169b5761169b612967565b6020908102919091010152506001016115fd565b50509392505050565b60008036816116ca60148287896128a0565b6116d391612af8565b60601c93506116e66034601487896128a0565b6116ef91612b2d565b92506116fe85603481896128a0565b949793965094505050565b6112fa33836000846000604051602001611724929190612b4b565b60408051601f198184030181529082905261174191602401612441565b60408051601f198184030181529190526020810180516001600160e01b0316630b9dfbed60e11b179052611023565b8060005b818110156106cf573684848381811061178f5761178f612967565b90506020028101906117a19190612ac5565b9050611800866117b46020840184612adb565b60208401356117c6604086018661285a565b8080601f01602080910402602001604051908101604052809392919081815260200183838082843760009201919091525061102392505050565b50600101611774565b606060006001600160a01b03841660011480159061182e575061182c85856119f9565b155b1561185757604051637c84ecfb60e01b81526001600160a01b038516600482015260240161091f565b826000036118785760405163f725081760e01b815260040160405180910390fd5b826001600160401b038111156118905761189061251c565b6040519080825280602002602001820160405280156118b9578160200160208202803683370190505b506001600160a01b03808616600090815260208890526040812054929450911691505b6001600160a01b038216158015906118fe57506001600160a01b038216600114155b801561190957508381105b15611963578183828151811061192157611921612967565b6001600160a01b03928316602091820292909201810191909152928116600090815292879052604090922054909116908061195b816129e5565b9150506118dc565b6001600160a01b03821660011480159061197d5750600081115b156119a9578261198e6001836129fe565b8151811061199e5761199e612967565b602002602001015191505b80835250935093915050565b600060016001600160a01b038316148015906105645750506001600160a01b0390811660009081526020938452604080822093831682529290935291205416151590565b600060016001600160a01b038316148015906106315750506001600160a01b03908116600090815260209290925260409091205416151590565b606060008036818181611a4a61010089018961285a565b9092509050611a5d6006600083856128a0565b611a6691612b80565b60d01c9550611a79600c600683856128a0565b611a8291612b80565b60d01c9450611a9481600c81856128a0565b9350935050506000604051806101c001604052807f84aa190356f56b8c87825f54884392a9907c23ee0f8e1ea86336b763faf021bd60001b8152602001886000016020810190611ae49190612adb565b6001600160a01b0316815260200188602001358152602001888060400190611b0c919061285a565b604051611b1a9291906128ca565b6040519081900390208152602001611b3560608a018a61285a565b604051611b439291906128ca565b60405180910390208152602001611b5989612101565b8152602001611b6789612116565b81526020018860a001358152602001611b7f89612126565b8152602001611b8d8961213b565b8152602001611b9f60e08a018a61285a565b604051611bad9291906128ca565b604051809103902081526020018665ffffffffffff1681526020018565ffffffffffff168152602001611bed6f71727de22e5e9d8baf0edac6f37da03290565b6001600160a01b031690526101c08120909150601960f81b600160f81b611c12610ee7565b6040516001600160f81b031993841660208201529290911660218301526022820152604281018290526062016040516020818303038152906040529650505091939590929450565b600060d08265ffffffffffff16901b60a08465ffffffffffff16901b85611c82576000611c85565b60015b60ff161717949350505050565b60016000908152602083815260408083206001600160a01b0380861685529252909120541615611cd5576040516329e42f3360e11b815260040160405180910390fd5b60016000818152602093845260408082206001600160a01b0394909416825292909352912080546001600160a01b0319169091179055565b60016000908152602082905260409020546001600160a01b031615611d45576040516329e42f3360e11b815260040160405180910390fd5b60016000818152602092909252604090912080546001600160a01b0319169091179055565b6001600160a01b0381161580611d8957506001600160a01b0381166001145b15611db257604051637c84ecfb60e01b81526001600160a01b038216600482015260240161091f565b6001600160a01b0381811660009081526020858152604080832086851684529091529020541615611e0157604051631034f46960e21b81526001600160a01b038216600482015260240161091f565b60016000908152602084815260408083206001600160a01b039586168085528184528285208054968816808752988552838620918652908452919093208054949095166001600160a01b031994851617909455528154169091179055565b6001600160a01b0381161580611e7e57506001600160a01b0381166001145b15611ea757604051637c84ecfb60e01b81526001600160a01b038216600482015260240161091f565b6001600160a01b038181166000908152602084905260409020541615611eeb57604051631034f46960e21b81526001600160a01b038216600482015260240161091f565b60016000818152602093909352604080842080546001600160a01b039485168087529286208054959091166001600160a01b03199586161790559190935280549091169091179055565b6001600160a01b0381161580611f5457506001600160a01b0381166001145b15611f7d57604051637c84ecfb60e01b81526001600160a01b038316600482015260240161091f565b6001600160a01b038281166000908152602086815260408083208785168452909152902054811690821614611fd057604051637c84ecfb60e01b81526001600160a01b038216600482015260240161091f565b6001600160a01b039081166000908152602085815260408083209584168084528683528184208054968616855297835281842090845282529091208054939092166001600160a01b031993841617909155919091528154169055565b6001600160a01b038116158061204b57506001600160a01b0381166001145b1561207457604051637c84ecfb60e01b81526001600160a01b038316600482015260240161091f565b6001600160a01b038281166000908152602085905260409020548116908216146120bc57604051637c84ecfb60e01b81526001600160a01b038216600482015260240161091f565b6001600160a01b0390811660008181526020949094526040808520805494841686529085208054949093166001600160a01b0319948516179092559092528154169055565b60006001600160801b03608083013516610f4e565b6000610f4e826080013560801c90565b60006001600160801b0360c083013516610f4e565b600060c082013560801c610f4e565b8284823760609190911b6bffffffffffffffffffffffff19169101908152601401919050565b6001600160a01b03811681146110e057600080fd5b8035610ee281612170565b60008083601f8401126121a257600080fd5b5081356001600160401b038111156121b957600080fd5b6020830191508360208285010111156106ec57600080fd5b600080600080606085870312156121e757600080fd5b8435935060208501356121f981612170565b925060408501356001600160401b0381111561221457600080fd5b61222087828801612190565b95989497509550505050565b60008060006040848603121561224157600080fd5b8335925060208401356001600160401b0381111561225e57600080fd5b61226a86828701612190565b9497909650939450505050565b6000610120828403121561228a57600080fd5b50919050565b6000806000606084860312156122a557600080fd5b83356001600160401b038111156122bb57600080fd5b6122c786828701612277565b9660208601359650604090950135949350505050565b600080602083850312156122f057600080fd5b82356001600160401b0381111561230657600080fd5b61231285828601612190565b90969095509350505050565b6000806040838503121561233157600080fd5b823561233c81612170565b946020939093013593505050565b604080825283519082018190526000906020906060840190828701845b8281101561238c5781516001600160a01b031684529284019290840190600101612367565b5050506001600160a01b039490941660209390930192909252509092915050565b600080604083850312156123c057600080fd5b82356001600160401b038111156123d657600080fd5b6123e285828601612277565b95602094909401359450505050565b60005b8381101561240c5781810151838201526020016123f4565b50506000910152565b6000815180845261242d8160208601602086016123f1565b601f01601f19169290920160200192915050565b6020815260006106316020830184612415565b60006020828403121561246657600080fd5b5035919050565b600060208083016020845280855180835260408601915060408160051b87010192506020870160005b828110156124c457603f198886030184526124b2858351612415565b94509285019290850190600101612496565b5092979650505050505050565b60018060a01b03851681528360208201526080604082015260006124f86080830185612415565b905060ff8316606083015295945050505050565b80518015158114610ee257600080fd5b634e487b7160e01b600052604160045260246000fd5b604051601f8201601f191681016001600160401b038111828210171561255a5761255a61251c565b604052919050565b60006001600160401b0382111561257b5761257b61251c565b50601f01601f191660200190565b600061259c61259784612562565b612532565b90508281528383830111156125b057600080fd5b6106318360208301846123f1565b600082601f8301126125cf57600080fd5b61063183835160208501612589565b600080604083850312156125f157600080fd5b6125fa8361250c565b915060208301516001600160401b0381111561261557600080fd5b612621858286016125be565b9150509250929050565b6000808335601e1984360301811261264257600080fd5b83016020810192503590506001600160401b0381111561266157600080fd5b8036038213156106ec57600080fd5b81835281816020850137506000828201602090810191909152601f909101601f19169091010190565b604081526126ba604082016126ad85612185565b6001600160a01b03169052565b6020830135606082015260006126d3604085018561262b565b6101208060808601526126eb61016086018385612670565b92506126fa606088018861262b565b9250603f19808786030160a0880152612714858584612670565b9450608089013560c088015260a089013560e0880152610100935060c08901358488015261274560e08a018a61262b565b925081888703018489015261275b868483612670565b95505061276a848a018a61262b565b9450925080878603016101408801525050612786838383612670565b93505050508260208301529392505050565b6000602082840312156127aa57600080fd5b5051919050565b600080604083850312156127c457600080fd5b82356127cf81612170565b915060208301356001600160401b038111156127ea57600080fd5b8301601f810185136127fb57600080fd5b803561280961259782612562565b81815286602083850101111561281e57600080fd5b816020840160208301376000602083830101528093505050509250929050565b600082516128508184602087016123f1565b9190910192915050565b6000808335601e1984360301811261287157600080fd5b8301803591506001600160401b0382111561288b57600080fd5b6020019150368190038213156106ec57600080fd5b600080858511156128b057600080fd5b838611156128bd57600080fd5b5050820193919092039150565b8183823760009101908152919050565b6000602082840312156128ec57600080fd5b81516001600160401b0381111561290257600080fd5b8201601f8101841361291357600080fd5b61056484825160208401612589565b637361666560e01b8152600082516129418160048501602087016123f1565b6e2e657263373537392e76302e302e3160881b6004939091019283015250601301919050565b634e487b7160e01b600052603260045260246000fd5b8481526060602082015260006129966060830186612415565b82810360408401526129a9818587612670565b979650505050505050565b6000602082840312156129c657600080fd5b6106318261250c565b634e487b7160e01b600052601160045260246000fd5b6000600182016129f7576129f76129cf565b5060010190565b81810381811115610f4e57610f4e6129cf565b602081526000610564602083018486612670565b60008060408385031215612a3857600080fd5b8251612a4381612170565b60208401519092506001600160401b0381111561261557600080fd5b60018060a01b0385168152836020820152606060408201526000612a87606083018486612670565b9695505050505050565b600060208284031215612aa357600080fd5b81516001600160401b03811115612ab957600080fd5b610564848285016125be565b60008235605e1983360301811261285057600080fd5b600060208284031215612aed57600080fd5b813561063181612170565b6bffffffffffffffffffffffff198135818116916014851015612b255780818660140360031b1b83161692505b505092915050565b80356020831015610f4e57600019602084900360031b1b1692915050565b606081526000612b5e6060830185612415565b8315156020840152828103604084015260008152602081019150509392505050565b6001600160d01b03198135818116916006851015612b255760069490940360031b84901b169092169291505056fea26469706673582212204eeb56d28b98e66692abcb790752615ecc2ab36f078fa9fafb31d8a383de2d8d64736f6c63430008190033","linkReferences":{}},"methodIdentifiers":{"accountId()":"9cfd7cff","domainSeparator()":"f698da25","entryPoint()":"b0d691fe","execute(bytes32,bytes)":"e9ae5c53","executeFromExecutor(bytes32,bytes)":"d691c964","executeUserOp((address,uint256,bytes,bytes,bytes32,uint256,bytes32,bytes,bytes),bytes32)":"8dd7712f","getActiveFallbackHandler()":"8acf4c6a","getActiveHook()":"0a664dba","getExecutorsPaginated(address,uint256)":"ea5f61d0","getValidatorPaginated(address,uint256)":"85571368","initializeAccount(bytes)":"4b6a1419","installModule(uint256,address,bytes)":"9517e29f","isModuleInstalled(uint256,address,bytes)":"112d3a7d","isValidSignature(bytes32,bytes)":"1626ba7e","supportsExecutionMode(bytes32)":"d03c7914","supportsModule(uint256)":"f2dc691d","uninstallModule(uint256,address,bytes)":"a71763a8","validateUserOp((address,uint256,bytes,bytes,bytes32,uint256,bytes32,bytes,bytes),bytes32,uint256)":"19822f7c"},"id":46}