{"abi":[{"type":"function","name":"executeOnSubAccount","inputs":[{"name":"subAccount","type":"address","internalType":"address"},{"name":"callData","type":"bytes","internalType":"bytes"}],"outputs":[],"stateMutability":"payable"},{"type":"function","name":"isInitialized","inputs":[{"name":"smartAccount","type":"address","internalType":"address"}],"outputs":[{"name":"","type":"bool","internalType":"bool"}],"stateMutability":"view"},{"type":"function","name":"isModuleType","inputs":[{"name":"typeID","type":"uint256","internalType":"uint256"}],"outputs":[{"name":"","type":"bool","internalType":"bool"}],"stateMutability":"pure"},{"type":"function","name":"onInstall","inputs":[{"name":"data","type":"bytes","internalType":"bytes"}],"outputs":[],"stateMutability":"nonpayable"},{"type":"function","name":"onUninstall","inputs":[{"name":"","type":"bytes","internalType":"bytes"}],"outputs":[],"stateMutability":"nonpayable"},{"type":"error","name":"AlreadyInitialized","inputs":[{"name":"smartAccount","type":"address","internalType":"address"}]},{"type":"error","name":"NotInitialized","inputs":[{"name":"smartAccount","type":"address","internalType":"address"}]},{"type":"error","name":"UnauthorizedAccess","inputs":[]}],"bytecode":{"object":"0x6080604052348015600f57600080fd5b5061064f8061001f6000396000f3fe60806040526004361061004a5760003560e01c806334b5d3811461004f5780636d61fe70146100645780638a91b0e314610084578063d60b347f146100c0578063ecd059611461010f575b600080fd5b61006261005d366004610315565b610130565b005b34801561007057600080fd5b5061006261007f366004610368565b6101ee565b34801561009057600080fd5b5061006261009f366004610368565b505033600090815260208190526040902080546001600160a01b0319169055565b3480156100cc57600080fd5b506100fb6100db3660046103aa565b6001600160a01b0390811660009081526020819052604090205416151590565b604051901515815260200160405180910390f35b34801561011b57600080fd5b506100fb61012a3660046103cc565b60021490565b6001600160a01b0383811660009081526020819052604090205416331461016a57604051631a27eac360e11b815260040160405180910390fd5b826001600160a01b031663d691c964610181610232565b84846040518463ffffffff1660e01b81526004016101a1939291906103e5565b6000604051808303816000875af11580156101c0573d6000803e3d6000fd5b505050506040513d6000823e601f3d908101601f191682016040526101e89190810190610462565b50505050565b60006101fd6014828486610593565b610206916105bd565b33600090815260208190526040902080546001600160a01b03191660609290921c919091179055505050565b600061024081808080610245565b905090565b604080516001600160f81b03198087166020830152851660218201526000602282018190526001600160e01b03198516602683015269ffffffffffffffffffff198416602a83015291016040516020818303038152906040526102a7906105f2565b95945050505050565b80356001600160a01b03811681146102c757600080fd5b919050565b60008083601f8401126102de57600080fd5b50813567ffffffffffffffff8111156102f657600080fd5b60208301915083602082850101111561030e57600080fd5b9250929050565b60008060006040848603121561032a57600080fd5b610333846102b0565b9250602084013567ffffffffffffffff81111561034f57600080fd5b61035b868287016102cc565b9497909650939450505050565b6000806020838503121561037b57600080fd5b823567ffffffffffffffff81111561039257600080fd5b61039e858286016102cc565b90969095509350505050565b6000602082840312156103bc57600080fd5b6103c5826102b0565b9392505050565b6000602082840312156103de57600080fd5b5035919050565b83815260406020820152816040820152818360608301376000818301606090810191909152601f909201601f1916010192915050565b634e487b7160e01b600052604160045260246000fd5b604051601f8201601f1916810167ffffffffffffffff8111828210171561045a5761045a61041b565b604052919050565b6000602080838503121561047557600080fd5b825167ffffffffffffffff8082111561048d57600080fd5b8185019150601f86601f8401126104a357600080fd5b8251828111156104b5576104b561041b565b8060051b6104c4868201610431565b918252848101860191868101908a8411156104de57600080fd5b87870192505b83831015610585578251868111156104fc5760008081fd5b8701603f81018c1361050e5760008081fd5b88810151878111156105225761052261041b565b610533818801601f19168b01610431565b81815260408e8184860101111561054a5760008081fd5b60005b83811015610568578481018201518382018e01528c0161054d565b505060009181018b019190915283525091870191908701906104e4565b9a9950505050505050505050565b600080858511156105a357600080fd5b838611156105b057600080fd5b5050820193919092039150565b6bffffffffffffffffffffffff1981358181169160148510156105ea5780818660140360031b1b83161692505b505092915050565b80516020808301519190811015610613576000198160200360031b1b821691505b5091905056fea2646970667358221220a8d5fefac5de3e099ebbdf8a1cbe498b54664b4be9fb5c2d785248268a29efa364736f6c63430008190033","linkReferences":{}},"methodIdentifiers":{"executeOnSubAccount(address,bytes)":"34b5d381","isInitialized(address)":"d60b347f","isModuleType(uint256)":"ecd05961","onInstall(bytes)":"6d61fe70","onUninstall(bytes)":"8a91b0e3"},"id":6}