{"abi":[{"type":"constructor","inputs":[],"stateMutability":"nonpayable"},{"type":"function","name":"_createUMSA","inputs":[{"name":"salt","type":"bytes32","internalType":"bytes32"},{"name":"initCode","type":"bytes","internalType":"bytes"}],"outputs":[{"name":"account","type":"address","internalType":"address"}],"stateMutability":"nonpayable"},{"type":"function","name":"_getSalt","inputs":[{"name":"_salt","type":"bytes32","internalType":"bytes32"},{"name":"initCode","type":"bytes","internalType":"bytes"}],"outputs":[{"name":"salt","type":"bytes32","internalType":"bytes32"}],"stateMutability":"pure"},{"type":"function","name":"_makeDefault","inputs":[{"name":"salt","type":"bytes32","internalType":"bytes32"},{"name":"initCode","type":"bytes","internalType":"bytes"}],"outputs":[{"name":"","type":"address","internalType":"address"}],"stateMutability":"nonpayable"},{"type":"function","name":"_makeSafe","inputs":[{"name":"salt","type":"bytes32","internalType":"bytes32"},{"name":"initCode","type":"bytes","internalType":"bytes"}],"outputs":[{"name":"","type":"address","internalType":"address"}],"stateMutability":"nonpayable"},{"type":"function","name":"createAccount","inputs":[{"name":"salt","type":"bytes32","internalType":"bytes32"},{"name":"initCode","type":"bytes","internalType":"bytes"}],"outputs":[{"name":"account","type":"address","internalType":"address"}],"stateMutability":"nonpayable"},{"type":"function","name":"env","inputs":[],"outputs":[{"name":"","type":"uint8","internalType":"enum AccountType"}],"stateMutability":"view"},{"type":"function","name":"getAddress","inputs":[{"name":"salt","type":"bytes32","internalType":"bytes32"},{"name":"initCode","type":"bytes","internalType":"bytes"}],"outputs":[{"name":"","type":"address","internalType":"address"}],"stateMutability":"view"},{"type":"function","name":"getAddressSafe","inputs":[{"name":"salt","type":"bytes32","internalType":"bytes32"},{"name":"initCode","type":"bytes","internalType":"bytes"}],"outputs":[{"name":"","type":"address","internalType":"address"}],"stateMutability":"view"},{"type":"function","name":"getAddressUMSA","inputs":[{"name":"salt","type":"bytes32","internalType":"bytes32"},{"name":"initCode","type":"bytes","internalType":"bytes"}],"outputs":[{"name":"","type":"address","internalType":"address"}],"stateMutability":"view"},{"type":"function","name":"getBootstrapCallData","inputs":[{"name":"_validators","type":"tuple[]","internalType":"struct BootstrapConfig[]","components":[{"name":"module","type":"address","internalType":"address"},{"name":"data","type":"bytes","internalType":"bytes"}]},{"name":"_executors","type":"tuple[]","internalType":"struct BootstrapConfig[]","components":[{"name":"module","type":"address","internalType":"address"},{"name":"data","type":"bytes","internalType":"bytes"}]},{"name":"_hook","type":"tuple","internalType":"struct BootstrapConfig","components":[{"name":"module","type":"address","internalType":"address"},{"name":"data","type":"bytes","internalType":"bytes"}]},{"name":"_fallbacks","type":"tuple[]","internalType":"struct BootstrapConfig[]","components":[{"name":"module","type":"address","internalType":"address"},{"name":"data","type":"bytes","internalType":"bytes"}]}],"outputs":[{"name":"init","type":"bytes","internalType":"bytes"}],"stateMutability":"view"}],"bytecode":{"object":"0x608060405234801561001057600080fd5b5060405161001d906102b8565b604051809103906000f080158015610039573d6000803e3d6000fd5b50600880546001600160a01b0319166001600160a01b0392909216919091179055604051610066906102c5565b604051809103906000f080158015610082573d6000803e3d6000fd5b50600980546001600160a01b0319166001600160a01b03929092169190911790556040516100af906102d2565b604051809103906000f0801580156100cb573d6000803e3d6000fd5b50600a80546001600160a01b0319166001600160a01b03929092169190911790556040516100f8906102df565b604051809103906000f080158015610114573d6000803e3d6000fd5b50600b80546001600160a01b0319166001600160a01b0392909216919091179055604051610141906102ec565b604051809103906000f08015801561015d573d6000803e3d6000fd5b50600c80546001600160a01b0319166001600160a01b039290921691909117905560408051808201825260078152661111519055531560ca1b602082015290516334515cdb60e21b8152600091737109709ecfa91a80626ff3989d68f67f5b1dd12d9163d145736c916101d29160040161031d565b600060405180830381865afa1580156101ef573d6000803e3d6000fd5b505050506040513d6000823e601f3d908101601f191682016040526102179190810190610389565b905060405180604001604052806008815260200167534146453735373960c01b81525060405160200161024a9190610435565b60405160208183030381529060405280519060200120816040516020016102719190610435565b60405160208183030381529060405280519060200120036102a457600c805460ff60a01b1916600160a01b1790556102b2565b600c805460ff60a01b191690555b50610451565b612c038061145c83390190565b6130e88061405f83390190565b6115998061714783390190565b6131c9806186e083390190565b6113388061b8a983390190565b60005b838110156103145781810151838201526020016102fc565b50506000910152565b60408152600c60408201526b4143434f554e545f5459504560a01b6060820152608060208201526000825180608084015261035f8160a08501602087016102f9565b601f01601f19169190910160a00192915050565b634e487b7160e01b600052604160045260246000fd5b60006020828403121561039b57600080fd5b81516001600160401b03808211156103b257600080fd5b818401915084601f8301126103c657600080fd5b8151818111156103d8576103d8610373565b604051601f8201601f19908116603f0116810190838211818310171561040057610400610373565b8160405282815287602084870101111561041957600080fd5b61042a8360208301602088016102f9565b979650505050505050565b600082516104478184602087016102f9565b9190910192915050565b610ffc806104606000396000f3fe608060405234801561001057600080fd5b506004361061009e5760003560e01c8063a6a3f08a11610066578063a6a3f08a1461014c578063ae6d6eb01461015f578063d959fd0e14610172578063f45cc90414610185578063f8a593701461019857600080fd5b80633533bd47146100a357806356c717f5146100cc5780636d509d67146100ed5780639ca9c8fa146101185780639dca00321461012b575b600080fd5b6100b66100b1366004610a71565b6101ab565b6040516100c39190610b88565b60405180910390f35b6100df6100da366004610bb1565b6102cf565b6040519081526020016100c3565b6101006100fb366004610bb1565b610302565b6040516001600160a01b0390911681526020016100c3565b610100610126366004610bb1565b610334565b600c5461013f90600160a01b900460ff1681565b6040516100c39190610c82565b61010061015a366004610caa565b6103ca565b61010061016d366004610caa565b6103e1565b610100610180366004610bb1565b610423565b610100610193366004610bb1565b610465565b6101006101a6366004610caa565b61048d565b60606001600c54600160a01b900460ff1660018111156101cd576101cd610c6c565b0361024d57600a546040516001600160a01b03909116906101fe908a908a908a908a908a908a908a90602401610e3b565b60408051601f19818403018152918152602080830180516001600160e01b031663642219af60e01b179052905161023793929101610e99565b60405160208183030381529060405290506102c4565b600c546040516001600160a01b0390911690610279908a908a908a908a908a908a908a90602401610e3b565b60408051601f19818403018152918152602080830180516001600160e01b031663642219af60e01b17905290516102b293929101610e99565b60405160208183030381529060405290505b979650505050505050565b600082826040516020016102e4929190610ebd565b60405160208183030381529060405280519060200120905092915050565b60008061030f84846102cf565b600b5490915061032a906001600160a01b03168483306104d1565b9150505b92915050565b60008061034184846102cf565b600b549091506000906103609082906001600160a01b031686856104f5565b604051634b6a141960e01b81529091506001600160a01b03821690634b6a14199061038f908790600401610b88565b600060405180830381600087803b1580156103a957600080fd5b505af11580156103bd573d6000803e3d6000fd5b5092979650505050505050565b60006103d78484846105e3565b90505b9392505050565b60006103d78484848080601f01602080910402602001604051908101604052809392919081815260200183838082843760009201919091525061033492505050565b60006001600c54600160a01b900460ff16600181111561044557610445610c6c565b0361045b576104548383610465565b905061032e565b6104548383610302565b60008061047284846102cf565b60095490915061032a906001600160a01b03168483306104d1565b60006001600c54600160a01b900460ff1660018111156104af576104af610c6c565b036104c6576104bf8484846103ca565b90506103da565b6104bf8484846103e1565b6000806104de8686610927565b90506104eb818585610a03565b9695505050505050565b600060608303516040840351602085035185518060208801018051600283016c5af43d3d93803e606057fd5bf38a528a600d8b035278593da1005b363d3d373d3d3d3d610000806062363936013d738160481b1760218b03527f9e4ac34f21c619cefc926c8bd93b54bf5a39c7ab2127a895af1cc0691d7e3dff603a8b035272fd6100003d81600a3d39f336602c57343d527f6062820160781b1761ff9e82106059018b03528060f01b835288606c8201604c8c038ef5975050866105c25763301164256000526004601cfd5b90528652601f19860152603f19850152605f19909301929092525092915050565b6000806106268585858080601f0160208091040260200160405190810160405280939291908181526020018383808284376000920191909152506102cf92505050565b905060006106836000600960009054906101000a90046001600160a01b031687878080601f0160208091040260200160405190810160405280939291908181526020018383808284376000920191909152508892506104f5915050565b604080516002808252606082018352929350600092909160208301908036833701905050905062012345816000815181106106c0576106c0610ee3565b60200260200101906001600160a01b031690816001600160a01b03168152505062054321816001815181106106f7576106f7610ee3565b6001600160a01b03928316602091820292909201015260085460405163b63e800d60e01b81528483169263b63e800d92610744928692600292600092911690829081908190600401610ef9565b600060405180830381600087803b15801561075e57600080fd5b505af1158015610772573d6000803e3d6000fd5b50506040516303223eab60e11b81526001600160a01b0385166004820152737109709ecfa91a80626ff3989d68f67f5b1dd12d92506306447d569150602401600060405180830381600087803b1580156107cb57600080fd5b505af11580156107df573d6000803e3d6000fd5b505060085460405163610b592560e01b81526001600160a01b039182166004820152908516925063610b59259150602401600060405180830381600087803b15801561082a57600080fd5b505af115801561083e573d6000803e3d6000fd5b5050600854604051634b6a141960e01b81526001600160a01b039091169250634b6a141991506108749089908990600401610fb2565b600060405180830381600087803b15801561088e57600080fd5b505af11580156108a2573d6000803e3d6000fd5b505050507f885cb69240a935d632d79c317109709ecfa91a80626ff3989d68f67f5b1dd12d60001c6001600160a01b03166390c5013b6040518163ffffffff1660e01b8152600401600060405180830381600087803b15801561090457600080fd5b505af1158015610918573d6000803e3d6000fd5b50939998505050505050505050565b60006060820351604083035160208403518451806020870101805161ff9b83113d3d3e6c5af43d3d93803e606057fd5bf38852600c1988019890985260028201604881901b78593da1005b363d3d373d3d3d3d610000806062363936013d73176020198901527f9e4ac34f21c619cefc926c8bd93b54bf5a39c7ab2127a895af1cc0691d7e3dff6039198901526064830160781b716100003d81600a3d39f336602c57343d527f1760591989015260f01b8152606e8201604b198801209790528552601f19850152603f19840152605f19909201919091525090565b600060ff60005350603592835260601b60015260155260556000908120915290565b60008083601f840112610a3757600080fd5b50813567ffffffffffffffff811115610a4f57600080fd5b6020830191508360208260051b8501011115610a6a57600080fd5b9250929050565b60008060008060008060006080888a031215610a8c57600080fd5b873567ffffffffffffffff80821115610aa457600080fd5b610ab08b838c01610a25565b909950975060208a0135915080821115610ac957600080fd5b610ad58b838c01610a25565b909750955060408a0135915080821115610aee57600080fd5b908901906040828c031215610b0257600080fd5b90935060608901359080821115610b1857600080fd5b50610b258a828b01610a25565b989b979a50959850939692959293505050565b60005b83811015610b53578181015183820152602001610b3b565b50506000910152565b60008151808452610b74816020860160208601610b38565b601f01601f19169290920160200192915050565b6020815260006103da6020830184610b5c565b634e487b7160e01b600052604160045260246000fd5b60008060408385031215610bc457600080fd5b82359150602083013567ffffffffffffffff80821115610be357600080fd5b818501915085601f830112610bf757600080fd5b813581811115610c0957610c09610b9b565b604051601f8201601f19908116603f01168101908382118183101715610c3157610c31610b9b565b81604052828152886020848701011115610c4a57600080fd5b8260208601602083013760006020848301015280955050505050509250929050565b634e487b7160e01b600052602160045260246000fd5b6020810160028310610ca457634e487b7160e01b600052602160045260246000fd5b91905290565b600080600060408486031215610cbf57600080fd5b83359250602084013567ffffffffffffffff80821115610cde57600080fd5b818601915086601f830112610cf257600080fd5b813581811115610d0157600080fd5b876020828501011115610d1357600080fd5b6020830194508093505050509250925092565b81835281816020850137506000828201602090810191909152601f909101601f19169091010190565b600081356001600160a01b038116808214610d6957600080fd5b845250602082013536839003601e19018112610d8457600080fd5b820160208101903567ffffffffffffffff811115610da157600080fd5b803603821315610db057600080fd5b60406020860152610dc5604086018284610d26565b95945050505050565b6000838385526020808601955060208560051b830101846000805b88811015610e2d57858403601f19018a52823536899003603e19018112610e0e578283fd5b610e1a858a8301610d4f565b9a86019a94505091840191600101610de9565b509198975050505050505050565b608081526000610e4f60808301898b610dce565b8281036020840152610e6281888a610dce565b90508281036040840152610e768187610d4f565b90508281036060840152610e8b818587610dce565b9a9950505050505050505050565b6001600160a01b03831681526040602082018190526000906103d790830184610b5c565b82815260008251610ed5816020850160208701610b38565b919091016020019392505050565b634e487b7160e01b600052603260045260246000fd5b6101008082528851908201819052600090610120830190602090818c01845b82811015610f3d5781516001600160a01b031685529383019390830190600101610f18565b50505050886020840152610f5c60408401896001600160a01b03169052565b8281036060840152600081526001600160a01b038716608084015260200190506001600160a01b03851660a08301528360c0830152610fa660e08301846001600160a01b03169052565b98975050505050505050565b6020815260006103d7602083018486610d2656fea26469706673582212206e3b18a15146a31e6bf908e91965d77fb507262e6024a46116b2f1426ab355ed64736f6c634300081900336080604052348015600f57600080fd5b50612be48061001f6000396000f3fe60806040526004361061010d5760003560e01c80639cfd7cff11610095578063d691c96411610064578063d691c9641461039f578063e9ae5c53146103bf578063ea5f61d0146103d2578063f2dc691d146103f2578063f698da251461041257610114565b80639cfd7cff14610327578063a71763a814610349578063b0d691fe1461035c578063d03c79141461037f57610114565b80634b6a1419116100dc5780634b6a14191461029057806385571368146102a55780638acf4c6a146102d35780638dd7712f146103015780639517e29f1461031457610114565b80630a664dba146101be578063112d3a7d146102025780631626ba7e1461023257806319822f7c1461026f57610114565b3661011457005b60003560e01c63bc197c81811463f23a6e6182141763150b7a028214171561014057806020526020603cf35b50336000908152602081905260409020600101546001600160a01b03168061017b57604051632c4bc0b360e11b815260040160405180910390fd5b60006101b433833460003661018e610427565b6040516020016101a09392919061214a565b604051602081830303815290604052610433565b9050805160208201f35b3480156101ca57600080fd5b50336000908152600260205260409020546001600160a01b03165b6040516001600160a01b0390911681526020015b60405180910390f35b34801561020e57600080fd5b5061022261021d3660046121d1565b6104dc565b60405190151581526020016101f9565b34801561023e57600080fd5b5061025661024d36600461222c565b60009392505050565b6040516001600160e01b031990911681526020016101f9565b61028261027d366004612290565b61056c565b6040519081526020016101f9565b6102a361029e3660046122dd565b610638565b005b3480156102b157600080fd5b506102c56102c036600461231e565b6106d6565b6040516101f992919061234a565b3480156102df57600080fd5b50336000908152602081905260409020600101546001600160a01b03166101e5565b6102a361030f3660046123ad565b6106f3565b6102a36103223660046121d1565b6107e9565b34801561033357600080fd5b5061033c610970565b6040516101f99190612441565b6102a36103573660046121d1565b610a1f565b34801561036857600080fd5b506f71727de22e5e9d8baf0edac6f37da0326101e5565b34801561038b57600080fd5b5061022261039a366004612454565b610b46565b6103b26103ad36600461222c565b610b87565b6040516101f9919061246d565b6102a36103cd36600461222c565b610d22565b3480156103de57600080fd5b506102c56103ed36600461231e565b610e6e565b3480156103fe57600080fd5b5061022261040d366004612454565b610e98565b34801561041e57600080fd5b50610282610ee7565b60131936013560601c90565b60606000856001600160a01b0316635229073f86868660006040518563ffffffff1660e01b815260040161046a94939291906124d1565b6000604051808303816000875af1158015610489573d6000803e3d6000fd5b505050506040513d6000823e601f3d908101601f191682016040526104b191908101906125de565b92509050806104d357604051632b3f6d1160e21b815260040160405180910390fd5b50949350505050565b6000600185036104f6576104ef84610f40565b9050610564565b60028503610507576104ef84610f54565b6003850361053557336000908152602081905260409020600101546001600160a01b038086169116146104ef565b6004850361056057336000908152600260205260409020546001600160a01b038086169116146104ef565b5060005b949350505050565b60006020840135606081901c9061058282610f40565b6105985761058f86610f6d565b92505050610631565b60006105e3338460008a8a6040516024016105b4929190612699565b60408051601f198184030181529190526020810180516001600160e01b0316639700320360e01b179052610433565b9050808060200190518101906105f99190612798565b9350841561062d5761062d87356f71727de22e5e9d8baf0edac6f37da0328760405180602001604052806000815250611023565b5050505b9392505050565b6106406110bb565b60008061064f838501856127b1565b915091506000826001600160a01b03168260405161066d919061283e565b600060405180830381855af49150503d80600081146106a8576040519150601f19603f3d011682016040523d82523d6000602084013e6106ad565b606091505b50509050806106cf57604051631b79777760e11b815260040160405180910390fd5b5050505050565b606060006106e760013386866110e3565b915091505b9250929050565b6f71727de22e5e9d8baf0edac6f37da03261070c610427565b6001600160a01b031614806107395750610724610427565b6001600160a01b0316336001600160a01b0316145b61075657604051635629665f60e11b815260040160405180910390fd5b600030610766606085018561285a565b6107749160049082906128a0565b6040516107829291906128ca565b600060405180830381855af49150503d80600081146107bd576040519150601f19603f3d011682016040523d82523d6000602084013e6107c2565b606091505b50509050806107e457604051632b3f6d1160e21b815260040160405180910390fd5b505050565b6f71727de22e5e9d8baf0edac6f37da032610802610427565b6001600160a01b0316148061082f575061081a610427565b6001600160a01b0316336001600160a01b0316145b61084c57604051635629665f60e11b815260040160405180910390fd5b60018403610899576108948383838080601f0160208091040260200160405190810160405280939291908181526020018383808284376000920191909152506112a792505050565b610928565b600284036108e1576108948383838080601f0160208091040260200160405190810160405280939291908181526020018383808284376000920191909152506112fe92505050565b600384036108f45761089483838361132f565b600484036109075761089483838361137f565b60405163041c38b360e41b8152600481018590526024015b60405180910390fd5b604080518581526001600160a01b03851660208201527fd21d0b289f126c4b473ea641963e766833c2f13866e4ff480abd787c100ef12391015b60405180910390a150505050565b60606000336001600160a01b031663ffa1ad746040518163ffffffff1660e01b8152600401600060405180830381865afa1580156109b2573d6000803e3d6000fd5b505050506040513d6000823e601f3d908101601f191682016040526109da91908101906128da565b9050806040516020016109ed919061283e565b60408051601f1981840301815290829052610a0a91602001612922565b60405160208183030381529060405291505090565b6f71727de22e5e9d8baf0edac6f37da032610a38610427565b6001600160a01b03161480610a655750610a50610427565b6001600160a01b0316336001600160a01b0316145b610a8257604051635629665f60e11b815260040160405180910390fd5b60018403610acf57610aca8383838080601f01602080910402602001604051908101604052809392919081815260200183838082843760009201919091525061140392505050565b610b08565b60028403610ae257610aca838383611473565b60038403610af557610aca8383836114b8565b6004840361090757610aca8383836114f7565b604080518581526001600160a01b03851660208201527f341347516a9de374859dfda710fa4828b2d48cb57d4fbe4c1149612b8e02276e9101610962565b600081610b5781600160f81b61152d565b15610b655750600192915050565b610b7081600061152d565b15610b7e5750600192915050565b50600092915050565b6060610b99610b94610427565b610f54565b610bca57610ba5610427565b604051635c93ff2f60e11b81526001600160a01b03909116600482015260240161091f565b336000908152600260205260409020546001600160a01b03168015801590606090610bfb57610bf88361153f565b90505b86610c0a81600160f81b61152d565b15610c2d5786358701602081019035610c243383836115a9565b96505050610d11565b610c3881600061152d565b15610cec57600080366000610c4d8b8b6116b8565b6040805160018082528183019092529498509296509094509250816020015b6060815260200190600190039081610c6c579050509850610cc533858585858080601f01602080910402602001604051908101604052809392919081815260200183838082843760009201919091525061043392505050565b89600081518110610cd857610cd8612967565b602002602001018190525050505050610d11565b604051632e5bf3f960e21b81526001600160f81b03198216600482015260240161091f565b50811561062d5761062d8382611709565b336000908152600260205260409020546001600160a01b03168015801590606090610d5357610d508361153f565b90505b6f71727de22e5e9d8baf0edac6f37da032610d6c610427565b6001600160a01b03161480610d995750610d84610427565b6001600160a01b0316336001600160a01b0316145b610db657604051635629665f60e11b815260040160405180910390fd5b85610dc581600160f81b61152d565b15610de65785358601602081019035610ddf338383611770565b5050610e55565b610df181600061152d565b15610cec57600080366000610e068a8a6116b8565b9350935093509350610e5033858585858080601f01602080910402602001604051908101604052809392919081815260200183838082843760009201919091525061102392505050565b505050505b508115610e6657610e668382611709565b505050505050565b33600090815260208190526040812060609190610e8c818686611809565b92509250509250929050565b600060018203610eaa57506001919050565b60028203610eba57506001919050565b60038203610eca57506001919050565b60048203610eda57506001919050565b506000919050565b919050565b604080517f47e79534a245952e8b16893a336b85a3d9ea9fa8c573f3d803afb92a794692186020820152469181019190915230606082015260009060800160405160208183030381529060405280519060200120905090565b6000610f4e600133846119b5565b92915050565b33600090815260208190526040812061063181846119f9565b600080600080366000610f7f87611a33565b94509450945094509450610f91873590565b8551602087012060405163934f3a1160e01b81526001600160a01b03929092169163934f3a1191610fca9189908790879060040161297d565b60006040518083038186803b158015610fe257600080fd5b505afa925050508015610ff3575060015b61100a5761100360018486611c5a565b9550611019565b61101660008486611c5a565b95505b5050505050919050565b60405163468721a760e01b81526000906001600160a01b0386169063468721a7906110589087908790879087906004016124d1565b6020604051808303816000875af1158015611077573d6000803e3d6000fd5b505050506040513d601f19601f8201168201806040525081019061109b91906129b4565b9050806106cf57604051632b3f6d1160e21b815260040160405180910390fd5b336000818152602081905260409020906110d790600190611c92565b6110e081611d0d565b50565b606060006001600160a01b03841660011480159061110957506111078686866119b5565b155b1561113257604051637c84ecfb60e01b81526001600160a01b038516600482015260240161091f565b826000036111535760405163f725081760e01b815260040160405180910390fd5b826001600160401b0381111561116b5761116b61251c565b604051908082528060200260200182016040528015611194578160200160208202803683370190505b506001600160a01b038086166000908152602089815260408083208a85168452909152812054929450911691505b6001600160a01b038216158015906111e457506001600160a01b038216600114155b80156111ef57508381105b15611254578183828151811061120757611207612967565b6001600160a01b039283166020918202929092018101919091529281166000908152888452604080822089841683529094529290922054909116908061124c816129e5565b9150506111c2565b6001600160a01b03821660011480159061126e5750600081115b1561129a578261127f6001836129fe565b8151811061128f5761128f612967565b602002602001015191505b8083525094509492505050565b6112b360013384611d6a565b6112fa33836000846040516024016112cb9190612441565b60408051601f198184030181529190526020810180516001600160e01b03166306d61fe760e41b179052611023565b5050565b3360009081526020819052604090206113178184611e5f565b6107e433846000856040516024016112cb9190612441565b336000818152602081905260408082206001810180546001600160a01b0319166001600160a01b038916179055905190926113799290918791906112cb9088908890602401612a11565b50505050565b336000908152600260205260409020546001600160a01b031680156113c25760405163741cbe0360e01b81526001600160a01b038216600482015260240161091f565b3360008181526002602052604080822080546001600160a01b0319166001600160a01b03891617905551611379929187916112cb9088908890602401612a11565b6000808280602001905181019061141a9190612a25565b909250905061142c6001338487611f35565b61137933856000846040516024016114449190612441565b60408051601f198184030181529190526020810180516001600160e01b0316638a91b0e360e01b179052611023565b3360009081526020819052604081209080611490848601866127b1565b90925090506114a083838861202c565b610e6633876000846040516024016114449190612441565b336000818152602081905260408082206001810180546001600160a01b0319169055905190926113799290918791906114449088908890602401612a11565b3360008181526002602052604080822080546001600160a01b0319169055516107e4929186916114449087908790602401612a11565b6001600160f81b031990811691161490565b606061159633836000611550610427565b346000366040516024016115679493929190612a5f565b60408051601f198184030181529190526020810180516001600160e01b031663d68f602560e01b179052610433565b806020019051810190610f4e9190612a91565b606081806001600160401b038111156115c4576115c461251c565b6040519080825280602002602001820160405280156115f757816020015b60608152602001906001900390816115e25790505b50915060005b818110156116af573685858381811061161857611618612967565b905060200281019061162a9190612ac5565b90506116898761163d6020840184612adb565b602084013561164f604086018661285a565b8080601f01602080910402602001604051908101604052809392919081815260200183838082843760009201919091525061043392505050565b84838151811061169b5761169b612967565b6020908102919091010152506001016115fd565b50509392505050565b60008036816116ca60148287896128a0565b6116d391612af8565b60601c93506116e66034601487896128a0565b6116ef91612b2d565b92506116fe85603481896128a0565b949793965094505050565b6112fa33836000846000604051602001611724929190612b4b565b60408051601f198184030181529082905261174191602401612441565b60408051601f198184030181529190526020810180516001600160e01b0316630b9dfbed60e11b179052611023565b8060005b818110156106cf573684848381811061178f5761178f612967565b90506020028101906117a19190612ac5565b9050611800866117b46020840184612adb565b60208401356117c6604086018661285a565b8080601f01602080910402602001604051908101604052809392919081815260200183838082843760009201919091525061102392505050565b50600101611774565b606060006001600160a01b03841660011480159061182e575061182c85856119f9565b155b1561185757604051637c84ecfb60e01b81526001600160a01b038516600482015260240161091f565b826000036118785760405163f725081760e01b815260040160405180910390fd5b826001600160401b038111156118905761189061251c565b6040519080825280602002602001820160405280156118b9578160200160208202803683370190505b506001600160a01b03808616600090815260208890526040812054929450911691505b6001600160a01b038216158015906118fe57506001600160a01b038216600114155b801561190957508381105b15611963578183828151811061192157611921612967565b6001600160a01b03928316602091820292909201810191909152928116600090815292879052604090922054909116908061195b816129e5565b9150506118dc565b6001600160a01b03821660011480159061197d5750600081115b156119a9578261198e6001836129fe565b8151811061199e5761199e612967565b602002602001015191505b80835250935093915050565b600060016001600160a01b038316148015906105645750506001600160a01b0390811660009081526020938452604080822093831682529290935291205416151590565b600060016001600160a01b038316148015906106315750506001600160a01b03908116600090815260209290925260409091205416151590565b606060008036818181611a4a61010089018961285a565b9092509050611a5d6006600083856128a0565b611a6691612b80565b60d01c9550611a79600c600683856128a0565b611a8291612b80565b60d01c9450611a9481600c81856128a0565b9350935050506000604051806101c001604052807f84aa190356f56b8c87825f54884392a9907c23ee0f8e1ea86336b763faf021bd60001b8152602001886000016020810190611ae49190612adb565b6001600160a01b0316815260200188602001358152602001888060400190611b0c919061285a565b604051611b1a9291906128ca565b6040519081900390208152602001611b3560608a018a61285a565b604051611b439291906128ca565b60405180910390208152602001611b5989612101565b8152602001611b6789612116565b81526020018860a001358152602001611b7f89612126565b8152602001611b8d8961213b565b8152602001611b9f60e08a018a61285a565b604051611bad9291906128ca565b604051809103902081526020018665ffffffffffff1681526020018565ffffffffffff168152602001611bed6f71727de22e5e9d8baf0edac6f37da03290565b6001600160a01b031690526101c08120909150601960f81b600160f81b611c12610ee7565b6040516001600160f81b031993841660208201529290911660218301526022820152604281018290526062016040516020818303038152906040529650505091939590929450565b600060d08265ffffffffffff16901b60a08465ffffffffffff16901b85611c82576000611c85565b60015b60ff161717949350505050565b60016000908152602083815260408083206001600160a01b0380861685529252909120541615611cd5576040516329e42f3360e11b815260040160405180910390fd5b60016000818152602093845260408082206001600160a01b0394909416825292909352912080546001600160a01b0319169091179055565b60016000908152602082905260409020546001600160a01b031615611d45576040516329e42f3360e11b815260040160405180910390fd5b60016000818152602092909252604090912080546001600160a01b0319169091179055565b6001600160a01b0381161580611d8957506001600160a01b0381166001145b15611db257604051637c84ecfb60e01b81526001600160a01b038216600482015260240161091f565b6001600160a01b0381811660009081526020858152604080832086851684529091529020541615611e0157604051631034f46960e21b81526001600160a01b038216600482015260240161091f565b60016000908152602084815260408083206001600160a01b039586168085528184528285208054968816808752988552838620918652908452919093208054949095166001600160a01b031994851617909455528154169091179055565b6001600160a01b0381161580611e7e57506001600160a01b0381166001145b15611ea757604051637c84ecfb60e01b81526001600160a01b038216600482015260240161091f565b6001600160a01b038181166000908152602084905260409020541615611eeb57604051631034f46960e21b81526001600160a01b038216600482015260240161091f565b60016000818152602093909352604080842080546001600160a01b039485168087529286208054959091166001600160a01b03199586161790559190935280549091169091179055565b6001600160a01b0381161580611f5457506001600160a01b0381166001145b15611f7d57604051637c84ecfb60e01b81526001600160a01b038316600482015260240161091f565b6001600160a01b038281166000908152602086815260408083208785168452909152902054811690821614611fd057604051637c84ecfb60e01b81526001600160a01b038216600482015260240161091f565b6001600160a01b039081166000908152602085815260408083209584168084528683528184208054968616855297835281842090845282529091208054939092166001600160a01b031993841617909155919091528154169055565b6001600160a01b038116158061204b57506001600160a01b0381166001145b1561207457604051637c84ecfb60e01b81526001600160a01b038316600482015260240161091f565b6001600160a01b038281166000908152602085905260409020548116908216146120bc57604051637c84ecfb60e01b81526001600160a01b038216600482015260240161091f565b6001600160a01b0390811660008181526020949094526040808520805494841686529085208054949093166001600160a01b0319948516179092559092528154169055565b60006001600160801b03608083013516610f4e565b6000610f4e826080013560801c90565b60006001600160801b0360c083013516610f4e565b600060c082013560801c610f4e565b8284823760609190911b6bffffffffffffffffffffffff19169101908152601401919050565b6001600160a01b03811681146110e057600080fd5b8035610ee281612170565b60008083601f8401126121a257600080fd5b5081356001600160401b038111156121b957600080fd5b6020830191508360208285010111156106ec57600080fd5b600080600080606085870312156121e757600080fd5b8435935060208501356121f981612170565b925060408501356001600160401b0381111561221457600080fd5b61222087828801612190565b95989497509550505050565b60008060006040848603121561224157600080fd5b8335925060208401356001600160401b0381111561225e57600080fd5b61226a86828701612190565b9497909650939450505050565b6000610120828403121561228a57600080fd5b50919050565b6000806000606084860312156122a557600080fd5b83356001600160401b038111156122bb57600080fd5b6122c786828701612277565b9660208601359650604090950135949350505050565b600080602083850312156122f057600080fd5b82356001600160401b0381111561230657600080fd5b61231285828601612190565b90969095509350505050565b6000806040838503121561233157600080fd5b823561233c81612170565b946020939093013593505050565b604080825283519082018190526000906020906060840190828701845b8281101561238c5781516001600160a01b031684529284019290840190600101612367565b5050506001600160a01b039490941660209390930192909252509092915050565b600080604083850312156123c057600080fd5b82356001600160401b038111156123d657600080fd5b6123e285828601612277565b95602094909401359450505050565b60005b8381101561240c5781810151838201526020016123f4565b50506000910152565b6000815180845261242d8160208601602086016123f1565b601f01601f19169290920160200192915050565b6020815260006106316020830184612415565b60006020828403121561246657600080fd5b5035919050565b600060208083016020845280855180835260408601915060408160051b87010192506020870160005b828110156124c457603f198886030184526124b2858351612415565b94509285019290850190600101612496565b5092979650505050505050565b60018060a01b03851681528360208201526080604082015260006124f86080830185612415565b905060ff8316606083015295945050505050565b80518015158114610ee257600080fd5b634e487b7160e01b600052604160045260246000fd5b604051601f8201601f191681016001600160401b038111828210171561255a5761255a61251c565b604052919050565b60006001600160401b0382111561257b5761257b61251c565b50601f01601f191660200190565b600061259c61259784612562565b612532565b90508281528383830111156125b057600080fd5b6106318360208301846123f1565b600082601f8301126125cf57600080fd5b61063183835160208501612589565b600080604083850312156125f157600080fd5b6125fa8361250c565b915060208301516001600160401b0381111561261557600080fd5b612621858286016125be565b9150509250929050565b6000808335601e1984360301811261264257600080fd5b83016020810192503590506001600160401b0381111561266157600080fd5b8036038213156106ec57600080fd5b81835281816020850137506000828201602090810191909152601f909101601f19169091010190565b604081526126ba604082016126ad85612185565b6001600160a01b03169052565b6020830135606082015260006126d3604085018561262b565b6101208060808601526126eb61016086018385612670565b92506126fa606088018861262b565b9250603f19808786030160a0880152612714858584612670565b9450608089013560c088015260a089013560e0880152610100935060c08901358488015261274560e08a018a61262b565b925081888703018489015261275b868483612670565b95505061276a848a018a61262b565b9450925080878603016101408801525050612786838383612670565b93505050508260208301529392505050565b6000602082840312156127aa57600080fd5b5051919050565b600080604083850312156127c457600080fd5b82356127cf81612170565b915060208301356001600160401b038111156127ea57600080fd5b8301601f810185136127fb57600080fd5b803561280961259782612562565b81815286602083850101111561281e57600080fd5b816020840160208301376000602083830101528093505050509250929050565b600082516128508184602087016123f1565b9190910192915050565b6000808335601e1984360301811261287157600080fd5b8301803591506001600160401b0382111561288b57600080fd5b6020019150368190038213156106ec57600080fd5b600080858511156128b057600080fd5b838611156128bd57600080fd5b5050820193919092039150565b8183823760009101908152919050565b6000602082840312156128ec57600080fd5b81516001600160401b0381111561290257600080fd5b8201601f8101841361291357600080fd5b61056484825160208401612589565b637361666560e01b8152600082516129418160048501602087016123f1565b6e2e657263373537392e76302e302e3160881b6004939091019283015250601301919050565b634e487b7160e01b600052603260045260246000fd5b8481526060602082015260006129966060830186612415565b82810360408401526129a9818587612670565b979650505050505050565b6000602082840312156129c657600080fd5b6106318261250c565b634e487b7160e01b600052601160045260246000fd5b6000600182016129f7576129f76129cf565b5060010190565b81810381811115610f4e57610f4e6129cf565b602081526000610564602083018486612670565b60008060408385031215612a3857600080fd5b8251612a4381612170565b60208401519092506001600160401b0381111561261557600080fd5b60018060a01b0385168152836020820152606060408201526000612a87606083018486612670565b9695505050505050565b600060208284031215612aa357600080fd5b81516001600160401b03811115612ab957600080fd5b610564848285016125be565b60008235605e1983360301811261285057600080fd5b600060208284031215612aed57600080fd5b813561063181612170565b6bffffffffffffffffffffffff198135818116916014851015612b255780818660140360031b1b83161692505b505092915050565b80356020831015610f4e57600019602084900360031b1b1692915050565b606081526000612b5e6060830185612415565b8315156020840152828103604084015260008152602081019150509392505050565b6001600160d01b03198135818116916006851015612b255760069490940360031b84901b169092169291505056fea26469706673582212204f5e2939759faec3f2839236a6c28ca54ea32d81c9d1cc4f809b24628808501764736f6c634300081900336080604052348015600f57600080fd5b5060016004556130c4806100246000396000f3fe6080604052600436106101d15760003560e01c8063affed0e0116100f7578063e19a9dd911610095578063f08a032311610064578063f08a0323146105f5578063f698da2514610615578063f8dc5dd91461062a578063ffa1ad741461064a5761020d565b8063e19a9dd914610580578063e318b52b146105a0578063e75235b8146105c0578063e86637db146105d55761020d565b8063cc2f8452116100d1578063cc2f8452146104f2578063d4d9bdcd14610520578063d8d11f7814610540578063e009cfde146105605761020d565b8063affed0e01461049c578063b4faba09146104b2578063b63e800d146104d25761020d565b80635624b25b1161016f5780636a7612021161013e5780636a7612021461040f5780637d83297414610422578063934f3a111461045a578063a0e67e2b1461047a5761020d565b80635624b25b146103755780635ae6bd37146103a2578063610b5925146103cf578063694e80c3146103ef5761020d565b80632f54bf6e116101ab5780632f54bf6e146102ea5780633408e4701461030a578063468721a7146103275780635229073f146103475761020d565b80630d582f131461027357806312fb68e0146102955780632d9ad53d146102b55761020d565b3661020d5760405134815233907f3d0ce9bfc3ed7d6862dbb28b2dea94561fe714a1b4d019aa8af39730d1ad7c3d9060200160405180910390a2005b34801561021957600080fd5b507f6c9a6c4a39284e37ed1cf53d337577d14212a4870fb976a4366c693b939918d580548061024457005b36600080373360601b365260008060143601600080855af190503d6000803e8061026d573d6000fd5b503d6000f35b34801561027f57600080fd5b5061029361028e36600461259f565b61067b565b005b3480156102a157600080fd5b506102936102b036600461266e565b6107d3565b3480156102c157600080fd5b506102d56102d03660046126e3565b610c72565b60405190151581526020015b60405180910390f35b3480156102f657600080fd5b506102d56103053660046126e3565b610cad565b34801561031657600080fd5b50465b6040519081526020016102e1565b34801561033357600080fd5b506102d561034236600461270f565b610ce5565b34801561035357600080fd5b5061036761036236600461270f565b610dbe565b6040516102e19291906127bf565b34801561038157600080fd5b506103956103903660046127da565b610df4565b6040516102e191906127fc565b3480156103ae57600080fd5b506103196103bd36600461280f565b60076020526000908152604090205481565b3480156103db57600080fd5b506102936103ea3660046126e3565b610e70565b3480156103fb57600080fd5b5061029361040a36600461280f565b610fa9565b6102d561041d366004612871565b611047565b34801561042e57600080fd5b5061031961043d36600461259f565b600860209081526000928352604080842090915290825290205481565b34801561046657600080fd5b5061029361047536600461294a565b611392565b34801561048657600080fd5b5061048f6113dc565b6040516102e191906129fc565b3480156104a857600080fd5b5061031960055481565b3480156104be57600080fd5b506102936104cd366004612a0f565b6114cd565b3480156104de57600080fd5b506102936104ed366004612a5f565b6114f0565b3480156104fe57600080fd5b5061051261050d36600461259f565b6115f2565b6040516102e1929190612b54565b34801561052c57600080fd5b5061029361053b36600461280f565b6117ae565b34801561054c57600080fd5b5061031961055b366004612b7e565b611843565b34801561056c57600080fd5b5061029361057b366004612c3f565b611870565b34801561058c57600080fd5b5061029361059b3660046126e3565b611992565b3480156105ac57600080fd5b506102936105bb366004612c78565b611aa8565b3480156105cc57600080fd5b50600454610319565b3480156105e157600080fd5b506103956105f0366004612b7e565b611c83565b34801561060157600080fd5b506102936106103660046126e3565b611d5c565b34801561062157600080fd5b50610319611da4565b34801561063657600080fd5b50610293610645366004612cc3565b611dfb565b34801561065657600080fd5b5061039560405180604001604052806005815260200164312e342e3160d81b81525081565b610683611f66565b6001600160a01b038216158015906106a557506001600160a01b038216600114155b80156106ba57506001600160a01b0382163014155b6106df5760405162461bcd60e51b81526004016106d690612d04565b60405180910390fd5b6001600160a01b0382811660009081526002602052604090205416156107175760405162461bcd60e51b81526004016106d690612d23565b60026020527fe90b7bceb6e7df5418fb78d8ee546e97c83a08bbccc01a0644d599ccd2a7c2e080546001600160a01b038481166000818152604081208054939094166001600160a01b03199384161790935560018352835490911617909155600380549161078483612d58565b90915550506040516001600160a01b038316907f9465fa0c962cc76958e6373a993326400c1c94f8be2fe3a952adfa7f60b2ea2690600090a280600454146107cf576107cf81610fa9565b5050565b6107de816041611f9f565b825110156108165760405162461bcd60e51b8152602060048201526005602482015264047533032360dc1b60448201526064016106d6565b6000808060008060005b86811015610c66576041818102890160208101516040820151919092015160ff16955090935091506000849003610a2e57885160208a01208a1461088e5760405162461bcd60e51b8152602060048201526005602482015264475330323760d81b60448201526064016106d6565b919350839161089e876041611f9f565b8210156108d55760405162461bcd60e51b8152602060048201526005602482015264475330323160d81b60448201526064016106d6565b87516108e2836020611fdb565b11156109185760405162461bcd60e51b815260206004820152600560248201526423a998191960d91b60448201526064016106d6565b60208289018101518951909161093b908390610935908790611fdb565b90611fdb565b11156109715760405162461bcd60e51b8152602060048201526005602482015264475330323360d81b60448201526064016106d6565b6040516320c13b0b60e01b8082528a8501602001916001600160a01b038916906320c13b0b906109a7908f908690600401612d71565b602060405180830381865afa1580156109c4573d6000803e3d6000fd5b505050506040513d601f19601f820116820180604052508101906109e89190612d96565b6001600160e01b03191614610a275760405162461bcd60e51b815260206004820152600560248201526411d4cc0c8d60da1b60448201526064016106d6565b5050610bd5565b8360ff16600103610ab0579193508391336001600160a01b0384161480610a7757506001600160a01b03851660009081526008602090815260408083208d845290915290205415155b610aab5760405162461bcd60e51b8152602060048201526005602482015264475330323560d81b60448201526064016106d6565b610bd5565b601e8460ff161115610b75576040517f19457468657265756d205369676e6564204d6573736167653a0a3332000000006020820152603c81018b9052600190605c0160405160208183030381529060405280519060200120600486610b159190612dc0565b6040805160008152602081018083529390935260ff90911690820152606081018590526080810184905260a0016020604051602081039080840390855afa158015610b64573d6000803e3d6000fd5b505050602060405103519450610bd5565b6040805160008152602081018083528c905260ff861691810191909152606081018490526080810183905260019060a0016020604051602081039080840390855afa158015610bc8573d6000803e3d6000fd5b5050506020604051035194505b856001600160a01b0316856001600160a01b0316118015610c0f57506001600160a01b038581166000908152600260205260409020541615155b8015610c2557506001600160a01b038516600114155b610c595760405162461bcd60e51b815260206004820152600560248201526423a998191b60d91b60448201526064016106d6565b9394508493600101610820565b50505050505050505050565b600060016001600160a01b03831614801590610ca757506001600160a01b038281166000908152600160205260409020541615155b92915050565b60006001600160a01b038216600114801590610ca75750506001600160a01b0390811660009081526002602052604090205416151590565b600033600114801590610d0f5750336000908152600160205260409020546001600160a01b031615155b610d435760405162461bcd60e51b815260206004820152600560248201526411d4cc4c0d60da1b60448201526064016106d6565b610d5285858585600019611ff7565b90508015610d8a5760405133907f6895c13664aa4f67288b25d7a21d7aaa34916e355fb9b6fae0a139a9085becb890600090a2610db6565b60405133907facd2c8702804128fdb0db2bb49f6d127dd0181c13fd45dbfe16de0930e2bd37590600090a25b949350505050565b60006060610dce86868686610ce5565b915060405160203d0181016040523d81523d6000602083013e8091505094509492505050565b60606000610e03836020612dd9565b67ffffffffffffffff811115610e1b57610e1b6125cb565b6040519080825280601f01601f191660200182016040528015610e45576020820181803683370190505b50905060005b83811015610e685784810154602080830284010152600101610e4b565b509392505050565b610e78611f66565b6001600160a01b03811615801590610e9a57506001600160a01b038116600114155b610ece5760405162461bcd60e51b8152602060048201526005602482015264475331303160d81b60448201526064016106d6565b6001600160a01b038181166000908152600160205260409020541615610f1e5760405162461bcd60e51b815260206004820152600560248201526423a998981960d91b60448201526064016106d6565b600160208190527fcc69885fda6bcc1a4ace058b4a62bf5e179ea78fd58a1ccd71c22cc9b688792f80546001600160a01b03848116600081815260408082208054949095166001600160a01b031994851617909455948552835490911681179092555190917fecdf3a3effea5783a3c4c2140e677577666428d44ed9d474a0b3a4c9943f844091a250565b610fb1611f66565b600354811115610fd35760405162461bcd60e51b81526004016106d690612df0565b600181101561100c5760405162461bcd60e51b815260206004820152600560248201526423a999181960d91b60448201526064016106d6565b60048190556040518181527f610f7ff2b304ae8903c3de74c60c6ab1f7d6226b3f52c5161905bb5ad4039c939060200160405180910390a150565b60008060006110618e8e8e8e8e8e8e8e8e8e600554611c83565b60058054919250600061107383612d58565b909155505080516020820120915061108c828286611392565b5060006110b77f4a204f620c8c5ccdca3fd54d003badd85ba500436a431f0cbda4f558c93c34c85490565b90506001600160a01b0381161561113d57806001600160a01b03166375f0bb528f8f8f8f8f8f8f8f8f8f8f336040518d63ffffffff1660e01b815260040161110a9c9b9a99989796959493929190612e47565b600060405180830381600087803b15801561112457600080fd5b505af1158015611138573d6000803e3d6000fd5b505050505b61116961114c8a6109c4612f0c565b603f6111598c6040612dd9565b6111639190612f1f565b9061203e565b611175906101f4612f0c565b5a10156111ac5760405162461bcd60e51b8152602060048201526005602482015264047533031360dc1b60448201526064016106d6565b60005a905061121d8f8f8f8f8080601f016020809104026020016040519081016040528093929190818152602001838380828437600081840152601f19601f820116905080830192505050505050508e8c60001461120a578e611ff7565b6109c45a6112189190612f41565b611ff7565b935061122a5a8290612055565b9050838061123757508915155b8061124157508715155b6112755760405162461bcd60e51b8152602060048201526005602482015264475330313360d81b60448201526064016106d6565b6000881561128d5761128a828b8b8b8b612070565b90505b84156112d257837f442e715f626346e8c54381002da614f62bee8d27386535b2521ec8540898556e826040516112c591815260200190565b60405180910390a261130d565b837f23428b18acfb3ea64b08dc0c1d296ea9c09702c09083ca5272e64d115b687d238260405161130491815260200190565b60405180910390a25b50506001600160a01b0381161561138157604051631264e26d60e31b81526004810183905283151560248201526001600160a01b03821690639327136890604401600060405180830381600087803b15801561136857600080fd5b505af115801561137c573d6000803e3d6000fd5b505050505b50509b9a5050505050505050505050565b600454806113ca5760405162461bcd60e51b8152602060048201526005602482015264475330303160d81b60448201526064016106d6565b6113d6848484846107d3565b50505050565b6060600060035467ffffffffffffffff8111156113fb576113fb6125cb565b604051908082528060200260200182016040528015611424578160200160208202803683370190505b506001600090815260026020527fe90b7bceb6e7df5418fb78d8ee546e97c83a08bbccc01a0644d599ccd2a7c2e054919250906001600160a01b03165b6001600160a01b0381166001146114c5578083838151811061148557611485612f54565b6001600160a01b039283166020918202929092018101919091529181166000908152600290925260409091205416816114bd81612d58565b925050611461565b509092915050565b600080825160208401855af480600052503d6020523d600060403e60403d016000fd5b61152e8a8a808060200260200160405190810160405280939291908181526020018383602002808284376000920191909152508c9250612176915050565b6001600160a01b038416156115465761154684612352565b6115868787878080601f0160208091040260200160405190810160405280939291908181526020018383808284376000920191909152506123b692505050565b811561159d5761159b82600060018685612070565b505b336001600160a01b03167f141df868a6331af528e38c83b7aa03edc19be66e37ae67f9285bf4f8e3c6a1a88b8b8b8b896040516115de959493929190612f6a565b60405180910390a250505050505050505050565b606060006001600160a01b03841660011480611612575061161284610c72565b6116465760405162461bcd60e51b8152602060048201526005602482015264475331303560d81b60448201526064016106d6565b6000831161167e5760405162461bcd60e51b815260206004820152600560248201526423a998981b60d91b60448201526064016106d6565b8267ffffffffffffffff811115611697576116976125cb565b6040519080825280602002602001820160405280156116c0578160200160208202803683370190505b506001600160a01b03808616600090815260016020526040812054929450911691505b6001600160a01b0382161580159061170557506001600160a01b038216600114155b801561171057508381105b1561176b578183828151811061172857611728612f54565b6001600160a01b0392831660209182029290920181019190915292811660009081526001909352604090922054909116908061176381612d58565b9150506116e3565b6001600160a01b0382166001146117a35782611788600183612f41565b8151811061179857611798612f54565b602002602001015191505b808352509250929050565b336000908152600260205260409020546001600160a01b03166117fb5760405162461bcd60e51b8152602060048201526005602482015264047533033360dc1b60448201526064016106d6565b336000818152600860209081526040808320858452909152808220600190555183917ff2a0eb156472d1440255b0d7c1e19cc07115d1051fe605b0dce69acfec884d9c91a350565b60006118588c8c8c8c8c8c8c8c8c8c8c611c83565b8051906020012090509b9a5050505050505050505050565b611878611f66565b6001600160a01b0381161580159061189a57506001600160a01b038116600114155b6118ce5760405162461bcd60e51b8152602060048201526005602482015264475331303160d81b60448201526064016106d6565b6001600160a01b038281166000908152600160205260409020548116908216146119225760405162461bcd60e51b8152602060048201526005602482015264475331303360d81b60448201526064016106d6565b6001600160a01b03818116600081815260016020526040808220805487861684528284208054919096166001600160a01b0319918216179095558383528054909416909355915190917faab4fa2b463f581b2b32cb3b7e3b704b9ce37cc209b5fb4d77e593ace405427691a25050565b61199a611f66565b6001600160a01b03811615611a4c576040516301ffc9a760e01b815263736bd41d60e11b60048201526001600160a01b038216906301ffc9a790602401602060405180830381865afa1580156119f4573d6000803e3d6000fd5b505050506040513d601f19601f82011682018060405250810190611a189190612fd6565b611a4c5760405162461bcd60e51b8152602060048201526005602482015264047533330360dc1b60448201526064016106d6565b7f4a204f620c8c5ccdca3fd54d003badd85ba500436a431f0cbda4f558c93c34c88181556040516001600160a01b038316907f1151116914515bc0891ff9047a6cb32cf902546f83066499bcf8ba33d2353fa290600090a25050565b611ab0611f66565b6001600160a01b03811615801590611ad257506001600160a01b038116600114155b8015611ae757506001600160a01b0381163014155b611b035760405162461bcd60e51b81526004016106d690612d04565b6001600160a01b038181166000908152600260205260409020541615611b3b5760405162461bcd60e51b81526004016106d690612d23565b6001600160a01b03821615801590611b5d57506001600160a01b038216600114155b611b795760405162461bcd60e51b81526004016106d690612d04565b6001600160a01b03838116600090815260026020526040902054811690831614611bcd5760405162461bcd60e51b8152602060048201526005602482015264475332303560d81b60448201526064016106d6565b6001600160a01b03828116600081815260026020526040808220805486861680855283852080549288166001600160a01b03199384161790559589168452828420805482169096179095558383528054909416909355915190917ff8d49fc529812e9a7c5c50e69c20f0dccc0db8fa95c98bc58cc9a4f1c1299eaf91a26040516001600160a01b038216907f9465fa0c962cc76958e6373a993326400c1c94f8be2fe3a952adfa7f60b2ea2690600090a2505050565b606060007fbb8310d486368db6bd6f849402fdd73ad53d316b5a4b2644ad6efe0f941286d860001b8d8d8d8d604051611cbd929190612ff8565b604051908190038120611ce3949392918e908e908e908e908e908e908e90602001613008565b60408051601f1981840301815291905280516020909101209050601960f81b600160f81b611d0f611da4565b6040516001600160f81b031993841660208201529290911660218301526022820152604281018290526062016040516020818303038152906040529150509b9a5050505050505050505050565b611d64611f66565b611d6d81612352565b6040516001600160a01b038216907f5ac6c46c93c8d0e53714ba3b53db3e7c046da994313d7ed0d192028bc7c228b090600090a250565b60007f47e79534a245952e8b16893a336b85a3d9ea9fa8c573f3d803afb92a794692184660408051602081019390935282015230606082015260800160405160208183030381529060405280519060200120905090565b611e03611f66565b806001600354611e139190612f41565b1015611e315760405162461bcd60e51b81526004016106d690612df0565b6001600160a01b03821615801590611e5357506001600160a01b038216600114155b611e6f5760405162461bcd60e51b81526004016106d690612d04565b6001600160a01b03838116600090815260026020526040902054811690831614611ec35760405162461bcd60e51b8152602060048201526005602482015264475332303560d81b60448201526064016106d6565b6001600160a01b03828116600081815260026020526040808220805488861684529183208054929095166001600160a01b03199283161790945591815282549091169091556003805491611f1683613077565b90915550506040516001600160a01b038316907ff8d49fc529812e9a7c5c50e69c20f0dccc0db8fa95c98bc58cc9a4f1c1299eaf90600090a28060045414611f6157611f6181610fa9565b505050565b333014611f9d5760405162461bcd60e51b8152602060048201526005602482015264475330333160d81b60448201526064016106d6565b565b600082600003611fb157506000610ca7565b6000611fbd8385612dd9565b905082611fca8583612f1f565b14611fd457600080fd5b9392505050565b600080611fe88385612f0c565b905083811015611fd457600080fd5b6000600183600181111561200d5761200d612e0f565b03612025576000808551602087018986f49050612035565b600080855160208701888a87f190505b95945050505050565b60008183101561204e5781611fd4565b5090919050565b60008282111561206457600080fd5b6000610db68385612f41565b6000806001600160a01b03831615612088578261208a565b325b90506001600160a01b03841661211d576120bc3a86106120aa573a6120ac565b855b6120b68989611fdb565b90611f9f565b6040519092506001600160a01b0382169083156108fc029084906000818181858888f193505050506121185760405162461bcd60e51b8152602060048201526005602482015264475330313160d81b60448201526064016106d6565b61216c565b61212b856120b68989611fdb565b91506121388482846124e8565b61216c5760405162461bcd60e51b815260206004820152600560248201526423a998189960d91b60448201526064016106d6565b5095945050505050565b600454156121ae5760405162461bcd60e51b8152602060048201526005602482015264047533230360dc1b60448201526064016106d6565b81518111156121cf5760405162461bcd60e51b81526004016106d690612df0565b60018110156122085760405162461bcd60e51b815260206004820152600560248201526423a999181960d91b60448201526064016106d6565b600160005b835181101561231f57600084828151811061222a5761222a612f54565b6020026020010151905060006001600160a01b0316816001600160a01b03161415801561226157506001600160a01b038116600114155b801561227657506001600160a01b0381163014155b80156122945750806001600160a01b0316836001600160a01b031614155b6122b05760405162461bcd60e51b81526004016106d690612d04565b6001600160a01b0381811660009081526002602052604090205416156122e85760405162461bcd60e51b81526004016106d690612d23565b6001600160a01b03928316600090815260026020526040902080546001600160a01b0319169382169390931790925560010161220d565b506001600160a01b0316600090815260026020526040902080546001600160a01b03191660011790559051600355600455565b306001600160a01b038216036123925760405162461bcd60e51b8152602060048201526005602482015264047533430360dc1b60448201526064016106d6565b7f6c9a6c4a39284e37ed1cf53d337577d14212a4870fb976a4366c693b939918d555565b600160008190526020527fcc69885fda6bcc1a4ace058b4a62bf5e179ea78fd58a1ccd71c22cc9b688792f546001600160a01b0316156124205760405162461bcd60e51b8152602060048201526005602482015264047533130360dc1b60448201526064016106d6565b6001600081905260208190527fcc69885fda6bcc1a4ace058b4a62bf5e179ea78fd58a1ccd71c22cc9b688792f80546001600160a01b03191690911790556001600160a01b038216156107cf57813b6124a35760405162461bcd60e51b815260206004820152600560248201526423a998181960d91b60448201526064016106d6565b6124b4826000836001600019611ff7565b6107cf5760405162461bcd60e51b8152602060048201526005602482015264047533030360dc1b60448201526064016106d6565b604080516001600160a01b03841660248201526044808201849052825180830390910181526064909101909152602080820180516001600160e01b031663a9059cbb60e01b1781528251600093929184919082896127105a03f13d801561255a5760208114612562576000935061256d565b81935061256d565b600051158215171593505b5050509392505050565b6001600160a01b038116811461258c57600080fd5b50565b803561259a81612577565b919050565b600080604083850312156125b257600080fd5b82356125bd81612577565b946020939093013593505050565b634e487b7160e01b600052604160045260246000fd5b600082601f8301126125f257600080fd5b813567ffffffffffffffff8082111561260d5761260d6125cb565b604051601f8301601f19908116603f01168101908282118183101715612635576126356125cb565b8160405283815286602085880101111561264e57600080fd5b836020870160208301376000602085830101528094505050505092915050565b6000806000806080858703121561268457600080fd5b84359350602085013567ffffffffffffffff808211156126a357600080fd5b6126af888389016125e1565b945060408701359150808211156126c557600080fd5b506126d2878288016125e1565b949793965093946060013593505050565b6000602082840312156126f557600080fd5b8135611fd481612577565b80356002811061259a57600080fd5b6000806000806080858703121561272557600080fd5b843561273081612577565b935060208501359250604085013567ffffffffffffffff81111561275357600080fd5b61275f878288016125e1565b92505061276e60608601612700565b905092959194509250565b6000815180845260005b8181101561279f57602081850181015186830182015201612783565b506000602082860101526020601f19601f83011685010191505092915050565b8215158152604060208201526000610db66040830184612779565b600080604083850312156127ed57600080fd5b50508035926020909101359150565b602081526000611fd46020830184612779565b60006020828403121561282157600080fd5b5035919050565b60008083601f84011261283a57600080fd5b50813567ffffffffffffffff81111561285257600080fd5b60208301915083602082850101111561286a57600080fd5b9250929050565b60008060008060008060008060008060006101408c8e03121561289357600080fd5b61289c8c61258f565b9a5060208c0135995067ffffffffffffffff8060408e013511156128bf57600080fd5b6128cf8e60408f01358f01612828565b909a5098506128e060608e01612700565b975060808d0135965060a08d0135955060c08d0135945061290360e08e0161258f565b93506129126101008e0161258f565b9250806101208e0135111561292657600080fd5b506129388d6101208e01358e016125e1565b90509295989b509295989b9093969950565b60008060006060848603121561295f57600080fd5b83359250602084013567ffffffffffffffff8082111561297e57600080fd5b61298a878388016125e1565b935060408601359150808211156129a057600080fd5b506129ad868287016125e1565b9150509250925092565b60008151808452602080850194506020840160005b838110156129f15781516001600160a01b0316875295820195908201906001016129cc565b509495945050505050565b602081526000611fd460208301846129b7565b60008060408385031215612a2257600080fd5b8235612a2d81612577565b9150602083013567ffffffffffffffff811115612a4957600080fd5b612a55858286016125e1565b9150509250929050565b6000806000806000806000806000806101008b8d031215612a7f57600080fd5b8a3567ffffffffffffffff80821115612a9757600080fd5b818d0191508d601f830112612aab57600080fd5b813581811115612aba57600080fd5b8e60208260051b8501011115612acf57600080fd5b60208381019d50909b508d01359950612aea60408e0161258f565b985060608d0135915080821115612b0057600080fd5b50612b0d8d828e01612828565b9097509550612b20905060808c0161258f565b9350612b2e60a08c0161258f565b925060c08b01359150612b4360e08c0161258f565b90509295989b9194979a5092959850565b604081526000612b6760408301856129b7565b905060018060a01b03831660208301529392505050565b60008060008060008060008060008060006101408c8e031215612ba057600080fd5b8b35612bab81612577565b9a5060208c0135995060408c013567ffffffffffffffff811115612bce57600080fd5b612bda8e828f01612828565b909a509850612bed905060608d01612700565b965060808c0135955060a08c0135945060c08c0135935060e08c0135612c1281612577565b92506101008c0135612c2381612577565b809250506101208c013590509295989b509295989b9093969950565b60008060408385031215612c5257600080fd5b8235612c5d81612577565b91506020830135612c6d81612577565b809150509250929050565b600080600060608486031215612c8d57600080fd5b8335612c9881612577565b92506020840135612ca881612577565b91506040840135612cb881612577565b809150509250925092565b600080600060608486031215612cd857600080fd5b8335612ce381612577565b92506020840135612cf381612577565b929592945050506040919091013590565b602080825260059082015264475332303360d81b604082015260600190565b60208082526005908201526411d4cc8c0d60da1b604082015260600190565b634e487b7160e01b600052601160045260246000fd5b600060018201612d6a57612d6a612d42565b5060010190565b604081526000612d846040830185612779565b82810360208401526120358185612779565b600060208284031215612da857600080fd5b81516001600160e01b031981168114611fd457600080fd5b60ff8281168282160390811115610ca757610ca7612d42565b8082028115828204841417610ca757610ca7612d42565b602080825260059082015264475332303160d81b604082015260600190565b634e487b7160e01b600052602160045260246000fd5b60028110612e4357634e487b7160e01b600052602160045260246000fd5b9052565b6001600160a01b038d168152602081018c90526101606040820181905281018a905260006101808b8d828501376000838d01820152601f8c01601f19168301612e93606085018d612e25565b8a60808501528960a08501528860c0850152612eba60e08501896001600160a01b03169052565b6001600160a01b0387166101008501528184820301610120850152612ee182820187612779565b92505050612efb6101408301846001600160a01b03169052565b9d9c50505050505050505050505050565b80820180821115610ca757610ca7612d42565b600082612f3c57634e487b7160e01b600052601260045260246000fd5b500490565b81810381811115610ca757610ca7612d42565b634e487b7160e01b600052603260045260246000fd5b6080808252810185905260008660a08301825b88811015612fad578235612f9081612577565b6001600160a01b0316825260209283019290910190600101612f7d565b50602084019690965250506001600160a01b039283166040820152911660609091015292915050565b600060208284031215612fe857600080fd5b81518015158114611fd457600080fd5b8183823760009101908152919050565b8b81526001600160a01b038b81166020830152604082018b9052606082018a905261016082019061303c608084018b612e25565b60a083019890985260c082019690965260e0810194909452918516610100840152909316610120820152610140019190915295945050505050565b60008161308657613086612d42565b50600019019056fea264697066735822122070f718da9cd6c75aa04abc1042118ee7d5313784905c153c5790d66c5d4511ca64736f6c634300081900336080604052348015600f57600080fd5b5061157a8061001f6000396000f3fe60806040526004361061007f5760003560e01c8063855713681161004e57806385571368146101e35780638acf4c6a14610211578063b0d691fe1461023f578063ea5f61d01461026257610086565b80630a664dba146101305780635e87556d14610174578063642219af146101a15780636b0d5cc4146101c357610086565b3661008657005b60003560e01c63bc197c81811463f23a6e6182141763150b7a02821417156100b257806020526020603cf35b50336000908152602081905260409020600101546001600160a01b0316806100ed57604051632c4bc0b360e11b815260040160405180910390fd5b6000610126338334843660131981013560601c60405160200161011293929190610eb9565b604051602081830303815290604052610282565b9050805160208201f35b34801561013c57600080fd5b50336000908152600260205260409020546001600160a01b03165b6040516001600160a01b0390911681526020015b60405180910390f35b34801561018057600080fd5b5061019461018f366004610f24565b61032b565b60405161016b919061103b565b3480156101ad57600080fd5b506101c16101bc366004610f24565b6103b4565b005b3480156101cf57600080fd5b506101c16101de366004611066565b61066a565b3480156101ef57600080fd5b506102036101fe3660046110eb565b6106af565b60405161016b929190611117565b34801561021d57600080fd5b50336000908152602081905260409020600101546001600160a01b0316610157565b34801561024b57600080fd5b506f71727de22e5e9d8baf0edac6f37da032610157565b34801561026e57600080fd5b5061020361027d3660046110eb565b6106cc565b60606000856001600160a01b0316635229073f86868660006040518563ffffffff1660e01b81526004016102b9949392919061117a565b6000604051808303816000875af11580156102d8573d6000803e3d6000fd5b505050506040513d6000823e601f3d908101601f1916820160405261030091908101906111e0565b925090508061032257604051632b3f6d1160e21b815260040160405180910390fd5b50949350505050565b606030306001600160a01b031663642219af8a8a8a8a8a8a8a60405160240161035a97969594939291906113b0565b604051602081830303815290604052915060e01b6020820180516001600160e01b03838183161783525050505060405160200161039892919061140e565b6040516020818303038152906040529050979650505050505050565b60005b86811015610468576104608888838181106103d4576103d4611432565b90506020028101906103e69190611448565b6103f4906020810190611468565b89898481811061040657610406611432565b90506020028101906104189190611448565b61042690602081019061148c565b8080601f0160208091040260200160405190810160405280939291908181526020018383808284376000920191909152506106f692505050565b6001016103b7565b5060005b8481101561055f57600086868381811061048857610488611432565b905060200281019061049a9190611448565b6104a8906020810190611468565b6001600160a01b031614610557576105578686838181106104cb576104cb611432565b90506020028101906104dd9190611448565b6104eb906020810190611468565b8787848181106104fd576104fd611432565b905060200281019061050f9190611448565b61051d90602081019061148c565b8080601f01602080910402602001604051908101604052809392919081815260200183838082843760009201919091525061074d92505050565b60010161046c565b50600061056f6020850185611468565b6001600160a01b03161461059f5761059f61058d6020850185611468565b61059a602086018661148c565b61077e565b60005b818110156106605760008383838181106105be576105be611432565b90506020028101906105d09190611448565b6105de906020810190611468565b6001600160a01b0316146106585761065883838381811061060157610601611432565b90506020028101906106139190611448565b610621906020810190611468565b84848481811061063357610633611432565b90506020028101906106459190611448565b61065390602081019061148c565b61080d565b6001016105a2565b5050505050505050565b6106aa8383838080601f0160208091040260200160405190810160405280939291908181526020018383808284376000920191909152506106f692505050565b505050565b606060006106c06001338686610857565b915091505b9250929050565b336000908152602081905260408120606091906106ea818686610a1c565b92509250509250929050565b61070260013384610bc9565b610749338360008460405160240161071a919061103b565b60408051601f198184030181529190526020810180516001600160e01b03166306d61fe760e41b179052610cbe565b5050565b3360009081526020819052604090206107668184610d5d565b6106aa338460008560405160240161071a919061103b565b336000908152600260205260409020546001600160a01b031680156107c65760405163741cbe0360e01b81526001600160a01b03821660048201526024015b60405180910390fd5b3360008181526002602052604080822080546001600160a01b0319166001600160a01b038916179055516108079291879161071a90889088906024016114d3565b50505050565b336000818152602081905260408082206001810180546001600160a01b0319166001600160a01b0389161790559051909261080792909187919061071a90889088906024016114d3565b606060006001600160a01b03841660011480159061087d575061087b868686610e33565b155b156108a657604051637c84ecfb60e01b81526001600160a01b03851660048201526024016107bd565b826000036108c75760405163f725081760e01b815260040160405180910390fd5b8267ffffffffffffffff8111156108e0576108e06111ca565b604051908082528060200260200182016040528015610909578160200160208202803683370190505b506001600160a01b038086166000908152602089815260408083208a85168452909152812054929450911691505b6001600160a01b0382161580159061095957506001600160a01b038216600114155b801561096457508381105b156109c9578183828151811061097c5761097c611432565b6001600160a01b03928316602091820292909201810191909152928116600090815288845260408082208984168352909452929092205490911690806109c1816114fd565b915050610937565b6001600160a01b0382166001148015906109e35750600081115b15610a0f57826109f4600183611516565b81518110610a0457610a04611432565b602002602001015191505b8083525094509492505050565b606060006001600160a01b038416600114801590610a415750610a3f8585610e7b565b155b15610a6a57604051637c84ecfb60e01b81526001600160a01b03851660048201526024016107bd565b82600003610a8b5760405163f725081760e01b815260040160405180910390fd5b8267ffffffffffffffff811115610aa457610aa46111ca565b604051908082528060200260200182016040528015610acd578160200160208202803683370190505b506001600160a01b03808616600090815260208890526040812054929450911691505b6001600160a01b03821615801590610b1257506001600160a01b038216600114155b8015610b1d57508381105b15610b775781838281518110610b3557610b35611432565b6001600160a01b039283166020918202929092018101919091529281166000908152928790526040909220549091169080610b6f816114fd565b915050610af0565b6001600160a01b038216600114801590610b915750600081115b15610bbd5782610ba2600183611516565b81518110610bb257610bb2611432565b602002602001015191505b80835250935093915050565b6001600160a01b0381161580610be857506001600160a01b0381166001145b15610c1157604051637c84ecfb60e01b81526001600160a01b03821660048201526024016107bd565b6001600160a01b0381811660009081526020858152604080832086851684529091529020541615610c6057604051631034f46960e21b81526001600160a01b03821660048201526024016107bd565b60016000908152602084815260408083206001600160a01b039586168085528184528285208054968816808752988552838620918652908452919093208054949095166001600160a01b031994851617909455528154169091179055565b60405163468721a760e01b81526000906001600160a01b0386169063468721a790610cf390879087908790879060040161117a565b6020604051808303816000875af1158015610d12573d6000803e3d6000fd5b505050506040513d601f19601f82011682018060405250810190610d369190611529565b905080610d5657604051632b3f6d1160e21b815260040160405180910390fd5b5050505050565b6001600160a01b0381161580610d7c57506001600160a01b0381166001145b15610da557604051637c84ecfb60e01b81526001600160a01b03821660048201526024016107bd565b6001600160a01b038181166000908152602084905260409020541615610de957604051631034f46960e21b81526001600160a01b03821660048201526024016107bd565b60016000818152602093909352604080842080546001600160a01b039485168087529286208054959091166001600160a01b03199586161790559190935280549091169091179055565b600060016001600160a01b03831614801590610e7357506001600160a01b0382811660009081526020868152604080832087851684529091529020541615155b949350505050565b600060016001600160a01b03831614801590610eb057506001600160a01b038281166000908152602085905260409020541615155b90505b92915050565b8284823760609190911b6bffffffffffffffffffffffff19169101908152601401919050565b60008083601f840112610ef157600080fd5b50813567ffffffffffffffff811115610f0957600080fd5b6020830191508360208260051b85010111156106c557600080fd5b60008060008060008060006080888a031215610f3f57600080fd5b873567ffffffffffffffff80821115610f5757600080fd5b610f638b838c01610edf565b909950975060208a0135915080821115610f7c57600080fd5b610f888b838c01610edf565b909750955060408a0135915080821115610fa157600080fd5b908901906040828c031215610fb557600080fd5b90935060608901359080821115610fcb57600080fd5b50610fd88a828b01610edf565b989b979a50959850939692959293505050565b60005b83811015611006578181015183820152602001610fee565b50506000910152565b60008151808452611027816020860160208601610feb565b601f01601f19169290920160200192915050565b602081526000610eb0602083018461100f565b6001600160a01b038116811461106357600080fd5b50565b60008060006040848603121561107b57600080fd5b83356110868161104e565b9250602084013567ffffffffffffffff808211156110a357600080fd5b818601915086601f8301126110b757600080fd5b8135818111156110c657600080fd5b8760208285010111156110d857600080fd5b6020830194508093505050509250925092565b600080604083850312156110fe57600080fd5b82356111098161104e565b946020939093013593505050565b604080825283519082018190526000906020906060840190828701845b828110156111595781516001600160a01b031684529284019290840190600101611134565b5050506001600160a01b039490941660209390930192909252509092915050565b60018060a01b03851681528360208201526080604082015260006111a1608083018561100f565b905060ff8316606083015295945050505050565b805180151581146111c557600080fd5b919050565b634e487b7160e01b600052604160045260246000fd5b600080604083850312156111f357600080fd5b6111fc836111b5565b9150602083015167ffffffffffffffff8082111561121957600080fd5b818501915085601f83011261122d57600080fd5b81518181111561123f5761123f6111ca565b604051601f8201601f19908116603f01168101908382118183101715611267576112676111ca565b8160405282815288602084870101111561128057600080fd5b611291836020830160208801610feb565b80955050505050509250929050565b81835281816020850137506000828201602090810191909152601f909101601f19169091010190565b600081356112d68161104e565b6001600160a01b03168352602082013536839003601e190181126112f957600080fd5b820160208101903567ffffffffffffffff81111561131657600080fd5b80360382131561132557600080fd5b6040602086015261133a6040860182846112a0565b95945050505050565b6000838385526020808601955060208560051b830101846000805b888110156113a257858403601f19018a52823536899003603e19018112611383578283fd5b61138f858a83016112c9565b9a86019a9450509184019160010161135e565b509198975050505050505050565b6080815260006113c460808301898b611343565b82810360208401526113d781888a611343565b905082810360408401526113eb81876112c9565b90508281036060840152611400818587611343565b9a9950505050505050505050565b6001600160a01b0383168152604060208201819052600090610e739083018461100f565b634e487b7160e01b600052603260045260246000fd5b60008235603e1983360301811261145e57600080fd5b9190910192915050565b60006020828403121561147a57600080fd5b81356114858161104e565b9392505050565b6000808335601e198436030181126114a357600080fd5b83018035915067ffffffffffffffff8211156114be57600080fd5b6020019150368190038213156106c557600080fd5b602081526000610e736020830184866112a0565b634e487b7160e01b600052601160045260246000fd5b60006001820161150f5761150f6114e7565b5060010190565b81810381811115610eb357610eb36114e7565b60006020828403121561153b57600080fd5b610eb0826111b556fea264697066735822122003ea63b1e251596fb83804856378b77334f4486ce1176e9dec1354b6e785d00764736f6c634300081900336080604052348015600f57600080fd5b506131aa8061001f6000396000f3fe6080604052600436106101025760003560e01c80639cfd7cff11610095578063d691c96411610064578063d691c9641461041b578063e9ae5c531461043b578063ea5f61d01461044e578063eac9b20d1461046e578063f2dc691d1461052457610109565b80639cfd7cff14610379578063a71763a8146103c5578063b0d691fe146103d8578063d03c7914146103fb57610109565b80634b6a1419116100d15780634b6a14191461031257806385571368146103255780638dd7712f146103535780639517e29f1461036657610109565b80630a664dba14610256578063112d3a7d146102885780631626ba7e146102b857806319822f7c146102f157610109565b3661010957005b60003560e01c63bc197c81811463f23a6e6182141763150b7a028214171561013557806020526020603cf35b50600080356001600160e01b03191681526000805160206130f58339815191526020526040902080546001600160a01b03811690600160a01b900460f81b816101a457604051632464e76d60e11b81526001600160e01b03196000351660048201526024015b60405180910390fd5b6101b281607f60f91b610544565b156102065760408051368101909152366000823760408051601481019091523360601b90526000803660140183865afa90506101f43d60408051918201905290565b3d6000823e81610202573d81fd5b3d81f35b610211816000610544565b156102545760408051368101909152366000823760408051601481019091523360601b9052600080366014018382875af190506101f43d60408051918201905290565b005b34801561026257600080fd5b5061026b61055b565b6040516001600160a01b0390911681526020015b60405180910390f35b34801561029457600080fd5b506102a86102a3366004612876565b610578565b604051901515815260200161027f565b3480156102c457600080fd5b506102d86102d33660046128d1565b61060e565b6040516001600160e01b0319909116815260200161027f565b6103046102ff366004612935565b6106e4565b60405190815260200161027f565b610254610320366004612982565b6107ca565b34801561033157600080fd5b506103456103403660046129c3565b610854565b60405161027f9291906129ef565b610254610361366004612a52565b61087f565b610254610374366004612876565b61094f565b34801561038557600080fd5b50604080518082018252601b81527f754d53412e616476616e6365642f77697468486f6f6b2e76302e3100000000006020820152905161027f9190612ae6565b6102546103d3366004612876565b610d0b565b3480156103e457600080fd5b506f71727de22e5e9d8baf0edac6f37da03261026b565b34801561040757600080fd5b506102a8610416366004612af9565b610f09565b61042e6104293660046128d1565b610fa8565b60405161027f9190612b12565b6102546104493660046128d1565b6115d3565b34801561045a57600080fd5b506103456104693660046129c3565b611a1d565b34801561047a57600080fd5b506104f6610489366004612b8c565b604080518082018252600080825260209182018190526001600160e01b03199390931683526000805160206130f58339815191528152918190208151808301909252546001600160a01b0381168252600160a01b900460f81b6001600160f81b0319169181019190915290565b6040805182516001600160a01b031681526020928301516001600160f81b031916928101929092520161027f565b34801561053057600080fd5b506102a861053f366004612af9565b611a3b565b6001600160f81b0319828116908216145b92915050565b60006105736000805160206131358339815191525490565b905090565b6000600185036105925761058b84611a8a565b9050610606565b600285036105a35761058b84611aac565b600385036105f15761058b6105ba83850185612b8c565b6001600160e01b03191660009081526000805160206130f583398151915260205260409020546001600160a01b0386811691161490565b600485036106025761058b84611ac7565b5060005b949350505050565b60008061061e6014828587612ba9565b61062791612bd3565b60601c905061063581611a8a565b61065d57604051635c93ff2f60e11b81526001600160a01b038216600482015260240161019b565b6001600160a01b03811663f551e2ee338761067b876014818b612ba9565b6040518563ffffffff1660e01b815260040161069a9493929190612c2f565b602060405180830381865afa1580156106b7573d6000803e3d6000fd5b505050506040513d601f19601f820116820180604052508101906106db9190612c61565b95945050505050565b6000336f71727de22e5e9d8baf0edac6f37da0321461071657604051635629665f60e11b815260040160405180910390fd5b816020850135606081901c9061072b82611a8a565b61073a576001935050506107b0565b604051639700320360e01b81526001600160a01b03831690639700320390610768908a908a90600401612cc3565b6020604051808303816000875af1158015610787573d6000803e3d6000fd5b505050506040513d601f19601f820116820180604052508101906107ab9190612dc2565b935050505b80156107c25760003860003884335af1505b509392505050565b6107d2611af9565b6000806107e183850185612e48565b915091506000826001600160a01b0316826040516107ff9190612eda565b600060405180830381855af49150503d806000811461083a576040519150601f19603f3d011682016040523d82523d6000602084013e61083f565b606091505b505090508061084d57600080fd5b5050505050565b60606000600080516020613155833981519152610872818686611b2b565b92509250505b9250929050565b336f71727de22e5e9d8baf0edac6f37da032146108af57604051635629665f60e11b815260040160405180910390fd5b3660006108bf6060850185612ef6565b6108cd916004908290612ba9565b915091506000306001600160a01b031683836040516108ed929190612f3c565b600060405180830381855af49150503d8060008114610928576040519150601f19603f3d011682016040523d82523d6000602084013e61092d565b606091505b505090508061084d57604051632b3f6d1160e21b815260040160405180910390fd5b336f71727de22e5e9d8baf0edac6f37da032148061096c57503330145b61098957604051635629665f60e11b815260040160405180910390fd5b60006109a16000805160206131358339815191525490565b90506001600160a01b038116610aee5760405163ecd0596160e01b8152600481018690526001600160a01b0385169063ecd0596190602401602060405180830381865afa1580156109f6573d6000803e3d6000fd5b505050506040513d601f19601f82011682018060405250810190610a1a9190612f4c565b610a3a576040516369c9a24560e11b81526004810186905260240161019b565b60018503610a5257610a4d848484611cd7565b610aa7565b60028503610a6557610a4d848484611d56565b60038503610a7857610a4d848484611d6f565b60048503610a8b57610a4d848484611ee6565b60405163041c38b360e41b81526004810186905260240161019b565b604080518681526001600160a01b03861660208201527fd21d0b289f126c4b473ea641963e766833c2f13866e4ff480abd787c100ef12391015b60405180910390a161084d565b60405163d68f602560e01b81526000906001600160a01b0383169063d68f602590610b23903390349086903690600401612c2f565b6000604051808303816000875af1158015610b42573d6000803e3d6000fd5b505050506040513d6000823e601f3d908101601f19168201604052610b6a9190810190612f6e565b60405163ecd0596160e01b8152600481018890529091506001600160a01b0386169063ecd0596190602401602060405180830381865afa158015610bb2573d6000803e3d6000fd5b505050506040513d601f19601f82011682018060405250810190610bd69190612f4c565b610bf6576040516369c9a24560e11b81526004810187905260240161019b565b60018603610c0e57610c09858585611cd7565b610c63565b60028603610c2157610c09858585611d56565b60038603610c3457610c09858585611d6f565b60048603610c4757610c09858585611ee6565b60405163041c38b360e41b81526004810187905260240161019b565b604080518781526001600160a01b03871660208201527fd21d0b289f126c4b473ea641963e766833c2f13866e4ff480abd787c100ef12391015b60405180910390a1604051630b9dfbed60e11b81526001600160a01b0383169063173bf7da90610cd1908490600401612ae6565b600060405180830381600087803b158015610ceb57600080fd5b505af1158015610cff573d6000803e3d6000fd5b50505050505050505050565b336f71727de22e5e9d8baf0edac6f37da0321480610d2857503330145b610d4557604051635629665f60e11b815260040160405180910390fd5b6000610d5d6000805160206131358339815191525490565b90506001600160a01b038116610dfc5760018503610d8557610d80848484611f49565b610dbe565b60028503610d9857610d80848484611fa3565b60038503610dab57610d80848484611fc1565b60048503610a8b57610d80848484612201565b604080518681526001600160a01b03861660208201527f341347516a9de374859dfda710fa4828b2d48cb57d4fbe4c1149612b8e02276e9101610ae1565b60405163d68f602560e01b81526000906001600160a01b0383169063d68f602590610e31903390349086903690600401612c2f565b6000604051808303816000875af1158015610e50573d6000803e3d6000fd5b505050506040513d6000823e601f3d908101601f19168201604052610e789190810190612f6e565b905060018603610e9257610e8d858585611f49565b610ecb565b60028603610ea557610e8d858585611fa3565b60038603610eb857610e8d858585611fc1565b60048603610c4757610e8d858585612201565b604080518781526001600160a01b03871660208201527f341347516a9de374859dfda710fa4828b2d48cb57d4fbe4c1149612b8e02276e9101610c9d565b600081600881901b610f1f82600160f81b610544565b15610f2d5760019250610f70565b610f38826000610544565b15610f465760019250610f70565b610f58826001600160f81b0319610544565b15610f665760019250610f70565b5060009392505050565b610f7b816000610544565b15610f895760019250610fa1565b610f9781600160f81b610544565b15610f6657600192505b5050919050565b6060600080516020613115833981519152610fc3813361227d565b610fe257604051635c93ff2f60e11b815233600482015260240161019b565b6000610ffa6000805160206131358339815191525490565b90506001600160a01b0381166112ba5785600881901b61101e82600160f81b610544565b1561108d5786358701602081019035611038836000610544565b1561104e5761104782826122b7565b9650611086565b61105c83600160f81b610544565b1561106b57611047828261238f565b826040516308c3ee0360e11b815260040161019b9190612fdb565b50506112b3565b611098826000610544565b156111e6576000803660006110ad8b8b6124bc565b6040805160018082528183019092529498509296509094509250816020015b60608152602001906001900390816110cc57905050985060006110ef8682610544565b15611123576111008585858561250d565b8a60008151811061111357611113612ff0565b60200260200101819052506111dc565b61113186600160f81b610544565b156111c15761114285858585612543565b8b60008151811061115557611155612ff0565b60209081029190910101529050806111bc577fe723f28f104e46b47fd3531f3608374ac226bcf3ddda334a23a266453e0efdb760008b60008151811061119d5761119d612ff0565b60200260200101516040516111b3929190613006565b60405180910390a15b6111dc565b856040516308c3ee0360e11b815260040161019b9190612fdb565b50505050506112b3565b6111f8826001600160f81b0319610544565b1561129857600061120c601482898b612ba9565b61121591612bd3565b60601c905036600061122a896014818d612ba9565b909250905061123a846000610544565b156112505761124a838383612575565b50611290565b61125e84600160f81b610544565b156112755761126e8383836125a9565b5050611290565b836040516308c3ee0360e11b815260040161019b9190612fdb565b5050506112b3565b81604051632e5bf3f960e21b815260040161019b9190612fdb565b50506115ca565b60405163d68f602560e01b81526000906001600160a01b0383169063d68f6025906112ef903390349086903690600401612c2f565b6000604051808303816000875af115801561130e573d6000803e3d6000fd5b505050506040513d6000823e601f3d908101601f191682016040526113369190810190612f6e565b905086600881901b61134c82600160f81b610544565b156113a05787358801602081019035611366836000610544565b1561137c5761137582826122b7565b9750611399565b61138a83600160f81b610544565b1561106b57611375828261238f565b5050611568565b6113ab826000610544565b156114d9576000803660006113c08c8c6124bc565b6040805160018082528183019092529498509296509094509250816020015b60608152602001906001900390816113df57905050995060006114028682610544565b15611436576114138585858561250d565b8b60008151811061142657611426612ff0565b60200260200101819052506114cf565b61144486600160f81b610544565b156111c15761145585858585612543565b8c60008151811061146857611468612ff0565b60209081029190910101529050806114cf577fe723f28f104e46b47fd3531f3608374ac226bcf3ddda334a23a266453e0efdb760008c6000815181106114b0576114b0612ff0565b60200260200101516040516114c6929190613006565b60405180910390a15b5050505050611568565b6114eb826001600160f81b0319610544565b156112985760006114ff6014828a8c612ba9565b61150891612bd3565b60601c905036600061151d8a6014818e612ba9565b909250905061152d846000610544565b156115435761153d838383612575565b50611564565b61155184600160f81b610544565b15611275576115618383836125a9565b50505b5050505b5050604051630b9dfbed60e11b81526001600160a01b0383169063173bf7da90611596908490600401612ae6565b600060405180830381600087803b1580156115b057600080fd5b505af11580156115c4573d6000803e3d6000fd5b50505050505b50509392505050565b336f71727de22e5e9d8baf0edac6f37da03214806115f057503330145b61160d57604051635629665f60e11b815260040160405180910390fd5b60006116256000805160206131358339815191525490565b90506001600160a01b0381166117c95783600881901b61164982600160f81b610544565b1561169c5784358501602081019035611663836000610544565b156116785761167282826122b7565b50611695565b61168683600160f81b610544565b1561106b57611672828261238f565b50506117c2565b6116a7826000610544565b15611733576000803660006116bc89896124bc565b93509350935093506116d285600060f81b610544565b156116e9576116e38484848461250d565b5061172a565b6116f785600160f81b610544565b1561170f5761170884848484612543565b505061172a565b846040516308c3ee0360e11b815260040161019b9190612fdb565b505050506117c2565b611745826001600160f81b0319610544565b156112985760006117596014828789612ba9565b61176291612bd3565b60601c9050366000611777876014818b612ba9565b9092509050611787846000610544565b1561179d57611797838383612575565b506117be565b6117ab84600160f81b610544565b15611275576117bb8383836125a9565b50505b5050505b5050611a17565b60405163d68f602560e01b81526000906001600160a01b0383169063d68f6025906117fe903390349086903690600401612c2f565b6000604051808303816000875af115801561181d573d6000803e3d6000fd5b505050506040513d6000823e601f3d908101601f191682016040526118459190810190612f6e565b905084600881901b61185b82600160f81b610544565b156118ae5785358601602081019035611875836000610544565b1561188a5761188482826122b7565b506118a7565b61189883600160f81b610544565b1561106b57611884828261238f565b50506119b5565b6118b9826000610544565b15611926576000803660006118ce8a8a6124bc565b93509350935093506118e485600060f81b610544565b156118fb576118f58484848461250d565b5061191d565b61190985600160f81b610544565b1561170f5761191a84848484612543565b50505b505050506119b5565b611938826001600160f81b0319610544565b1561129857600061194c601482888a612ba9565b61195591612bd3565b60601c905036600061196a886014818c612ba9565b909250905061197a846000610544565b156119905761198a838383612575565b506119b1565b61199e84600160f81b610544565b15611275576119ae8383836125a9565b50505b5050505b5050604051630b9dfbed60e11b81526001600160a01b0383169063173bf7da906119e3908490600401612ae6565b600060405180830381600087803b1580156119fd57600080fd5b505af1158015611a11573d6000803e3d6000fd5b50505050505b50505050565b60606000600080516020613115833981519152610872818686611b2b565b600060018203611a4d57506001919050565b60028203611a5d57506001919050565b60038203611a6d57506001919050565b60048203611a7d57506001919050565b506000919050565b919050565b6000600080516020613155833981519152611aa5818461227d565b9392505050565b6000600080516020613115833981519152611aa5818461227d565b6000816001600160a01b0316611ae96000805160206131358339815191525490565b6001600160a01b03161492915050565b600080516020613155833981519152611b1f6000805160206131158339815191526125d9565b611b28816125d9565b50565b606060006001600160a01b038416600114801590611b505750611b4e858561227d565b155b15611b7957604051637c84ecfb60e01b81526001600160a01b038516600482015260240161019b565b82600003611b9a5760405163f725081760e01b815260040160405180910390fd5b826001600160401b03811115611bb257611bb2612ddb565b604051908082528060200260200182016040528015611bdb578160200160208202803683370190505b506001600160a01b03808616600090815260208890526040812054929450911691505b6001600160a01b03821615801590611c2057506001600160a01b038216600114155b8015611c2b57508381105b15611c855781838281518110611c4357611c43612ff0565b6001600160a01b039283166020918202929092018101919091529281166000908152928790526040909220549091169080611c7d81613035565b915050611bfe565b6001600160a01b038216600114801590611c9f5750600081115b15611ccb5782611cb060018361304e565b81518110611cc057611cc0612ff0565b602002602001015191505b80835250935093915050565b600080516020613155833981519152611cf08185612636565b6040516306d61fe760e41b81526001600160a01b03851690636d61fe7090611d1e9086908690600401613061565b600060405180830381600087803b158015611d3857600080fd5b505af1158015611d4c573d6000803e3d6000fd5b5050505050505050565b600080516020613115833981519152611cf08185612636565b6000611d7e6004828486612ba9565b611d8791613075565b9050600083836004818110611d9e57611d9e612ff0565b909101356001600160f81b031916915060009050611dbf8460058188612ba9565b8080601f016020809104026020016040519081016040528093929190818152602001838380828437600092019190915250929350611e02925085915061270c9050565b15611e4f5760405162461bcd60e51b815260206004820152601e60248201527f46756e6374696f6e2073656c6563746f7220616c726561647920757365640000604482015260640161019b565b6040805180820182526001600160a01b038881168083526001600160f81b0319861660208085019182526001600160e01b0319891660009081526000805160206130f583398151915290915285902093518454915160f81c600160a01b026001600160a81b03199092169316929092179190911790915590516306d61fe760e41b8152636d61fe7090610cd1908490600401612ae6565b6000611efe6000805160206131358339815191525490565b90506001600160a01b03811615611f335760405163741cbe0360e01b81526001600160a01b038216600482015260240161019b565b611cf08460008051602061313583398151915255565b600080516020613155833981519152600080611f6785850186612e48565b9092509050611f77838388612740565b604051638a91b0e360e01b81526001600160a01b03871690638a91b0e390610cd1908490600401612ae6565b600080516020613115833981519152600080611f6785850186612e48565b6000611fd06004828486612ba9565b611fd991613075565b90506000611fea8360048187612ba9565b8080601f01602080910402602001604051908101604052809392919081815260200183838082843760009201919091525092935061202d925084915061270c9050565b6120795760405162461bcd60e51b815260206004820152601a60248201527f46756e6374696f6e2073656c6563746f72206e6f742075736564000000000000604482015260640161019b565b6001600160e01b0319821660009081526000805160206130f583398151915260209081526040918290208251808401909352546001600160a01b03808216808552600160a01b90920460f81b6001600160f81b03191692840192909252908716146121395760405162461bcd60e51b815260206004820152602a60248201527f46756e6374696f6e2073656c6563746f72206e6f74207573656420627920746860448201526934b9903430b7323632b960b11b606482015260840161019b565b60208181015160408051808201825260008082528185018181526001600160e01b0319891682526000805160206130f583398151915290955282902090518154945160f81c600160a01b026001600160a81b03199095166001600160a01b039182161794909417905551638a91b0e360e01b81529091881690638a91b0e3906121c6908690600401612ae6565b600060405180830381600087803b1580156121e057600080fd5b505af11580156121f4573d6000803e3d6000fd5b5050505050505050505050565b612218600060008051602061313583398151915255565b604051638a91b0e360e01b81526001600160a01b03841690638a91b0e3906122469085908590600401613061565b600060405180830381600087803b15801561226057600080fd5b505af1158015612274573d6000803e3d6000fd5b50505050505050565b600060016001600160a01b03831614801590611aa55750506001600160a01b03908116600090815260209290925260409091205416151590565b606081806001600160401b038111156122d2576122d2612ddb565b60405190808252806020026020018201604052801561230557816020015b60608152602001906001900390816122f05790505b50915060005b81811015612387573685858381811061232657612326612ff0565b905060200281019061233891906130a3565b905061236161234a60208301836130b9565b602083013561235c6040850185612ef6565b61250d565b84838151811061237357612373612ff0565b60209081029190910101525060010161230b565b505092915050565b606081806001600160401b038111156123aa576123aa612ddb565b6040519080825280602002602001820160405280156123dd57816020015b60608152602001906001900390816123c85790505b50915060005b8181101561238757368585838181106123fe576123fe612ff0565b905060200281019061241091906130a3565b9050600061243b61242460208401846130b9565b60208401356124366040860186612ef6565b612543565b86858151811061244d5761244d612ff0565b60209081029190910101529050806124b2577fe723f28f104e46b47fd3531f3608374ac226bcf3ddda334a23a266453e0efdb78386858151811061249357612493612ff0565b60200260200101516040516124a9929190613006565b60405180910390a15b50506001016123e3565b60008036816124ce6014828789612ba9565b6124d791612bd3565b60601c93506124ea603460148789612ba9565b6124f3916130d6565b92506125028560348189612ba9565b949793965094505050565b60405181838237600038838387895af161252a573d6000823e3d81fd5b3d8152602081013d6000823e3d01604052949350505050565b604051600090828482376000388483888a5af11591503d8152602081013d6000823e3d81016040525094509492505050565b604051818382376000388383875af4612591573d6000823e3d81fd5b3d8152602081013d6000823e3d016040529392505050565b604051600090828482376000388483885af41591503d8152602081013d6000823e3d810160405250935093915050565b60016000908152602082905260409020546001600160a01b031615612611576040516329e42f3360e11b815260040160405180910390fd5b60016000818152602092909252604090912080546001600160a01b0319169091179055565b6001600160a01b038116158061265557506001600160a01b0381166001145b1561267e57604051637c84ecfb60e01b81526001600160a01b038216600482015260240161019b565b6001600160a01b0381811660009081526020849052604090205416156126c257604051631034f46960e21b81526001600160a01b038216600482015260240161019b565b60016000818152602093909352604080842080546001600160a01b039485168087529286208054959091166001600160a01b03199586161790559190935280549091169091179055565b6001600160e01b03191660009081526000805160206130f583398151915260205260409020546001600160a01b0316151590565b6001600160a01b038116158061275f57506001600160a01b0381166001145b1561278857604051637c84ecfb60e01b81526001600160a01b038316600482015260240161019b565b6001600160a01b038281166000908152602085905260409020548116908216146127d057604051637c84ecfb60e01b81526001600160a01b038216600482015260240161019b565b6001600160a01b0390811660008181526020949094526040808520805494841686529085208054949093166001600160a01b0319948516179092559092528154169055565b6001600160a01b0381168114611b2857600080fd5b8035611a8581612815565b60008083601f84011261284757600080fd5b5081356001600160401b0381111561285e57600080fd5b60208301915083602082850101111561087857600080fd5b6000806000806060858703121561288c57600080fd5b84359350602085013561289e81612815565b925060408501356001600160401b038111156128b957600080fd5b6128c587828801612835565b95989497509550505050565b6000806000604084860312156128e657600080fd5b8335925060208401356001600160401b0381111561290357600080fd5b61290f86828701612835565b9497909650939450505050565b6000610120828403121561292f57600080fd5b50919050565b60008060006060848603121561294a57600080fd5b83356001600160401b0381111561296057600080fd5b61296c8682870161291c565b9660208601359650604090950135949350505050565b6000806020838503121561299557600080fd5b82356001600160401b038111156129ab57600080fd5b6129b785828601612835565b90969095509350505050565b600080604083850312156129d657600080fd5b82356129e181612815565b946020939093013593505050565b604080825283519082018190526000906020906060840190828701845b82811015612a315781516001600160a01b031684529284019290840190600101612a0c565b5050506001600160a01b039490941660209390930192909252509092915050565b60008060408385031215612a6557600080fd5b82356001600160401b03811115612a7b57600080fd5b612a878582860161291c565b95602094909401359450505050565b60005b83811015612ab1578181015183820152602001612a99565b50506000910152565b60008151808452612ad2816020860160208601612a96565b601f01601f19169290920160200192915050565b602081526000611aa56020830184612aba565b600060208284031215612b0b57600080fd5b5035919050565b600060208083016020845280855180835260408601915060408160051b87010192506020870160005b82811015612b6957603f19888603018452612b57858351612aba565b94509285019290850190600101612b3b565b5092979650505050505050565b6001600160e01b031981168114611b2857600080fd5b600060208284031215612b9e57600080fd5b8135611aa581612b76565b60008085851115612bb957600080fd5b83861115612bc657600080fd5b5050820193919092039150565b6bffffffffffffffffffffffff1981358181169160148510156123875760149490940360031b84901b1690921692915050565b81835281816020850137506000828201602090810191909152601f909101601f19169091010190565b60018060a01b0385168152836020820152606060408201526000612c57606083018486612c06565b9695505050505050565b600060208284031215612c7357600080fd5b8151611aa581612b76565b6000808335601e19843603018112612c9557600080fd5b83016020810192503590506001600160401b03811115612cb457600080fd5b80360382131561087857600080fd5b60408152612ce460408201612cd78561282a565b6001600160a01b03169052565b602083013560608201526000612cfd6040850185612c7e565b610120806080860152612d1561016086018385612c06565b9250612d246060880188612c7e565b9250603f19808786030160a0880152612d3e858584612c06565b9450608089013560c088015260a089013560e0880152610100935060c089013584880152612d6f60e08a018a612c7e565b9250818887030184890152612d85868483612c06565b955050612d94848a018a612c7e565b9450925080878603016101408801525050612db0838383612c06565b93505050508260208301529392505050565b600060208284031215612dd457600080fd5b5051919050565b634e487b7160e01b600052604160045260246000fd5b604051601f8201601f191681016001600160401b0381118282101715612e1957612e19612ddb565b604052919050565b60006001600160401b03821115612e3a57612e3a612ddb565b50601f01601f191660200190565b60008060408385031215612e5b57600080fd5b8235612e6681612815565b915060208301356001600160401b03811115612e8157600080fd5b8301601f81018513612e9257600080fd5b8035612ea5612ea082612e21565b612df1565b818152866020838501011115612eba57600080fd5b816020840160208301376000602083830101528093505050509250929050565b60008251612eec818460208701612a96565b9190910192915050565b6000808335601e19843603018112612f0d57600080fd5b8301803591506001600160401b03821115612f2757600080fd5b60200191503681900382131561087857600080fd5b8183823760009101908152919050565b600060208284031215612f5e57600080fd5b81518015158114611aa557600080fd5b600060208284031215612f8057600080fd5b81516001600160401b03811115612f9657600080fd5b8201601f81018413612fa757600080fd5b8051612fb5612ea082612e21565b818152856020838501011115612fca57600080fd5b6106db826020830160208601612a96565b6001600160f81b031991909116815260200190565b634e487b7160e01b600052603260045260246000fd5b8281526040602082015260006106066040830184612aba565b634e487b7160e01b600052601160045260246000fd5b6000600182016130475761304761301f565b5060010190565b818103818111156105555761055561301f565b602081526000610606602083018486612c06565b6001600160e01b031981358181169160048510156123875760049490940360031b84901b1690921692915050565b60008235605e19833603018112612eec57600080fd5b6000602082840312156130cb57600080fd5b8135611aa581612815565b8035602083101561055557600019602084900360031b1b169291505056fef88ce1fdb7fb1cbd3282e49729100fa3f2d6ee9f797961fe4fb1871cea89ea04f88ce1fdb7fb1cbd3282e49729100fa3f2d6ee9f797961fe4fb1871cea89ea0336e05829dd1b9a4411d96a3549582172d7f071c1c0db5c573fcf94eb28431608f88ce1fdb7fb1cbd3282e49729100fa3f2d6ee9f797961fe4fb1871cea89ea02a2646970667358221220af2358a61933b4fce4c814e1922db24ae14b6c2e29903640d94d86b85d75bc9a64736f6c634300081900336080604052348015600f57600080fd5b506113198061001f6000396000f3fe60806040526004361061007f5760003560e01c8063855713681161004e5780638557136814610272578063b0d691fe146102a0578063ea5f61d0146102c3578063eac9b20d146102e357610086565b80630a664dba146101d35780635e87556d14610205578063642219af146102325780636b0d5cc41461025257610086565b3661008657005b60003560e01c63bc197c81811463f23a6e6182141763150b7a02821417156100b257806020526020603cf35b50600080356001600160e01b03191681526000805160206112c48339815191526020526040902080546001600160a01b03811690600160a01b900460f81b8161012157604051632464e76d60e11b81526001600160e01b03196000351660048201526024015b60405180910390fd5b61012f81607f60f91b610399565b156101835760408051368101909152366000823760408051601481019091523360601b90526000803660140183865afa90506101713d60408051918201905290565b3d6000823e8161017f573d81fd5b3d81f35b61018e816000610399565b156101d15760408051368101909152366000823760408051601481019091523360601b9052600080366014018382875af190506101713d60408051918201905290565b005b3480156101df57600080fd5b506101e86103b0565b6040516001600160a01b0390911681526020015b60405180910390f35b34801561021157600080fd5b50610225610220366004610d53565b6103df565b6040516101fc9190610e60565b34801561023e57600080fd5b506101d161024d366004610d53565b610468565b34801561025e57600080fd5b506101d161026d366004610e8b565b6106b4565b34801561027e57600080fd5b5061029261028d366004610f10565b6106c4565b6040516101fc929190610f3c565b3480156102ac57600080fd5b506f71727de22e5e9d8baf0edac6f37da0326101e8565b3480156102cf57600080fd5b506102926102de366004610f10565b610701565b3480156102ef57600080fd5b5061036b6102fe366004610f9f565b604080518082018252600080825260209182018190526001600160e01b03199390931683526000805160206112c48339815191528152918190208151808301909252546001600160a01b0381168252600160a01b900460f81b6001600160f81b0319169181019190915290565b6040805182516001600160a01b031681526020928301516001600160f81b03191692810192909252016101fc565b6001600160f81b0319828116908216145b92915050565b60006103da7f36e05829dd1b9a4411d96a3549582172d7f071c1c0db5c573fcf94eb284316085490565b905090565b606030306001600160a01b031663642219af8a8a8a8a8a8a8a60405160240161040e97969594939291906110d9565b604051602081830303815290604052915060e01b6020820180516001600160e01b03838183161783525050505060405160200161044c929190611137565b6040516020818303038152906040529050979650505050505050565b60005b868110156104e7576104df88888381811061048857610488611163565b905060200281019061049a9190611179565b6104a8906020810190611199565b8989848181106104ba576104ba611163565b90506020028101906104cc9190611179565b6104da9060208101906111b6565b610731565b60010161046b565b5060005b848110156105a957600086868381811061050757610507611163565b90506020028101906105199190611179565b610527906020810190611199565b6001600160a01b0316146105a1576105a186868381811061054a5761054a611163565b905060200281019061055c9190611179565b61056a906020810190611199565b87878481811061057c5761057c611163565b905060200281019061058e9190611179565b61059c9060208101906111b6565b6107b8565b6001016104eb565b5060006105b96020850185611199565b6001600160a01b0316146105e9576105e96105d76020850185611199565b6105e460208601866111b6565b6107e3565b60005b818110156106aa57600083838381811061060857610608611163565b905060200281019061061a9190611179565b610628906020810190611199565b6001600160a01b0316146106a2576106a283838381811061064b5761064b611163565b905060200281019061065d9190611179565b61066b906020810190611199565b84848481811061067d5761067d611163565b905060200281019061068f9190611179565b61069d9060208101906111b6565b61086a565b6001016105ec565b5050505050505050565b6106bf838383610731565b505050565b606060007ff88ce1fdb7fb1cbd3282e49729100fa3f2d6ee9f797961fe4fb1871cea89ea026106f4818686610a1b565b92509250505b9250929050565b606060007ff88ce1fdb7fb1cbd3282e49729100fa3f2d6ee9f797961fe4fb1871cea89ea036106f4818686610a1b565b7ff88ce1fdb7fb1cbd3282e49729100fa3f2d6ee9f797961fe4fb1871cea89ea0261075c8185610bc8565b6040516306d61fe760e41b81526001600160a01b03851690636d61fe709061078a90869086906004016111fd565b600060405180830381600087803b1580156107a457600080fd5b505af11580156106aa573d6000803e3d6000fd5b7ff88ce1fdb7fb1cbd3282e49729100fa3f2d6ee9f797961fe4fb1871cea89ea0361075c8185610bc8565b600061080d7f36e05829dd1b9a4411d96a3549582172d7f071c1c0db5c573fcf94eb284316085490565b90506001600160a01b038116156108425760405163741cbe0360e01b81526001600160a01b0382166004820152602401610118565b61075c847f36e05829dd1b9a4411d96a3549582172d7f071c1c0db5c573fcf94eb2843160855565b60006108796004828486611211565b6108829161123b565b905060008383600481811061089957610899611163565b909101356001600160f81b0319169150600090506108ba8460058188611211565b8080601f0160208091040260200160405190810160405280939291908181526020018383808284376000920191909152509293506108fd9250859150610c9e9050565b1561094a5760405162461bcd60e51b815260206004820152601e60248201527f46756e6374696f6e2073656c6563746f7220616c7265616479207573656400006044820152606401610118565b6040805180820182526001600160a01b038881168083526001600160f81b0319861660208085019182526001600160e01b0319891660009081526000805160206112c483398151915290915285902093518454915160f81c600160a01b026001600160a81b03199092169316929092179190911790915590516306d61fe760e41b8152636d61fe70906109e1908490600401610e60565b600060405180830381600087803b1580156109fb57600080fd5b505af1158015610a0f573d6000803e3d6000fd5b50505050505050505050565b606060006001600160a01b038416600114801590610a405750610a3e8585610cd2565b155b15610a6957604051637c84ecfb60e01b81526001600160a01b0385166004820152602401610118565b82600003610a8a5760405163f725081760e01b815260040160405180910390fd5b8267ffffffffffffffff811115610aa357610aa361126b565b604051908082528060200260200182016040528015610acc578160200160208202803683370190505b506001600160a01b03808616600090815260208890526040812054929450911691505b6001600160a01b03821615801590610b1157506001600160a01b038216600114155b8015610b1c57508381105b15610b765781838281518110610b3457610b34611163565b6001600160a01b039283166020918202929092018101919091529281166000908152928790526040909220549091169080610b6e81611297565b915050610aef565b6001600160a01b038216600114801590610b905750600081115b15610bbc5782610ba16001836112b0565b81518110610bb157610bb1611163565b602002602001015191505b80835250935093915050565b6001600160a01b0381161580610be757506001600160a01b0381166001145b15610c1057604051637c84ecfb60e01b81526001600160a01b0382166004820152602401610118565b6001600160a01b038181166000908152602084905260409020541615610c5457604051631034f46960e21b81526001600160a01b0382166004820152602401610118565b60016000818152602093909352604080842080546001600160a01b039485168087529286208054959091166001600160a01b03199586161790559190935280549091169091179055565b6001600160e01b03191660009081526000805160206112c483398151915260205260409020546001600160a01b0316151590565b600060016001600160a01b03831614801590610d0757506001600160a01b038281166000908152602085905260409020541615155b9392505050565b60008083601f840112610d2057600080fd5b50813567ffffffffffffffff811115610d3857600080fd5b6020830191508360208260051b85010111156106fa57600080fd5b60008060008060008060006080888a031215610d6e57600080fd5b873567ffffffffffffffff80821115610d8657600080fd5b610d928b838c01610d0e565b909950975060208a0135915080821115610dab57600080fd5b610db78b838c01610d0e565b909750955060408a0135915080821115610dd057600080fd5b908901906040828c031215610de457600080fd5b90935060608901359080821115610dfa57600080fd5b50610e078a828b01610d0e565b989b979a50959850939692959293505050565b6000815180845260005b81811015610e4057602081850181015186830182015201610e24565b506000602082860101526020601f19601f83011685010191505092915050565b602081526000610d076020830184610e1a565b6001600160a01b0381168114610e8857600080fd5b50565b600080600060408486031215610ea057600080fd5b8335610eab81610e73565b9250602084013567ffffffffffffffff80821115610ec857600080fd5b818601915086601f830112610edc57600080fd5b813581811115610eeb57600080fd5b876020828501011115610efd57600080fd5b6020830194508093505050509250925092565b60008060408385031215610f2357600080fd5b8235610f2e81610e73565b946020939093013593505050565b604080825283519082018190526000906020906060840190828701845b82811015610f7e5781516001600160a01b031684529284019290840190600101610f59565b5050506001600160a01b039490941660209390930192909252509092915050565b600060208284031215610fb157600080fd5b81356001600160e01b031981168114610d0757600080fd5b81835281816020850137506000828201602090810191909152601f909101601f19169091010190565b60008135610fff81610e73565b6001600160a01b03168352602082013536839003601e1901811261102257600080fd5b820160208101903567ffffffffffffffff81111561103f57600080fd5b80360382131561104e57600080fd5b60406020860152611063604086018284610fc9565b95945050505050565b6000838385526020808601955060208560051b830101846000805b888110156110cb57858403601f19018a52823536899003603e190181126110ac578283fd5b6110b8858a8301610ff2565b9a86019a94505091840191600101611087565b509198975050505050505050565b6080815260006110ed60808301898b61106c565b828103602084015261110081888a61106c565b905082810360408401526111148187610ff2565b9050828103606084015261112981858761106c565b9a9950505050505050505050565b6001600160a01b038316815260406020820181905260009061115b90830184610e1a565b949350505050565b634e487b7160e01b600052603260045260246000fd5b60008235603e1983360301811261118f57600080fd5b9190910192915050565b6000602082840312156111ab57600080fd5b8135610d0781610e73565b6000808335601e198436030181126111cd57600080fd5b83018035915067ffffffffffffffff8211156111e857600080fd5b6020019150368190038213156106fa57600080fd5b60208152600061115b602083018486610fc9565b6000808585111561122157600080fd5b8386111561122e57600080fd5b5050820193919092039150565b6001600160e01b031981358181169160048510156112635780818660040360031b1b83161692505b505092915050565b634e487b7160e01b600052604160045260246000fd5b634e487b7160e01b600052601160045260246000fd5b6000600182016112a9576112a9611281565b5060010190565b818103818111156103aa576103aa61128156fef88ce1fdb7fb1cbd3282e49729100fa3f2d6ee9f797961fe4fb1871cea89ea04a264697066735822122071049ee6c81f2d8d84495e5019c42f4cf260235d5cfa10288dcc7aaaca8e095d64736f6c63430008190033","linkReferences":{}},"methodIdentifiers":{"_createUMSA(bytes32,bytes)":"9ca9c8fa","_getSalt(bytes32,bytes)":"56c717f5","_makeDefault(bytes32,bytes)":"ae6d6eb0","_makeSafe(bytes32,bytes)":"a6a3f08a","createAccount(bytes32,bytes)":"f8a59370","env()":"9dca0032","getAddress(bytes32,bytes)":"d959fd0e","getAddressSafe(bytes32,bytes)":"f45cc904","getAddressUMSA(bytes32,bytes)":"6d509d67","getBootstrapCallData((address,bytes)[],(address,bytes)[],(address,bytes),(address,bytes)[])":"3533bd47"},"id":0}