{"abi":[{"type":"fallback","stateMutability":"payable"},{"type":"receive","stateMutability":"payable"},{"type":"function","name":"_getInitMSACalldata","inputs":[{"name":"_validators","type":"tuple[]","internalType":"struct BootstrapConfig[]","components":[{"name":"module","type":"address","internalType":"address"},{"name":"data","type":"bytes","internalType":"bytes"}]},{"name":"_executors","type":"tuple[]","internalType":"struct BootstrapConfig[]","components":[{"name":"module","type":"address","internalType":"address"},{"name":"data","type":"bytes","internalType":"bytes"}]},{"name":"_hook","type":"tuple","internalType":"struct BootstrapConfig","components":[{"name":"module","type":"address","internalType":"address"},{"name":"data","type":"bytes","internalType":"bytes"}]},{"name":"_fallback","type":"tuple","internalType":"struct BootstrapConfig","components":[{"name":"module","type":"address","internalType":"address"},{"name":"data","type":"bytes","internalType":"bytes"}]}],"outputs":[{"name":"init","type":"bytes","internalType":"bytes"}],"stateMutability":"view"},{"type":"function","name":"entryPoint","inputs":[],"outputs":[{"name":"","type":"address","internalType":"address"}],"stateMutability":"view"},{"type":"function","name":"getActiveFallbackHandler","inputs":[],"outputs":[{"name":"","type":"address","internalType":"address"}],"stateMutability":"view"},{"type":"function","name":"getActiveHook","inputs":[],"outputs":[{"name":"hook","type":"address","internalType":"address"}],"stateMutability":"view"},{"type":"function","name":"getExecutorsPaginated","inputs":[{"name":"cursor","type":"address","internalType":"address"},{"name":"size","type":"uint256","internalType":"uint256"}],"outputs":[{"name":"array","type":"address[]","internalType":"address[]"},{"name":"next","type":"address","internalType":"address"}],"stateMutability":"view"},{"type":"function","name":"getValidatorPaginated","inputs":[{"name":"start","type":"address","internalType":"address"},{"name":"pageSize","type":"uint256","internalType":"uint256"}],"outputs":[{"name":"array","type":"address[]","internalType":"address[]"},{"name":"next","type":"address","internalType":"address"}],"stateMutability":"view"},{"type":"function","name":"initMSA","inputs":[{"name":"_validators","type":"tuple[]","internalType":"struct BootstrapConfig[]","components":[{"name":"module","type":"address","internalType":"address"},{"name":"data","type":"bytes","internalType":"bytes"}]},{"name":"_executors","type":"tuple[]","internalType":"struct BootstrapConfig[]","components":[{"name":"module","type":"address","internalType":"address"},{"name":"data","type":"bytes","internalType":"bytes"}]},{"name":"_hook","type":"tuple","internalType":"struct BootstrapConfig","components":[{"name":"module","type":"address","internalType":"address"},{"name":"data","type":"bytes","internalType":"bytes"}]},{"name":"_fallback","type":"tuple","internalType":"struct BootstrapConfig","components":[{"name":"module","type":"address","internalType":"address"},{"name":"data","type":"bytes","internalType":"bytes"}]}],"outputs":[],"stateMutability":"nonpayable"},{"type":"function","name":"singleInitMSA","inputs":[{"name":"validator","type":"address","internalType":"contract IModule"},{"name":"data","type":"bytes","internalType":"bytes"}],"outputs":[],"stateMutability":"nonpayable"},{"type":"error","name":"AccountAccessUnauthorized","inputs":[]},{"type":"error","name":"CannotRemoveLastValidator","inputs":[]},{"type":"error","name":"ExecutionFailed","inputs":[]},{"type":"error","name":"HookAlreadyInstalled","inputs":[{"name":"currentHook","type":"address","internalType":"address"}]},{"type":"error","name":"HookPostCheckFailed","inputs":[]},{"type":"error","name":"InitializerError","inputs":[]},{"type":"error","name":"InvalidModule","inputs":[{"name":"module","type":"address","internalType":"address"}]},{"type":"error","name":"LinkedListError","inputs":[]},{"type":"error","name":"LinkedList_EntryAlreadyInList","inputs":[{"name":"entry","type":"address","internalType":"address"}]},{"type":"error","name":"LinkedList_EntryAlreadyInList","inputs":[{"name":"entry","type":"address","internalType":"address"}]},{"type":"error","name":"LinkedList_InvalidEntry","inputs":[{"name":"entry","type":"address","internalType":"address"}]},{"type":"error","name":"LinkedList_InvalidEntry","inputs":[{"name":"entry","type":"address","internalType":"address"}]},{"type":"error","name":"LinkedList_InvalidPage","inputs":[]},{"type":"error","name":"LinkedList_InvalidPage","inputs":[]},{"type":"error","name":"NoFallbackHandler","inputs":[]},{"type":"error","name":"ValidatorStorageHelperError","inputs":[]}],"bytecode":{"object":"0x6080604052348015600f57600080fd5b506114f98061001f6000396000f3fe60806040526004361061007f5760003560e01c80638acf4c6a1161004e5780638acf4c6a146101e4578063b0d691fe14610212578063bd5a01da14610235578063ea5f61d01461026257610086565b80630a664dba146101305780630ff2fe98146101745780636b0d5cc41461019657806385571368146101b657610086565b3661008657005b60003560e01c63bc197c81811463f23a6e6182141763150b7a02821417156100b257806020526020603cf35b50336000908152602081905260409020600101546001600160a01b0316806100ed57604051632c4bc0b360e11b815260040160405180910390fd5b6000610126338334843660131981013560601c60405160200161011293929190610e32565b604051602081830303815290604052610282565b9050805160208201f35b34801561013c57600080fd5b50336000908152600260205260409020546001600160a01b03165b6040516001600160a01b0390911681526020015b60405180910390f35b34801561018057600080fd5b5061019461018f366004610eb5565b61032b565b005b3480156101a257600080fd5b506101946101b1366004610f84565b61055d565b3480156101c257600080fd5b506101d66101d1366004611009565b6105a2565b60405161016b929190611035565b3480156101f057600080fd5b50336000908152602081905260409020600101546001600160a01b0316610157565b34801561021e57600080fd5b506f71727de22e5e9d8baf0edac6f37da032610157565b34801561024157600080fd5b50610255610250366004610eb5565b6105bf565b60405161016b91906110e8565b34801561026e57600080fd5b506101d661027d366004611009565b610645565b60606000856001600160a01b0316635229073f86868660006040518563ffffffff1660e01b81526004016102b994939291906110fb565b6000604051808303816000875af11580156102d8573d6000803e3d6000fd5b505050506040513d6000823e601f3d908101601f191682016040526103009190810190611161565b925090508061032257604051632b3f6d1160e21b815260040160405180910390fd5b50949350505050565b60005b858110156103df576103d787878381811061034b5761034b611221565b905060200281019061035d9190611237565b61036b906020810190611257565b88888481811061037d5761037d611221565b905060200281019061038f9190611237565b61039d90602081019061127b565b8080601f01602080910402602001604051908101604052809392919081815260200183838082843760009201919091525061066f92505050565b60010161032e565b5060005b838110156104d65760008585838181106103ff576103ff611221565b90506020028101906104119190611237565b61041f906020810190611257565b6001600160a01b0316146104ce576104ce85858381811061044257610442611221565b90506020028101906104549190611237565b610462906020810190611257565b86868481811061047457610474611221565b90506020028101906104869190611237565b61049490602081019061127b565b8080601f0160208091040260200160405190810160405280939291908181526020018383808284376000920191909152506106c692505050565b6001016103e3565b5060006104e66020840184611257565b6001600160a01b031614610516576105166105046020840184611257565b610511602085018561127b565b6106f7565b60006105256020830183611257565b6001600160a01b031614610555576105556105436020830183611257565b610550602084018461127b565b610786565b505050505050565b61059d8383838080601f01602080910402602001604051908101604052809392919081815260200183838082843760009201919091525061066f92505050565b505050565b606060006105b360013386866107d0565b915091505b9250929050565b606030306001600160a01b0316630ff2fe988989898989896040516024016105ec969594939291906113d2565b604051602081830303815290604052915060e01b6020820180516001600160e01b03838183161783525050505060405160200161062a92919061142e565b60405160208183030381529060405290509695505050505050565b33600090815260208190526040812060609190610663818686610995565b92509250509250929050565b61067b60013384610b42565b6106c2338360008460405160240161069391906110e8565b60408051601f198184030181529190526020810180516001600160e01b03166306d61fe760e41b179052610c37565b5050565b3360009081526020819052604090206106df8184610cd6565b61059d338460008560405160240161069391906110e8565b336000908152600260205260409020546001600160a01b0316801561073f5760405163741cbe0360e01b81526001600160a01b03821660048201526024015b60405180910390fd5b3360008181526002602052604080822080546001600160a01b0319166001600160a01b03891617905551610780929187916106939088908890602401611452565b50505050565b336000818152602081905260408082206001810180546001600160a01b0319166001600160a01b038916179055905190926107809290918791906106939088908890602401611452565b606060006001600160a01b0384166001148015906107f657506107f4868686610dac565b155b1561081f57604051637c84ecfb60e01b81526001600160a01b0385166004820152602401610736565b826000036108405760405163f725081760e01b815260040160405180910390fd5b8267ffffffffffffffff8111156108595761085961114b565b604051908082528060200260200182016040528015610882578160200160208202803683370190505b506001600160a01b038086166000908152602089815260408083208a85168452909152812054929450911691505b6001600160a01b038216158015906108d257506001600160a01b038216600114155b80156108dd57508381105b1561094257818382815181106108f5576108f5611221565b6001600160a01b039283166020918202929092018101919091529281166000908152888452604080822089841683529094529290922054909116908061093a8161147c565b9150506108b0565b6001600160a01b03821660011480159061095c5750600081115b15610988578261096d600183611495565b8151811061097d5761097d611221565b602002602001015191505b8083525094509492505050565b606060006001600160a01b0384166001148015906109ba57506109b88585610df4565b155b156109e357604051637c84ecfb60e01b81526001600160a01b0385166004820152602401610736565b82600003610a045760405163f725081760e01b815260040160405180910390fd5b8267ffffffffffffffff811115610a1d57610a1d61114b565b604051908082528060200260200182016040528015610a46578160200160208202803683370190505b506001600160a01b03808616600090815260208890526040812054929450911691505b6001600160a01b03821615801590610a8b57506001600160a01b038216600114155b8015610a9657508381105b15610af05781838281518110610aae57610aae611221565b6001600160a01b039283166020918202929092018101919091529281166000908152928790526040909220549091169080610ae88161147c565b915050610a69565b6001600160a01b038216600114801590610b0a5750600081115b15610b365782610b1b600183611495565b81518110610b2b57610b2b611221565b602002602001015191505b80835250935093915050565b6001600160a01b0381161580610b6157506001600160a01b0381166001145b15610b8a57604051637c84ecfb60e01b81526001600160a01b0382166004820152602401610736565b6001600160a01b0381811660009081526020858152604080832086851684529091529020541615610bd957604051631034f46960e21b81526001600160a01b0382166004820152602401610736565b60016000908152602084815260408083206001600160a01b039586168085528184528285208054968816808752988552838620918652908452919093208054949095166001600160a01b031994851617909455528154169091179055565b60405163468721a760e01b81526000906001600160a01b0386169063468721a790610c6c9087908790879087906004016110fb565b6020604051808303816000875af1158015610c8b573d6000803e3d6000fd5b505050506040513d601f19601f82011682018060405250810190610caf91906114a8565b905080610ccf57604051632b3f6d1160e21b815260040160405180910390fd5b5050505050565b6001600160a01b0381161580610cf557506001600160a01b0381166001145b15610d1e57604051637c84ecfb60e01b81526001600160a01b0382166004820152602401610736565b6001600160a01b038181166000908152602084905260409020541615610d6257604051631034f46960e21b81526001600160a01b0382166004820152602401610736565b60016000818152602093909352604080842080546001600160a01b039485168087529286208054959091166001600160a01b03199586161790559190935280549091169091179055565b600060016001600160a01b03831614801590610dec57506001600160a01b0382811660009081526020868152604080832087851684529091529020541615155b949350505050565b600060016001600160a01b03831614801590610e2957506001600160a01b038281166000908152602085905260409020541615155b90505b92915050565b8284823760609190911b6bffffffffffffffffffffffff19169101908152601401919050565b60008083601f840112610e6a57600080fd5b50813567ffffffffffffffff811115610e8257600080fd5b6020830191508360208260051b85010111156105b857600080fd5b600060408284031215610eaf57600080fd5b50919050565b60008060008060008060808789031215610ece57600080fd5b863567ffffffffffffffff80821115610ee657600080fd5b610ef28a838b01610e58565b90985096506020890135915080821115610f0b57600080fd5b610f178a838b01610e58565b90965094506040890135915080821115610f3057600080fd5b610f3c8a838b01610e9d565b93506060890135915080821115610f5257600080fd5b50610f5f89828a01610e9d565b9150509295509295509295565b6001600160a01b0381168114610f8157600080fd5b50565b600080600060408486031215610f9957600080fd5b8335610fa481610f6c565b9250602084013567ffffffffffffffff80821115610fc157600080fd5b818601915086601f830112610fd557600080fd5b813581811115610fe457600080fd5b876020828501011115610ff657600080fd5b6020830194508093505050509250925092565b6000806040838503121561101c57600080fd5b823561102781610f6c565b946020939093013593505050565b604080825283519082018190526000906020906060840190828701845b828110156110775781516001600160a01b031684529284019290840190600101611052565b5050506001600160a01b039490941660209390930192909252509092915050565b60005b838110156110b357818101518382015260200161109b565b50506000910152565b600081518084526110d4816020860160208601611098565b601f01601f19169290920160200192915050565b602081526000610e2960208301846110bc565b60018060a01b038516815283602082015260806040820152600061112260808301856110bc565b905060ff8316606083015295945050505050565b8051801515811461114657600080fd5b919050565b634e487b7160e01b600052604160045260246000fd5b6000806040838503121561117457600080fd5b61117d83611136565b9150602083015167ffffffffffffffff8082111561119a57600080fd5b818501915085601f8301126111ae57600080fd5b8151818111156111c0576111c061114b565b604051601f8201601f19908116603f011681019083821181831017156111e8576111e861114b565b8160405282815288602084870101111561120157600080fd5b611212836020830160208801611098565b80955050505050509250929050565b634e487b7160e01b600052603260045260246000fd5b60008235603e1983360301811261124d57600080fd5b9190910192915050565b60006020828403121561126957600080fd5b813561127481610f6c565b9392505050565b6000808335601e1984360301811261129257600080fd5b83018035915067ffffffffffffffff8211156112ad57600080fd5b6020019150368190038213156105b857600080fd5b81835281816020850137506000828201602090810191909152601f909101601f19169091010190565b600081356112f881610f6c565b6001600160a01b03168352602082013536839003601e1901811261131b57600080fd5b820160208101903567ffffffffffffffff81111561133857600080fd5b80360382131561134757600080fd5b6040602086015261135c6040860182846112c2565b95945050505050565b6000838385526020808601955060208560051b830101846000805b888110156113c457858403601f19018a52823536899003603e190181126113a5578283fd5b6113b1858a83016112eb565b9a86019a94505091840191600101611380565b509198975050505050505050565b6080815260006113e660808301888a611365565b82810360208401526113f9818789611365565b9050828103604084015261140d81866112eb565b9050828103606084015261142181856112eb565b9998505050505050505050565b6001600160a01b0383168152604060208201819052600090610dec908301846110bc565b602081526000610dec6020830184866112c2565b634e487b7160e01b600052601160045260246000fd5b60006001820161148e5761148e611466565b5060010190565b81810381811115610e2c57610e2c611466565b6000602082840312156114ba57600080fd5b610e298261113656fea264697066735822122077425450f80c3f857957892a1e42fd25ffd9e8e6005a1ab1face30ea92ab0c0464736f6c63430008190033","linkReferences":{}},"methodIdentifiers":{"_getInitMSACalldata((address,bytes)[],(address,bytes)[],(address,bytes),(address,bytes))":"bd5a01da","entryPoint()":"b0d691fe","getActiveFallbackHandler()":"8acf4c6a","getActiveHook()":"0a664dba","getExecutorsPaginated(address,uint256)":"ea5f61d0","getValidatorPaginated(address,uint256)":"85571368","initMSA((address,bytes)[],(address,bytes)[],(address,bytes),(address,bytes))":"0ff2fe98","singleInitMSA(address,bytes)":"6b0d5cc4"},"id":95}