{"abi":[{"type":"function","name":"addHash","inputs":[{"name":"_hash","type":"bytes32","internalType":"bytes32"}],"outputs":[],"stateMutability":"nonpayable"},{"type":"function","name":"isHash","inputs":[{"name":"account","type":"address","internalType":"address"},{"name":"_hash","type":"bytes32","internalType":"bytes32"}],"outputs":[{"name":"","type":"bool","internalType":"bool"}],"stateMutability":"view"},{"type":"function","name":"isInitialized","inputs":[{"name":"smartAccount","type":"address","internalType":"address"}],"outputs":[{"name":"","type":"bool","internalType":"bool"}],"stateMutability":"view"},{"type":"function","name":"isModuleType","inputs":[{"name":"isType","type":"uint256","internalType":"uint256"}],"outputs":[{"name":"","type":"bool","internalType":"bool"}],"stateMutability":"pure"},{"type":"function","name":"isValidSignatureWithSender","inputs":[{"name":"sender","type":"address","internalType":"address"},{"name":"hash","type":"bytes32","internalType":"bytes32"},{"name":"data","type":"bytes","internalType":"bytes"}],"outputs":[{"name":"","type":"bytes4","internalType":"bytes4"}],"stateMutability":"view"},{"type":"function","name":"name","inputs":[],"outputs":[{"name":"","type":"string","internalType":"string"}],"stateMutability":"pure"},{"type":"function","name":"onInstall","inputs":[{"name":"data","type":"bytes","internalType":"bytes"}],"outputs":[],"stateMutability":"nonpayable"},{"type":"function","name":"onUninstall","inputs":[{"name":"data","type":"bytes","internalType":"bytes"}],"outputs":[],"stateMutability":"nonpayable"},{"type":"function","name":"removeHash","inputs":[{"name":"_hash","type":"bytes32","internalType":"bytes32"}],"outputs":[],"stateMutability":"nonpayable"},{"type":"function","name":"validateUserOp","inputs":[{"name":"userOp","type":"tuple","internalType":"struct PackedUserOperation","components":[{"name":"sender","type":"address","internalType":"address"},{"name":"nonce","type":"uint256","internalType":"uint256"},{"name":"initCode","type":"bytes","internalType":"bytes"},{"name":"callData","type":"bytes","internalType":"bytes"},{"name":"accountGasLimits","type":"bytes32","internalType":"bytes32"},{"name":"preVerificationGas","type":"uint256","internalType":"uint256"},{"name":"gasFees","type":"bytes32","internalType":"bytes32"},{"name":"paymasterAndData","type":"bytes","internalType":"bytes"},{"name":"signature","type":"bytes","internalType":"bytes"}]},{"name":"userOpHash","type":"bytes32","internalType":"bytes32"}],"outputs":[{"name":"","type":"uint256","internalType":"ERC7579ValidatorBase.ValidationData"}],"stateMutability":"nonpayable"},{"type":"function","name":"version","inputs":[],"outputs":[{"name":"","type":"string","internalType":"string"}],"stateMutability":"pure"},{"type":"error","name":"AlreadyInitialized","inputs":[{"name":"smartAccount","type":"address","internalType":"address"}]},{"type":"error","name":"NotInitialized","inputs":[{"name":"smartAccount","type":"address","internalType":"address"}]}],"bytecode":{"object":"0x6080604052348015600f57600080fd5b506107f08061001f6000396000f3fe608060405234801561001057600080fd5b50600436106100a95760003560e01c80636d61fe70116100715780636d61fe70146101655780638a91b0e314610178578063970032031461018a578063d60b347f146101ae578063ecd05961146101c2578063f551e2ee146101d657600080fd5b806306fdde03146100ae5780632ea2ee1b146100f957806343e08ad11461010e57806354fd4d50146101215780635f2f68ba14610142575b600080fd5b60408051808201909152601781527f455243313237315072656861736856616c696461746f7200000000000000000060208201525b6040516100f0919061049e565b60405180910390f35b61010c6101073660046104ed565b610202565b005b61010c61011c3660046104ed565b61021b565b6040805180820190915260058152640312e302e360dc1b60208201526100e3565b610155610150366004610522565b610234565b60405190151581526020016100f0565b61010c610173366004610595565b61025f565b61010c610186366004610595565b5050565b6101a06101983660046105d7565b600192915050565b6040519081526020016100f0565b6101556101bc366004610614565b50600090565b6101556101d03660046104ed565b60011490565b6101e96101e436600461062f565b6102cd565b6040516001600160e01b031990911681526020016100f0565b336000908152602081905260409020610186908261032c565b3360009081526020819052604090206101869082610338565b6001600160a01b03821660009081526020819052604081206102569083610344565b90505b92915050565b600081900361026c575050565b600061027a8284018461069f565b905060005b81518110156102c7576102be82828151811061029d5761029d61075d565b60209081029190910181015133600090815291829052604090912090610338565b5060010161027f565b50505050565b60008383836040516102e0929190610773565b6040518091039020146102fc57506001600160e01b0319610324565b6103068585610234565b156103195750630b135d3f60e11b610324565b506001600160e01b03195b949350505050565b6000610256838361035c565b6000610256838361044f565b60008181526001830160205260408120541515610256565b60008181526001830160205260408120548015610445576000610380600183610783565b855490915060009061039490600190610783565b90508082146103f95760008660000182815481106103b4576103b461075d565b90600052602060002001549050808760000184815481106103d7576103d761075d565b6000918252602080832090910192909255918252600188019052604090208390555b855486908061040a5761040a6107a4565b600190038181906000526020600020016000905590558560010160008681526020019081526020016000206000905560019350505050610259565b6000915050610259565b600081815260018301602052604081205461049657508154600181810184556000848152602080822090930184905584548482528286019093526040902091909155610259565b506000610259565b60006020808352835180602085015260005b818110156104cc578581018301518582016040015282016104b0565b506000604082860101526040601f19601f8301168501019250505092915050565b6000602082840312156104ff57600080fd5b5035919050565b80356001600160a01b038116811461051d57600080fd5b919050565b6000806040838503121561053557600080fd5b61053e83610506565b946020939093013593505050565b60008083601f84011261055e57600080fd5b50813567ffffffffffffffff81111561057657600080fd5b60208301915083602082850101111561058e57600080fd5b9250929050565b600080602083850312156105a857600080fd5b823567ffffffffffffffff8111156105bf57600080fd5b6105cb8582860161054c565b90969095509350505050565b600080604083850312156105ea57600080fd5b823567ffffffffffffffff81111561060157600080fd5b8301610120818603121561053e57600080fd5b60006020828403121561062657600080fd5b61025682610506565b6000806000806060858703121561064557600080fd5b61064e85610506565b935060208501359250604085013567ffffffffffffffff81111561067157600080fd5b61067d8782880161054c565b95989497509550505050565b634e487b7160e01b600052604160045260246000fd5b600060208083850312156106b257600080fd5b823567ffffffffffffffff808211156106ca57600080fd5b818501915085601f8301126106de57600080fd5b8135818111156106f0576106f0610689565b8060051b604051601f19603f8301168101818110858211171561071557610715610689565b60405291825284820192508381018501918883111561073357600080fd5b938501935b8285101561075157843584529385019392850192610738565b98975050505050505050565b634e487b7160e01b600052603260045260246000fd5b8183823760009101908152919050565b8181038181111561025957634e487b7160e01b600052601160045260246000fd5b634e487b7160e01b600052603160045260246000fdfea26469706673582212208c95e502ca5acd6cb185d364fcdbdddaa5a0adbd19d1e48f8363b8fc34b2db3364736f6c63430008190033","linkReferences":{}},"methodIdentifiers":{"addHash(bytes32)":"43e08ad1","isHash(address,bytes32)":"5f2f68ba","isInitialized(address)":"d60b347f","isModuleType(uint256)":"ecd05961","isValidSignatureWithSender(address,bytes32,bytes)":"f551e2ee","name()":"06fdde03","onInstall(bytes)":"6d61fe70","onUninstall(bytes)":"8a91b0e3","removeHash(bytes32)":"2ea2ee1b","validateUserOp((address,uint256,bytes,bytes,bytes32,uint256,bytes32,bytes,bytes),bytes32)":"97003203","version()":"54fd4d50"},"id":13}