{"abi":[{"type":"receive","stateMutability":"payable"},{"type":"function","name":"addStake","inputs":[{"name":"unstakeDelaySec","type":"uint32","internalType":"uint32"}],"outputs":[],"stateMutability":"payable"},{"type":"function","name":"balanceOf","inputs":[{"name":"account","type":"address","internalType":"address"}],"outputs":[{"name":"","type":"uint256","internalType":"uint256"}],"stateMutability":"view"},{"type":"function","name":"delegateAndRevert","inputs":[{"name":"target","type":"address","internalType":"address"},{"name":"data","type":"bytes","internalType":"bytes"}],"outputs":[],"stateMutability":"nonpayable"},{"type":"function","name":"depositTo","inputs":[{"name":"account","type":"address","internalType":"address"}],"outputs":[],"stateMutability":"payable"},{"type":"function","name":"deposits","inputs":[{"name":"","type":"address","internalType":"address"}],"outputs":[{"name":"deposit","type":"uint256","internalType":"uint256"},{"name":"staked","type":"bool","internalType":"bool"},{"name":"stake","type":"uint112","internalType":"uint112"},{"name":"unstakeDelaySec","type":"uint32","internalType":"uint32"},{"name":"withdrawTime","type":"uint48","internalType":"uint48"}],"stateMutability":"view"},{"type":"function","name":"getDepositInfo","inputs":[{"name":"account","type":"address","internalType":"address"}],"outputs":[{"name":"info","type":"tuple","internalType":"struct IStakeManager.DepositInfo","components":[{"name":"deposit","type":"uint256","internalType":"uint256"},{"name":"staked","type":"bool","internalType":"bool"},{"name":"stake","type":"uint112","internalType":"uint112"},{"name":"unstakeDelaySec","type":"uint32","internalType":"uint32"},{"name":"withdrawTime","type":"uint48","internalType":"uint48"}]}],"stateMutability":"view"},{"type":"function","name":"getGasConsumed","inputs":[{"name":"account","type":"address","internalType":"address"},{"name":"phase","type":"uint256","internalType":"uint256"}],"outputs":[{"name":"","type":"uint256","internalType":"uint256"}],"stateMutability":"view"},{"type":"function","name":"getNonce","inputs":[{"name":"sender","type":"address","internalType":"address"},{"name":"key","type":"uint192","internalType":"uint192"}],"outputs":[{"name":"nonce","type":"uint256","internalType":"uint256"}],"stateMutability":"view"},{"type":"function","name":"getSenderAddress","inputs":[{"name":"initCode","type":"bytes","internalType":"bytes"}],"outputs":[],"stateMutability":"nonpayable"},{"type":"function","name":"getUserOpHash","inputs":[{"name":"userOp","type":"tuple","internalType":"struct PackedUserOperation","components":[{"name":"sender","type":"address","internalType":"address"},{"name":"nonce","type":"uint256","internalType":"uint256"},{"name":"initCode","type":"bytes","internalType":"bytes"},{"name":"callData","type":"bytes","internalType":"bytes"},{"name":"accountGasLimits","type":"bytes32","internalType":"bytes32"},{"name":"preVerificationGas","type":"uint256","internalType":"uint256"},{"name":"gasFees","type":"bytes32","internalType":"bytes32"},{"name":"paymasterAndData","type":"bytes","internalType":"bytes"},{"name":"signature","type":"bytes","internalType":"bytes"}]}],"outputs":[{"name":"","type":"bytes32","internalType":"bytes32"}],"stateMutability":"view"},{"type":"function","name":"handleAggregatedOps","inputs":[{"name":"opsPerAggregator","type":"tuple[]","internalType":"struct IEntryPoint.UserOpsPerAggregator[]","components":[{"name":"userOps","type":"tuple[]","internalType":"struct PackedUserOperation[]","components":[{"name":"sender","type":"address","internalType":"address"},{"name":"nonce","type":"uint256","internalType":"uint256"},{"name":"initCode","type":"bytes","internalType":"bytes"},{"name":"callData","type":"bytes","internalType":"bytes"},{"name":"accountGasLimits","type":"bytes32","internalType":"bytes32"},{"name":"preVerificationGas","type":"uint256","internalType":"uint256"},{"name":"gasFees","type":"bytes32","internalType":"bytes32"},{"name":"paymasterAndData","type":"bytes","internalType":"bytes"},{"name":"signature","type":"bytes","internalType":"bytes"}]},{"name":"aggregator","type":"address","internalType":"contract IAggregator"},{"name":"signature","type":"bytes","internalType":"bytes"}]},{"name":"beneficiary","type":"address","internalType":"address payable"}],"outputs":[],"stateMutability":"nonpayable"},{"type":"function","name":"handleOps","inputs":[{"name":"ops","type":"tuple[]","internalType":"struct PackedUserOperation[]","components":[{"name":"sender","type":"address","internalType":"address"},{"name":"nonce","type":"uint256","internalType":"uint256"},{"name":"initCode","type":"bytes","internalType":"bytes"},{"name":"callData","type":"bytes","internalType":"bytes"},{"name":"accountGasLimits","type":"bytes32","internalType":"bytes32"},{"name":"preVerificationGas","type":"uint256","internalType":"uint256"},{"name":"gasFees","type":"bytes32","internalType":"bytes32"},{"name":"paymasterAndData","type":"bytes","internalType":"bytes"},{"name":"signature","type":"bytes","internalType":"bytes"}]},{"name":"beneficiary","type":"address","internalType":"address payable"}],"outputs":[],"stateMutability":"nonpayable"},{"type":"function","name":"incrementNonce","inputs":[{"name":"key","type":"uint192","internalType":"uint192"}],"outputs":[],"stateMutability":"nonpayable"},{"type":"function","name":"innerHandleOp","inputs":[{"name":"callData","type":"bytes","internalType":"bytes"},{"name":"opInfo","type":"tuple","internalType":"struct EntryPoint.UserOpInfo","components":[{"name":"mUserOp","type":"tuple","internalType":"struct EntryPoint.MemoryUserOp","components":[{"name":"sender","type":"address","internalType":"address"},{"name":"nonce","type":"uint256","internalType":"uint256"},{"name":"verificationGasLimit","type":"uint256","internalType":"uint256"},{"name":"callGasLimit","type":"uint256","internalType":"uint256"},{"name":"paymasterVerificationGasLimit","type":"uint256","internalType":"uint256"},{"name":"paymasterPostOpGasLimit","type":"uint256","internalType":"uint256"},{"name":"preVerificationGas","type":"uint256","internalType":"uint256"},{"name":"paymaster","type":"address","internalType":"address"},{"name":"maxFeePerGas","type":"uint256","internalType":"uint256"},{"name":"maxPriorityFeePerGas","type":"uint256","internalType":"uint256"}]},{"name":"userOpHash","type":"bytes32","internalType":"bytes32"},{"name":"prefund","type":"uint256","internalType":"uint256"},{"name":"contextOffset","type":"uint256","internalType":"uint256"},{"name":"preOpGas","type":"uint256","internalType":"uint256"}]},{"name":"context","type":"bytes","internalType":"bytes"}],"outputs":[{"name":"actualGasCost","type":"uint256","internalType":"uint256"}],"stateMutability":"nonpayable"},{"type":"function","name":"nonceSequenceNumber","inputs":[{"name":"","type":"address","internalType":"address"},{"name":"","type":"uint192","internalType":"uint192"}],"outputs":[{"name":"","type":"uint256","internalType":"uint256"}],"stateMutability":"view"},{"type":"function","name":"supportsInterface","inputs":[{"name":"interfaceId","type":"bytes4","internalType":"bytes4"}],"outputs":[{"name":"","type":"bool","internalType":"bool"}],"stateMutability":"view"},{"type":"function","name":"unlockStake","inputs":[],"outputs":[],"stateMutability":"nonpayable"},{"type":"function","name":"withdrawStake","inputs":[{"name":"withdrawAddress","type":"address","internalType":"address payable"}],"outputs":[],"stateMutability":"nonpayable"},{"type":"function","name":"withdrawTo","inputs":[{"name":"withdrawAddress","type":"address","internalType":"address payable"},{"name":"withdrawAmount","type":"uint256","internalType":"uint256"}],"outputs":[],"stateMutability":"nonpayable"},{"type":"event","name":"AccountDeployed","inputs":[{"name":"userOpHash","type":"bytes32","indexed":true,"internalType":"bytes32"},{"name":"sender","type":"address","indexed":true,"internalType":"address"},{"name":"factory","type":"address","indexed":false,"internalType":"address"},{"name":"paymaster","type":"address","indexed":false,"internalType":"address"}],"anonymous":false},{"type":"event","name":"BeforeExecution","inputs":[],"anonymous":false},{"type":"event","name":"Deposited","inputs":[{"name":"account","type":"address","indexed":true,"internalType":"address"},{"name":"totalDeposit","type":"uint256","indexed":false,"internalType":"uint256"}],"anonymous":false},{"type":"event","name":"PostOpRevertReason","inputs":[{"name":"userOpHash","type":"bytes32","indexed":true,"internalType":"bytes32"},{"name":"sender","type":"address","indexed":true,"internalType":"address"},{"name":"nonce","type":"uint256","indexed":false,"internalType":"uint256"},{"name":"revertReason","type":"bytes","indexed":false,"internalType":"bytes"}],"anonymous":false},{"type":"event","name":"SignatureAggregatorChanged","inputs":[{"name":"aggregator","type":"address","indexed":true,"internalType":"address"}],"anonymous":false},{"type":"event","name":"StakeLocked","inputs":[{"name":"account","type":"address","indexed":true,"internalType":"address"},{"name":"totalStaked","type":"uint256","indexed":false,"internalType":"uint256"},{"name":"unstakeDelaySec","type":"uint256","indexed":false,"internalType":"uint256"}],"anonymous":false},{"type":"event","name":"StakeUnlocked","inputs":[{"name":"account","type":"address","indexed":true,"internalType":"address"},{"name":"withdrawTime","type":"uint256","indexed":false,"internalType":"uint256"}],"anonymous":false},{"type":"event","name":"StakeWithdrawn","inputs":[{"name":"account","type":"address","indexed":true,"internalType":"address"},{"name":"withdrawAddress","type":"address","indexed":false,"internalType":"address"},{"name":"amount","type":"uint256","indexed":false,"internalType":"uint256"}],"anonymous":false},{"type":"event","name":"UserOperationEvent","inputs":[{"name":"userOpHash","type":"bytes32","indexed":true,"internalType":"bytes32"},{"name":"sender","type":"address","indexed":true,"internalType":"address"},{"name":"paymaster","type":"address","indexed":true,"internalType":"address"},{"name":"nonce","type":"uint256","indexed":false,"internalType":"uint256"},{"name":"success","type":"bool","indexed":false,"internalType":"bool"},{"name":"actualGasCost","type":"uint256","indexed":false,"internalType":"uint256"},{"name":"actualGasUsed","type":"uint256","indexed":false,"internalType":"uint256"}],"anonymous":false},{"type":"event","name":"UserOperationPrefundTooLow","inputs":[{"name":"userOpHash","type":"bytes32","indexed":true,"internalType":"bytes32"},{"name":"sender","type":"address","indexed":true,"internalType":"address"},{"name":"nonce","type":"uint256","indexed":false,"internalType":"uint256"}],"anonymous":false},{"type":"event","name":"UserOperationRevertReason","inputs":[{"name":"userOpHash","type":"bytes32","indexed":true,"internalType":"bytes32"},{"name":"sender","type":"address","indexed":true,"internalType":"address"},{"name":"nonce","type":"uint256","indexed":false,"internalType":"uint256"},{"name":"revertReason","type":"bytes","indexed":false,"internalType":"bytes"}],"anonymous":false},{"type":"event","name":"Withdrawn","inputs":[{"name":"account","type":"address","indexed":true,"internalType":"address"},{"name":"withdrawAddress","type":"address","indexed":false,"internalType":"address"},{"name":"amount","type":"uint256","indexed":false,"internalType":"uint256"}],"anonymous":false},{"type":"error","name":"DelegateAndRevert","inputs":[{"name":"success","type":"bool","internalType":"bool"},{"name":"ret","type":"bytes","internalType":"bytes"}]},{"type":"error","name":"FailedOp","inputs":[{"name":"opIndex","type":"uint256","internalType":"uint256"},{"name":"reason","type":"string","internalType":"string"}]},{"type":"error","name":"FailedOpWithRevert","inputs":[{"name":"opIndex","type":"uint256","internalType":"uint256"},{"name":"reason","type":"string","internalType":"string"},{"name":"inner","type":"bytes","internalType":"bytes"}]},{"type":"error","name":"PostOpReverted","inputs":[{"name":"returnData","type":"bytes","internalType":"bytes"}]},{"type":"error","name":"ReentrancyGuardReentrantCall","inputs":[]},{"type":"error","name":"SenderAddressResult","inputs":[{"name":"sender","type":"address","internalType":"address"}]},{"type":"error","name":"SignatureValidationFailed","inputs":[{"name":"aggregator","type":"address","internalType":"address"}]}],"bytecode":{"object":"0x60a0604052604051600e90604b565b604051809103906000f0801580156029573d6000803e3d6000fd5b506001600160a01b0316608052348015604157600080fd5b5060016002556058565b6102128061394883390190565b6080516138ce61007a60003960008181610eb0015261288101526138ce6000f3fe6080604052600436106101175760003560e01c806370a08231116100a0578063bb9fe6bf11610064578063bb9fe6bf1461045b578063c23a5cea14610470578063dbed18e014610490578063ee5a97c8146104b0578063fc7e286d146104f357600080fd5b806370a08231146103b2578063765e827f146103e8578063850aaf62146104085780639b249f6914610428578063b760faf91461044857600080fd5b80631b2e01b8116100e75780631b2e01b8146101c2578063205c2878146101fa57806322cdde4c1461021a57806335567e1a1461023a5780635287ce121461029a57600080fd5b806242dc531461012c57806301ffc9a71461015f5780630396cb601461018f5780630bd28e3b146101a257600080fd5b36610127576101253361059b565b005b600080fd5b34801561013857600080fd5b5061014c610147366004612def565b6105f0565b6040519081526020015b60405180910390f35b34801561016b57600080fd5b5061017f61017a366004612eae565b6107ba565b6040519015158152602001610156565b61012561019d366004612ed8565b610842565b3480156101ae57600080fd5b506101256101bd366004612f15565b610ad1565b3480156101ce57600080fd5b5061014c6101dd366004612f30565b600160209081526000928352604080842090915290825290205481565b34801561020657600080fd5b50610125610215366004612f65565b610b08565b34801561022657600080fd5b5061014c610235366004612f91565b610c59565b34801561024657600080fd5b5061014c610255366004612f30565b6001600160a01b03821660009081526001602090815260408083206001600160c01b038516845290915290819020549082901b67ffffffffffffffff19161792915050565b3480156102a657600080fd5b506103576102b5366004612fcc565b6040805160a081018252600080825260208201819052918101829052606081018290526080810191909152506001600160a01b031660009081526020818152604091829020825160a0810184528154815260019091015460ff811615159282019290925261010082046001600160701b031692810192909252600160781b810463ffffffff166060830152600160981b900465ffffffffffff16608082015290565b6040516101569190600060a082019050825182526020830151151560208301526001600160701b03604084015116604083015263ffffffff606084015116606083015265ffffffffffff608084015116608083015292915050565b3480156103be57600080fd5b5061014c6103cd366004612fcc565b6001600160a01b031660009081526020819052604090205490565b3480156103f457600080fd5b5061012561040336600461302d565b610c9b565b34801561041457600080fd5b50610125610423366004613083565b610e17565b34801561043457600080fd5b506101256104433660046130d7565b610e96565b610125610456366004612fcc565b61059b565b34801561046757600080fd5b50610125610f51565b34801561047c57600080fd5b5061012561048b366004612fcc565b61107d565b34801561049c57600080fd5b506101256104ab36600461302d565b6112a1565b3480156104bc57600080fd5b5061014c6104cb366004612f65565b6001600160a01b03919091166000908152600360209081526040808320938352929052205490565b3480156104ff57600080fd5b5061055861050e366004612fcc565b6000602081905290815260409020805460019091015460ff81169061010081046001600160701b031690600160781b810463ffffffff1690600160981b900465ffffffffffff1685565b6040805195865293151560208601526001600160701b039092169284019290925263ffffffff909116606083015265ffffffffffff16608082015260a001610156565b60006105a782346116ba565b9050816001600160a01b03167f2da466a7b24304f47e87fa2e1e5a81b9831ce54fec19055ce277ca2f39ba42c4826040516105e491815260200190565b60405180910390a25050565b6000805a905033301461064a5760405162461bcd60e51b815260206004820152601760248201527f4141393220696e7465726e616c2063616c6c206f6e6c7900000000000000000060448201526064015b60405180910390fd5b8451606081015160a082015181016127100160405a603f028161066f5761066f613118565b0410156106875763deaddead60e01b60005260206000fd5b87516000901561075c5760005a905060006106a9856000015160008d876116ed565b90506106e6856000015160025a6106c09086613144565b6001600160a01b0390921660009081526003602090815260408083209383529290522055565b806107595760006106f8610800611705565b8051909150156107535785600001516001600160a01b03168b602001517f1c4fada7374c0a9ee8841fc38afe82932dc0f8e69012e927f061a8bae611a20188602001518460405161074a9291906131a7565b60405180910390a35b60019350505b50505b600088608001515a86030190506107ac828a8a8a8080601f016020809104026020016040519081016040528093929190818152602001838380828437600092019190915250879250611731915050565b9a9950505050505050505050565b60006001600160e01b0319821663307e35b760e11b14806107eb57506001600160e01b0319821663122a0e9b60e31b145b8061080657506001600160e01b0319821663cf28ef9760e01b145b8061082157506001600160e01b03198216633e84f02160e01b145b8061083c57506301ffc9a760e01b6001600160e01b03198316145b92915050565b33600090815260208190526040902063ffffffff82166108a45760405162461bcd60e51b815260206004820152601a60248201527f6d757374207370656369667920756e7374616b652064656c61790000000000006044820152606401610641565b600181015463ffffffff600160781b909104811690831610156109095760405162461bcd60e51b815260206004820152601c60248201527f63616e6e6f7420646563726561736520756e7374616b652074696d65000000006044820152606401610641565b600181015460009061092a90349061010090046001600160701b03166131c0565b9050600081116109715760405162461bcd60e51b81526020600482015260126024820152711b9bc81cdd185ad9481cdc1958da599a595960721b6044820152606401610641565b6001600160701b038111156109b95760405162461bcd60e51b815260206004820152600e60248201526d7374616b65206f766572666c6f7760901b6044820152606401610641565b6040805160a08101825283548152600160208083018281526001600160701b0386811685870190815263ffffffff8a811660608801818152600060808a0181815233808352828a52918c90209a518b55965199909801805494519151965165ffffffffffff16600160981b0265ffffffffffff60981b1997909416600160781b029690961669ffffffffffffffffffff60781b1991909516610100026effffffffffffffffffffffffffff0019991515999099166effffffffffffffffffffffffffffff1990941693909317979097179190911691909117179055835185815290810192909252917fa5ae833d0bb1dcd632d98a8b70973e8516812898e19bf27b70071ebc8dc52c01910160405180910390a2505050565b3360009081526001602090815260408083206001600160c01b03851684529091528120805491610b00836131d3565b919050555050565b3360009081526020819052604090208054821115610b685760405162461bcd60e51b815260206004820152601960248201527f576974686472617720616d6f756e7420746f6f206c61726765000000000000006044820152606401610641565b8054610b75908390613144565b8155604080516001600160a01b03851681526020810184905233917fd1c19fbcd4551a5edfb66d43d2e337c04837afda3482b42bdf569a8fccdae5fb910160405180910390a26000836001600160a01b03168360405160006040518083038185875af1925050503d8060008114610c08576040519150601f19603f3d011682016040523d82523d6000602084013e610c0d565b606091505b5050905080610c535760405162461bcd60e51b81526020600482015260126024820152716661696c656420746f20776974686472617760701b6044820152606401610641565b50505050565b6000610c64826118f4565b6040805160208101929092523090820152466060820152608001604051602081830303815290604052805190602001209050919050565b610ca361190d565b816000816001600160401b03811115610cbe57610cbe612bef565b604051908082528060200260200182016040528015610cf757816020015b610ce4612b57565b815260200190600190039081610cdc5790505b50905060005b82811015610d70576000828281518110610d1957610d196131ec565b60200260200101519050600080610d54848a8a87818110610d3c57610d3c6131ec565b9050602002810190610d4e9190613202565b85611935565b91509150610d658483836000611b3b565b505050600101610cfd565b506040516000907fbb47ee3e183a558b1a2ff0874b079f3fc5478b7454eacf2bfc5af2ff5878f972908290a160005b83811015610dfa57610dee81888884818110610dbd57610dbd6131ec565b9050602002810190610dcf9190613202565b858481518110610de157610de16131ec565b6020026020010151611cd7565b90910190600101610d9f565b50610e058482611f93565b505050610e126001600255565b505050565b600080846001600160a01b03168484604051610e34929190613223565b600060405180830381855af49150503d8060008114610e6f576040519150601f19603f3d011682016040523d82523d6000602084013e610e74565b606091505b50915091508181604051632650415560e21b8152600401610641929190613233565b604051632b870d1b60e11b81526000906001600160a01b037f0000000000000000000000000000000000000000000000000000000000000000169063570e1a3690610ee79086908690600401613277565b6020604051808303816000875af1158015610f06573d6000803e3d6000fd5b505050506040513d601f19601f82011682018060405250810190610f2a919061328b565b604051633653dc0360e11b81526001600160a01b0382166004820152909150602401610641565b33600090815260208190526040812060018101549091600160781b90910463ffffffff169003610fb05760405162461bcd60e51b815260206004820152600a6024820152691b9bdd081cdd185ad95960b21b6044820152606401610641565b600181015460ff16610ff85760405162461bcd60e51b8152602060048201526011602482015270616c726561647920756e7374616b696e6760781b6044820152606401610641565b600181015460009061101790600160781b900463ffffffff16426132a8565b60018301805460ff65ffffffffffff60981b011916600160981b65ffffffffffff841690810260ff19169190911790915560405190815290915033907ffa9b3c14cc825c412c9ed81b3ba365a5b459439403f18829e572ed53a4180f0a906020016105e4565b336000908152602081905260409020600181015461010090046001600160701b0316806110e35760405162461bcd60e51b81526020600482015260146024820152734e6f207374616b6520746f20776974686472617760601b6044820152606401610641565b6001820154600160981b900465ffffffffffff166111435760405162461bcd60e51b815260206004820152601d60248201527f6d7573742063616c6c20756e6c6f636b5374616b6528292066697273740000006044820152606401610641565b600182015442600160981b90910465ffffffffffff1611156111a75760405162461bcd60e51b815260206004820152601b60248201527f5374616b65207769746864726177616c206973206e6f742064756500000000006044820152606401610641565b600182018054610100600160c81b0319169055604080516001600160a01b03851681526020810183905233917fb7c918e0e249f999e965cafeb6c664271b3f4317d296461500e71da39f0cbda3910160405180910390a26000836001600160a01b03168260405160006040518083038185875af1925050503d806000811461124b576040519150601f19603f3d011682016040523d82523d6000602084013e611250565b606091505b5050905080610c535760405162461bcd60e51b815260206004820152601860248201527f6661696c656420746f207769746864726177207374616b6500000000000000006044820152606401610641565b6112a961190d565b816000805b8281101561141657368686838181106112c9576112c96131ec565b90506020028101906112db91906132ce565b90503660006112ea83806132e4565b909250905060006113016040850160208601612fcc565b90506000196001600160a01b0382160161135d5760405162461bcd60e51b815260206004820152601760248201527f4141393620696e76616c69642061676772656761746f720000000000000000006044820152606401610641565b6001600160a01b038116156113fa576001600160a01b038116632dd81133848461138a604089018961332d565b6040518563ffffffff1660e01b81526004016113a99493929190613497565b60006040518083038186803b1580156113c157600080fd5b505afa9250505080156113d2575060015b6113fa5760405163086a9f7560e41b81526001600160a01b0382166004820152602401610641565b61140482876131c0565b955050600190930192506112ae915050565b506000816001600160401b0381111561143157611431612bef565b60405190808252806020026020018201604052801561146a57816020015b611457612b57565b81526020019060019003908161144f5790505b5090506000805b84811015611547573688888381811061148c5761148c6131ec565b905060200281019061149e91906132ce565b90503660006114ad83806132e4565b909250905060006114c46040850160208601612fcc565b90508160005b818110156115355760008989815181106114e6576114e66131ec565b602002602001015190506000806115098b898987818110610d3c57610d3c6131ec565b9150915061151984838389611b3b565b8a611523816131d3565b9b5050600190930192506114ca915050565b50506001909401935061147192505050565b506040517fbb47ee3e183a558b1a2ff0874b079f3fc5478b7454eacf2bfc5af2ff5878f97290600090a150600080805b858110156116755736898983818110611592576115926131ec565b90506020028101906115a491906132ce565b90506115b66040820160208301612fcc565b6001600160a01b03167f575ff3acadd5ab348fe1855e217e0f3678f8d767d7494c9f9fefbee2e17cca4d60405160405180910390a23660006115f883806132e4565b90925090508060005b81811015611664576116438885858481811061161f5761161f6131ec565b90506020028101906116319190613202565b8b8b81518110610de157610de16131ec565b61164d90886131c0565b965087611659816131d3565b985050600101611601565b505060019093019250611577915050565b506040516000907f575ff3acadd5ab348fe1855e217e0f3678f8d767d7494c9f9fefbee2e17cca4d908290a26116ab8682611f93565b5050505050610e126001600255565b6001600160a01b0382166000908152602081905260408120805482906116e19085906131c0565b91829055509392505050565b6000806000845160208601878987f195945050505050565b60603d828111156117135750815b604051602082018101604052818152816000602083013e9392505050565b6000805a8551909150600090816117478261208c565b60e08301519091506001600160a01b0381166117665782519350611822565b80935060008851111561182257868202955060028a600281111561178c5761178c613514565b146118225760a0830151604051637c627b2160e01b81526001600160a01b03831691637c627b21916117c8908e908d908c90899060040161352a565b600060405180830381600088803b1580156117e257600080fd5b5087f1935050505080156117f4575060015b611822576000611805610800611705565b905080604051632b5e552f60e21b81526004016106419190613574565b5a60a0840151606085015160808c015192880399909901980190880380821115611855576064600a828403020498909801975b505060408901518783029650868110156118b15760028b600281111561187d5761187d613514565b036118a05780965061188e8a6120be565b61189b8a6000898b61210d565b6118e6565b63deadaa5160e01b60005260206000fd5b8681036118be86826116ba565b506000808d60028111156118d4576118d4613514565b1490506118e38c828b8d61210d565b50505b505050505050949350505050565b60006118ff82612188565b805190602001209050919050565b600280540361192f57604051633ee5aeb560e01b815260040160405180910390fd5b60028055565b60008060005a845190915061194a8682612240565b61195386610c59565b6020860152604081015161012082015161010083015160a08401516080850151606086015160c0870151861717171717176effffffffffffffffffffffffffffff8111156119e35760405162461bcd60e51b815260206004820152601860248201527f41413934206761732076616c756573206f766572666c6f7700000000000000006044820152606401610641565b6000611a128460c081015160a08201516080830151606084015160408501516101009095015194010101010290565b9050611a218a8a8a848761234e565b9650611a358460000151856020015161251c565b611a8b5789604051631101335b60e11b8152600401610641918152604060208201819052601a908201527f4141323520696e76616c6964206163636f756e74206e6f6e6365000000000000606082015260800190565b825a86031115611ae75789604051631101335b60e11b8152600401610641918152604060208201819052601e908201527f41413236206f76657220766572696669636174696f6e4761734c696d69740000606082015260800190565b60e08401516060906001600160a01b031615611b0e57611b098b8b8b85612569565b975090505b604089018290528060608a015260a08a01355a870301896080018181525050505050505050935093915050565b600080611b4785612727565b91509150816001600160a01b0316836001600160a01b031614611bad5785604051631101335b60e11b81526004016106419181526040602082018190526014908201527320a0991a1039b4b3b730ba3ab9329032b93937b960611b606082015260800190565b8015611c055785604051631101335b60e11b81526004016106419181526040602082018190526017908201527f414132322065787069726564206f72206e6f7420647565000000000000000000606082015260800190565b6000611c1085612727565b925090506001600160a01b03811615611c6c5786604051631101335b60e11b81526004016106419181526040602082018190526014908201527320a0999a1039b4b3b730ba3ab9329032b93937b960611b606082015260800190565b8115611cce5786604051631101335b60e11b81526004016106419181526040602082018190526021908201527f41413332207061796d61737465722065787069726564206f72206e6f742064756060820152606560f81b608082015260a00190565b50505050505050565b6000805a90506000611cea846060015190565b6040519091506000903682611d0260608a018a61332d565b9150915060606000826003811115611d1957843591505b506372288ed160e01b6001600160e01b0319821601611dc75760008b8b60200151604051602401611d4b929190613587565b60408051601f198184030181529181526020820180516001600160e01b0316638dd7712f60e01b1790525190915030906242dc5390611d929084908f908d90602401613653565b604051602081830303815290604052915060e01b6020820180516001600160e01b038381831617835250505050925050611e1c565b306001600160a01b03166242dc5385858d8b604051602401611dec9493929190613693565b604051602081830303815290604052915060e01b6020820180516001600160e01b03838183161783525050505091505b602060008351602085016000305af19550600051985084604052505050505080611f895760003d80602003611e575760206000803e60005191505b5063deaddead60e01b8103611eaa5787604051631101335b60e11b8152600401610641918152604060208201819052600f908201526e41413935206f7574206f662067617360881b606082015260800190565b63deadaa5160e01b8103611efb57600086608001515a611eca9087613144565b611ed491906131c0565b6040880151909150611ee5886120be565b611ef2886000838561210d565b9550611f879050565b855180516020808901519201516001600160a01b0390911691907ff62676f440ff169a3a9afdbf812e89e7f95975ee8e5c31214ffdef631c5f479290611f42610800611705565b604051611f509291906131a7565b60405180910390a3600086608001515a611f6a9087613144565b611f7491906131c0565b9050611f836002888684611731565b9550505b505b5050509392505050565b6001600160a01b038216611fe95760405162461bcd60e51b815260206004820152601860248201527f4141393020696e76616c69642062656e656669636961727900000000000000006044820152606401610641565b6000826001600160a01b03168260405160006040518083038185875af1925050503d8060008114612036576040519150601f19603f3d011682016040523d82523d6000602084013e61203b565b606091505b5050905080610e125760405162461bcd60e51b815260206004820152601f60248201527f41413931206661696c65642073656e6420746f2062656e6566696369617279006044820152606401610641565b610100810151610120820151600091908082036120aa575092915050565b6120b68248830161277a565b949350505050565b80518051602080840151928101516040519081526001600160a01b0390921692917f67b4fa9642f42120bf031f3051d1824b0fe25627945b27b8a6a65d5761d5482e910160405180910390a350565b835160e081015181516020808801519301516040516001600160a01b039384169492909316927f49628fd1471006c1482da88028e9ce4dbb080b815c9b0344d39e5a8e6ec1419f9161217a9189908990899093845291151560208401526040830152606082015260800190565b60405180910390a450505050565b60608135602083013560006121a86121a3604087018761332d565b612792565b905060006121bc6121a3606088018861332d565b9050608086013560a087013560c088013560006121df6121a360e08c018c61332d565b604080516001600160a01b039a909a1660208b015289810198909852606089019690965250608087019390935260a086019190915260c085015260e08401526101008084019190915281518084039091018152610120909201905292915050565b61224d6020830183612fcc565b6001600160a01b03168152602082810135908201526001600160801b036080808401358281166060850152811c604084015260a084013560c0808501919091528401359182166101008401521c6101208201523660006122b060e085018561332d565b9092509050801561233357603481101561230c5760405162461bcd60e51b815260206004820152601d60248201527f4141393320696e76616c6964207061796d6173746572416e64446174610000006044820152606401610641565b61231682826127a5565b60a086015260808501526001600160a01b031660e0840152610c53565b600060e084018190526080840181905260a084015250505050565b825180516000919061236d888761236860408b018b61332d565b61280d565b60e082015160006001600160a01b0382166123b1576001600160a01b0383166000908152602081905260409020548781116123aa578088036123ad565b60005b9150505b60005a60208a01516040516306608bdf60e21b81529192506001600160a01b038616916319822f7c918a916123ec918f9188906004016136ca565b60206040518083038160008887f193505050508015612428575060408051601f3d908101601f19168201909252612425918101906136ef565b60015b612453578a612438610800611705565b6040516365c8fd4d60e01b8152600401610641929190613708565b8096506124858560015a85036001600160a01b0390921660009081526003602090815260408083209383529290522055565b506001600160a01b03831661250e576001600160a01b03841660009081526020819052604090208054808a1115612508578c604051631101335b60e11b81526004016106419181526040602082018190526017908201527f41413231206469646e2774207061792070726566756e64000000000000000000606082015260800190565b89900390555b505050505095945050505050565b6001600160a01b038216600090815260016020908152604080832084821c80855292528220805484916001600160401b03831691908561255b836131d3565b909155501495945050505050565b60606000805a855160e08101516001600160a01b038116600090815260208190526040902080549394509192909190878110156125f2578a604051631101335b60e11b8152600401610641918152604060208201819052601e908201527f41413331207061796d6173746572206465706f73697420746f6f206c6f770000606082015260800190565b8781038260000181905550600084608001519050836001600160a01b03166352b7512c828d8d602001518d6040518563ffffffff1660e01b815260040161263b939291906136ca565b60006040518083038160008887f19350505050801561267c57506040513d6000823e601f3d908101601f191682016040526126799190810190613745565b60015b6126a7578b61268c610800611705565b6040516365c8fd4d60e01b81526004016106419291906137c5565b9098509650805a87031115612718578b604051631101335b60e11b81526004016106419181526040602082018190526027908201527f41413336206f766572207061796d6173746572566572696669636174696f6e47606082015266185cd31a5b5a5d60ca1b608082015260a00190565b50505050505094509492505050565b6000808260000361273d57506000928392509050565b600061274884612ae6565b9050806040015165ffffffffffff1642118061276f5750806020015165ffffffffffff1642105b905194909350915050565b6000818310612789578161278b565b825b9392505050565b6000604051828085833790209392505050565b600080806127b66014828688613802565b6127bf9161382c565b60601c6127d0602460148789613802565b6127d991613861565b60801c6127ea60346024888a613802565b6127f391613861565b9194506001600160801b0316925060801c90509250925092565b8015610c53578251516001600160a01b0381163b156128785784604051631101335b60e11b8152600401610641918152604060208201819052601f908201527f414131302073656e64657220616c726561647920636f6e737472756374656400606082015260800190565b60005a905060007f00000000000000000000000000000000000000000000000000000000000000006001600160a01b031663570e1a3687600001516040015187876040518463ffffffff1660e01b81526004016128d6929190613277565b60206040518083038160008887f11580156128f5573d6000803e3d6000fd5b50505050506040513d601f19601f8201168201806040525081019061291a919061328b565b905061292d8360005a6106c09086613144565b6001600160a01b03811661298d5786604051631101335b60e11b8152600401610641918152604060208201819052601b908201527f4141313320696e6974436f6465206661696c6564206f72204f4f470000000000606082015260800190565b826001600160a01b0316816001600160a01b0316146129f75786604051631101335b60e11b815260040161064191815260406020808301829052908201527f4141313420696e6974436f6465206d7573742072657475726e2073656e646572606082015260800190565b806001600160a01b03163b600003612a5a5786604051631101335b60e11b815260040161064191815260406020808301829052908201527f4141313520696e6974436f6465206d757374206372656174652073656e646572606082015260800190565b6000612a696014828789613802565b612a729161382c565b60601c9050836001600160a01b031687602001517fd51a9c61267aa6196961883ecf5ff2da6619c37dac0fa92122513fb32c032d2d838a6000015160e00151604051612ad49291906001600160a01b0392831681529116602082015260400190565b60405180910390a35050505050505050565b60408051606081018252600080825260208201819052918101919091528160a081901c65ffffffffffff8116600003612b22575065ffffffffffff5b604080516060810182526001600160a01b03909316835260d09490941c602083015265ffffffffffff16928101929092525090565b6040518060a00160405280612bca60405180610140016040528060006001600160a01b0316815260200160008152602001600081526020016000815260200160008152602001600081526020016000815260200160006001600160a01b0316815260200160008152602001600081525090565b8152602001600080191681526020016000815260200160008152602001600081525090565b634e487b7160e01b600052604160045260246000fd5b60405160a081016001600160401b0381118282101715612c2757612c27612bef565b60405290565b60405161014081016001600160401b0381118282101715612c2757612c27612bef565b604051601f8201601f191681016001600160401b0381118282101715612c7857612c78612bef565b604052919050565b60006001600160401b03821115612c9957612c99612bef565b50601f01601f191660200190565b6001600160a01b0381168114612cbc57600080fd5b50565b8035612cca81612ca7565b919050565b60008183036101c0811215612ce357600080fd5b612ceb612c05565b915061014080821215612cfd57600080fd5b612d05612c2d565b9150612d1084612cbf565b82526020840135602083015260408401356040830152606084013560608301526080840135608083015260a084013560a083015260c084013560c0830152612d5a60e08501612cbf565b60e0830152610100848101359083015261012080850135908301529082528201356020820152610160820135604082015261018082013560608201526101a0909101356080820152919050565b60008083601f840112612db957600080fd5b5081356001600160401b03811115612dd057600080fd5b602083019150836020828501011115612de857600080fd5b9250929050565b6000806000806102008587031215612e0657600080fd5b84356001600160401b0380821115612e1d57600080fd5b818701915087601f830112612e3157600080fd5b8135612e44612e3f82612c80565b612c50565b818152896020838601011115612e5957600080fd5b816020850160208301376000602083830101528097505050612e7e8860208901612ccf565b94506101e0870135915080821115612e9557600080fd5b50612ea287828801612da7565b95989497509550505050565b600060208284031215612ec057600080fd5b81356001600160e01b03198116811461278b57600080fd5b600060208284031215612eea57600080fd5b813563ffffffff8116811461278b57600080fd5b80356001600160c01b0381168114612cca57600080fd5b600060208284031215612f2757600080fd5b61278b82612efe565b60008060408385031215612f4357600080fd5b8235612f4e81612ca7565b9150612f5c60208401612efe565b90509250929050565b60008060408385031215612f7857600080fd5b8235612f8381612ca7565b946020939093013593505050565b600060208284031215612fa357600080fd5b81356001600160401b03811115612fb957600080fd5b8201610120818503121561278b57600080fd5b600060208284031215612fde57600080fd5b813561278b81612ca7565b60008083601f840112612ffb57600080fd5b5081356001600160401b0381111561301257600080fd5b6020830191508360208260051b8501011115612de857600080fd5b60008060006040848603121561304257600080fd5b83356001600160401b0381111561305857600080fd5b61306486828701612fe9565b909450925050602084013561307881612ca7565b809150509250925092565b60008060006040848603121561309857600080fd5b83356130a381612ca7565b925060208401356001600160401b038111156130be57600080fd5b6130ca86828701612da7565b9497909650939450505050565b600080602083850312156130ea57600080fd5b82356001600160401b0381111561310057600080fd5b61310c85828601612da7565b90969095509350505050565b634e487b7160e01b600052601260045260246000fd5b634e487b7160e01b600052601160045260246000fd5b8181038181111561083c5761083c61312e565b60005b8381101561317257818101518382015260200161315a565b50506000910152565b60008151808452613193816020860160208601613157565b601f01601f19169290920160200192915050565b8281526040602082015260006120b6604083018461317b565b8082018082111561083c5761083c61312e565b6000600182016131e5576131e561312e565b5060010190565b634e487b7160e01b600052603260045260246000fd5b6000823561011e1983360301811261321957600080fd5b9190910192915050565b8183823760009101908152919050565b82151581526040602082015260006120b6604083018461317b565b81835281816020850137506000828201602090810191909152601f909101601f19169091010190565b6020815260006120b660208301848661324e565b60006020828403121561329d57600080fd5b815161278b81612ca7565b65ffffffffffff8181168382160190808211156132c7576132c761312e565b5092915050565b60008235605e1983360301811261321957600080fd5b6000808335601e198436030181126132fb57600080fd5b8301803591506001600160401b0382111561331557600080fd5b6020019150600581901b3603821315612de857600080fd5b6000808335601e1984360301811261334457600080fd5b8301803591506001600160401b0382111561335e57600080fd5b602001915036819003821315612de857600080fd5b6000808335601e1984360301811261338a57600080fd5b83016020810192503590506001600160401b038111156133a957600080fd5b803603821315612de857600080fd5b60006101206133d7846133ca85612cbf565b6001600160a01b03169052565b602083013560208501526133ee6040840184613373565b826040870152613401838701828461324e565b925050506134126060840184613373565b858303606087015261342583828461324e565b925050506080830135608085015260a083013560a085015260c083013560c085015261345460e0840184613373565b85830360e087015261346783828461324e565b9250505061010061347a81850185613373565b8684038388015261348c84828461324e565b979650505050505050565b6040808252810184905260006060600586901b830181019083018783805b898110156134fd57868503605f190184528235368c900361011e190181126134db578283fd5b6134e7868d83016133b8565b95505060209384019392909201916001016134b5565b50505050828103602084015261348c81858761324e565b634e487b7160e01b600052602160045260246000fd5b60006003861061354a57634e487b7160e01b600052602160045260246000fd5b85825260806020830152613561608083018661317b565b6040830194909452506060015292915050565b60208152600061278b602083018461317b565b60408152600061359a60408301856133b8565b90508260208301529392505050565b805180516001600160a01b031683526020810151602084015260408101516040840152606081015160608401526080810151608084015260a081015160a084015260c081015160c084015260e081015161360e60e08501826001600160a01b03169052565b5061010081810151908401526101209081015190830152602081015161014083015260408101516101608301526060810151610180830152608001516101a090910152565b60006102008083526136678184018761317b565b905061367660208401866135a9565b8281036101e0840152613689818561317b565b9695505050505050565b60006102008083526136a8818401878961324e565b90506136b760208401866135a9565b8281036101e084015261348c818561317b565b6060815260006136dd60608301866133b8565b60208301949094525060400152919050565b60006020828403121561370157600080fd5b5051919050565b82815260606020820152600d60608201526c10504c8cc81c995d995c9d1959609a1b608082015260a0604082015260006120b660a083018461317b565b6000806040838503121561375857600080fd5b82516001600160401b0381111561376e57600080fd5b8301601f8101851361377f57600080fd5b805161378d612e3f82612c80565b8181528660208385010111156137a257600080fd5b6137b3826020830160208601613157565b60209590950151949694955050505050565b82815260606020820152600d60608201526c10504cccc81c995d995c9d1959609a1b608082015260a0604082015260006120b660a083018461317b565b6000808585111561381257600080fd5b8386111561381f57600080fd5b5050820193919092039150565b6bffffffffffffffffffffffff1981358181169160148510156138595780818660140360031b1b83161692505b505092915050565b6fffffffffffffffffffffffffffffffff1981358181169160108510156138595760109490940360031b84901b169092169291505056fea26469706673582212205cfff3ea1e5c00e8f7778310423e83104f31c76460e02e6e73fed7e67c001a7d64736f6c634300081900336080604052348015600f57600080fd5b506101f38061001f6000396000f3fe608060405234801561001057600080fd5b506004361061002b5760003560e01c8063570e1a3614610030575b600080fd5b61004361003e3660046100ec565b61005f565b6040516001600160a01b03909116815260200160405180910390f35b60008061006f601482858761015e565b61007891610188565b60601c9050600061008c846014818861015e565b8080601f016020809104026020016040519081016040528093929190818152602001838380828437600092018290525084519495509360209350849250905082850182875af190506000519350806100e357600093505b50505092915050565b600080602083850312156100ff57600080fd5b823567ffffffffffffffff8082111561011757600080fd5b818501915085601f83011261012b57600080fd5b81358181111561013a57600080fd5b86602082850101111561014c57600080fd5b60209290920196919550909350505050565b6000808585111561016e57600080fd5b8386111561017b57600080fd5b5050820193919092039150565b6bffffffffffffffffffffffff1981358181169160148510156101b55780818660140360031b1b83161692505b50509291505056fea264697066735822122035a093e47c25164bd408734abbeff6d62990201b10a812ceab854c2e82de787f64736f6c63430008190033","linkReferences":{}},"methodIdentifiers":{"addStake(uint32)":"0396cb60","balanceOf(address)":"70a08231","delegateAndRevert(address,bytes)":"850aaf62","depositTo(address)":"b760faf9","deposits(address)":"fc7e286d","getDepositInfo(address)":"5287ce12","getGasConsumed(address,uint256)":"ee5a97c8","getNonce(address,uint192)":"35567e1a","getSenderAddress(bytes)":"9b249f69","getUserOpHash((address,uint256,bytes,bytes,bytes32,uint256,bytes32,bytes,bytes))":"22cdde4c","handleAggregatedOps(((address,uint256,bytes,bytes,bytes32,uint256,bytes32,bytes,bytes)[],address,bytes)[],address)":"dbed18e0","handleOps((address,uint256,bytes,bytes,bytes32,uint256,bytes32,bytes,bytes)[],address)":"765e827f","incrementNonce(uint192)":"0bd28e3b","innerHandleOp(bytes,((address,uint256,uint256,uint256,uint256,uint256,uint256,address,uint256,uint256),bytes32,uint256,uint256,uint256),bytes)":"0042dc53","nonceSequenceNumber(address,uint192)":"1b2e01b8","supportsInterface(bytes4)":"01ffc9a7","unlockStake()":"bb9fe6bf","withdrawStake(address)":"c23a5cea","withdrawTo(address,uint256)":"205c2878"},"id":10}