{"abi":[{"type":"function","name":"isInitialized","inputs":[{"name":"smartAccount","type":"address","internalType":"address"}],"outputs":[{"name":"","type":"bool","internalType":"bool"}],"stateMutability":"view"},{"type":"function","name":"isModuleType","inputs":[{"name":"typeID","type":"uint256","internalType":"uint256"}],"outputs":[{"name":"","type":"bool","internalType":"bool"}],"stateMutability":"pure"},{"type":"function","name":"isValidSignatureWithSender","inputs":[{"name":"","type":"address","internalType":"address"},{"name":"hash","type":"bytes32","internalType":"bytes32"},{"name":"data","type":"bytes","internalType":"bytes"}],"outputs":[{"name":"","type":"bytes4","internalType":"bytes4"}],"stateMutability":"view"},{"type":"function","name":"name","inputs":[],"outputs":[{"name":"","type":"string","internalType":"string"}],"stateMutability":"pure"},{"type":"function","name":"onInstall","inputs":[{"name":"data","type":"bytes","internalType":"bytes"}],"outputs":[],"stateMutability":"nonpayable"},{"type":"function","name":"onUninstall","inputs":[{"name":"","type":"bytes","internalType":"bytes"}],"outputs":[],"stateMutability":"nonpayable"},{"type":"function","name":"validateUserOp","inputs":[{"name":"userOp","type":"tuple","internalType":"struct PackedUserOperation","components":[{"name":"sender","type":"address","internalType":"address"},{"name":"nonce","type":"uint256","internalType":"uint256"},{"name":"initCode","type":"bytes","internalType":"bytes"},{"name":"callData","type":"bytes","internalType":"bytes"},{"name":"accountGasLimits","type":"bytes32","internalType":"bytes32"},{"name":"preVerificationGas","type":"uint256","internalType":"uint256"},{"name":"gasFees","type":"bytes32","internalType":"bytes32"},{"name":"paymasterAndData","type":"bytes","internalType":"bytes"},{"name":"signature","type":"bytes","internalType":"bytes"}]},{"name":"userOpHash","type":"bytes32","internalType":"bytes32"}],"outputs":[{"name":"","type":"uint256","internalType":"ERC7579ValidatorBase.ValidationData"}],"stateMutability":"nonpayable"},{"type":"function","name":"version","inputs":[],"outputs":[{"name":"","type":"string","internalType":"string"}],"stateMutability":"pure"},{"type":"error","name":"AlreadyInitialized","inputs":[{"name":"smartAccount","type":"address","internalType":"address"}]},{"type":"error","name":"InvalidGuardian","inputs":[{"name":"guardian","type":"address","internalType":"address"}]},{"type":"error","name":"InvalidSignature","inputs":[]},{"type":"error","name":"InvalidThreshold","inputs":[]},{"type":"error","name":"LinkedList_AlreadyInitialized","inputs":[]},{"type":"error","name":"LinkedList_EntryAlreadyInList","inputs":[{"name":"entry","type":"address","internalType":"address"}]},{"type":"error","name":"LinkedList_InvalidEntry","inputs":[{"name":"entry","type":"address","internalType":"address"}]},{"type":"error","name":"NotInitialized","inputs":[{"name":"smartAccount","type":"address","internalType":"address"}]},{"type":"error","name":"ThresholdNotSet","inputs":[]},{"type":"error","name":"UnsopportedOperation","inputs":[]},{"type":"error","name":"WrongContractSignature","inputs":[{"name":"contractSignature","type":"bytes","internalType":"bytes"}]},{"type":"error","name":"WrongContractSignatureFormat","inputs":[{"name":"s","type":"uint256","internalType":"uint256"},{"name":"contractSignatureLen","type":"uint256","internalType":"uint256"},{"name":"signaturesLen","type":"uint256","internalType":"uint256"}]}],"bytecode":{"object":"0x6080604052348015600f57600080fd5b506110f38061001f6000396000f3fe608060405234801561001057600080fd5b50600436106100885760003560e01c8063970032031161005b5780639700320314610120578063d60b347f14610141578063ecd059611461017c578063f551e2ee1461019057600080fd5b806306fdde031461008d57806354fd4d50146100d85780636d61fe70146100f95780638a91b0e31461010e575b600080fd5b60408051808201909152601781527f536f6369616c5265636f7665727956616c696461746f7200000000000000000060208201525b6040516100cf9190610c5e565b60405180910390f35b604080518082019091526005815264302e302e3160d81b60208201526100c2565b61010c610107366004610cba565b6101bc565b005b61010c61011c366004610cba565b5050565b61013361012e366004610cfc565b6102c8565b6040519081526020016100cf565b61016c61014f366004610d63565b6001600160a01b0316600090815260016020526040902054151590565b60405190151581526020016100cf565b61016c61018a366004610d7e565b60011490565b6101a361019e366004610d97565b61042f565b6040516001600160e01b031990911681526020016100cf565b6000806101cb83850185610e07565b915091506101d88161044a565b6101e181610456565b81600003610202576040516306968de960e31b815260040160405180910390fd5b8051828110156102255760405163aabd5a0960e01b815260040160405180910390fd5b3360009081526001602052604081208490556102409061045f565b60005b818110156102c057600083828151811061025f5761025f610ed8565b6020026020010151905060006001600160a01b0316816001600160a01b0316036102ac5760405163f38d406d60e01b81526001600160a01b03821660048201526024015b60405180910390fd5b6102b76000826104bc565b50600101610243565b505050505050565b336000908152600160205260408120548082036102e9576001915050610429565b6000610339846102fd610100880188610eee565b8080601f016020809104026020016040519081016040528093929190818152602001838380828437600092019190915250879250610592915050565b90506103448161044a565b61034d81610456565b600080805b83518110156103a25761038784828151811061037057610370610ed8565b60200260200101518461087d90919063ffffffff16565b1561039a578161039681610f4b565b9250505b600101610352565b506000806103b360608a018a610eee565b6103c291600491600091610f64565b6103cb91610f8e565b9050631651a3ad60e01b6001600160e01b03198216016103fd576103fa6103f560608b018b610eee565b6108b9565b91505b85831015801561040a5750815b1561041e5760009650505050505050610429565b600196505050505050505b92915050565b600060405163286b39b560e01b815260040160405180910390fd5b6104538161099c565b50565b61045381610b40565b60016000908152602082905260409020546001600160a01b031615610497576040516329e42f3360e11b815260040160405180910390fd5b60016000818152602092909252604090912080546001600160a01b0319169091179055565b6001600160a01b03811615806104db57506001600160a01b0381166001145b1561050457604051637c84ecfb60e01b81526001600160a01b03821660048201526024016102a3565b6001600160a01b03818116600090815260208490526040902054161561054857604051631034f46960e21b81526001600160a01b03821660048201526024016102a3565b60016000818152602093909352604080842080546001600160a01b039485168087529286208054959091166001600160a01b03199586161790559190935280549091169091179055565b606060006105a1836041610fbc565b84519091508367ffffffffffffffff8111156105bf576105bf610df1565b6040519080825280602002602001820160405280156105e8578160200160208202803683370190505b5092508181101561060c57604051638baa579f60e01b815260040160405180910390fd5b60005b848110156108735760008060008061063f8a86604102016020810151604082015160609092015160001a92909190565b9250925092508260ff166000036107d25790925082906041811015610688576040516338a245ff60e11b81526004810182905260006024820181905260448201526064016102a3565b85610694826020610fd3565b11156106c4576040516338a245ff60e11b81526004810182905260006024820152604481018790526064016102a3565b6020818b0181015190879082906106dc908590610fd3565b6106e69190610fd3565b1115610716576040516338a245ff60e11b81526004810183905260248101829052604481018890526064016102a3565b60606020838d01019050631626ba7e60e01b6001600160e01b031916866001600160a01b0316631626ba7e8f846040518363ffffffff1660e01b8152600401610760929190610fe6565b602060405180830381865afa15801561077d573d6000803e3d6000fd5b505050506040513d601f19601f820116820180604052508101906107a19190611007565b6001600160e01b031916146107cb578060405163605d348960e01b81526004016102a39190610c5e565b5050610838565b601e8360ff161115610829576108226108108c6020527b19457468657265756d205369676e6564204d6573736167653a0a3332600052603c60042090565b61081b600486611031565b8484610b89565b9350610838565b6108358b848484610b89565b93505b8388868151811061084b5761084b610ed8565b6001600160a01b039092166020928302919091019091015250506001909201915061060f9050565b5050509392505050565b600060016001600160a01b038316148015906108b257506001600160a01b038281166000908152602085905260409020541615155b9392505050565b6000806108ca602460048587610f64565b6108d39161104a565b9050806001600160f81b031981166109895760006108fc6108f7866064818a610f64565b610bc7565b505060405163112d3a7d60e01b8152600160048201526001600160a01b03831660248201526060604482015260006064820152919250339163112d3a7d9150608401602060405180830381865afa15801561095b573d6000803e3d6000fd5b505050506040513d601f19601f8201168201806040525081019061097f9190611068565b9350505050610429565b600092505050610429565b505092915050565b601f19602082516000845260405160028210610a2a578285018260051b8601815b85810151815111828214176109d35785016109bd565b8181036109e257505050610a2a565b50805b868101518151116109f75786016109e5565b828103610a1e575b825182518452825291850191908601908183106109ff57505050610a2a565b50908252838201526040015b6040515b808214610b375760408203915081518483015161018082820311610aa2578582018051835110610a615780518351825283525b5b8601818111610a9a5780518882018051828111610a8157505050610a62565b5b818a015289018051828111610a825750880152610a62565b505050610a2e565b81601f1681830160061c60051b0182518251808210610abd57905b8251818110610ac857905b808310610ad157915b835283528352518190835b5b880180518211610add57825b8a0180518310610ae957925082811015610b0a578051835182528352610adc565b50508681018552818782011060061b85019450828552808786015282811160061b85019450505050610a2e565b50509092525050565b6002815110610453576020810160408201600183510160051b83015b8151835114610b7057602083019250815183525b602082019150808203610b5c57505081900360051c9052565b60006040518560005260ff85166020528360405282606052602060406080600060015afa5060006060523d6060185191508060405250949350505050565b6000803681610bd96014828789610f64565b610be29161108a565b60601c9350610bf5603460148789610f64565b610bfe9161104a565b9250610c0d8560348189610f64565b949793965094505050565b6000815180845260005b81811015610c3e57602081850181015186830182015201610c22565b506000602082860101526020601f19601f83011685010191505092915050565b6020815260006108b26020830184610c18565b60008083601f840112610c8357600080fd5b50813567ffffffffffffffff811115610c9b57600080fd5b602083019150836020828501011115610cb357600080fd5b9250929050565b60008060208385031215610ccd57600080fd5b823567ffffffffffffffff811115610ce457600080fd5b610cf085828601610c71565b90969095509350505050565b60008060408385031215610d0f57600080fd5b823567ffffffffffffffff811115610d2657600080fd5b83016101208186031215610d3957600080fd5b946020939093013593505050565b80356001600160a01b0381168114610d5e57600080fd5b919050565b600060208284031215610d7557600080fd5b6108b282610d47565b600060208284031215610d9057600080fd5b5035919050565b60008060008060608587031215610dad57600080fd5b610db685610d47565b935060208501359250604085013567ffffffffffffffff811115610dd957600080fd5b610de587828801610c71565b95989497509550505050565b634e487b7160e01b600052604160045260246000fd5b60008060408385031215610e1a57600080fd5b8235915060208084013567ffffffffffffffff80821115610e3a57600080fd5b818601915086601f830112610e4e57600080fd5b813581811115610e6057610e60610df1565b8060051b604051601f19603f83011681018181108582111715610e8557610e85610df1565b604052918252848201925083810185019189831115610ea357600080fd5b938501935b82851015610ec857610eb985610d47565b84529385019392850192610ea8565b8096505050505050509250929050565b634e487b7160e01b600052603260045260246000fd5b6000808335601e19843603018112610f0557600080fd5b83018035915067ffffffffffffffff821115610f2057600080fd5b602001915036819003821315610cb357600080fd5b634e487b7160e01b600052601160045260246000fd5b600060018201610f5d57610f5d610f35565b5060010190565b60008085851115610f7457600080fd5b83861115610f8157600080fd5b5050820193919092039150565b6001600160e01b031981358181169160048510156109945760049490940360031b84901b1690921692915050565b808202811582820484141761042957610429610f35565b8082018082111561042957610429610f35565b828152604060208201526000610fff6040830184610c18565b949350505050565b60006020828403121561101957600080fd5b81516001600160e01b0319811681146108b257600080fd5b60ff828116828216039081111561042957610429610f35565b8035602083101561042957600019602084900360031b1b1692915050565b60006020828403121561107a57600080fd5b815180151581146108b257600080fd5b6bffffffffffffffffffffffff1981358181169160148510156109945760149490940360031b84901b169092169291505056fea2646970667358221220165b7d25c68c47408182eaf79c9e60cc6535e50460fbc76ad0029a35e03b98a264736f6c63430008190033","linkReferences":{}},"methodIdentifiers":{"isInitialized(address)":"d60b347f","isModuleType(uint256)":"ecd05961","isValidSignatureWithSender(address,bytes32,bytes)":"f551e2ee","name()":"06fdde03","onInstall(bytes)":"6d61fe70","onUninstall(bytes)":"8a91b0e3","validateUserOp((address,uint256,bytes,bytes,bytes32,uint256,bytes32,bytes,bytes),bytes32)":"97003203","version()":"54fd4d50"},"id":20}