{"abi":[{"type":"function","name":"encode","inputs":[{"name":"transaction","type":"tuple","internalType":"struct ERC20Revocation.Token","components":[{"name":"token","type":"address","internalType":"address"},{"name":"tokenType","type":"uint8","internalType":"enum ERC20Revocation.TokenType"},{"name":"sessionKeySigner","type":"address","internalType":"address"}]}],"outputs":[{"name":"","type":"bytes","internalType":"bytes"}],"stateMutability":"pure"},{"type":"function","name":"isInitialized","inputs":[{"name":"smartAccount","type":"address","internalType":"address"}],"outputs":[{"name":"","type":"bool","internalType":"bool"}],"stateMutability":"view"},{"type":"function","name":"isModuleType","inputs":[{"name":"typeID","type":"uint256","internalType":"uint256"}],"outputs":[{"name":"","type":"bool","internalType":"bool"}],"stateMutability":"pure"},{"type":"function","name":"name","inputs":[],"outputs":[{"name":"","type":"string","internalType":"string"}],"stateMutability":"pure"},{"type":"function","name":"onInstall","inputs":[{"name":"data","type":"bytes","internalType":"bytes"}],"outputs":[],"stateMutability":"nonpayable"},{"type":"function","name":"onUninstall","inputs":[{"name":"data","type":"bytes","internalType":"bytes"}],"outputs":[],"stateMutability":"nonpayable"},{"type":"function","name":"validateSessionParams","inputs":[{"name":"to","type":"address","internalType":"address"},{"name":"value","type":"uint256","internalType":"uint256"},{"name":"callData","type":"bytes","internalType":"bytes"},{"name":"sessionKeyData","type":"bytes","internalType":"bytes"},{"name":"","type":"bytes","internalType":"bytes"}],"outputs":[{"name":"","type":"address","internalType":"address"}],"stateMutability":"nonpayable"},{"type":"function","name":"version","inputs":[],"outputs":[{"name":"","type":"string","internalType":"string"}],"stateMutability":"pure"},{"type":"error","name":"AlreadyInitialized","inputs":[{"name":"smartAccount","type":"address","internalType":"address"}]},{"type":"error","name":"InvalidToken","inputs":[]},{"type":"error","name":"NotInitialized","inputs":[{"name":"smartAccount","type":"address","internalType":"address"}]},{"type":"error","name":"NotZero","inputs":[]}],"bytecode":{"object":"0x6080604052348015600f57600080fd5b506107448061001f6000396000f3fe608060405234801561001057600080fd5b50600436106100885760003560e01c8063c20bccb91161005b578063c20bccb9146100fa578063d60b347f14610125578063e6f82d3314610149578063ecd059611461015c57600080fd5b806306fdde031461008d57806354fd4d50146100c55780636d61fe70146100e65780638a91b0e3146100e6575b600080fd5b60408051808201909152600a8152694175746f536176696e6760b01b60208201525b6040516100bc91906103b8565b60405180910390f35b604080518082019091526005815264302e302e3160d81b60208201526100af565b6100f86100f436600461041b565b5050565b005b61010d610108366004610475565b610170565b6040516001600160a01b0390911681526020016100bc565b61013961013336600461052b565b50600090565b60405190151581526020016100bc565b6100af610157366004610548565b61025c565b61013961016a3660046105cc565b60021490565b60008061017f85870187610548565b905060006101906004828a8c6105e5565b6101999161060f565b90508a6001600160a01b031682600001516001600160a01b0316146101d15760405163c1ab6dc160e01b815260040160405180910390fd5b89156101dc57600080fd5b6000826020015160018111156101f4576101f461063f565b0361020957610204818a8a610285565b61024a565b6001826020015160018111156102215761022161063f565b0361023157610204818a8a6102e0565b60405163c1ab6dc160e01b815260040160405180910390fd5b50604001519998505050505050505050565b60608160405160200161026f9190610655565b6040516020818303038152906040529050919050565b63f6a1584d60e01b6001600160e01b03198416016100885760006102ac82600481866105e5565b8101906102b991906106a4565b91505080156102da576040516252b55360e31b815260040160405180910390fd5b50505050565b63f6a1584d60e01b6001600160e01b031984160161033e57600061030782600481866105e5565b81019061031491906106a4565b5090506001600160a01b038116156102da576040516252b55360e31b815260040160405180910390fd5b635dd34b9b60e01b6001600160e01b031984160161008857600061036582600481866105e5565b8101906102b991906106d0565b6000815180845260005b818110156103985760208185018101518683018201520161037c565b506000602082860101526020601f19601f83011685010191505092915050565b6020815260006103cb6020830184610372565b9392505050565b60008083601f8401126103e457600080fd5b50813567ffffffffffffffff8111156103fc57600080fd5b60208301915083602082850101111561041457600080fd5b9250929050565b6000806020838503121561042e57600080fd5b823567ffffffffffffffff81111561044557600080fd5b610451858286016103d2565b90969095509350505050565b6001600160a01b038116811461047257600080fd5b50565b60008060008060008060008060a0898b03121561049157600080fd5b883561049c8161045d565b975060208901359650604089013567ffffffffffffffff808211156104c057600080fd5b6104cc8c838d016103d2565b909850965060608b01359150808211156104e557600080fd5b6104f18c838d016103d2565b909650945060808b013591508082111561050a57600080fd5b506105178b828c016103d2565b999c989b5096995094979396929594505050565b60006020828403121561053d57600080fd5b81356103cb8161045d565b60006060828403121561055a57600080fd5b6040516060810181811067ffffffffffffffff8211171561058b57634e487b7160e01b600052604160045260246000fd5b60405282356105998161045d565b81526020830135600281106105ad57600080fd5b602082015260408301356105c08161045d565b60408201529392505050565b6000602082840312156105de57600080fd5b5035919050565b600080858511156105f557600080fd5b8386111561060257600080fd5b5050820193919092039150565b6001600160e01b031981358181169160048510156106375780818660040360031b1b83161692505b505092915050565b634e487b7160e01b600052602160045260246000fd5b81516001600160a01b03908116825260208301516060830191906002811061068d57634e487b7160e01b600052602160045260246000fd5b602084015260409384015116929091019190915290565b600080604083850312156106b757600080fd5b82356106c28161045d565b946020939093013593505050565b600080604083850312156106e357600080fd5b82356106ee8161045d565b91506020830135801515811461070357600080fd5b80915050925092905056fea26469706673582212207d0e7cae2bc88c4f97f6f3d2b0e34079362f1842ea9e6a08f39eedc13a51868c64736f6c63430008190033","linkReferences":{}},"methodIdentifiers":{"encode((address,uint8,address))":"e6f82d33","isInitialized(address)":"d60b347f","isModuleType(uint256)":"ecd05961","name()":"06fdde03","onInstall(bytes)":"6d61fe70","onUninstall(bytes)":"8a91b0e3","validateSessionParams(address,uint256,bytes,bytes,bytes)":"c20bccb9","version()":"54fd4d50"},"id":21}