{"abi":[{"type":"function","name":"autoSend","inputs":[{"name":"params","type":"tuple","internalType":"struct AutoSendSessionKey.Params","components":[{"name":"token","type":"address","internalType":"address"},{"name":"receiver","type":"address","internalType":"address"},{"name":"amount","type":"uint128","internalType":"uint128"}]}],"outputs":[],"stateMutability":"nonpayable"},{"type":"function","name":"encode","inputs":[{"name":"transaction","type":"tuple","internalType":"struct AutoSendSessionKey.ExecutorAccess","components":[{"name":"sessionKeySigner","type":"address","internalType":"address"},{"name":"token","type":"address","internalType":"address"},{"name":"receiver","type":"address","internalType":"address"}]}],"outputs":[{"name":"","type":"bytes","internalType":"bytes"}],"stateMutability":"pure"},{"type":"function","name":"getSpentLog","inputs":[{"name":"account","type":"address","internalType":"address"},{"name":"token","type":"address","internalType":"address"}],"outputs":[{"name":"","type":"tuple","internalType":"struct AutoSendSessionKey.SpentLog","components":[{"name":"spent","type":"uint128","internalType":"uint128"},{"name":"maxAmount","type":"uint128","internalType":"uint128"}]}],"stateMutability":"view"},{"type":"function","name":"isInitialized","inputs":[{"name":"smartAccount","type":"address","internalType":"address"}],"outputs":[{"name":"","type":"bool","internalType":"bool"}],"stateMutability":"view"},{"type":"function","name":"isModuleType","inputs":[{"name":"typeID","type":"uint256","internalType":"uint256"}],"outputs":[{"name":"","type":"bool","internalType":"bool"}],"stateMutability":"pure"},{"type":"function","name":"name","inputs":[],"outputs":[{"name":"","type":"string","internalType":"string"}],"stateMutability":"pure"},{"type":"function","name":"onInstall","inputs":[{"name":"data","type":"bytes","internalType":"bytes"}],"outputs":[],"stateMutability":"nonpayable"},{"type":"function","name":"onUninstall","inputs":[{"name":"data","type":"bytes","internalType":"bytes"}],"outputs":[],"stateMutability":"nonpayable"},{"type":"function","name":"validateSessionParams","inputs":[{"name":"destinationContract","type":"address","internalType":"address"},{"name":"callValue","type":"uint256","internalType":"uint256"},{"name":"callData","type":"bytes","internalType":"bytes"},{"name":"_sessionKeyData","type":"bytes","internalType":"bytes"},{"name":"","type":"bytes","internalType":"bytes"}],"outputs":[{"name":"","type":"address","internalType":"address"}],"stateMutability":"nonpayable"},{"type":"function","name":"version","inputs":[],"outputs":[{"name":"","type":"string","internalType":"string"}],"stateMutability":"pure"},{"type":"error","name":"AlreadyInitialized","inputs":[{"name":"smartAccount","type":"address","internalType":"address"}]},{"type":"error","name":"NotInitialized","inputs":[{"name":"smartAccount","type":"address","internalType":"address"}]}],"bytecode":{"object":"0x6080604052348015600f57600080fd5b50610e108061001f6000396000f3fe608060405234801561001057600080fd5b506004361061009e5760003560e01c8063b9004b7111610066578063b9004b71146101b2578063c20bccb9146101c5578063d60b347f146101f0578063ebcc501a14610214578063ecd059611461022757600080fd5b806306fdde03146100a357806354fd4d50146100d95780635b087510146100fa5780636d61fe701461018b5780638a91b0e3146101a0575b600080fd5b604080518082019091526008815267105d5d1bd4d95b9960c21b60208201525b6040516100d091906106e2565b60405180910390f35b604080518082019091526005815264302e302e3160d81b60208201526100c3565b610164610108366004610718565b604080518082018252600080825260209182018190526001600160a01b039485168152808252828120939094168452918252918290208251808401909352546001600160801b038082168452600160801b909104169082015290565b6040805182516001600160801b0390811682526020938401511692810192909252016100d0565b61019e610199366004610794565b61023b565b005b61019e6101ae366004610794565b5050565b61019e6101c03660046107d6565b6102ff565b6101d86101d33660046107ee565b6104b0565b6040516001600160a01b0390911681526020016100d0565b6102046101fe3660046108a2565b50600090565b60405190151581526020016100d0565b6100c3610222366004610950565b610592565b61020461023536600461099e565b60021490565b60008061024a83850185610a8f565b9150915060005b82518110156102f85781818151811061026c5761026c610b4f565b6020026020010151600080336001600160a01b03166001600160a01b0316815260200190815260200160002060008584815181106102ac576102ac610b4f565b6020908102919091018101516001600160a01b0316825281810192909252604001600020825192909101516001600160801b03908116600160801b029216919091179055600101610251565b5050505050565b33600081815260208181526040822090829061031d908601866108a2565b6001600160a01b03166001600160a01b03168152602001908152602001600020905060008360400160208101906103549190610b65565b825461036991906001600160801b0316610b80565b82549091506001600160801b03600160801b9091048116908216111561038e57600080fd5b81546fffffffffffffffffffffffffffffffff19166001600160801b0382161782556001600160a01b03831663d691c9646103c76105e5565b61044c6103d760208901896108a2565b60006103e960408b0160208c016108a2565b6103f960608c0160408d01610b65565b6040516001600160a01b0390921660248301526001600160801b0316604482015260640160408051601f198184030181529190526020810180516001600160e01b031663a9059cbb60e01b1790526105f8565b6040518363ffffffff1660e01b8152600401610469929190610bb5565b6000604051808303816000875af1158015610488573d6000803e3d6000fd5b505050506040513d6000823e601f3d908101601f191682016040526102f89190810190610bd6565b6000806104bf85870187610950565b905060006104d06004828a8c610cdb565b6104d991610d05565b905060006104ea896004818d610cdb565b8101906104f79190610d35565b90506001600160e01b0319821663b9004b7160e01b1461051657600080fd5b82604001516001600160a01b031681602001516001600160a01b03161461053c57600080fd5b6001600160a01b038c16301461055157600080fd5b82602001516001600160a01b031681600001516001600160a01b03161461057757600080fd5b8a1561058257600080fd5b5050519998505050505050505050565b6060816040516020016105cf919081516001600160a01b039081168252602080840151821690830152604092830151169181019190915260600190565b6040516020818303038152906040529050919050565b60006105f381808080610627565b905090565b606083838360405160200161060f93929190610d77565b60405160208183030381529060405290509392505050565b604080516001600160f81b03198087166020830152851660218201526000602282018190526001600160e01b03198516602683015269ffffffffffffffffffff198416602a830152910160405160208183030381529060405261068990610db6565b95945050505050565b60005b838110156106ad578181015183820152602001610695565b50506000910152565b600081518084526106ce816020860160208601610692565b601f01601f19169290920160200192915050565b6020815260006106f560208301846106b6565b9392505050565b80356001600160a01b038116811461071357600080fd5b919050565b6000806040838503121561072b57600080fd5b610734836106fc565b9150610742602084016106fc565b90509250929050565b60008083601f84011261075d57600080fd5b50813567ffffffffffffffff81111561077557600080fd5b60208301915083602082850101111561078d57600080fd5b9250929050565b600080602083850312156107a757600080fd5b823567ffffffffffffffff8111156107be57600080fd5b6107ca8582860161074b565b90969095509350505050565b6000606082840312156107e857600080fd5b50919050565b60008060008060008060008060a0898b03121561080a57600080fd5b610813896106fc565b975060208901359650604089013567ffffffffffffffff8082111561083757600080fd5b6108438c838d0161074b565b909850965060608b013591508082111561085c57600080fd5b6108688c838d0161074b565b909650945060808b013591508082111561088157600080fd5b5061088e8b828c0161074b565b999c989b5096995094979396929594505050565b6000602082840312156108b457600080fd5b6106f5826106fc565b634e487b7160e01b600052604160045260246000fd5b6040516060810167ffffffffffffffff811182821017156108f6576108f66108bd565b60405290565b6040805190810167ffffffffffffffff811182821017156108f6576108f66108bd565b604051601f8201601f1916810167ffffffffffffffff81118282101715610948576109486108bd565b604052919050565b60006060828403121561096257600080fd5b61096a6108d3565b610973836106fc565b8152610981602084016106fc565b6020820152610992604084016106fc565b60408201529392505050565b6000602082840312156109b057600080fd5b5035919050565b600067ffffffffffffffff8211156109d1576109d16108bd565b5060051b60200190565b80356001600160801b038116811461071357600080fd5b600082601f830112610a0357600080fd5b81356020610a18610a13836109b7565b61091f565b82815260069290921b84018101918181019086841115610a3757600080fd5b8286015b84811015610a845760408189031215610a545760008081fd5b610a5c6108fc565b610a65826109db565b8152610a728583016109db565b81860152835291830191604001610a3b565b509695505050505050565b60008060408385031215610aa257600080fd5b823567ffffffffffffffff80821115610aba57600080fd5b818501915085601f830112610ace57600080fd5b81356020610ade610a13836109b7565b82815260059290921b84018101918181019089841115610afd57600080fd5b948201945b83861015610b2257610b13866106fc565b82529482019490820190610b02565b96505086013592505080821115610b3857600080fd5b50610b45858286016109f2565b9150509250929050565b634e487b7160e01b600052603260045260246000fd5b600060208284031215610b7757600080fd5b6106f5826109db565b6001600160801b03818116838216019080821115610bae57634e487b7160e01b600052601160045260246000fd5b5092915050565b828152604060208201526000610bce60408301846106b6565b949350505050565b60006020808385031215610be957600080fd5b825167ffffffffffffffff80821115610c0157600080fd5b8185019150601f86601f840112610c1757600080fd5b8251610c25610a13826109b7565b81815260059190911b84018501908581019089831115610c4457600080fd5b8686015b83811015610ccd57805186811115610c605760008081fd5b8701603f81018c13610c725760008081fd5b88810151604088821115610c8857610c886108bd565b610c99828901601f19168c0161091f565b8281528e82848601011115610cae5760008081fd5b610cbd838d8301848701610692565b8652505050918701918701610c48565b509998505050505050505050565b60008085851115610ceb57600080fd5b83861115610cf857600080fd5b5050820193919092039150565b6001600160e01b03198135818116916004851015610d2d5780818660040360031b1b83161692505b505092915050565b600060608284031215610d4757600080fd5b610d4f6108d3565b610d58836106fc565b8152610d66602084016106fc565b6020820152610992604084016109db565b6bffffffffffffffffffffffff198460601b16815282601482015260008251610da7816034850160208701610692565b91909101603401949350505050565b805160208083015191908110156107e85760001960209190910360031b1b1691905056fea26469706673582212202f19d334b3d7d922f627a78eb4493ebe185527480f0c356f978c73c3fe1906fc64736f6c63430008190033","linkReferences":{}},"methodIdentifiers":{"autoSend((address,address,uint128))":"b9004b71","encode((address,address,address))":"ebcc501a","getSpentLog(address,address)":"5b087510","isInitialized(address)":"d60b347f","isModuleType(uint256)":"ecd05961","name()":"06fdde03","onInstall(bytes)":"6d61fe70","onUninstall(bytes)":"8a91b0e3","validateSessionParams(address,uint256,bytes,bytes,bytes)":"c20bccb9","version()":"54fd4d50"},"id":5}