{"abi":[{"type":"function","name":"set","inputs":[{"name":"_value","type":"uint256","internalType":"uint256"}],"outputs":[{"name":"","type":"uint256","internalType":"uint256"}],"stateMutability":"nonpayable"},{"type":"function","name":"setAccessControl","inputs":[{"name":"_value","type":"uint256","internalType":"uint256"}],"outputs":[{"name":"","type":"uint256","internalType":"uint256"}],"stateMutability":"nonpayable"},{"type":"function","name":"value","inputs":[],"outputs":[{"name":"","type":"uint256","internalType":"uint256"}],"stateMutability":"view"}],"bytecode":{"object":"0x6080604052348015600f57600080fd5b506101288061001f6000396000f3fe6080604052348015600f57600080fd5b5060043610603c5760003560e01c80633fa4f245146041578063544ecade14605b57806360fe47b114606a575b600080fd5b604960005481565b60405190815260200160405180910390f35b6049606636600460da565b607d565b6049607536600460da565b600081905590565b600033301460d15760405162461bcd60e51b815260206004820152601a60248201527f4d6f636b5461726765743a206e6f7420617574686f72697a6564000000000000604482015260640160405180910390fd5b50600081905590565b60006020828403121560eb57600080fd5b503591905056fea264697066735822122065d9e0787e437eedb53645ed292321cc98c585b27140250d2db875093a85a54564736f6c63430008190033","linkReferences":{}},"methodIdentifiers":{"set(uint256)":"60fe47b1","setAccessControl(uint256)":"544ecade","value()":"3fa4f245"},"id":82}