{"abi":[{"type":"function","name":"dca","inputs":[{"name":"params","type":"tuple","internalType":"struct DollarCostAverage.Params","components":[{"name":"tokenIn","type":"address","internalType":"address"},{"name":"tokenOut","type":"address","internalType":"address"},{"name":"amount","type":"uint128","internalType":"uint128"}]}],"outputs":[],"stateMutability":"nonpayable"},{"type":"function","name":"encode","inputs":[{"name":"transaction","type":"tuple","internalType":"struct DollarCostAverage.ScopedAccess","components":[{"name":"sessionKeySigner","type":"address","internalType":"address"},{"name":"onlyTokenIn","type":"address","internalType":"address"},{"name":"onlyTokenOut","type":"address","internalType":"address"},{"name":"maxAmount","type":"uint256","internalType":"uint256"}]}],"outputs":[{"name":"","type":"bytes","internalType":"bytes"}],"stateMutability":"pure"},{"type":"function","name":"getSpentLog","inputs":[{"name":"account","type":"address","internalType":"address"},{"name":"token","type":"address","internalType":"address"}],"outputs":[{"name":"","type":"tuple","internalType":"struct DollarCostAverage.SpentLog","components":[{"name":"spent","type":"uint128","internalType":"uint128"},{"name":"maxAmount","type":"uint128","internalType":"uint128"}]}],"stateMutability":"view"},{"type":"function","name":"isInitialized","inputs":[{"name":"smartAccount","type":"address","internalType":"address"}],"outputs":[{"name":"","type":"bool","internalType":"bool"}],"stateMutability":"view"},{"type":"function","name":"isModuleType","inputs":[{"name":"typeID","type":"uint256","internalType":"uint256"}],"outputs":[{"name":"","type":"bool","internalType":"bool"}],"stateMutability":"pure"},{"type":"function","name":"name","inputs":[],"outputs":[{"name":"","type":"string","internalType":"string"}],"stateMutability":"pure"},{"type":"function","name":"onInstall","inputs":[{"name":"data","type":"bytes","internalType":"bytes"}],"outputs":[],"stateMutability":"nonpayable"},{"type":"function","name":"onUninstall","inputs":[{"name":"data","type":"bytes","internalType":"bytes"}],"outputs":[],"stateMutability":"nonpayable"},{"type":"function","name":"validateSessionParams","inputs":[{"name":"destinationContract","type":"address","internalType":"address"},{"name":"callValue","type":"uint256","internalType":"uint256"},{"name":"callData","type":"bytes","internalType":"bytes"},{"name":"_sessionKeyData","type":"bytes","internalType":"bytes"},{"name":"","type":"bytes","internalType":"bytes"}],"outputs":[{"name":"","type":"address","internalType":"address"}],"stateMutability":"nonpayable"},{"type":"function","name":"version","inputs":[],"outputs":[{"name":"","type":"string","internalType":"string"}],"stateMutability":"pure"},{"type":"error","name":"AlreadyInitialized","inputs":[{"name":"smartAccount","type":"address","internalType":"address"}]},{"type":"error","name":"InvalidParams","inputs":[]},{"type":"error","name":"NotInitialized","inputs":[{"name":"smartAccount","type":"address","internalType":"address"}]}],"bytecode":{"object":"0x6080604052348015600f57600080fd5b506110458061001f6000396000f3fe608060405234801561001057600080fd5b506004361061009e5760003560e01c80636d61fe70116100665780636d61fe70146101bc5780638a91b0e3146101cf578063c20bccb9146101e1578063d60b347f1461020c578063ecd059611461023057600080fd5b806304869a92146100a357806306fdde03146100b85780633040226a146100f757806354fd4d501461010a5780635b0875101461012b575b600080fd5b6100b66100b136600461087a565b610244565b005b604080518082019091526011815270446f6c6c6172436f73744176657261676560781b60208201525b6040516100ee91906108e2565b60405180910390f35b6100e1610105366004610988565b610399565b604080518082019091526005815264302e302e3160d81b60208201526100e1565b610195610139366004610a01565b604080518082018252600080825260209182018190526001600160a01b039485168152808252828120939094168452918252918290208251808401909352546001600160801b038082168452600160801b909104169082015290565b6040805182516001600160801b0390811682526020938401511692810192909252016100ee565b6100b66101ca366004610a7d565b6103f0565b6100b66101dd366004610a7d565b5050565b6101f46101ef366004610abf565b6104b4565b6040516001600160a01b0390911681526020016100ee565b61022061021a366004610b73565b50600090565b60405190151581526020016100ee565b61022061023e366004610b8e565b60021490565b336000610288826102586020860186610b73565b6102686040870160208801610b73565b6102786060880160408901610bbe565b6001600160801b03166000610598565b905061029a6060840160408501610bbe565b33600090815260208181526040822091906102b790870187610b73565b6001600160a01b031681526020810191909152604001600090812080549091906102eb9084906001600160801b0316610bd9565b92506101000a8154816001600160801b0302191690836001600160801b03160217905550816001600160a01b031663d691c96461032661063c565b61032f84610653565b6040518363ffffffff1660e01b815260040161034c929190610c0e565b6000604051808303816000875af115801561036b573d6000803e3d6000fd5b505050506040513d6000823e601f3d908101601f191682016040526103939190810190610c53565b50505050565b6040805182516001600160a01b03908116602080840191909152840151811682840152918301519091166060828101919091528281015160808301529060a0015b6040516020818303038152906040529050919050565b6000806103ff83850185610df5565b9150915060005b82518110156104ad5781818151811061042157610421610eb5565b6020026020010151600080336001600160a01b03166001600160a01b03168152602001908152602001600020600085848151811061046157610461610eb5565b6020908102919091018101516001600160a01b0316825281810192909252604001600020825192909101516001600160801b03908116600160801b029216919091179055600101610406565b5050505050565b6000806104c385870187610988565b905060006104d4886004818c610ecb565b8101906104e19190610ef5565b905081602001516001600160a01b031681600001516001600160a01b03161461051d57604051635435b28960e11b815260040160405180910390fd5b81604001516001600160a01b031681602001516001600160a01b03161461055757604051635435b28960e11b815260040160405180910390fd5b816060015181604001516001600160801b0316111561058957604051635435b28960e11b815260040160405180910390fd5b50519998505050505050505050565b6040805160028082526060828101909352816020015b6105b6610850565b8152602001906001900390816105ae5790505090506105ea8573e592427a0aece92de3edee1f18e0157c0586156485610666565b816000815181106105fd576105fd610eb5565b602002602001018190525061061586868686866106d9565b8160018151811061062857610628610eb5565b602002602001018190525095945050505050565b600061064e600160f81b8280806107e5565b905090565b6060816040516020016103da9190610f61565b61066e610850565b604080516060810182526001600160a01b038087168252600060208301528251908616602482015260448101859052909182019060640160408051601f198184030181529190526020810180516001600160e01b031663095ea7b360e01b1790529052949350505050565b6106e1610850565b604080516060808201835273e592427a0aece92de3edee1f18e0157c058615648252600060208084018290528451610100810186526001600160a01b038b81168083528b8216938301938452610bb88389019081528e8316968401968752426080850190815260a085018d815260c086019788528c851660e09096019586528a516024810194909452955184166044840152905162ffffff166064830152955182166084820152945160a4860152915160c4850152915160e484015290511661010482015290918201906101240160408051601f198184030181529190526020810180516001600160e01b031663414bf38960e01b17905290529695505050505050565b604080516001600160f81b03198087166020830152851660218201526000602282018190526001600160e01b03198516602683015269ffffffffffffffffffff198416602a830152910160405160208183030381529060405261084790610feb565b95945050505050565b604051806060016040528060006001600160a01b0316815260200160008152602001606081525090565b60006060828403121561088c57600080fd5b50919050565b60005b838110156108ad578181015183820152602001610895565b50506000910152565b600081518084526108ce816020860160208601610892565b601f01601f19169290920160200192915050565b6020815260006108f560208301846108b6565b9392505050565b634e487b7160e01b600052604160045260246000fd5b6040805190810167ffffffffffffffff81118282101715610935576109356108fc565b60405290565b604051601f8201601f1916810167ffffffffffffffff81118282101715610964576109646108fc565b604052919050565b80356001600160a01b038116811461098357600080fd5b919050565b60006080828403121561099a57600080fd5b6040516080810181811067ffffffffffffffff821117156109bd576109bd6108fc565b6040526109c98361096c565b81526109d76020840161096c565b60208201526109e86040840161096c565b6040820152606083013560608201528091505092915050565b60008060408385031215610a1457600080fd5b610a1d8361096c565b9150610a2b6020840161096c565b90509250929050565b60008083601f840112610a4657600080fd5b50813567ffffffffffffffff811115610a5e57600080fd5b602083019150836020828501011115610a7657600080fd5b9250929050565b60008060208385031215610a9057600080fd5b823567ffffffffffffffff811115610aa757600080fd5b610ab385828601610a34565b90969095509350505050565b60008060008060008060008060a0898b031215610adb57600080fd5b610ae48961096c565b975060208901359650604089013567ffffffffffffffff80821115610b0857600080fd5b610b148c838d01610a34565b909850965060608b0135915080821115610b2d57600080fd5b610b398c838d01610a34565b909650945060808b0135915080821115610b5257600080fd5b50610b5f8b828c01610a34565b999c989b5096995094979396929594505050565b600060208284031215610b8557600080fd5b6108f58261096c565b600060208284031215610ba057600080fd5b5035919050565b80356001600160801b038116811461098357600080fd5b600060208284031215610bd057600080fd5b6108f582610ba7565b6001600160801b03818116838216019080821115610c0757634e487b7160e01b600052601160045260246000fd5b5092915050565b828152604060208201526000610c2760408301846108b6565b949350505050565b600067ffffffffffffffff821115610c4957610c496108fc565b5060051b60200190565b60006020808385031215610c6657600080fd5b825167ffffffffffffffff80821115610c7e57600080fd5b8185019150601f86601f840112610c9457600080fd5b8251610ca7610ca282610c2f565b61093b565b81815260059190911b84018501908581019089831115610cc657600080fd5b8686015b83811015610d4f57805186811115610ce25760008081fd5b8701603f81018c13610cf45760008081fd5b88810151604088821115610d0a57610d0a6108fc565b610d1b828901601f19168c0161093b565b8281528e82848601011115610d305760008081fd5b610d3f838d8301848701610892565b8652505050918701918701610cca565b509998505050505050505050565b600082601f830112610d6e57600080fd5b81356020610d7e610ca283610c2f565b82815260069290921b84018101918181019086841115610d9d57600080fd5b8286015b84811015610dea5760408189031215610dba5760008081fd5b610dc2610912565b610dcb82610ba7565b8152610dd8858301610ba7565b81860152835291830191604001610da1565b509695505050505050565b60008060408385031215610e0857600080fd5b823567ffffffffffffffff80821115610e2057600080fd5b818501915085601f830112610e3457600080fd5b81356020610e44610ca283610c2f565b82815260059290921b84018101918181019089841115610e6357600080fd5b948201945b83861015610e8857610e798661096c565b82529482019490820190610e68565b96505086013592505080821115610e9e57600080fd5b50610eab85828601610d5d565b9150509250929050565b634e487b7160e01b600052603260045260246000fd5b60008085851115610edb57600080fd5b83861115610ee857600080fd5b5050820193919092039150565b600060608284031215610f0757600080fd5b6040516060810181811067ffffffffffffffff82111715610f2a57610f2a6108fc565b604052610f368361096c565b8152610f446020840161096c565b6020820152610f5560408401610ba7565b60408201529392505050565b600060208083018184528085518083526040925060408601915060408160051b87010184880160005b83811015610fdd57888303603f19018552815180516001600160a01b0316845287810151888501528601516060878501819052610fc9818601836108b6565b968901969450505090860190600101610f8a565b509098975050505050505050565b8051602080830151919081101561088c5760001960209190910360031b1b1691905056fea2646970667358221220dde2ea6351aa167f438a90f1b624b48bde967224888f8ac7b5500bf7bc0bb7bf64736f6c63430008190033","linkReferences":{}},"methodIdentifiers":{"dca((address,address,uint128))":"04869a92","encode((address,address,address,uint256))":"3040226a","getSpentLog(address,address)":"5b087510","isInitialized(address)":"d60b347f","isModuleType(uint256)":"ecd05961","name()":"06fdde03","onInstall(bytes)":"6d61fe70","onUninstall(bytes)":"8a91b0e3","validateSessionParams(address,uint256,bytes,bytes,bytes)":"c20bccb9","version()":"54fd4d50"},"id":12}