{"abi":[{"type":"fallback","stateMutability":"payable"},{"type":"receive","stateMutability":"payable"},{"type":"function","name":"accountId","inputs":[],"outputs":[{"name":"","type":"string","internalType":"string"}],"stateMutability":"view"},{"type":"function","name":"entryPoint","inputs":[],"outputs":[{"name":"","type":"address","internalType":"address"}],"stateMutability":"view"},{"type":"function","name":"execute","inputs":[{"name":"mode","type":"bytes32","internalType":"ModeCode"},{"name":"executionCalldata","type":"bytes","internalType":"bytes"}],"outputs":[],"stateMutability":"payable"},{"type":"function","name":"executeFromExecutor","inputs":[{"name":"mode","type":"bytes32","internalType":"ModeCode"},{"name":"executionCalldata","type":"bytes","internalType":"bytes"}],"outputs":[{"name":"returnData","type":"bytes[]","internalType":"bytes[]"}],"stateMutability":"payable"},{"type":"function","name":"executeUserOp","inputs":[{"name":"userOp","type":"tuple","internalType":"struct PackedUserOperation","components":[{"name":"sender","type":"address","internalType":"address"},{"name":"nonce","type":"uint256","internalType":"uint256"},{"name":"initCode","type":"bytes","internalType":"bytes"},{"name":"callData","type":"bytes","internalType":"bytes"},{"name":"accountGasLimits","type":"bytes32","internalType":"bytes32"},{"name":"preVerificationGas","type":"uint256","internalType":"uint256"},{"name":"gasFees","type":"bytes32","internalType":"bytes32"},{"name":"paymasterAndData","type":"bytes","internalType":"bytes"},{"name":"signature","type":"bytes","internalType":"bytes"}]},{"name":"userOpHash","type":"bytes32","internalType":"bytes32"}],"outputs":[],"stateMutability":"payable"},{"type":"function","name":"getActiveFallbackHandler","inputs":[{"name":"functionSig","type":"bytes4","internalType":"bytes4"}],"outputs":[{"name":"","type":"tuple","internalType":"struct ModuleManager.FallbackHandler","components":[{"name":"handler","type":"address","internalType":"address"},{"name":"calltype","type":"bytes1","internalType":"CallType"}]}],"stateMutability":"view"},{"type":"function","name":"getActiveHook","inputs":[],"outputs":[{"name":"hook","type":"address","internalType":"address"}],"stateMutability":"view"},{"type":"function","name":"getExecutorsPaginated","inputs":[{"name":"cursor","type":"address","internalType":"address"},{"name":"size","type":"uint256","internalType":"uint256"}],"outputs":[{"name":"array","type":"address[]","internalType":"address[]"},{"name":"next","type":"address","internalType":"address"}],"stateMutability":"view"},{"type":"function","name":"getValidatorPaginated","inputs":[{"name":"cursor","type":"address","internalType":"address"},{"name":"size","type":"uint256","internalType":"uint256"}],"outputs":[{"name":"array","type":"address[]","internalType":"address[]"},{"name":"next","type":"address","internalType":"address"}],"stateMutability":"view"},{"type":"function","name":"initializeAccount","inputs":[{"name":"data","type":"bytes","internalType":"bytes"}],"outputs":[],"stateMutability":"payable"},{"type":"function","name":"installModule","inputs":[{"name":"moduleTypeId","type":"uint256","internalType":"uint256"},{"name":"module","type":"address","internalType":"address"},{"name":"initData","type":"bytes","internalType":"bytes"}],"outputs":[],"stateMutability":"payable"},{"type":"function","name":"isModuleInstalled","inputs":[{"name":"moduleTypeId","type":"uint256","internalType":"uint256"},{"name":"module","type":"address","internalType":"address"},{"name":"additionalContext","type":"bytes","internalType":"bytes"}],"outputs":[{"name":"","type":"bool","internalType":"bool"}],"stateMutability":"view"},{"type":"function","name":"isValidSignature","inputs":[{"name":"hash","type":"bytes32","internalType":"bytes32"},{"name":"data","type":"bytes","internalType":"bytes"}],"outputs":[{"name":"","type":"bytes4","internalType":"bytes4"}],"stateMutability":"view"},{"type":"function","name":"supportsExecutionMode","inputs":[{"name":"mode","type":"bytes32","internalType":"ModeCode"}],"outputs":[{"name":"isSupported","type":"bool","internalType":"bool"}],"stateMutability":"view"},{"type":"function","name":"supportsModule","inputs":[{"name":"modulTypeId","type":"uint256","internalType":"uint256"}],"outputs":[{"name":"","type":"bool","internalType":"bool"}],"stateMutability":"view"},{"type":"function","name":"uninstallModule","inputs":[{"name":"moduleTypeId","type":"uint256","internalType":"uint256"},{"name":"module","type":"address","internalType":"address"},{"name":"deInitData","type":"bytes","internalType":"bytes"}],"outputs":[],"stateMutability":"payable"},{"type":"function","name":"validateUserOp","inputs":[{"name":"userOp","type":"tuple","internalType":"struct PackedUserOperation","components":[{"name":"sender","type":"address","internalType":"address"},{"name":"nonce","type":"uint256","internalType":"uint256"},{"name":"initCode","type":"bytes","internalType":"bytes"},{"name":"callData","type":"bytes","internalType":"bytes"},{"name":"accountGasLimits","type":"bytes32","internalType":"bytes32"},{"name":"preVerificationGas","type":"uint256","internalType":"uint256"},{"name":"gasFees","type":"bytes32","internalType":"bytes32"},{"name":"paymasterAndData","type":"bytes","internalType":"bytes"},{"name":"signature","type":"bytes","internalType":"bytes"}]},{"name":"userOpHash","type":"bytes32","internalType":"bytes32"},{"name":"missingAccountFunds","type":"uint256","internalType":"uint256"}],"outputs":[{"name":"validSignature","type":"uint256","internalType":"uint256"}],"stateMutability":"payable"},{"type":"event","name":"ModuleInstalled","inputs":[{"name":"moduleTypeId","type":"uint256","indexed":false,"internalType":"uint256"},{"name":"module","type":"address","indexed":false,"internalType":"address"}],"anonymous":false},{"type":"event","name":"ModuleUninstalled","inputs":[{"name":"moduleTypeId","type":"uint256","indexed":false,"internalType":"uint256"},{"name":"module","type":"address","indexed":false,"internalType":"address"}],"anonymous":false},{"type":"event","name":"TryExecuteUnsuccessful","inputs":[{"name":"batchExecutionindex","type":"uint256","indexed":false,"internalType":"uint256"},{"name":"result","type":"bytes","indexed":false,"internalType":"bytes"}],"anonymous":false},{"type":"error","name":"AccountAccessUnauthorized","inputs":[]},{"type":"error","name":"AccountInitializationFailed","inputs":[]},{"type":"error","name":"CannotRemoveLastValidator","inputs":[]},{"type":"error","name":"ExecutionFailed","inputs":[]},{"type":"error","name":"HookAlreadyInstalled","inputs":[{"name":"currentHook","type":"address","internalType":"address"}]},{"type":"error","name":"HookPostCheckFailed","inputs":[]},{"type":"error","name":"InvalidModule","inputs":[{"name":"module","type":"address","internalType":"address"}]},{"type":"error","name":"LinkedList_AlreadyInitialized","inputs":[]},{"type":"error","name":"LinkedList_EntryAlreadyInList","inputs":[{"name":"entry","type":"address","internalType":"address"}]},{"type":"error","name":"LinkedList_InvalidEntry","inputs":[{"name":"entry","type":"address","internalType":"address"}]},{"type":"error","name":"LinkedList_InvalidPage","inputs":[]},{"type":"error","name":"MismatchModuleTypeId","inputs":[{"name":"moduleTypeId","type":"uint256","internalType":"uint256"}]},{"type":"error","name":"NoFallbackHandler","inputs":[{"name":"selector","type":"bytes4","internalType":"bytes4"}]},{"type":"error","name":"UnsupportedCallType","inputs":[{"name":"callType","type":"bytes1","internalType":"CallType"}]},{"type":"error","name":"UnsupportedExecType","inputs":[{"name":"execType","type":"bytes1","internalType":"ExecType"}]},{"type":"error","name":"UnsupportedModuleType","inputs":[{"name":"moduleTypeId","type":"uint256","internalType":"uint256"}]}],"bytecode":{"object":"0x6080604052348015600f57600080fd5b506131aa8061001f6000396000f3fe6080604052600436106101025760003560e01c80639cfd7cff11610095578063d691c96411610064578063d691c9641461041b578063e9ae5c531461043b578063ea5f61d01461044e578063eac9b20d1461046e578063f2dc691d1461052457610109565b80639cfd7cff14610379578063a71763a8146103c5578063b0d691fe146103d8578063d03c7914146103fb57610109565b80634b6a1419116100d15780634b6a14191461031257806385571368146103255780638dd7712f146103535780639517e29f1461036657610109565b80630a664dba14610256578063112d3a7d146102885780631626ba7e146102b857806319822f7c146102f157610109565b3661010957005b60003560e01c63bc197c81811463f23a6e6182141763150b7a028214171561013557806020526020603cf35b50600080356001600160e01b03191681526000805160206130f58339815191526020526040902080546001600160a01b03811690600160a01b900460f81b816101a457604051632464e76d60e11b81526001600160e01b03196000351660048201526024015b60405180910390fd5b6101b281607f60f91b610544565b156102065760408051368101909152366000823760408051601481019091523360601b90526000803660140183865afa90506101f43d60408051918201905290565b3d6000823e81610202573d81fd5b3d81f35b610211816000610544565b156102545760408051368101909152366000823760408051601481019091523360601b9052600080366014018382875af190506101f43d60408051918201905290565b005b34801561026257600080fd5b5061026b61055b565b6040516001600160a01b0390911681526020015b60405180910390f35b34801561029457600080fd5b506102a86102a3366004612876565b610578565b604051901515815260200161027f565b3480156102c457600080fd5b506102d86102d33660046128d1565b61060e565b6040516001600160e01b0319909116815260200161027f565b6103046102ff366004612935565b6106e4565b60405190815260200161027f565b610254610320366004612982565b6107ca565b34801561033157600080fd5b506103456103403660046129c3565b610854565b60405161027f9291906129ef565b610254610361366004612a52565b61087f565b610254610374366004612876565b61094f565b34801561038557600080fd5b50604080518082018252601b81527f754d53412e616476616e6365642f77697468486f6f6b2e76302e3100000000006020820152905161027f9190612ae6565b6102546103d3366004612876565b610d0b565b3480156103e457600080fd5b506f71727de22e5e9d8baf0edac6f37da03261026b565b34801561040757600080fd5b506102a8610416366004612af9565b610f09565b61042e6104293660046128d1565b610fa8565b60405161027f9190612b12565b6102546104493660046128d1565b6115d3565b34801561045a57600080fd5b506103456104693660046129c3565b611a1d565b34801561047a57600080fd5b506104f6610489366004612b8c565b604080518082018252600080825260209182018190526001600160e01b03199390931683526000805160206130f58339815191528152918190208151808301909252546001600160a01b0381168252600160a01b900460f81b6001600160f81b0319169181019190915290565b6040805182516001600160a01b031681526020928301516001600160f81b031916928101929092520161027f565b34801561053057600080fd5b506102a861053f366004612af9565b611a3b565b6001600160f81b0319828116908216145b92915050565b60006105736000805160206131358339815191525490565b905090565b6000600185036105925761058b84611a8a565b9050610606565b600285036105a35761058b84611aac565b600385036105f15761058b6105ba83850185612b8c565b6001600160e01b03191660009081526000805160206130f583398151915260205260409020546001600160a01b0386811691161490565b600485036106025761058b84611ac7565b5060005b949350505050565b60008061061e6014828587612ba9565b61062791612bd3565b60601c905061063581611a8a565b61065d57604051635c93ff2f60e11b81526001600160a01b038216600482015260240161019b565b6001600160a01b03811663f551e2ee338761067b876014818b612ba9565b6040518563ffffffff1660e01b815260040161069a9493929190612c2f565b602060405180830381865afa1580156106b7573d6000803e3d6000fd5b505050506040513d601f19601f820116820180604052508101906106db9190612c61565b95945050505050565b6000336f71727de22e5e9d8baf0edac6f37da0321461071657604051635629665f60e11b815260040160405180910390fd5b816020850135606081901c9061072b82611a8a565b61073a576001935050506107b0565b604051639700320360e01b81526001600160a01b03831690639700320390610768908a908a90600401612cc3565b6020604051808303816000875af1158015610787573d6000803e3d6000fd5b505050506040513d601f19601f820116820180604052508101906107ab9190612dc2565b935050505b80156107c25760003860003884335af1505b509392505050565b6107d2611af9565b6000806107e183850185612e48565b915091506000826001600160a01b0316826040516107ff9190612eda565b600060405180830381855af49150503d806000811461083a576040519150601f19603f3d011682016040523d82523d6000602084013e61083f565b606091505b505090508061084d57600080fd5b5050505050565b60606000600080516020613155833981519152610872818686611b2b565b92509250505b9250929050565b336f71727de22e5e9d8baf0edac6f37da032146108af57604051635629665f60e11b815260040160405180910390fd5b3660006108bf6060850185612ef6565b6108cd916004908290612ba9565b915091506000306001600160a01b031683836040516108ed929190612f3c565b600060405180830381855af49150503d8060008114610928576040519150601f19603f3d011682016040523d82523d6000602084013e61092d565b606091505b505090508061084d57604051632b3f6d1160e21b815260040160405180910390fd5b336f71727de22e5e9d8baf0edac6f37da032148061096c57503330145b61098957604051635629665f60e11b815260040160405180910390fd5b60006109a16000805160206131358339815191525490565b90506001600160a01b038116610aee5760405163ecd0596160e01b8152600481018690526001600160a01b0385169063ecd0596190602401602060405180830381865afa1580156109f6573d6000803e3d6000fd5b505050506040513d601f19601f82011682018060405250810190610a1a9190612f4c565b610a3a576040516369c9a24560e11b81526004810186905260240161019b565b60018503610a5257610a4d848484611cd7565b610aa7565b60028503610a6557610a4d848484611d56565b60038503610a7857610a4d848484611d6f565b60048503610a8b57610a4d848484611ee6565b60405163041c38b360e41b81526004810186905260240161019b565b604080518681526001600160a01b03861660208201527fd21d0b289f126c4b473ea641963e766833c2f13866e4ff480abd787c100ef12391015b60405180910390a161084d565b60405163d68f602560e01b81526000906001600160a01b0383169063d68f602590610b23903390349086903690600401612c2f565b6000604051808303816000875af1158015610b42573d6000803e3d6000fd5b505050506040513d6000823e601f3d908101601f19168201604052610b6a9190810190612f6e565b60405163ecd0596160e01b8152600481018890529091506001600160a01b0386169063ecd0596190602401602060405180830381865afa158015610bb2573d6000803e3d6000fd5b505050506040513d601f19601f82011682018060405250810190610bd69190612f4c565b610bf6576040516369c9a24560e11b81526004810187905260240161019b565b60018603610c0e57610c09858585611cd7565b610c63565b60028603610c2157610c09858585611d56565b60038603610c3457610c09858585611d6f565b60048603610c4757610c09858585611ee6565b60405163041c38b360e41b81526004810187905260240161019b565b604080518781526001600160a01b03871660208201527fd21d0b289f126c4b473ea641963e766833c2f13866e4ff480abd787c100ef12391015b60405180910390a1604051630b9dfbed60e11b81526001600160a01b0383169063173bf7da90610cd1908490600401612ae6565b600060405180830381600087803b158015610ceb57600080fd5b505af1158015610cff573d6000803e3d6000fd5b50505050505050505050565b336f71727de22e5e9d8baf0edac6f37da0321480610d2857503330145b610d4557604051635629665f60e11b815260040160405180910390fd5b6000610d5d6000805160206131358339815191525490565b90506001600160a01b038116610dfc5760018503610d8557610d80848484611f49565b610dbe565b60028503610d9857610d80848484611fa3565b60038503610dab57610d80848484611fc1565b60048503610a8b57610d80848484612201565b604080518681526001600160a01b03861660208201527f341347516a9de374859dfda710fa4828b2d48cb57d4fbe4c1149612b8e02276e9101610ae1565b60405163d68f602560e01b81526000906001600160a01b0383169063d68f602590610e31903390349086903690600401612c2f565b6000604051808303816000875af1158015610e50573d6000803e3d6000fd5b505050506040513d6000823e601f3d908101601f19168201604052610e789190810190612f6e565b905060018603610e9257610e8d858585611f49565b610ecb565b60028603610ea557610e8d858585611fa3565b60038603610eb857610e8d858585611fc1565b60048603610c4757610e8d858585612201565b604080518781526001600160a01b03871660208201527f341347516a9de374859dfda710fa4828b2d48cb57d4fbe4c1149612b8e02276e9101610c9d565b600081600881901b610f1f82600160f81b610544565b15610f2d5760019250610f70565b610f38826000610544565b15610f465760019250610f70565b610f58826001600160f81b0319610544565b15610f665760019250610f70565b5060009392505050565b610f7b816000610544565b15610f895760019250610fa1565b610f9781600160f81b610544565b15610f6657600192505b5050919050565b6060600080516020613115833981519152610fc3813361227d565b610fe257604051635c93ff2f60e11b815233600482015260240161019b565b6000610ffa6000805160206131358339815191525490565b90506001600160a01b0381166112ba5785600881901b61101e82600160f81b610544565b1561108d5786358701602081019035611038836000610544565b1561104e5761104782826122b7565b9650611086565b61105c83600160f81b610544565b1561106b57611047828261238f565b826040516308c3ee0360e11b815260040161019b9190612fdb565b50506112b3565b611098826000610544565b156111e6576000803660006110ad8b8b6124bc565b6040805160018082528183019092529498509296509094509250816020015b60608152602001906001900390816110cc57905050985060006110ef8682610544565b15611123576111008585858561250d565b8a60008151811061111357611113612ff0565b60200260200101819052506111dc565b61113186600160f81b610544565b156111c15761114285858585612543565b8b60008151811061115557611155612ff0565b60209081029190910101529050806111bc577fe723f28f104e46b47fd3531f3608374ac226bcf3ddda334a23a266453e0efdb760008b60008151811061119d5761119d612ff0565b60200260200101516040516111b3929190613006565b60405180910390a15b6111dc565b856040516308c3ee0360e11b815260040161019b9190612fdb565b50505050506112b3565b6111f8826001600160f81b0319610544565b1561129857600061120c601482898b612ba9565b61121591612bd3565b60601c905036600061122a896014818d612ba9565b909250905061123a846000610544565b156112505761124a838383612575565b50611290565b61125e84600160f81b610544565b156112755761126e8383836125a9565b5050611290565b836040516308c3ee0360e11b815260040161019b9190612fdb565b5050506112b3565b81604051632e5bf3f960e21b815260040161019b9190612fdb565b50506115ca565b60405163d68f602560e01b81526000906001600160a01b0383169063d68f6025906112ef903390349086903690600401612c2f565b6000604051808303816000875af115801561130e573d6000803e3d6000fd5b505050506040513d6000823e601f3d908101601f191682016040526113369190810190612f6e565b905086600881901b61134c82600160f81b610544565b156113a05787358801602081019035611366836000610544565b1561137c5761137582826122b7565b9750611399565b61138a83600160f81b610544565b1561106b57611375828261238f565b5050611568565b6113ab826000610544565b156114d9576000803660006113c08c8c6124bc565b6040805160018082528183019092529498509296509094509250816020015b60608152602001906001900390816113df57905050995060006114028682610544565b15611436576114138585858561250d565b8b60008151811061142657611426612ff0565b60200260200101819052506114cf565b61144486600160f81b610544565b156111c15761145585858585612543565b8c60008151811061146857611468612ff0565b60209081029190910101529050806114cf577fe723f28f104e46b47fd3531f3608374ac226bcf3ddda334a23a266453e0efdb760008c6000815181106114b0576114b0612ff0565b60200260200101516040516114c6929190613006565b60405180910390a15b5050505050611568565b6114eb826001600160f81b0319610544565b156112985760006114ff6014828a8c612ba9565b61150891612bd3565b60601c905036600061151d8a6014818e612ba9565b909250905061152d846000610544565b156115435761153d838383612575565b50611564565b61155184600160f81b610544565b15611275576115618383836125a9565b50505b5050505b5050604051630b9dfbed60e11b81526001600160a01b0383169063173bf7da90611596908490600401612ae6565b600060405180830381600087803b1580156115b057600080fd5b505af11580156115c4573d6000803e3d6000fd5b50505050505b50509392505050565b336f71727de22e5e9d8baf0edac6f37da03214806115f057503330145b61160d57604051635629665f60e11b815260040160405180910390fd5b60006116256000805160206131358339815191525490565b90506001600160a01b0381166117c95783600881901b61164982600160f81b610544565b1561169c5784358501602081019035611663836000610544565b156116785761167282826122b7565b50611695565b61168683600160f81b610544565b1561106b57611672828261238f565b50506117c2565b6116a7826000610544565b15611733576000803660006116bc89896124bc565b93509350935093506116d285600060f81b610544565b156116e9576116e38484848461250d565b5061172a565b6116f785600160f81b610544565b1561170f5761170884848484612543565b505061172a565b846040516308c3ee0360e11b815260040161019b9190612fdb565b505050506117c2565b611745826001600160f81b0319610544565b156112985760006117596014828789612ba9565b61176291612bd3565b60601c9050366000611777876014818b612ba9565b9092509050611787846000610544565b1561179d57611797838383612575565b506117be565b6117ab84600160f81b610544565b15611275576117bb8383836125a9565b50505b5050505b5050611a17565b60405163d68f602560e01b81526000906001600160a01b0383169063d68f6025906117fe903390349086903690600401612c2f565b6000604051808303816000875af115801561181d573d6000803e3d6000fd5b505050506040513d6000823e601f3d908101601f191682016040526118459190810190612f6e565b905084600881901b61185b82600160f81b610544565b156118ae5785358601602081019035611875836000610544565b1561188a5761188482826122b7565b506118a7565b61189883600160f81b610544565b1561106b57611884828261238f565b50506119b5565b6118b9826000610544565b15611926576000803660006118ce8a8a6124bc565b93509350935093506118e485600060f81b610544565b156118fb576118f58484848461250d565b5061191d565b61190985600160f81b610544565b1561170f5761191a84848484612543565b50505b505050506119b5565b611938826001600160f81b0319610544565b1561129857600061194c601482888a612ba9565b61195591612bd3565b60601c905036600061196a886014818c612ba9565b909250905061197a846000610544565b156119905761198a838383612575565b506119b1565b61199e84600160f81b610544565b15611275576119ae8383836125a9565b50505b5050505b5050604051630b9dfbed60e11b81526001600160a01b0383169063173bf7da906119e3908490600401612ae6565b600060405180830381600087803b1580156119fd57600080fd5b505af1158015611a11573d6000803e3d6000fd5b50505050505b50505050565b60606000600080516020613115833981519152610872818686611b2b565b600060018203611a4d57506001919050565b60028203611a5d57506001919050565b60038203611a6d57506001919050565b60048203611a7d57506001919050565b506000919050565b919050565b6000600080516020613155833981519152611aa5818461227d565b9392505050565b6000600080516020613115833981519152611aa5818461227d565b6000816001600160a01b0316611ae96000805160206131358339815191525490565b6001600160a01b03161492915050565b600080516020613155833981519152611b1f6000805160206131158339815191526125d9565b611b28816125d9565b50565b606060006001600160a01b038416600114801590611b505750611b4e858561227d565b155b15611b7957604051637c84ecfb60e01b81526001600160a01b038516600482015260240161019b565b82600003611b9a5760405163f725081760e01b815260040160405180910390fd5b826001600160401b03811115611bb257611bb2612ddb565b604051908082528060200260200182016040528015611bdb578160200160208202803683370190505b506001600160a01b03808616600090815260208890526040812054929450911691505b6001600160a01b03821615801590611c2057506001600160a01b038216600114155b8015611c2b57508381105b15611c855781838281518110611c4357611c43612ff0565b6001600160a01b039283166020918202929092018101919091529281166000908152928790526040909220549091169080611c7d81613035565b915050611bfe565b6001600160a01b038216600114801590611c9f5750600081115b15611ccb5782611cb060018361304e565b81518110611cc057611cc0612ff0565b602002602001015191505b80835250935093915050565b600080516020613155833981519152611cf08185612636565b6040516306d61fe760e41b81526001600160a01b03851690636d61fe7090611d1e9086908690600401613061565b600060405180830381600087803b158015611d3857600080fd5b505af1158015611d4c573d6000803e3d6000fd5b5050505050505050565b600080516020613115833981519152611cf08185612636565b6000611d7e6004828486612ba9565b611d8791613075565b9050600083836004818110611d9e57611d9e612ff0565b909101356001600160f81b031916915060009050611dbf8460058188612ba9565b8080601f016020809104026020016040519081016040528093929190818152602001838380828437600092019190915250929350611e02925085915061270c9050565b15611e4f5760405162461bcd60e51b815260206004820152601e60248201527f46756e6374696f6e2073656c6563746f7220616c726561647920757365640000604482015260640161019b565b6040805180820182526001600160a01b038881168083526001600160f81b0319861660208085019182526001600160e01b0319891660009081526000805160206130f583398151915290915285902093518454915160f81c600160a01b026001600160a81b03199092169316929092179190911790915590516306d61fe760e41b8152636d61fe7090610cd1908490600401612ae6565b6000611efe6000805160206131358339815191525490565b90506001600160a01b03811615611f335760405163741cbe0360e01b81526001600160a01b038216600482015260240161019b565b611cf08460008051602061313583398151915255565b600080516020613155833981519152600080611f6785850186612e48565b9092509050611f77838388612740565b604051638a91b0e360e01b81526001600160a01b03871690638a91b0e390610cd1908490600401612ae6565b600080516020613115833981519152600080611f6785850186612e48565b6000611fd06004828486612ba9565b611fd991613075565b90506000611fea8360048187612ba9565b8080601f01602080910402602001604051908101604052809392919081815260200183838082843760009201919091525092935061202d925084915061270c9050565b6120795760405162461bcd60e51b815260206004820152601a60248201527f46756e6374696f6e2073656c6563746f72206e6f742075736564000000000000604482015260640161019b565b6001600160e01b0319821660009081526000805160206130f583398151915260209081526040918290208251808401909352546001600160a01b03808216808552600160a01b90920460f81b6001600160f81b03191692840192909252908716146121395760405162461bcd60e51b815260206004820152602a60248201527f46756e6374696f6e2073656c6563746f72206e6f74207573656420627920746860448201526934b9903430b7323632b960b11b606482015260840161019b565b60208181015160408051808201825260008082528185018181526001600160e01b0319891682526000805160206130f583398151915290955282902090518154945160f81c600160a01b026001600160a81b03199095166001600160a01b039182161794909417905551638a91b0e360e01b81529091881690638a91b0e3906121c6908690600401612ae6565b600060405180830381600087803b1580156121e057600080fd5b505af11580156121f4573d6000803e3d6000fd5b5050505050505050505050565b612218600060008051602061313583398151915255565b604051638a91b0e360e01b81526001600160a01b03841690638a91b0e3906122469085908590600401613061565b600060405180830381600087803b15801561226057600080fd5b505af1158015612274573d6000803e3d6000fd5b50505050505050565b600060016001600160a01b03831614801590611aa55750506001600160a01b03908116600090815260209290925260409091205416151590565b606081806001600160401b038111156122d2576122d2612ddb565b60405190808252806020026020018201604052801561230557816020015b60608152602001906001900390816122f05790505b50915060005b81811015612387573685858381811061232657612326612ff0565b905060200281019061233891906130a3565b905061236161234a60208301836130b9565b602083013561235c6040850185612ef6565b61250d565b84838151811061237357612373612ff0565b60209081029190910101525060010161230b565b505092915050565b606081806001600160401b038111156123aa576123aa612ddb565b6040519080825280602002602001820160405280156123dd57816020015b60608152602001906001900390816123c85790505b50915060005b8181101561238757368585838181106123fe576123fe612ff0565b905060200281019061241091906130a3565b9050600061243b61242460208401846130b9565b60208401356124366040860186612ef6565b612543565b86858151811061244d5761244d612ff0565b60209081029190910101529050806124b2577fe723f28f104e46b47fd3531f3608374ac226bcf3ddda334a23a266453e0efdb78386858151811061249357612493612ff0565b60200260200101516040516124a9929190613006565b60405180910390a15b50506001016123e3565b60008036816124ce6014828789612ba9565b6124d791612bd3565b60601c93506124ea603460148789612ba9565b6124f3916130d6565b92506125028560348189612ba9565b949793965094505050565b60405181838237600038838387895af161252a573d6000823e3d81fd5b3d8152602081013d6000823e3d01604052949350505050565b604051600090828482376000388483888a5af11591503d8152602081013d6000823e3d81016040525094509492505050565b604051818382376000388383875af4612591573d6000823e3d81fd5b3d8152602081013d6000823e3d016040529392505050565b604051600090828482376000388483885af41591503d8152602081013d6000823e3d810160405250935093915050565b60016000908152602082905260409020546001600160a01b031615612611576040516329e42f3360e11b815260040160405180910390fd5b60016000818152602092909252604090912080546001600160a01b0319169091179055565b6001600160a01b038116158061265557506001600160a01b0381166001145b1561267e57604051637c84ecfb60e01b81526001600160a01b038216600482015260240161019b565b6001600160a01b0381811660009081526020849052604090205416156126c257604051631034f46960e21b81526001600160a01b038216600482015260240161019b565b60016000818152602093909352604080842080546001600160a01b039485168087529286208054959091166001600160a01b03199586161790559190935280549091169091179055565b6001600160e01b03191660009081526000805160206130f583398151915260205260409020546001600160a01b0316151590565b6001600160a01b038116158061275f57506001600160a01b0381166001145b1561278857604051637c84ecfb60e01b81526001600160a01b038316600482015260240161019b565b6001600160a01b038281166000908152602085905260409020548116908216146127d057604051637c84ecfb60e01b81526001600160a01b038216600482015260240161019b565b6001600160a01b0390811660008181526020949094526040808520805494841686529085208054949093166001600160a01b0319948516179092559092528154169055565b6001600160a01b0381168114611b2857600080fd5b8035611a8581612815565b60008083601f84011261284757600080fd5b5081356001600160401b0381111561285e57600080fd5b60208301915083602082850101111561087857600080fd5b6000806000806060858703121561288c57600080fd5b84359350602085013561289e81612815565b925060408501356001600160401b038111156128b957600080fd5b6128c587828801612835565b95989497509550505050565b6000806000604084860312156128e657600080fd5b8335925060208401356001600160401b0381111561290357600080fd5b61290f86828701612835565b9497909650939450505050565b6000610120828403121561292f57600080fd5b50919050565b60008060006060848603121561294a57600080fd5b83356001600160401b0381111561296057600080fd5b61296c8682870161291c565b9660208601359650604090950135949350505050565b6000806020838503121561299557600080fd5b82356001600160401b038111156129ab57600080fd5b6129b785828601612835565b90969095509350505050565b600080604083850312156129d657600080fd5b82356129e181612815565b946020939093013593505050565b604080825283519082018190526000906020906060840190828701845b82811015612a315781516001600160a01b031684529284019290840190600101612a0c565b5050506001600160a01b039490941660209390930192909252509092915050565b60008060408385031215612a6557600080fd5b82356001600160401b03811115612a7b57600080fd5b612a878582860161291c565b95602094909401359450505050565b60005b83811015612ab1578181015183820152602001612a99565b50506000910152565b60008151808452612ad2816020860160208601612a96565b601f01601f19169290920160200192915050565b602081526000611aa56020830184612aba565b600060208284031215612b0b57600080fd5b5035919050565b600060208083016020845280855180835260408601915060408160051b87010192506020870160005b82811015612b6957603f19888603018452612b57858351612aba565b94509285019290850190600101612b3b565b5092979650505050505050565b6001600160e01b031981168114611b2857600080fd5b600060208284031215612b9e57600080fd5b8135611aa581612b76565b60008085851115612bb957600080fd5b83861115612bc657600080fd5b5050820193919092039150565b6bffffffffffffffffffffffff1981358181169160148510156123875760149490940360031b84901b1690921692915050565b81835281816020850137506000828201602090810191909152601f909101601f19169091010190565b60018060a01b0385168152836020820152606060408201526000612c57606083018486612c06565b9695505050505050565b600060208284031215612c7357600080fd5b8151611aa581612b76565b6000808335601e19843603018112612c9557600080fd5b83016020810192503590506001600160401b03811115612cb457600080fd5b80360382131561087857600080fd5b60408152612ce460408201612cd78561282a565b6001600160a01b03169052565b602083013560608201526000612cfd6040850185612c7e565b610120806080860152612d1561016086018385612c06565b9250612d246060880188612c7e565b9250603f19808786030160a0880152612d3e858584612c06565b9450608089013560c088015260a089013560e0880152610100935060c089013584880152612d6f60e08a018a612c7e565b9250818887030184890152612d85868483612c06565b955050612d94848a018a612c7e565b9450925080878603016101408801525050612db0838383612c06565b93505050508260208301529392505050565b600060208284031215612dd457600080fd5b5051919050565b634e487b7160e01b600052604160045260246000fd5b604051601f8201601f191681016001600160401b0381118282101715612e1957612e19612ddb565b604052919050565b60006001600160401b03821115612e3a57612e3a612ddb565b50601f01601f191660200190565b60008060408385031215612e5b57600080fd5b8235612e6681612815565b915060208301356001600160401b03811115612e8157600080fd5b8301601f81018513612e9257600080fd5b8035612ea5612ea082612e21565b612df1565b818152866020838501011115612eba57600080fd5b816020840160208301376000602083830101528093505050509250929050565b60008251612eec818460208701612a96565b9190910192915050565b6000808335601e19843603018112612f0d57600080fd5b8301803591506001600160401b03821115612f2757600080fd5b60200191503681900382131561087857600080fd5b8183823760009101908152919050565b600060208284031215612f5e57600080fd5b81518015158114611aa557600080fd5b600060208284031215612f8057600080fd5b81516001600160401b03811115612f9657600080fd5b8201601f81018413612fa757600080fd5b8051612fb5612ea082612e21565b818152856020838501011115612fca57600080fd5b6106db826020830160208601612a96565b6001600160f81b031991909116815260200190565b634e487b7160e01b600052603260045260246000fd5b8281526040602082015260006106066040830184612aba565b634e487b7160e01b600052601160045260246000fd5b6000600182016130475761304761301f565b5060010190565b818103818111156105555761055561301f565b602081526000610606602083018486612c06565b6001600160e01b031981358181169160048510156123875760049490940360031b84901b1690921692915050565b60008235605e19833603018112612eec57600080fd5b6000602082840312156130cb57600080fd5b8135611aa581612815565b8035602083101561055557600019602084900360031b1b169291505056fef88ce1fdb7fb1cbd3282e49729100fa3f2d6ee9f797961fe4fb1871cea89ea04f88ce1fdb7fb1cbd3282e49729100fa3f2d6ee9f797961fe4fb1871cea89ea0336e05829dd1b9a4411d96a3549582172d7f071c1c0db5c573fcf94eb28431608f88ce1fdb7fb1cbd3282e49729100fa3f2d6ee9f797961fe4fb1871cea89ea02a2646970667358221220ddd89bb6ac4f1646b87a8ad06f0051c8e261466a92e1a7d2a059d02095694cb464736f6c63430008190033","linkReferences":{}},"methodIdentifiers":{"accountId()":"9cfd7cff","entryPoint()":"b0d691fe","execute(bytes32,bytes)":"e9ae5c53","executeFromExecutor(bytes32,bytes)":"d691c964","executeUserOp((address,uint256,bytes,bytes,bytes32,uint256,bytes32,bytes,bytes),bytes32)":"8dd7712f","getActiveFallbackHandler(bytes4)":"eac9b20d","getActiveHook()":"0a664dba","getExecutorsPaginated(address,uint256)":"ea5f61d0","getValidatorPaginated(address,uint256)":"85571368","initializeAccount(bytes)":"4b6a1419","installModule(uint256,address,bytes)":"9517e29f","isModuleInstalled(uint256,address,bytes)":"112d3a7d","isValidSignature(bytes32,bytes)":"1626ba7e","supportsExecutionMode(bytes32)":"d03c7914","supportsModule(uint256)":"f2dc691d","uninstallModule(uint256,address,bytes)":"a71763a8","validateUserOp((address,uint256,bytes,bytes,bytes32,uint256,bytes32,bytes,bytes),bytes32,uint256)":"19822f7c"},"id":25}