{"abi":[{"type":"fallback","stateMutability":"payable"},{"type":"receive","stateMutability":"payable"},{"type":"function","name":"_getInitMSACalldata","inputs":[{"name":"_validators","type":"tuple[]","internalType":"struct BootstrapConfig[]","components":[{"name":"module","type":"address","internalType":"address"},{"name":"data","type":"bytes","internalType":"bytes"}]},{"name":"_executors","type":"tuple[]","internalType":"struct BootstrapConfig[]","components":[{"name":"module","type":"address","internalType":"address"},{"name":"data","type":"bytes","internalType":"bytes"}]},{"name":"_hook","type":"tuple","internalType":"struct BootstrapConfig","components":[{"name":"module","type":"address","internalType":"address"},{"name":"data","type":"bytes","internalType":"bytes"}]},{"name":"_fallbacks","type":"tuple[]","internalType":"struct BootstrapConfig[]","components":[{"name":"module","type":"address","internalType":"address"},{"name":"data","type":"bytes","internalType":"bytes"}]}],"outputs":[{"name":"init","type":"bytes","internalType":"bytes"}],"stateMutability":"view"},{"type":"function","name":"entryPoint","inputs":[],"outputs":[{"name":"","type":"address","internalType":"address"}],"stateMutability":"view"},{"type":"function","name":"getActiveFallbackHandler","inputs":[],"outputs":[{"name":"","type":"address","internalType":"address"}],"stateMutability":"view"},{"type":"function","name":"getActiveHook","inputs":[],"outputs":[{"name":"hook","type":"address","internalType":"address"}],"stateMutability":"view"},{"type":"function","name":"getExecutorsPaginated","inputs":[{"name":"cursor","type":"address","internalType":"address"},{"name":"size","type":"uint256","internalType":"uint256"}],"outputs":[{"name":"array","type":"address[]","internalType":"address[]"},{"name":"next","type":"address","internalType":"address"}],"stateMutability":"view"},{"type":"function","name":"getValidatorPaginated","inputs":[{"name":"start","type":"address","internalType":"address"},{"name":"pageSize","type":"uint256","internalType":"uint256"}],"outputs":[{"name":"array","type":"address[]","internalType":"address[]"},{"name":"next","type":"address","internalType":"address"}],"stateMutability":"view"},{"type":"function","name":"initMSA","inputs":[{"name":"_validators","type":"tuple[]","internalType":"struct BootstrapConfig[]","components":[{"name":"module","type":"address","internalType":"address"},{"name":"data","type":"bytes","internalType":"bytes"}]},{"name":"_executors","type":"tuple[]","internalType":"struct BootstrapConfig[]","components":[{"name":"module","type":"address","internalType":"address"},{"name":"data","type":"bytes","internalType":"bytes"}]},{"name":"_hook","type":"tuple","internalType":"struct BootstrapConfig","components":[{"name":"module","type":"address","internalType":"address"},{"name":"data","type":"bytes","internalType":"bytes"}]},{"name":"_fallbacks","type":"tuple[]","internalType":"struct BootstrapConfig[]","components":[{"name":"module","type":"address","internalType":"address"},{"name":"data","type":"bytes","internalType":"bytes"}]}],"outputs":[],"stateMutability":"nonpayable"},{"type":"function","name":"singleInitMSA","inputs":[{"name":"validator","type":"address","internalType":"contract IValidator"},{"name":"data","type":"bytes","internalType":"bytes"}],"outputs":[],"stateMutability":"nonpayable"},{"type":"error","name":"AccountAccessUnauthorized","inputs":[]},{"type":"error","name":"CannotRemoveLastValidator","inputs":[]},{"type":"error","name":"ExecutionFailed","inputs":[]},{"type":"error","name":"HookAlreadyInstalled","inputs":[{"name":"currentHook","type":"address","internalType":"address"}]},{"type":"error","name":"HookPostCheckFailed","inputs":[]},{"type":"error","name":"InitializerError","inputs":[]},{"type":"error","name":"InvalidModule","inputs":[{"name":"module","type":"address","internalType":"address"}]},{"type":"error","name":"LinkedListError","inputs":[]},{"type":"error","name":"LinkedList_EntryAlreadyInList","inputs":[{"name":"entry","type":"address","internalType":"address"}]},{"type":"error","name":"LinkedList_EntryAlreadyInList","inputs":[{"name":"entry","type":"address","internalType":"address"}]},{"type":"error","name":"LinkedList_InvalidEntry","inputs":[{"name":"entry","type":"address","internalType":"address"}]},{"type":"error","name":"LinkedList_InvalidEntry","inputs":[{"name":"entry","type":"address","internalType":"address"}]},{"type":"error","name":"LinkedList_InvalidPage","inputs":[]},{"type":"error","name":"LinkedList_InvalidPage","inputs":[]},{"type":"error","name":"NoFallbackHandler","inputs":[]},{"type":"error","name":"ValidatorStorageHelperError","inputs":[]}],"bytecode":{"object":"0x6080604052348015600f57600080fd5b5061157a8061001f6000396000f3fe60806040526004361061007f5760003560e01c8063855713681161004e57806385571368146101e35780638acf4c6a14610211578063b0d691fe1461023f578063ea5f61d01461026257610086565b80630a664dba146101305780635e87556d14610174578063642219af146101a15780636b0d5cc4146101c357610086565b3661008657005b60003560e01c63bc197c81811463f23a6e6182141763150b7a02821417156100b257806020526020603cf35b50336000908152602081905260409020600101546001600160a01b0316806100ed57604051632c4bc0b360e11b815260040160405180910390fd5b6000610126338334843660131981013560601c60405160200161011293929190610eb9565b604051602081830303815290604052610282565b9050805160208201f35b34801561013c57600080fd5b50336000908152600260205260409020546001600160a01b03165b6040516001600160a01b0390911681526020015b60405180910390f35b34801561018057600080fd5b5061019461018f366004610f24565b61032b565b60405161016b919061103b565b3480156101ad57600080fd5b506101c16101bc366004610f24565b6103b4565b005b3480156101cf57600080fd5b506101c16101de366004611066565b61066a565b3480156101ef57600080fd5b506102036101fe3660046110eb565b6106af565b60405161016b929190611117565b34801561021d57600080fd5b50336000908152602081905260409020600101546001600160a01b0316610157565b34801561024b57600080fd5b506f71727de22e5e9d8baf0edac6f37da032610157565b34801561026e57600080fd5b5061020361027d3660046110eb565b6106cc565b60606000856001600160a01b0316635229073f86868660006040518563ffffffff1660e01b81526004016102b9949392919061117a565b6000604051808303816000875af11580156102d8573d6000803e3d6000fd5b505050506040513d6000823e601f3d908101601f1916820160405261030091908101906111e0565b925090508061032257604051632b3f6d1160e21b815260040160405180910390fd5b50949350505050565b606030306001600160a01b031663642219af8a8a8a8a8a8a8a60405160240161035a97969594939291906113b0565b604051602081830303815290604052915060e01b6020820180516001600160e01b03838183161783525050505060405160200161039892919061140e565b6040516020818303038152906040529050979650505050505050565b60005b86811015610468576104608888838181106103d4576103d4611432565b90506020028101906103e69190611448565b6103f4906020810190611468565b89898481811061040657610406611432565b90506020028101906104189190611448565b61042690602081019061148c565b8080601f0160208091040260200160405190810160405280939291908181526020018383808284376000920191909152506106f692505050565b6001016103b7565b5060005b8481101561055f57600086868381811061048857610488611432565b905060200281019061049a9190611448565b6104a8906020810190611468565b6001600160a01b031614610557576105578686838181106104cb576104cb611432565b90506020028101906104dd9190611448565b6104eb906020810190611468565b8787848181106104fd576104fd611432565b905060200281019061050f9190611448565b61051d90602081019061148c565b8080601f01602080910402602001604051908101604052809392919081815260200183838082843760009201919091525061074d92505050565b60010161046c565b50600061056f6020850185611468565b6001600160a01b03161461059f5761059f61058d6020850185611468565b61059a602086018661148c565b61077e565b60005b818110156106605760008383838181106105be576105be611432565b90506020028101906105d09190611448565b6105de906020810190611468565b6001600160a01b0316146106585761065883838381811061060157610601611432565b90506020028101906106139190611448565b610621906020810190611468565b84848481811061063357610633611432565b90506020028101906106459190611448565b61065390602081019061148c565b61080d565b6001016105a2565b5050505050505050565b6106aa8383838080601f0160208091040260200160405190810160405280939291908181526020018383808284376000920191909152506106f692505050565b505050565b606060006106c06001338686610857565b915091505b9250929050565b336000908152602081905260408120606091906106ea818686610a1c565b92509250509250929050565b61070260013384610bc9565b610749338360008460405160240161071a919061103b565b60408051601f198184030181529190526020810180516001600160e01b03166306d61fe760e41b179052610cbe565b5050565b3360009081526020819052604090206107668184610d5d565b6106aa338460008560405160240161071a919061103b565b336000908152600260205260409020546001600160a01b031680156107c65760405163741cbe0360e01b81526001600160a01b03821660048201526024015b60405180910390fd5b3360008181526002602052604080822080546001600160a01b0319166001600160a01b038916179055516108079291879161071a90889088906024016114d3565b50505050565b336000818152602081905260408082206001810180546001600160a01b0319166001600160a01b0389161790559051909261080792909187919061071a90889088906024016114d3565b606060006001600160a01b03841660011480159061087d575061087b868686610e33565b155b156108a657604051637c84ecfb60e01b81526001600160a01b03851660048201526024016107bd565b826000036108c75760405163f725081760e01b815260040160405180910390fd5b8267ffffffffffffffff8111156108e0576108e06111ca565b604051908082528060200260200182016040528015610909578160200160208202803683370190505b506001600160a01b038086166000908152602089815260408083208a85168452909152812054929450911691505b6001600160a01b0382161580159061095957506001600160a01b038216600114155b801561096457508381105b156109c9578183828151811061097c5761097c611432565b6001600160a01b03928316602091820292909201810191909152928116600090815288845260408082208984168352909452929092205490911690806109c1816114fd565b915050610937565b6001600160a01b0382166001148015906109e35750600081115b15610a0f57826109f4600183611516565b81518110610a0457610a04611432565b602002602001015191505b8083525094509492505050565b606060006001600160a01b038416600114801590610a415750610a3f8585610e7b565b155b15610a6a57604051637c84ecfb60e01b81526001600160a01b03851660048201526024016107bd565b82600003610a8b5760405163f725081760e01b815260040160405180910390fd5b8267ffffffffffffffff811115610aa457610aa46111ca565b604051908082528060200260200182016040528015610acd578160200160208202803683370190505b506001600160a01b03808616600090815260208890526040812054929450911691505b6001600160a01b03821615801590610b1257506001600160a01b038216600114155b8015610b1d57508381105b15610b775781838281518110610b3557610b35611432565b6001600160a01b039283166020918202929092018101919091529281166000908152928790526040909220549091169080610b6f816114fd565b915050610af0565b6001600160a01b038216600114801590610b915750600081115b15610bbd5782610ba2600183611516565b81518110610bb257610bb2611432565b602002602001015191505b80835250935093915050565b6001600160a01b0381161580610be857506001600160a01b0381166001145b15610c1157604051637c84ecfb60e01b81526001600160a01b03821660048201526024016107bd565b6001600160a01b0381811660009081526020858152604080832086851684529091529020541615610c6057604051631034f46960e21b81526001600160a01b03821660048201526024016107bd565b60016000908152602084815260408083206001600160a01b039586168085528184528285208054968816808752988552838620918652908452919093208054949095166001600160a01b031994851617909455528154169091179055565b60405163468721a760e01b81526000906001600160a01b0386169063468721a790610cf390879087908790879060040161117a565b6020604051808303816000875af1158015610d12573d6000803e3d6000fd5b505050506040513d601f19601f82011682018060405250810190610d369190611529565b905080610d5657604051632b3f6d1160e21b815260040160405180910390fd5b5050505050565b6001600160a01b0381161580610d7c57506001600160a01b0381166001145b15610da557604051637c84ecfb60e01b81526001600160a01b03821660048201526024016107bd565b6001600160a01b038181166000908152602084905260409020541615610de957604051631034f46960e21b81526001600160a01b03821660048201526024016107bd565b60016000818152602093909352604080842080546001600160a01b039485168087529286208054959091166001600160a01b03199586161790559190935280549091169091179055565b600060016001600160a01b03831614801590610e7357506001600160a01b0382811660009081526020868152604080832087851684529091529020541615155b949350505050565b600060016001600160a01b03831614801590610eb057506001600160a01b038281166000908152602085905260409020541615155b90505b92915050565b8284823760609190911b6bffffffffffffffffffffffff19169101908152601401919050565b60008083601f840112610ef157600080fd5b50813567ffffffffffffffff811115610f0957600080fd5b6020830191508360208260051b85010111156106c557600080fd5b60008060008060008060006080888a031215610f3f57600080fd5b873567ffffffffffffffff80821115610f5757600080fd5b610f638b838c01610edf565b909950975060208a0135915080821115610f7c57600080fd5b610f888b838c01610edf565b909750955060408a0135915080821115610fa157600080fd5b908901906040828c031215610fb557600080fd5b90935060608901359080821115610fcb57600080fd5b50610fd88a828b01610edf565b989b979a50959850939692959293505050565b60005b83811015611006578181015183820152602001610fee565b50506000910152565b60008151808452611027816020860160208601610feb565b601f01601f19169290920160200192915050565b602081526000610eb0602083018461100f565b6001600160a01b038116811461106357600080fd5b50565b60008060006040848603121561107b57600080fd5b83356110868161104e565b9250602084013567ffffffffffffffff808211156110a357600080fd5b818601915086601f8301126110b757600080fd5b8135818111156110c657600080fd5b8760208285010111156110d857600080fd5b6020830194508093505050509250925092565b600080604083850312156110fe57600080fd5b82356111098161104e565b946020939093013593505050565b604080825283519082018190526000906020906060840190828701845b828110156111595781516001600160a01b031684529284019290840190600101611134565b5050506001600160a01b039490941660209390930192909252509092915050565b60018060a01b03851681528360208201526080604082015260006111a1608083018561100f565b905060ff8316606083015295945050505050565b805180151581146111c557600080fd5b919050565b634e487b7160e01b600052604160045260246000fd5b600080604083850312156111f357600080fd5b6111fc836111b5565b9150602083015167ffffffffffffffff8082111561121957600080fd5b818501915085601f83011261122d57600080fd5b81518181111561123f5761123f6111ca565b604051601f8201601f19908116603f01168101908382118183101715611267576112676111ca565b8160405282815288602084870101111561128057600080fd5b611291836020830160208801610feb565b80955050505050509250929050565b81835281816020850137506000828201602090810191909152601f909101601f19169091010190565b600081356112d68161104e565b6001600160a01b03168352602082013536839003601e190181126112f957600080fd5b820160208101903567ffffffffffffffff81111561131657600080fd5b80360382131561132557600080fd5b6040602086015261133a6040860182846112a0565b95945050505050565b6000838385526020808601955060208560051b830101846000805b888110156113a257858403601f19018a52823536899003603e19018112611383578283fd5b61138f858a83016112c9565b9a86019a9450509184019160010161135e565b509198975050505050505050565b6080815260006113c460808301898b611343565b82810360208401526113d781888a611343565b905082810360408401526113eb81876112c9565b90508281036060840152611400818587611343565b9a9950505050505050505050565b6001600160a01b0383168152604060208201819052600090610e739083018461100f565b634e487b7160e01b600052603260045260246000fd5b60008235603e1983360301811261145e57600080fd5b9190910192915050565b60006020828403121561147a57600080fd5b81356114858161104e565b9392505050565b6000808335601e198436030181126114a357600080fd5b83018035915067ffffffffffffffff8211156114be57600080fd5b6020019150368190038213156106c557600080fd5b602081526000610e736020830184866112a0565b634e487b7160e01b600052601160045260246000fd5b60006001820161150f5761150f6114e7565b5060010190565b81810381811115610eb357610eb36114e7565b60006020828403121561153b57600080fd5b610eb0826111b556fea264697066735822122050dcc64467886f9b6b08d242008341310cdcf8e37dacd5e2ac91416d59e2e39964736f6c63430008190033","linkReferences":{}},"methodIdentifiers":{"_getInitMSACalldata((address,bytes)[],(address,bytes)[],(address,bytes),(address,bytes)[])":"5e87556d","entryPoint()":"b0d691fe","getActiveFallbackHandler()":"8acf4c6a","getActiveHook()":"0a664dba","getExecutorsPaginated(address,uint256)":"ea5f61d0","getValidatorPaginated(address,uint256)":"85571368","initMSA((address,bytes)[],(address,bytes)[],(address,bytes),(address,bytes)[])":"642219af","singleInitMSA(address,bytes)":"6b0d5cc4"},"id":2}