{"abi":[{"type":"function","name":"checkHash","inputs":[{"name":"account","type":"address","internalType":"address"},{"name":"exec","type":"tuple","internalType":"struct Execution","components":[{"name":"target","type":"address","internalType":"address"},{"name":"value","type":"uint256","internalType":"uint256"},{"name":"callData","type":"bytes","internalType":"bytes"}]}],"outputs":[{"name":"executionHash","type":"bytes32","internalType":"bytes32"},{"name":"entry","type":"bytes32","internalType":"bytes32"}],"stateMutability":"view"},{"type":"function","name":"getLockTime","inputs":[{"name":"subAccount","type":"address","internalType":"address"}],"outputs":[{"name":"","type":"uint256","internalType":"uint256"}],"stateMutability":"view"},{"type":"function","name":"isInitialized","inputs":[{"name":"smartAccount","type":"address","internalType":"address"}],"outputs":[{"name":"","type":"bool","internalType":"bool"}],"stateMutability":"view"},{"type":"function","name":"isModuleType","inputs":[{"name":"isType","type":"uint256","internalType":"uint256"}],"outputs":[{"name":"","type":"bool","internalType":"bool"}],"stateMutability":"pure"},{"type":"function","name":"name","inputs":[],"outputs":[{"name":"","type":"string","internalType":"string"}],"stateMutability":"pure"},{"type":"function","name":"onInstall","inputs":[{"name":"data","type":"bytes","internalType":"bytes"}],"outputs":[],"stateMutability":"nonpayable"},{"type":"function","name":"onUninstall","inputs":[{"name":"data","type":"bytes","internalType":"bytes"}],"outputs":[],"stateMutability":"nonpayable"},{"type":"function","name":"postCheck","inputs":[{"name":"hookData","type":"bytes","internalType":"bytes"}],"outputs":[],"stateMutability":"nonpayable"},{"type":"function","name":"postCheck","inputs":[{"name":"hookData","type":"bytes","internalType":"bytes"},{"name":"executionSuccess","type":"bool","internalType":"bool"},{"name":"executionReturnValue","type":"bytes","internalType":"bytes"}],"outputs":[],"stateMutability":"nonpayable"},{"type":"function","name":"preCheck","inputs":[{"name":"msgSender","type":"address","internalType":"address"},{"name":"msgValue","type":"uint256","internalType":"uint256"},{"name":"msgData","type":"bytes","internalType":"bytes"}],"outputs":[{"name":"hookData","type":"bytes","internalType":"bytes"}],"stateMutability":"nonpayable"},{"type":"function","name":"requestTimelockedExecution","inputs":[{"name":"_exec","type":"tuple","internalType":"struct Execution","components":[{"name":"target","type":"address","internalType":"address"},{"name":"value","type":"uint256","internalType":"uint256"},{"name":"callData","type":"bytes","internalType":"bytes"}]},{"name":"additionalWait","type":"uint256","internalType":"uint256"}],"outputs":[],"stateMutability":"nonpayable"},{"type":"function","name":"setWaitPeriod","inputs":[{"name":"waitPeriod","type":"uint256","internalType":"uint256"}],"outputs":[],"stateMutability":"nonpayable"},{"type":"function","name":"version","inputs":[],"outputs":[{"name":"","type":"string","internalType":"string"}],"stateMutability":"pure"},{"type":"event","name":"ExecutionExecuted","inputs":[{"name":"subAccount","type":"address","indexed":true,"internalType":"address"},{"name":"target","type":"address","indexed":false,"internalType":"address"},{"name":"value","type":"uint256","indexed":false,"internalType":"uint256"},{"name":"callData","type":"bytes","indexed":false,"internalType":"bytes"}],"anonymous":false},{"type":"event","name":"ExecutionRequested","inputs":[{"name":"subAccount","type":"address","indexed":true,"internalType":"address"},{"name":"target","type":"address","indexed":false,"internalType":"address"},{"name":"value","type":"uint256","indexed":false,"internalType":"uint256"},{"name":"callData","type":"bytes","indexed":false,"internalType":"bytes"},{"name":"executeAfter","type":"uint256","indexed":false,"internalType":"uint256"}],"anonymous":false},{"type":"error","name":"AlreadyInitialized","inputs":[{"name":"smartAccount","type":"address","internalType":"address"}]},{"type":"error","name":"HookInvalidSelector","inputs":[]},{"type":"error","name":"InvalidExecutionHash","inputs":[{"name":"executionHash","type":"bytes32","internalType":"bytes32"}]},{"type":"error","name":"NotInitialized","inputs":[{"name":"smartAccount","type":"address","internalType":"address"}]},{"type":"error","name":"UnauthorizedAccess","inputs":[]},{"type":"error","name":"UnsupportedExecution","inputs":[]}],"bytecode":{"object":"0x6080604052348015600f57600080fd5b506114308061001f6000396000f3fe608060405234801561001057600080fd5b50600436106100cf5760003560e01c80638a91b0e31161008c578063d60b347f11610066578063d60b347f14610212578063d68f602514610253578063ecd0596114610266578063f30f71511461027a57600080fd5b80638a91b0e31461017f578063aa31aee8146101bf578063aacbd72a146101ff57600080fd5b806306fdde03146100d4578063173bf7da146101115780633723534e1461012557806347662b381461013857806354fd4d501461014b5780636d61fe701461016c575b600080fd5b60408051808201909152600f81526e436f6c6453746f72616765486f6f6b60881b60208201525b6040516101089190610ec8565b60405180910390f35b61012361011f366004610f1d565b5050565b005b610123610133366004610f77565b6102a2565b610123610146366004610fbc565b6104ed565b6040805180820190915260058152640312e302e360dc1b60208201526100fb565b61012361017a366004610f1d565b61056c565b61012361018d366004610f1d565b505033600090815260208190526040902080546001600160801b031916815560010180546001600160a01b0319169055565b6101f16101cd366004610fed565b6001600160a01b03166000908152602081905260409020546001600160801b031690565b604051908152602001610108565b61012361020d36600461100a565b6105c8565b610243610220366004610fed565b6001600160a01b0390811660009081526020819052604090206001015416151590565b6040519015158152602001610108565b6100fb610261366004611094565b6105dc565b610243610274366004610fbc565b60041490565b61028d6102883660046110f0565b61075d565b60408051928352602083019190915201610108565b33600090815260208181526040808320815180830190925280546001600160801b03168252600101546001600160a01b0316818301529190610301906102ea90860186610fed565b60208601356102fc6040880188611140565b6107ef565b90506103106040850185611140565b1590506103d857600061032e6103296040870187611140565b610843565b905082602001516001600160a01b0316816001600160a01b0316146103d2576308ecc56760e31b6103626040870187611140565b61037191600491600091611187565b61037a916111b1565b6001600160e01b031916146103d25760405162461bcd60e51b815260206004820152601960248201527824b73b30b634b2103932b1b2b4bb32b9103a3930b739b332b960391b60448201526064015b60405180910390fd5b50610446565b6020808301516001600160a01b0316906103f490860186610fed565b6001600160a01b0316146104465760405162461bcd60e51b815260206004820152601960248201527824b73b30b634b2103932b1b2b4bb32b9103a3930b739b332b960391b60448201526064016103c9565b81516000908490610460906001600160801b0316426111f7565b61046a91906111f7565b33600090815260016020526040902090915081906104899084836108ff565b50337f17c3f4e2aefe6196cb095cb4b0b03775dbb4c3d985687ac2e60d4e354c01236e6104b96020890189610fed565b60208901356104cb60408b018b611140565b876040516104dd959493929190611233565b60405180910390a2505050505050565b8060000361053d5760405162461bcd60e51b815260206004820152601760248201527f5761697420706572696f642063616e6e6f74206265203000000000000000000060448201526064016103c9565b33600090815260208190526040902080546001600160801b0319166001600160801b0392909216919091179055565b3360009081526020819052604090206105878284018461126d565b6001830180546001600160a01b0319166001600160a01b039290921691909117905581546001600160801b0319166001600160801b03919091161790555050565b6105d58585858585610926565b5050505050565b606060006105ed6004828587611187565b6105f6916111b1565b9050631651a3ad60e01b6001600160e01b03198216016106235761061b8685856109d1565b915050610755565b630a5b8da760e21b6001600160e01b03198216016106465761061b868585610ac2565b636ae81d6160e01b6001600160e01b03198216016107255760006084841161066f576000610693565b848461067d602060846112b2565b61068a9260849290611187565b610693916112c5565b9050366000608486116106b2576106ad600080888a611187565b6106cd565b866084876106c086836111f7565b926106cd93929190611187565b909250905060006106e260246004898b611187565b6106eb916112c5565b905060006106fd604460308a8c611187565b610706916112e3565b60601c90506107188b83838787610b5f565b9650505050505050610755565b630b1d138b60e31b6001600160e01b031982160161074e5760006084841161066f576000610693565b606061061b565b949350505050565b6000806107bc6107706020850185610fed565b60208501356107826040870187611140565b8080601f016020809104026020016040519081016040528093929190818152602001838380828437600092019190915250610b7a92505050565b6001600160a01b0385166000908152600160205260408120919350906107e29084610bb0565b9396939550929350505050565b60008083838080601f016020809104026020016040519081016040528093929190818152602001838380828437600092019190915250929350610839925088915087905083610b7a565b9695505050505050565b6000806108536004828587611187565b61085c916111b1565b905036600061086e8560048189611187565b90925090506356fa634560e01b6001600160e01b031984160161089f5761089781830183611316565b5093506108f6565b63dc478d2360e01b6001600160e01b03198416016108cd576108c381830183611342565b5094506108f69050565b63dc478d2360e01b6001600160e01b03198416016108f6576108f181830183611342565b509450505b50505092915050565b6000828152600284016020526040812082905561091c8484610bed565b90505b9392505050565b60408051631b91a9a760e11b60208201520160405160208183030381529060405280519060200120858560405161095e929190611383565b604051809103902014806109c85750604080517fd26794af0798dbe415d32ab1faaa2c70b478f538bf66eea16fc0e275c43500956020820152016040516020818303038152906040528051906020012085856040516109be929190611383565b6040518091039020145b6105d557600080fd5b6060600083836109e3602060646112b2565b6109f09260649290611187565b6109f9916112c5565b905036600085606486610a0c86836111f7565b92610a1993929190611187565b90925090506000610a2e60246004888a611187565b610a37916112c5565b9050806001600160f81b03198116610a7e57600080366000610a598888610c02565b9350935093509350610a6e8d85858585610b5f565b995050505050505050505061091f565b6001600160f81b03198116600160f81b03610ab65783358401602081019035610aa88b8383610b5f565b97505050505050505061091f565b50505050509392505050565b606060008383610ad4602060646112b2565b610ae19260649290611187565b610aea916112c5565b905036600085606486610afd86836111f7565b92610b0a93929190611187565b90925090506000610b1f60246004888a611187565b610b28916112c5565b9050806001600160f81b03198116610a7e57600080366000610b4a8888610c02565b9350935093509350610a6e8d85858585610c53565b606060405163226f153d60e01b815260040160405180910390fd5b6000838383604051602001610b9193929190611393565b6040516020818303038152906040528051906020012090509392505050565b6000818152600283016020526040812054819080610bdf57610bd28585610e0a565b925060009150610be69050565b6001925090505b9250929050565b6000610bf98383610e29565b90505b92915050565b6000803681610c146014828789611187565b610c1d916112e3565b60601c9350610c30603460148789611187565b610c39916112c5565b9250610c488560348189611187565b949793965094505050565b6060600060048310610c7957610c6d600460008587611187565b610c76916111b1565b90505b6001600160a01b03861630148015610ca157506001600160e01b03198116631b91a9a760e11b145b15610ccf5760408051631b91a9a760e11b602082015201604051602081830303815290604052915050610e01565b6000610d12878787878080601f016020809104026020016040519081016040528093929190818152602001838380828437600092019190915250610b7a92505050565b336000908152600160205260408120919250908190610d319084610bb0565b9150915081610d5657604051636dae84d560e11b8152600481018490526024016103c9565b8042811115610d7857604051631a27eac360e11b815260040160405180910390fd5b336001600160a01b03167ff108397185e4cc3cc5f176a14abff5fef96de6cf0e1cd6041682c588b12789728b8b8b8b604051610db794939291906113d2565b60405180910390a2604080517fd26794af0798dbe415d32ab1faaa2c70b478f538bf66eea16fc0e275c4350095602082015201604051602081830303815290604052955050505050505b95945050505050565b6000610bf9838360008181526001830160205260408120541515610bf9565b6000818152600183016020526040812054610e7057508154600181810184556000848152602080822090930184905584548482528286019093526040902091909155610bfc565b506000610bfc565b60005b83811015610e93578181015183820152602001610e7b565b50506000910152565b60008151808452610eb4816020860160208601610e78565b601f01601f19169290920160200192915050565b602081526000610bf96020830184610e9c565b60008083601f840112610eed57600080fd5b50813567ffffffffffffffff811115610f0557600080fd5b602083019150836020828501011115610be657600080fd5b60008060208385031215610f3057600080fd5b823567ffffffffffffffff811115610f4757600080fd5b610f5385828601610edb565b90969095509350505050565b600060608284031215610f7157600080fd5b50919050565b60008060408385031215610f8a57600080fd5b823567ffffffffffffffff811115610fa157600080fd5b610fad85828601610f5f565b95602094909401359450505050565b600060208284031215610fce57600080fd5b5035919050565b6001600160a01b0381168114610fea57600080fd5b50565b600060208284031215610fff57600080fd5b813561091f81610fd5565b60008060008060006060868803121561102257600080fd5b853567ffffffffffffffff8082111561103a57600080fd5b61104689838a01610edb565b909750955060208801359150811515821461106057600080fd5b9093506040870135908082111561107657600080fd5b5061108388828901610edb565b969995985093965092949392505050565b600080600080606085870312156110aa57600080fd5b84356110b581610fd5565b935060208501359250604085013567ffffffffffffffff8111156110d857600080fd5b6110e487828801610edb565b95989497509550505050565b6000806040838503121561110357600080fd5b823561110e81610fd5565b9150602083013567ffffffffffffffff81111561112a57600080fd5b61113685828601610f5f565b9150509250929050565b6000808335601e1984360301811261115757600080fd5b83018035915067ffffffffffffffff82111561117257600080fd5b602001915036819003821315610be657600080fd5b6000808585111561119757600080fd5b838611156111a457600080fd5b5050820193919092039150565b6001600160e01b031981358181169160048510156111d95780818660040360031b1b83161692505b505092915050565b634e487b7160e01b600052601160045260246000fd5b80820180821115610bfc57610bfc6111e1565b81835281816020850137506000828201602090810191909152601f909101601f19169091010190565b60018060a01b038616815284602082015260806040820152600061125b60808301858761120a565b90508260608301529695505050505050565b6000806040838503121561128057600080fd5b82356001600160801b038116811461129757600080fd5b915060208301356112a781610fd5565b809150509250929050565b81810381811115610bfc57610bfc6111e1565b80356020831015610bfc57600019602084900360031b1b1692915050565b6bffffffffffffffffffffffff1981358181169160148510156111d95760149490940360031b84901b1690921692915050565b6000806040838503121561132957600080fd5b823561133481610fd5565b946020939093013593505050565b60008060006060848603121561135757600080fd5b833561136281610fd5565b9250602084013561137281610fd5565b929592945050506040919091013590565b8183823760009101908152919050565b6bffffffffffffffffffffffff198460601b168152826014820152600082516113c3816034850160208701610e78565b91909101603401949350505050565b60018060a01b038516815283602082015260606040820152600061083960608301848661120a56fea2646970667358221220597e7336a474f67c12df632d9339a9c88c9a296ce98464fd290f8481ce85a01964736f6c63430008190033","linkReferences":{}},"methodIdentifiers":{"checkHash(address,(address,uint256,bytes))":"f30f7151","getLockTime(address)":"aa31aee8","isInitialized(address)":"d60b347f","isModuleType(uint256)":"ecd05961","name()":"06fdde03","onInstall(bytes)":"6d61fe70","onUninstall(bytes)":"8a91b0e3","postCheck(bytes)":"173bf7da","postCheck(bytes,bool,bytes)":"aacbd72a","preCheck(address,uint256,bytes)":"d68f6025","requestTimelockedExecution((address,uint256,bytes),uint256)":"3723534e","setWaitPeriod(uint256)":"47662b38","version()":"54fd4d50"},"id":7}