{"abi":[{"type":"function","name":"isInitialized","inputs":[{"name":"smartAccount","type":"address","internalType":"address"}],"outputs":[{"name":"","type":"bool","internalType":"bool"}],"stateMutability":"view"},{"type":"function","name":"isModuleType","inputs":[{"name":"typeID","type":"uint256","internalType":"uint256"}],"outputs":[{"name":"","type":"bool","internalType":"bool"}],"stateMutability":"view"},{"type":"function","name":"onInstall","inputs":[{"name":"data","type":"bytes","internalType":"bytes"}],"outputs":[],"stateMutability":"nonpayable"},{"type":"function","name":"onUninstall","inputs":[{"name":"data","type":"bytes","internalType":"bytes"}],"outputs":[],"stateMutability":"nonpayable"},{"type":"function","name":"target","inputs":[{"name":"value","type":"uint256","internalType":"uint256"}],"outputs":[{"name":"_value","type":"uint256","internalType":"uint256"},{"name":"erc2771Sender","type":"address","internalType":"address"},{"name":"msgSender","type":"address","internalType":"address"}],"stateMutability":"nonpayable"},{"type":"function","name":"targetFunction","inputs":[],"outputs":[{"name":"","type":"bool","internalType":"bool"}],"stateMutability":"nonpayable"},{"type":"error","name":"AlreadyInitialized","inputs":[{"name":"smartAccount","type":"address","internalType":"address"}]},{"type":"error","name":"NotInitialized","inputs":[{"name":"smartAccount","type":"address","internalType":"address"}]}],"bytecode":{"object":"0x6080604052348015600f57600080fd5b506101ee8061001f6000396000f3fe608060405234801561001057600080fd5b50600436106100625760003560e01c80636d61fe70146100675780638a91b0e3146100675780639811c7c11461007b578063a341a91b146100c2578063d60b347f146100d5578063ecd05961146100e9575b600080fd5b6100796100753660046100fd565b5050565b005b61009861008936600461016f565b9060131936013560601c903390565b604080519384526001600160a01b0392831660208501529116908201526060015b60405180910390f35b60015b60405190151581526020016100b9565b6100c56100e3366004610188565b50600090565b6100c56100f736600461016f565b60031490565b6000806020838503121561011057600080fd5b823567ffffffffffffffff8082111561012857600080fd5b818501915085601f83011261013c57600080fd5b81358181111561014b57600080fd5b86602082850101111561015d57600080fd5b60209290920196919550909350505050565b60006020828403121561018157600080fd5b5035919050565b60006020828403121561019a57600080fd5b81356001600160a01b03811681146101b157600080fd5b939250505056fea264697066735822122037b631ebb319c7e4b1bc7db65fca265be9b812e016bb0c45714b824938a50cec64736f6c63430008190033","linkReferences":{}},"methodIdentifiers":{"isInitialized(address)":"d60b347f","isModuleType(uint256)":"ecd05961","onInstall(bytes)":"6d61fe70","onUninstall(bytes)":"8a91b0e3","target(uint256)":"9811c7c1","targetFunction()":"a341a91b"},"id":99}