{"abi":[{"type":"constructor","inputs":[],"stateMutability":"nonpayable"},{"type":"receive","stateMutability":"payable"},{"type":"function","name":"_validateSenderAndPaymaster","inputs":[{"name":"initCode","type":"bytes","internalType":"bytes"},{"name":"sender","type":"address","internalType":"address"},{"name":"paymasterAndData","type":"bytes","internalType":"bytes"}],"outputs":[],"stateMutability":"view"},{"type":"function","name":"addStake","inputs":[{"name":"unstakeDelaySec","type":"uint32","internalType":"uint32"}],"outputs":[],"stateMutability":"payable"},{"type":"function","name":"balanceOf","inputs":[{"name":"account","type":"address","internalType":"address"}],"outputs":[{"name":"","type":"uint256","internalType":"uint256"}],"stateMutability":"view"},{"type":"function","name":"delegateAndRevert","inputs":[{"name":"target","type":"address","internalType":"address"},{"name":"data","type":"bytes","internalType":"bytes"}],"outputs":[],"stateMutability":"nonpayable"},{"type":"function","name":"depositTo","inputs":[{"name":"account","type":"address","internalType":"address"}],"outputs":[],"stateMutability":"payable"},{"type":"function","name":"deposits","inputs":[{"name":"","type":"address","internalType":"address"}],"outputs":[{"name":"deposit","type":"uint256","internalType":"uint256"},{"name":"staked","type":"bool","internalType":"bool"},{"name":"stake","type":"uint112","internalType":"uint112"},{"name":"unstakeDelaySec","type":"uint32","internalType":"uint32"},{"name":"withdrawTime","type":"uint48","internalType":"uint48"}],"stateMutability":"view"},{"type":"function","name":"getDepositInfo","inputs":[{"name":"account","type":"address","internalType":"address"}],"outputs":[{"name":"info","type":"tuple","internalType":"struct IStakeManager.DepositInfo","components":[{"name":"deposit","type":"uint256","internalType":"uint256"},{"name":"staked","type":"bool","internalType":"bool"},{"name":"stake","type":"uint112","internalType":"uint112"},{"name":"unstakeDelaySec","type":"uint32","internalType":"uint32"},{"name":"withdrawTime","type":"uint48","internalType":"uint48"}]}],"stateMutability":"view"},{"type":"function","name":"getGasConsumed","inputs":[{"name":"account","type":"address","internalType":"address"},{"name":"phase","type":"uint256","internalType":"uint256"}],"outputs":[{"name":"","type":"uint256","internalType":"uint256"}],"stateMutability":"view"},{"type":"function","name":"getNonce","inputs":[{"name":"sender","type":"address","internalType":"address"},{"name":"key","type":"uint192","internalType":"uint192"}],"outputs":[{"name":"nonce","type":"uint256","internalType":"uint256"}],"stateMutability":"view"},{"type":"function","name":"getSenderAddress","inputs":[{"name":"initCode","type":"bytes","internalType":"bytes"}],"outputs":[],"stateMutability":"nonpayable"},{"type":"function","name":"getUserOpHash","inputs":[{"name":"userOp","type":"tuple","internalType":"struct PackedUserOperation","components":[{"name":"sender","type":"address","internalType":"address"},{"name":"nonce","type":"uint256","internalType":"uint256"},{"name":"initCode","type":"bytes","internalType":"bytes"},{"name":"callData","type":"bytes","internalType":"bytes"},{"name":"accountGasLimits","type":"bytes32","internalType":"bytes32"},{"name":"preVerificationGas","type":"uint256","internalType":"uint256"},{"name":"gasFees","type":"bytes32","internalType":"bytes32"},{"name":"paymasterAndData","type":"bytes","internalType":"bytes"},{"name":"signature","type":"bytes","internalType":"bytes"}]}],"outputs":[{"name":"","type":"bytes32","internalType":"bytes32"}],"stateMutability":"view"},{"type":"function","name":"handleAggregatedOps","inputs":[{"name":"opsPerAggregator","type":"tuple[]","internalType":"struct IEntryPoint.UserOpsPerAggregator[]","components":[{"name":"userOps","type":"tuple[]","internalType":"struct PackedUserOperation[]","components":[{"name":"sender","type":"address","internalType":"address"},{"name":"nonce","type":"uint256","internalType":"uint256"},{"name":"initCode","type":"bytes","internalType":"bytes"},{"name":"callData","type":"bytes","internalType":"bytes"},{"name":"accountGasLimits","type":"bytes32","internalType":"bytes32"},{"name":"preVerificationGas","type":"uint256","internalType":"uint256"},{"name":"gasFees","type":"bytes32","internalType":"bytes32"},{"name":"paymasterAndData","type":"bytes","internalType":"bytes"},{"name":"signature","type":"bytes","internalType":"bytes"}]},{"name":"aggregator","type":"address","internalType":"contract IAggregator"},{"name":"signature","type":"bytes","internalType":"bytes"}]},{"name":"beneficiary","type":"address","internalType":"address payable"}],"outputs":[],"stateMutability":"nonpayable"},{"type":"function","name":"handleOps","inputs":[{"name":"ops","type":"tuple[]","internalType":"struct PackedUserOperation[]","components":[{"name":"sender","type":"address","internalType":"address"},{"name":"nonce","type":"uint256","internalType":"uint256"},{"name":"initCode","type":"bytes","internalType":"bytes"},{"name":"callData","type":"bytes","internalType":"bytes"},{"name":"accountGasLimits","type":"bytes32","internalType":"bytes32"},{"name":"preVerificationGas","type":"uint256","internalType":"uint256"},{"name":"gasFees","type":"bytes32","internalType":"bytes32"},{"name":"paymasterAndData","type":"bytes","internalType":"bytes"},{"name":"signature","type":"bytes","internalType":"bytes"}]},{"name":"beneficiary","type":"address","internalType":"address payable"}],"outputs":[],"stateMutability":"nonpayable"},{"type":"function","name":"incrementNonce","inputs":[{"name":"key","type":"uint192","internalType":"uint192"}],"outputs":[],"stateMutability":"nonpayable"},{"type":"function","name":"innerHandleOp","inputs":[{"name":"callData","type":"bytes","internalType":"bytes"},{"name":"opInfo","type":"tuple","internalType":"struct EntryPoint.UserOpInfo","components":[{"name":"mUserOp","type":"tuple","internalType":"struct EntryPoint.MemoryUserOp","components":[{"name":"sender","type":"address","internalType":"address"},{"name":"nonce","type":"uint256","internalType":"uint256"},{"name":"verificationGasLimit","type":"uint256","internalType":"uint256"},{"name":"callGasLimit","type":"uint256","internalType":"uint256"},{"name":"paymasterVerificationGasLimit","type":"uint256","internalType":"uint256"},{"name":"paymasterPostOpGasLimit","type":"uint256","internalType":"uint256"},{"name":"preVerificationGas","type":"uint256","internalType":"uint256"},{"name":"paymaster","type":"address","internalType":"address"},{"name":"maxFeePerGas","type":"uint256","internalType":"uint256"},{"name":"maxPriorityFeePerGas","type":"uint256","internalType":"uint256"}]},{"name":"userOpHash","type":"bytes32","internalType":"bytes32"},{"name":"prefund","type":"uint256","internalType":"uint256"},{"name":"contextOffset","type":"uint256","internalType":"uint256"},{"name":"preOpGas","type":"uint256","internalType":"uint256"}]},{"name":"context","type":"bytes","internalType":"bytes"}],"outputs":[{"name":"actualGasCost","type":"uint256","internalType":"uint256"}],"stateMutability":"nonpayable"},{"type":"function","name":"nonceSequenceNumber","inputs":[{"name":"","type":"address","internalType":"address"},{"name":"","type":"uint192","internalType":"uint192"}],"outputs":[{"name":"","type":"uint256","internalType":"uint256"}],"stateMutability":"view"},{"type":"function","name":"simulateHandleOp","inputs":[{"name":"op","type":"tuple","internalType":"struct PackedUserOperation","components":[{"name":"sender","type":"address","internalType":"address"},{"name":"nonce","type":"uint256","internalType":"uint256"},{"name":"initCode","type":"bytes","internalType":"bytes"},{"name":"callData","type":"bytes","internalType":"bytes"},{"name":"accountGasLimits","type":"bytes32","internalType":"bytes32"},{"name":"preVerificationGas","type":"uint256","internalType":"uint256"},{"name":"gasFees","type":"bytes32","internalType":"bytes32"},{"name":"paymasterAndData","type":"bytes","internalType":"bytes"},{"name":"signature","type":"bytes","internalType":"bytes"}]},{"name":"target","type":"address","internalType":"address"},{"name":"targetCallData","type":"bytes","internalType":"bytes"}],"outputs":[{"name":"","type":"tuple","internalType":"struct IEntryPointSimulations.ExecutionResult","components":[{"name":"preOpGas","type":"uint256","internalType":"uint256"},{"name":"paid","type":"uint256","internalType":"uint256"},{"name":"accountValidationData","type":"uint256","internalType":"uint256"},{"name":"paymasterValidationData","type":"uint256","internalType":"uint256"},{"name":"targetSuccess","type":"bool","internalType":"bool"},{"name":"targetResult","type":"bytes","internalType":"bytes"}]}],"stateMutability":"nonpayable"},{"type":"function","name":"simulateValidation","inputs":[{"name":"userOp","type":"tuple","internalType":"struct PackedUserOperation","components":[{"name":"sender","type":"address","internalType":"address"},{"name":"nonce","type":"uint256","internalType":"uint256"},{"name":"initCode","type":"bytes","internalType":"bytes"},{"name":"callData","type":"bytes","internalType":"bytes"},{"name":"accountGasLimits","type":"bytes32","internalType":"bytes32"},{"name":"preVerificationGas","type":"uint256","internalType":"uint256"},{"name":"gasFees","type":"bytes32","internalType":"bytes32"},{"name":"paymasterAndData","type":"bytes","internalType":"bytes"},{"name":"signature","type":"bytes","internalType":"bytes"}]}],"outputs":[{"name":"","type":"tuple","internalType":"struct IEntryPointSimulations.ValidationResult","components":[{"name":"returnInfo","type":"tuple","internalType":"struct IEntryPoint.ReturnInfo","components":[{"name":"preOpGas","type":"uint256","internalType":"uint256"},{"name":"prefund","type":"uint256","internalType":"uint256"},{"name":"accountValidationData","type":"uint256","internalType":"uint256"},{"name":"paymasterValidationData","type":"uint256","internalType":"uint256"},{"name":"paymasterContext","type":"bytes","internalType":"bytes"}]},{"name":"senderInfo","type":"tuple","internalType":"struct IStakeManager.StakeInfo","components":[{"name":"stake","type":"uint256","internalType":"uint256"},{"name":"unstakeDelaySec","type":"uint256","internalType":"uint256"}]},{"name":"factoryInfo","type":"tuple","internalType":"struct IStakeManager.StakeInfo","components":[{"name":"stake","type":"uint256","internalType":"uint256"},{"name":"unstakeDelaySec","type":"uint256","internalType":"uint256"}]},{"name":"paymasterInfo","type":"tuple","internalType":"struct IStakeManager.StakeInfo","components":[{"name":"stake","type":"uint256","internalType":"uint256"},{"name":"unstakeDelaySec","type":"uint256","internalType":"uint256"}]},{"name":"aggregatorInfo","type":"tuple","internalType":"struct IEntryPoint.AggregatorStakeInfo","components":[{"name":"aggregator","type":"address","internalType":"address"},{"name":"stakeInfo","type":"tuple","internalType":"struct IStakeManager.StakeInfo","components":[{"name":"stake","type":"uint256","internalType":"uint256"},{"name":"unstakeDelaySec","type":"uint256","internalType":"uint256"}]}]}]}],"stateMutability":"nonpayable"},{"type":"function","name":"supportsInterface","inputs":[{"name":"interfaceId","type":"bytes4","internalType":"bytes4"}],"outputs":[{"name":"","type":"bool","internalType":"bool"}],"stateMutability":"view"},{"type":"function","name":"unlockStake","inputs":[],"outputs":[],"stateMutability":"nonpayable"},{"type":"function","name":"withdrawStake","inputs":[{"name":"withdrawAddress","type":"address","internalType":"address payable"}],"outputs":[],"stateMutability":"nonpayable"},{"type":"function","name":"withdrawTo","inputs":[{"name":"withdrawAddress","type":"address","internalType":"address payable"},{"name":"withdrawAmount","type":"uint256","internalType":"uint256"}],"outputs":[],"stateMutability":"nonpayable"},{"type":"event","name":"AccountDeployed","inputs":[{"name":"userOpHash","type":"bytes32","indexed":true,"internalType":"bytes32"},{"name":"sender","type":"address","indexed":true,"internalType":"address"},{"name":"factory","type":"address","indexed":false,"internalType":"address"},{"name":"paymaster","type":"address","indexed":false,"internalType":"address"}],"anonymous":false},{"type":"event","name":"BeforeExecution","inputs":[],"anonymous":false},{"type":"event","name":"Deposited","inputs":[{"name":"account","type":"address","indexed":true,"internalType":"address"},{"name":"totalDeposit","type":"uint256","indexed":false,"internalType":"uint256"}],"anonymous":false},{"type":"event","name":"PostOpRevertReason","inputs":[{"name":"userOpHash","type":"bytes32","indexed":true,"internalType":"bytes32"},{"name":"sender","type":"address","indexed":true,"internalType":"address"},{"name":"nonce","type":"uint256","indexed":false,"internalType":"uint256"},{"name":"revertReason","type":"bytes","indexed":false,"internalType":"bytes"}],"anonymous":false},{"type":"event","name":"SignatureAggregatorChanged","inputs":[{"name":"aggregator","type":"address","indexed":true,"internalType":"address"}],"anonymous":false},{"type":"event","name":"StakeLocked","inputs":[{"name":"account","type":"address","indexed":true,"internalType":"address"},{"name":"totalStaked","type":"uint256","indexed":false,"internalType":"uint256"},{"name":"unstakeDelaySec","type":"uint256","indexed":false,"internalType":"uint256"}],"anonymous":false},{"type":"event","name":"StakeUnlocked","inputs":[{"name":"account","type":"address","indexed":true,"internalType":"address"},{"name":"withdrawTime","type":"uint256","indexed":false,"internalType":"uint256"}],"anonymous":false},{"type":"event","name":"StakeWithdrawn","inputs":[{"name":"account","type":"address","indexed":true,"internalType":"address"},{"name":"withdrawAddress","type":"address","indexed":false,"internalType":"address"},{"name":"amount","type":"uint256","indexed":false,"internalType":"uint256"}],"anonymous":false},{"type":"event","name":"UserOperationEvent","inputs":[{"name":"userOpHash","type":"bytes32","indexed":true,"internalType":"bytes32"},{"name":"sender","type":"address","indexed":true,"internalType":"address"},{"name":"paymaster","type":"address","indexed":true,"internalType":"address"},{"name":"nonce","type":"uint256","indexed":false,"internalType":"uint256"},{"name":"success","type":"bool","indexed":false,"internalType":"bool"},{"name":"actualGasCost","type":"uint256","indexed":false,"internalType":"uint256"},{"name":"actualGasUsed","type":"uint256","indexed":false,"internalType":"uint256"}],"anonymous":false},{"type":"event","name":"UserOperationPrefundTooLow","inputs":[{"name":"userOpHash","type":"bytes32","indexed":true,"internalType":"bytes32"},{"name":"sender","type":"address","indexed":true,"internalType":"address"},{"name":"nonce","type":"uint256","indexed":false,"internalType":"uint256"}],"anonymous":false},{"type":"event","name":"UserOperationRevertReason","inputs":[{"name":"userOpHash","type":"bytes32","indexed":true,"internalType":"bytes32"},{"name":"sender","type":"address","indexed":true,"internalType":"address"},{"name":"nonce","type":"uint256","indexed":false,"internalType":"uint256"},{"name":"revertReason","type":"bytes","indexed":false,"internalType":"bytes"}],"anonymous":false},{"type":"event","name":"Withdrawn","inputs":[{"name":"account","type":"address","indexed":true,"internalType":"address"},{"name":"withdrawAddress","type":"address","indexed":false,"internalType":"address"},{"name":"amount","type":"uint256","indexed":false,"internalType":"uint256"}],"anonymous":false},{"type":"error","name":"DelegateAndRevert","inputs":[{"name":"success","type":"bool","internalType":"bool"},{"name":"ret","type":"bytes","internalType":"bytes"}]},{"type":"error","name":"FailedOp","inputs":[{"name":"opIndex","type":"uint256","internalType":"uint256"},{"name":"reason","type":"string","internalType":"string"}]},{"type":"error","name":"FailedOpWithRevert","inputs":[{"name":"opIndex","type":"uint256","internalType":"uint256"},{"name":"reason","type":"string","internalType":"string"},{"name":"inner","type":"bytes","internalType":"bytes"}]},{"type":"error","name":"PostOpReverted","inputs":[{"name":"returnData","type":"bytes","internalType":"bytes"}]},{"type":"error","name":"ReentrancyGuardReentrantCall","inputs":[]},{"type":"error","name":"SenderAddressResult","inputs":[{"name":"sender","type":"address","internalType":"address"}]},{"type":"error","name":"SignatureValidationFailed","inputs":[{"name":"aggregator","type":"address","internalType":"address"}]}],"bytecode":{"object":"0x60a0604052604051600e906093565b604051809103906000f0801580156029573d6000803e3d6000fd5b506001600160a01b0390811660805260408051808201825260008082528251808401909352808352602080840191825282018390529051600480546001600160a01b03191691909416179092555160055551600655348015608957600080fd5b50600160025560a0565b6102128061439c83390190565b6080516142e46100b8600039600050506142e46000f3fe6080604052600436106101385760003560e01c8063850aaf62116100ab578063bb9fe6bf1161006f578063bb9fe6bf146104c9578063c23a5cea146104de578063c3bce009146104fe578063dbed18e01461052b578063ee5a97c81461054b578063fc7e286d1461058e57600080fd5b8063850aaf6214610429578063957122ab1461044957806397b2dcb9146104695780639b249f6914610496578063b760faf9146104b657600080fd5b8063205c2878116100fd578063205c28781461021b57806322cdde4c1461023b57806335567e1a1461025b5780635287ce12146102bb57806370a08231146103d3578063765e827f1461040957600080fd5b806242dc531461014d57806301ffc9a7146101805780630396cb60146101b05780630bd28e3b146101c35780631b2e01b8146101e357600080fd5b366101485761014633610636565b005b600080fd5b34801561015957600080fd5b5061016d6101683660046134f4565b610657565b6040519081526020015b60405180910390f35b34801561018c57600080fd5b506101a061019b3660046135b9565b610823565b6040519015158152602001610177565b6101466101be3660046135e3565b6108ab565b3480156101cf57600080fd5b506101466101de366004613620565b610b3a565b3480156101ef57600080fd5b5061016d6101fe36600461363b565b600160209081526000928352604080842090915290825290205481565b34801561022757600080fd5b50610146610236366004613670565b610b71565b34801561024757600080fd5b5061016d6102563660046136b5565b610cc2565b34801561026757600080fd5b5061016d61027636600461363b565b6001600160a01b03821660009081526001602090815260408083206001600160c01b038516845290915290819020549082901b67ffffffffffffffff19161792915050565b3480156102c757600080fd5b506103786102d63660046136e9565b6040805160a081018252600080825260208201819052918101829052606081018290526080810191909152506001600160a01b031660009081526020818152604091829020825160a0810184528154815260019091015460ff811615159282019290925261010082046001600160701b031692810192909252600160781b810463ffffffff166060830152600160981b900465ffffffffffff16608082015290565b6040516101779190600060a082019050825182526020830151151560208301526001600160701b03604084015116604083015263ffffffff606084015116606083015265ffffffffffff608084015116608083015292915050565b3480156103df57600080fd5b5061016d6103ee3660046136e9565b6001600160a01b031660009081526020819052604090205490565b34801561041557600080fd5b5061014661042436600461374a565b610d04565b34801561043557600080fd5b506101466104443660046137a0565b610e80565b34801561045557600080fd5b506101466104643660046137f4565b610eff565b34801561047557600080fd5b50610489610484366004613878565b610ffc565b6040516101779190613929565b3480156104a257600080fd5b506101466104b1366004613978565b61112e565b6101466104c43660046136e9565b610636565b3480156104d557600080fd5b506101466111d9565b3480156104ea57600080fd5b506101466104f93660046136e9565b61130d565b34801561050a57600080fd5b5061051e6105193660046136b5565b611531565b60405161017791906139b9565b34801561053757600080fd5b5061014661054636600461374a565b6116e7565b34801561055757600080fd5b5061016d610566366004613670565b6001600160a01b03919091166000908152600360209081526040808320938352929052205490565b34801561059a57600080fd5b506105f36105a93660046136e9565b6000602081905290815260409020805460019091015460ff81169061010081046001600160701b031690600160781b810463ffffffff1690600160981b900465ffffffffffff1685565b6040805195865293151560208601526001600160701b039092169284019290925263ffffffff909116606083015265ffffffffffff16608082015260a001610177565b60015b600581101561064a57600101610639565b61065382611b00565b5050565b6000805a90503330146106b15760405162461bcd60e51b815260206004820152601760248201527f4141393220696e7465726e616c2063616c6c206f6e6c7900000000000000000060448201526064015b60405180910390fd5b8451606081015160a082015181016127100160405a603f02816106d6576106d6613a8c565b0410156106ee5763deaddead60e01b60005260206000fd5b8751600090156107c35760005a90506000610710856000015160008d87611b49565b905061074d856000015160025a6107279086613ab8565b6001600160a01b0390921660009081526003602090815260408083209383529290522055565b806107c057600061075f610800611b61565b8051909150156107ba5785600001516001600160a01b03168b602001517f1c4fada7374c0a9ee8841fc38afe82932dc0f8e69012e927f061a8bae611a2018860200151846040516107b1929190613acb565b60405180910390a35b60019350505b50505b600088608001515a8603019050610813828a8a8a8080601f016020809104026020016040519081016040528093929190818152602001838380828437600092019190915250879250611b8d915050565b955050505050505b949350505050565b60006001600160e01b0319821663307e35b760e11b148061085457506001600160e01b0319821663122a0e9b60e31b145b8061086f57506001600160e01b0319821663cf28ef9760e01b145b8061088a57506001600160e01b03198216633e84f02160e01b145b806108a557506301ffc9a760e01b6001600160e01b03198316145b92915050565b33600090815260208190526040902063ffffffff821661090d5760405162461bcd60e51b815260206004820152601a60248201527f6d757374207370656369667920756e7374616b652064656c617900000000000060448201526064016106a8565b600181015463ffffffff600160781b909104811690831610156109725760405162461bcd60e51b815260206004820152601c60248201527f63616e6e6f7420646563726561736520756e7374616b652074696d650000000060448201526064016106a8565b600181015460009061099390349061010090046001600160701b0316613ae4565b9050600081116109da5760405162461bcd60e51b81526020600482015260126024820152711b9bc81cdd185ad9481cdc1958da599a595960721b60448201526064016106a8565b6001600160701b03811115610a225760405162461bcd60e51b815260206004820152600e60248201526d7374616b65206f766572666c6f7760901b60448201526064016106a8565b6040805160a08101825283548152600160208083018281526001600160701b0386811685870190815263ffffffff8a811660608801818152600060808a0181815233808352828a52918c90209a518b55965199909801805494519151965165ffffffffffff16600160981b0265ffffffffffff60981b1997909416600160781b029690961669ffffffffffffffffffff60781b1991909516610100026effffffffffffffffffffffffffff0019991515999099166effffffffffffffffffffffffffffff1990941693909317979097179190911691909117179055835185815290810192909252917fa5ae833d0bb1dcd632d98a8b70973e8516812898e19bf27b70071ebc8dc52c01910160405180910390a2505050565b3360009081526001602090815260408083206001600160c01b03851684529091528120805491610b6983613af7565b919050555050565b3360009081526020819052604090208054821115610bd15760405162461bcd60e51b815260206004820152601960248201527f576974686472617720616d6f756e7420746f6f206c617267650000000000000060448201526064016106a8565b8054610bde908390613ab8565b8155604080516001600160a01b03851681526020810184905233917fd1c19fbcd4551a5edfb66d43d2e337c04837afda3482b42bdf569a8fccdae5fb910160405180910390a26000836001600160a01b03168360405160006040518083038185875af1925050503d8060008114610c71576040519150601f19603f3d011682016040523d82523d6000602084013e610c76565b606091505b5050905080610cbc5760405162461bcd60e51b81526020600482015260126024820152716661696c656420746f20776974686472617760701b60448201526064016106a8565b50505050565b6000610ccd82611d50565b6040805160208101929092523090820152466060820152608001604051602081830303815290604052805190602001209050919050565b610d0c611d69565b816000816001600160401b03811115610d2757610d276132ee565b604051908082528060200260200182016040528015610d6057816020015b610d4d613169565b815260200190600190039081610d455790505b50905060005b82811015610dd9576000828281518110610d8257610d82613b10565b60200260200101519050600080610dbd848a8a87818110610da557610da5613b10565b9050602002810190610db79190613b26565b85611d91565b91509150610dce8483836000611f97565b505050600101610d66565b506040516000907fbb47ee3e183a558b1a2ff0874b079f3fc5478b7454eacf2bfc5af2ff5878f972908290a160005b83811015610e6357610e5781888884818110610e2657610e26613b10565b9050602002810190610e389190613b26565b858481518110610e4a57610e4a613b10565b6020026020010151612133565b90910190600101610e08565b50610e6e84826123ef565b505050610e7b6001600255565b505050565b600080846001600160a01b03168484604051610e9d929190613b47565b600060405180830381855af49150503d8060008114610ed8576040519150601f19603f3d011682016040523d82523d6000602084013e610edd565b606091505b50915091508181604051632650415560e21b81526004016106a8929190613b57565b83158015610f1557506001600160a01b0383163b155b15610f625760405162461bcd60e51b815260206004820152601960248201527f41413230206163636f756e74206e6f74206465706c6f7965640000000000000060448201526064016106a8565b60148110610fda576000610f796014828486613b72565b610f8291613b9c565b60601c9050803b600003610fd85760405162461bcd60e51b815260206004820152601b60248201527f41413330207061796d6173746572206e6f74206465706c6f796564000000000060448201526064016106a8565b505b60405162461bcd60e51b815260206004820152600060248201526044016106a8565b6110376040518060c0016040528060008152602001600081526020016000815260200160008152602001600015158152602001606081525090565b61103f611d69565b611047613169565b611050866124e8565b60008061105f60008985611d91565b91509150600061107160008a86612133565b9050600060606001600160a01b038a16156110e957896001600160a01b031689896040516110a0929190613b47565b6000604051808303816000865af19150503d80600081146110dd576040519150601f19603f3d011682016040523d82523d6000602084013e6110e2565b606091505b5090925090505b6040518060c0016040528087608001518152602001848152602001868152602001858152602001831515815260200182815250965050505050505061081b6001600255565b60006111426007546001600160a01b031690565b6001600160a01b031663570e1a3684846040518363ffffffff1660e01b815260040161116f929190613bfa565b6020604051808303816000875af115801561118e573d6000803e3d6000fd5b505050506040513d601f19601f820116820180604052508101906111b29190613c0e565b604051633653dc0360e11b81526001600160a01b03821660048201529091506024016106a8565b33600090815260208190526040812060018101549091600160781b90910463ffffffff1690036112385760405162461bcd60e51b815260206004820152600a6024820152691b9bdd081cdd185ad95960b21b60448201526064016106a8565b600181015460ff166112805760405162461bcd60e51b8152602060048201526011602482015270616c726561647920756e7374616b696e6760781b60448201526064016106a8565b600181015460009061129f90600160781b900463ffffffff1642613c2b565b60018301805460ff65ffffffffffff60981b011916600160981b65ffffffffffff841690810260ff19169190911790915560405190815290915033907ffa9b3c14cc825c412c9ed81b3ba365a5b459439403f18829e572ed53a4180f0a906020015b60405180910390a25050565b336000908152602081905260409020600181015461010090046001600160701b0316806113735760405162461bcd60e51b81526020600482015260146024820152734e6f207374616b6520746f20776974686472617760601b60448201526064016106a8565b6001820154600160981b900465ffffffffffff166113d35760405162461bcd60e51b815260206004820152601d60248201527f6d7573742063616c6c20756e6c6f636b5374616b65282920666972737400000060448201526064016106a8565b600182015442600160981b90910465ffffffffffff1611156114375760405162461bcd60e51b815260206004820152601b60248201527f5374616b65207769746864726177616c206973206e6f7420647565000000000060448201526064016106a8565b600182018054610100600160c81b0319169055604080516001600160a01b03851681526020810183905233917fb7c918e0e249f999e965cafeb6c664271b3f4317d296461500e71da39f0cbda3910160405180910390a26000836001600160a01b03168260405160006040518083038185875af1925050503d80600081146114db576040519150601f19603f3d011682016040523d82523d6000602084013e6114e0565b606091505b5050905080610cbc5760405162461bcd60e51b815260206004820152601860248201527f6661696c656420746f207769746864726177207374616b65000000000000000060448201526064016106a8565b611539613201565b611541613169565b61154a836124e8565b60008061155960008685611d91565b915091506000611570846000015160e00151612630565b84515190915060009061158290612630565b90506115a1604051806040016040528060008152602001600081525090565b3660006115b160408b018b613c51565b9092509050600060148210156115c85760006115e3565b6115d6601460008486613b72565b6115df91613b9c565b60601c5b90506115ee81612630565b9350505050600085905060006040518060a0016040528089608001518152602001896040015181526020018881526020018781526020016116308a6060015190565b90526040805180820182526004546001600160a01b0390811682528251808401909352600554835260065460208481019190915282019290925291925083161580159061168757506001836001600160a01b031614155b156116b4576040518060400160405280846001600160a01b031681526020016116af85612630565b905290505b6040805160a081018252928352602083019590955293810192909252506060810192909252608082015295945050505050565b6116ef611d69565b816000805b8281101561185c573686868381811061170f5761170f613b10565b90506020028101906117219190613c97565b90503660006117308380613cad565b9092509050600061174760408501602086016136e9565b90506000196001600160a01b038216016117a35760405162461bcd60e51b815260206004820152601760248201527f4141393620696e76616c69642061676772656761746f7200000000000000000060448201526064016106a8565b6001600160a01b03811615611840576001600160a01b038116632dd8113384846117d06040890189613c51565b6040518563ffffffff1660e01b81526004016117ef9493929190613e1a565b60006040518083038186803b15801561180757600080fd5b505afa925050508015611818575060015b6118405760405163086a9f7560e41b81526001600160a01b03821660048201526024016106a8565b61184a8287613ae4565b955050600190930192506116f4915050565b506000816001600160401b03811115611877576118776132ee565b6040519080825280602002602001820160405280156118b057816020015b61189d613169565b8152602001906001900390816118955790505b5090506000805b8481101561198d57368888838181106118d2576118d2613b10565b90506020028101906118e49190613c97565b90503660006118f38380613cad565b9092509050600061190a60408501602086016136e9565b90508160005b8181101561197b57600089898151811061192c5761192c613b10565b6020026020010151905060008061194f8b898987818110610da557610da5613b10565b9150915061195f84838389611f97565b8a61196981613af7565b9b505060019093019250611910915050565b5050600190940193506118b792505050565b506040517fbb47ee3e183a558b1a2ff0874b079f3fc5478b7454eacf2bfc5af2ff5878f97290600090a150600080805b85811015611abb57368989838181106119d8576119d8613b10565b90506020028101906119ea9190613c97565b90506119fc60408201602083016136e9565b6001600160a01b03167f575ff3acadd5ab348fe1855e217e0f3678f8d767d7494c9f9fefbee2e17cca4d60405160405180910390a2366000611a3e8380613cad565b90925090508060005b81811015611aaa57611a8988858584818110611a6557611a65613b10565b9050602002810190611a779190613b26565b8b8b81518110610e4a57610e4a613b10565b611a939088613ae4565b965087611a9f81613af7565b985050600101611a47565b5050600190930192506119bd915050565b506040516000907f575ff3acadd5ab348fe1855e217e0f3678f8d767d7494c9f9fefbee2e17cca4d908290a2611af186826123ef565b5050505050610e7b6001600255565b6000611b0c8234612682565b9050816001600160a01b03167f2da466a7b24304f47e87fa2e1e5a81b9831ce54fec19055ce277ca2f39ba42c48260405161130191815260200190565b6000806000845160208601878987f195945050505050565b60603d82811115611b6f5750815b604051602082018101604052818152816000602083013e9392505050565b6000805a855190915060009081611ba3826126b5565b60e08301519091506001600160a01b038116611bc25782519350611c7e565b809350600088511115611c7e57868202955060028a6002811115611be857611be8613e97565b14611c7e5760a0830151604051637c627b2160e01b81526001600160a01b03831691637c627b2191611c24908e908d908c908990600401613ead565b600060405180830381600088803b158015611c3e57600080fd5b5087f193505050508015611c50575060015b611c7e576000611c61610800611b61565b905080604051632b5e552f60e21b81526004016106a89190613ef7565b5a60a0840151606085015160808c015192880399909901980190880380821115611cb1576064600a828403020498909801975b50506040890151878302965086811015611d0d5760028b6002811115611cd957611cd9613e97565b03611cfc57809650611cea8a6126df565b611cf78a6000898b61272e565b611d42565b63deadaa5160e01b60005260206000fd5b868103611d1a8682612682565b506000808d6002811115611d3057611d30613e97565b149050611d3f8c828b8d61272e565b50505b505050505050949350505050565b6000611d5b826127a9565b805190602001209050919050565b6002805403611d8b57604051633ee5aeb560e01b815260040160405180910390fd5b60028055565b60008060005a8451909150611da68682612861565b611daf86610cc2565b6020860152604081015161012082015161010083015160a08401516080850151606086015160c0870151861717171717176effffffffffffffffffffffffffffff811115611e3f5760405162461bcd60e51b815260206004820152601860248201527f41413934206761732076616c756573206f766572666c6f77000000000000000060448201526064016106a8565b6000611e6e8460c081015160a08201516080830151606084015160408501516101009095015194010101010290565b9050611e7d8a8a8a848761296f565b9650611e9184600001518560200151612b3d565b611ee75789604051631101335b60e11b81526004016106a8918152604060208201819052601a908201527f4141323520696e76616c6964206163636f756e74206e6f6e6365000000000000606082015260800190565b825a86031115611f435789604051631101335b60e11b81526004016106a8918152604060208201819052601e908201527f41413236206f76657220766572696669636174696f6e4761734c696d69740000606082015260800190565b60e08401516060906001600160a01b031615611f6a57611f658b8b8b85612b8a565b975090505b604089018290528060608a015260a08a01355a870301896080018181525050505050505050935093915050565b600080611fa385612d48565b91509150816001600160a01b0316836001600160a01b0316146120095785604051631101335b60e11b81526004016106a89181526040602082018190526014908201527320a0991a1039b4b3b730ba3ab9329032b93937b960611b606082015260800190565b80156120615785604051631101335b60e11b81526004016106a89181526040602082018190526017908201527f414132322065787069726564206f72206e6f7420647565000000000000000000606082015260800190565b600061206c85612d48565b925090506001600160a01b038116156120c85786604051631101335b60e11b81526004016106a89181526040602082018190526014908201527320a0999a1039b4b3b730ba3ab9329032b93937b960611b606082015260800190565b811561212a5786604051631101335b60e11b81526004016106a89181526040602082018190526021908201527f41413332207061796d61737465722065787069726564206f72206e6f742064756060820152606560f81b608082015260a00190565b50505050505050565b6000805a90506000612146846060015190565b604051909150600090368261215e60608a018a613c51565b915091506060600082600381111561217557843591505b506372288ed160e01b6001600160e01b03198216016122235760008b8b602001516040516024016121a7929190613f0a565b60408051601f198184030181529181526020820180516001600160e01b0316638dd7712f60e01b1790525190915030906242dc53906121ee9084908f908d90602401613fd6565b604051602081830303815290604052915060e01b6020820180516001600160e01b038381831617835250505050925050612278565b306001600160a01b03166242dc5385858d8b6040516024016122489493929190614016565b604051602081830303815290604052915060e01b6020820180516001600160e01b03838183161783525050505091505b602060008351602085016000305af195506000519850846040525050505050806123e55760003d806020036122b35760206000803e60005191505b5063deaddead60e01b81036123065787604051631101335b60e11b81526004016106a8918152604060208201819052600f908201526e41413935206f7574206f662067617360881b606082015260800190565b63deadaa5160e01b810361235757600086608001515a6123269087613ab8565b6123309190613ae4565b6040880151909150612341886126df565b61234e886000838561272e565b95506123e39050565b855180516020808901519201516001600160a01b0390911691907ff62676f440ff169a3a9afdbf812e89e7f95975ee8e5c31214ffdef631c5f47929061239e610800611b61565b6040516123ac929190613acb565b60405180910390a3600086608001515a6123c69087613ab8565b6123d09190613ae4565b90506123df6002888684611b8d565b9550505b505b5050509392505050565b6001600160a01b0382166124455760405162461bcd60e51b815260206004820152601860248201527f4141393020696e76616c69642062656e6566696369617279000000000000000060448201526064016106a8565b6000826001600160a01b03168260405160006040518083038185875af1925050503d8060008114612492576040519150601f19603f3d011682016040523d82523d6000602084013e612497565b606091505b5050905080610e7b5760405162461bcd60e51b815260206004820152601f60248201527f41413931206661696c65642073656e6420746f2062656e65666963696172790060448201526064016106a8565b61255b6040516135a560f21b60208201526bffffffffffffffffffffffff193060601b166022820152600160f81b603682015260009060370160408051808303601f190181529190528051602090910120600780546001600160a01b0319166001600160a01b0390921691909117905550565b3063957122ab61256e6040840184613c51565b61257b60208601866136e9565b61258860e0870187613c51565b6040518663ffffffff1660e01b81526004016125a895949392919061404d565b60006040518083038186803b1580156125c057600080fd5b505afa9250505080156125d1575060015b61262d576125dd61408f565b806308c379a00361262157506125f16140ab565b806125fc5750612623565b80511561065357600081604051631101335b60e11b81526004016106a8929190613acb565b505b3d6000803e3d6000fd5b50565b604080518082018252600080825260208083018281526001600160a01b03959095168252819052919091206001015461010081046001600160701b03168252600160781b900463ffffffff1690915290565b6001600160a01b0382166000908152602081905260408120805482906126a9908590613ae4565b91829055509392505050565b610100810151610120820151600091908082036126d3575092915050565b61081b82488301612d9b565b80518051602080840151928101516040519081526001600160a01b0390921692917f67b4fa9642f42120bf031f3051d1824b0fe25627945b27b8a6a65d5761d5482e910160405180910390a350565b835160e081015181516020808801519301516040516001600160a01b039384169492909316927f49628fd1471006c1482da88028e9ce4dbb080b815c9b0344d39e5a8e6ec1419f9161279b9189908990899093845291151560208401526040830152606082015260800190565b60405180910390a450505050565b60608135602083013560006127c96127c46040870187613c51565b612db3565b905060006127dd6127c46060880188613c51565b9050608086013560a087013560c088013560006128006127c460e08c018c613c51565b604080516001600160a01b039a909a1660208b015289810198909852606089019690965250608087019390935260a086019190915260c085015260e08401526101008084019190915281518084039091018152610120909201905292915050565b61286e60208301836136e9565b6001600160a01b03168152602082810135908201526001600160801b036080808401358281166060850152811c604084015260a084013560c0808501919091528401359182166101008401521c6101208201523660006128d160e0850185613c51565b9092509050801561295457603481101561292d5760405162461bcd60e51b815260206004820152601d60248201527f4141393320696e76616c6964207061796d6173746572416e644461746100000060448201526064016106a8565b6129378282612dc6565b60a086015260808501526001600160a01b031660e0840152610cbc565b600060e084018190526080840181905260a084015250505050565b825180516000919061298e888761298960408b018b613c51565b612e2e565b60e082015160006001600160a01b0382166129d2576001600160a01b0383166000908152602081905260409020548781116129cb578088036129ce565b60005b9150505b60005a60208a01516040516306608bdf60e21b81529192506001600160a01b038616916319822f7c918a91612a0d918f918890600401614134565b60206040518083038160008887f193505050508015612a49575060408051601f3d908101601f19168201909252612a4691810190614159565b60015b612a74578a612a59610800611b61565b6040516365c8fd4d60e01b81526004016106a8929190614172565b809650612aa68560015a85036001600160a01b0390921660009081526003602090815260408083209383529290522055565b506001600160a01b038316612b2f576001600160a01b03841660009081526020819052604090208054808a1115612b29578c604051631101335b60e11b81526004016106a89181526040602082018190526017908201527f41413231206469646e2774207061792070726566756e64000000000000000000606082015260800190565b89900390555b505050505095945050505050565b6001600160a01b038216600090815260016020908152604080832084821c80855292528220805484916001600160401b038316919085612b7c83613af7565b909155501495945050505050565b60606000805a855160e08101516001600160a01b03811660009081526020819052604090208054939450919290919087811015612c13578a604051631101335b60e11b81526004016106a8918152604060208201819052601e908201527f41413331207061796d6173746572206465706f73697420746f6f206c6f770000606082015260800190565b8781038260000181905550600084608001519050836001600160a01b03166352b7512c828d8d602001518d6040518563ffffffff1660e01b8152600401612c5c93929190614134565b60006040518083038160008887f193505050508015612c9d57506040513d6000823e601f3d908101601f19168201604052612c9a91908101906141af565b60015b612cc8578b612cad610800611b61565b6040516365c8fd4d60e01b81526004016106a892919061423a565b9098509650805a87031115612d39578b604051631101335b60e11b81526004016106a89181526040602082018190526027908201527f41413336206f766572207061796d6173746572566572696669636174696f6e47606082015266185cd31a5b5a5d60ca1b608082015260a00190565b50505050505094509492505050565b60008082600003612d5e57506000928392509050565b6000612d69846130f8565b9050806040015165ffffffffffff16421180612d905750806020015165ffffffffffff1642105b905194909350915050565b6000818310612daa5781612dac565b825b9392505050565b6000604051828085833790209392505050565b60008080612dd76014828688613b72565b612de091613b9c565b60601c612df1602460148789613b72565b612dfa91614277565b60801c612e0b60346024888a613b72565b612e1491614277565b9194506001600160801b0316925060801c90509250925092565b8015610cbc578251516001600160a01b0381163b15612e995784604051631101335b60e11b81526004016106a8918152604060208201819052601f908201527f414131302073656e64657220616c726561647920636f6e737472756374656400606082015260800190565b60005a90506000612eb26007546001600160a01b031690565b6001600160a01b031663570e1a3687600001516040015187876040518463ffffffff1660e01b8152600401612ee8929190613bfa565b60206040518083038160008887f1158015612f07573d6000803e3d6000fd5b50505050506040513d601f19601f82011682018060405250810190612f2c9190613c0e565b9050612f3f8360005a6107279086613ab8565b6001600160a01b038116612f9f5786604051631101335b60e11b81526004016106a8918152604060208201819052601b908201527f4141313320696e6974436f6465206661696c6564206f72204f4f470000000000606082015260800190565b826001600160a01b0316816001600160a01b0316146130095786604051631101335b60e11b81526004016106a891815260406020808301829052908201527f4141313420696e6974436f6465206d7573742072657475726e2073656e646572606082015260800190565b806001600160a01b03163b60000361306c5786604051631101335b60e11b81526004016106a891815260406020808301829052908201527f4141313520696e6974436f6465206d757374206372656174652073656e646572606082015260800190565b600061307b6014828789613b72565b61308491613b9c565b60601c9050836001600160a01b031687602001517fd51a9c61267aa6196961883ecf5ff2da6619c37dac0fa92122513fb32c032d2d838a6000015160e001516040516130e69291906001600160a01b0392831681529116602082015260400190565b60405180910390a35050505050505050565b60408051606081018252600080825260208201819052918101919091528160a081901c65ffffffffffff8116600003613134575065ffffffffffff5b604080516060810182526001600160a01b03909316835260d09490941c602083015265ffffffffffff16928101929092525090565b6040518060a001604052806131dc60405180610140016040528060006001600160a01b0316815260200160008152602001600081526020016000815260200160008152602001600081526020016000815260200160006001600160a01b0316815260200160008152602001600081525090565b8152602001600080191681526020016000815260200160008152602001600081525090565b6040518060a0016040528061323e6040518060a0016040528060008152602001600081526020016000815260200160008152602001606081525090565b8152602001613260604051806040016040528060008152602001600081525090565b8152602001613282604051806040016040528060008152602001600081525090565b81526020016132a4604051806040016040528060008152602001600081525090565b81526020016132b16132b6565b905290565b604051806040016040528060006001600160a01b031681526020016132b1604051806040016040528060008152602001600081525090565b634e487b7160e01b600052604160045260246000fd5b60a081018181106001600160401b0382111715613323576133236132ee565b60405250565b601f8201601f191681016001600160401b038111828210171561334e5761334e6132ee565b6040525050565b60405161014081016001600160401b0381118282101715613378576133786132ee565b60405290565b60006001600160401b03821115613397576133976132ee565b50601f01601f191660200190565b6001600160a01b038116811461262d57600080fd5b80356133c5816133a5565b919050565b60008183036101c08112156133de57600080fd5b6040516133ea81613304565b809250610140808312156133fd57600080fd5b613405613355565b9250613410856133ba565b83526020850135602084015260408501356040840152606085013560608401526080850135608084015260a085013560a084015260c085013560c084015261345a60e086016133ba565b60e084015261010085810135908401526101208086013590840152918152908301356020820152610160830135604082015261018083013560608201526101a090920135608090920191909152919050565b60008083601f8401126134be57600080fd5b5081356001600160401b038111156134d557600080fd5b6020830191508360208285010111156134ed57600080fd5b9250929050565b600080600080610200858703121561350b57600080fd5b84356001600160401b038082111561352257600080fd5b818701915087601f83011261353657600080fd5b81356135418161337e565b60405161354e8282613329565b8281528a602084870101111561356357600080fd5b8260208601602083013760006020848301015280985050505061358988602089016133ca565b94506101e08701359150808211156135a057600080fd5b506135ad878288016134ac565b95989497509550505050565b6000602082840312156135cb57600080fd5b81356001600160e01b031981168114612dac57600080fd5b6000602082840312156135f557600080fd5b813563ffffffff81168114612dac57600080fd5b80356001600160c01b03811681146133c557600080fd5b60006020828403121561363257600080fd5b612dac82613609565b6000806040838503121561364e57600080fd5b8235613659816133a5565b915061366760208401613609565b90509250929050565b6000806040838503121561368357600080fd5b823561368e816133a5565b946020939093013593505050565b600061012082840312156136af57600080fd5b50919050565b6000602082840312156136c757600080fd5b81356001600160401b038111156136dd57600080fd5b61081b8482850161369c565b6000602082840312156136fb57600080fd5b8135612dac816133a5565b60008083601f84011261371857600080fd5b5081356001600160401b0381111561372f57600080fd5b6020830191508360208260051b85010111156134ed57600080fd5b60008060006040848603121561375f57600080fd5b83356001600160401b0381111561377557600080fd5b61378186828701613706565b9094509250506020840135613795816133a5565b809150509250925092565b6000806000604084860312156137b557600080fd5b83356137c0816133a5565b925060208401356001600160401b038111156137db57600080fd5b6137e7868287016134ac565b9497909650939450505050565b60008060008060006060868803121561380c57600080fd5b85356001600160401b038082111561382357600080fd5b61382f89838a016134ac565b909750955060208801359150613844826133a5565b9093506040870135908082111561385a57600080fd5b50613867888289016134ac565b969995985093965092949392505050565b6000806000806060858703121561388e57600080fd5b84356001600160401b03808211156138a557600080fd5b6138b18883890161369c565b9550602087013591506138c3826133a5565b909350604086013590808211156135a057600080fd5b60005b838110156138f45781810151838201526020016138dc565b50506000910152565b600081518084526139158160208601602086016138d9565b601f01601f19169290920160200192915050565b60208152815160208201526020820151604082015260408201516060820152606082015160808201526080820151151560a0820152600060a083015160c08084015261081b60e08401826138fd565b6000806020838503121561398b57600080fd5b82356001600160401b038111156139a157600080fd5b6139ad858286016134ac565b90969095509350505050565b602080825282516101408383015280516101608401529081015161018083015260408101516101a083015260608101516101c08301526080015160a06101e0830152600090613a0c6102008401826138fd565b90506020840151613a2a604085018280518252602090810151910152565b506040840151805160808581019190915260209182015160a08601526060860151805160c087015282015160e086015285015180516001600160a01b031661010086015280820151805161012087015290910151610140850152509392505050565b634e487b7160e01b600052601260045260246000fd5b634e487b7160e01b600052601160045260246000fd5b818103818111156108a5576108a5613aa2565b82815260406020820152600061081b60408301846138fd565b808201808211156108a5576108a5613aa2565b600060018201613b0957613b09613aa2565b5060010190565b634e487b7160e01b600052603260045260246000fd5b6000823561011e19833603018112613b3d57600080fd5b9190910192915050565b8183823760009101908152919050565b821515815260406020820152600061081b60408301846138fd565b60008085851115613b8257600080fd5b83861115613b8f57600080fd5b5050820193919092039150565b6bffffffffffffffffffffffff198135818116916014851015613bc95780818660140360031b1b83161692505b505092915050565b81835281816020850137506000828201602090810191909152601f909101601f19169091010190565b60208152600061081b602083018486613bd1565b600060208284031215613c2057600080fd5b8151612dac816133a5565b65ffffffffffff818116838216019080821115613c4a57613c4a613aa2565b5092915050565b6000808335601e19843603018112613c6857600080fd5b8301803591506001600160401b03821115613c8257600080fd5b6020019150368190038213156134ed57600080fd5b60008235605e19833603018112613b3d57600080fd5b6000808335601e19843603018112613cc457600080fd5b8301803591506001600160401b03821115613cde57600080fd5b6020019150600581901b36038213156134ed57600080fd5b6000808335601e19843603018112613d0d57600080fd5b83016020810192503590506001600160401b03811115613d2c57600080fd5b8036038213156134ed57600080fd5b6000610120613d5a84613d4d856133ba565b6001600160a01b03169052565b60208301356020850152613d716040840184613cf6565b826040870152613d848387018284613bd1565b92505050613d956060840184613cf6565b8583036060870152613da8838284613bd1565b925050506080830135608085015260a083013560a085015260c083013560c0850152613dd760e0840184613cf6565b85830360e0870152613dea838284613bd1565b92505050610100613dfd81850185613cf6565b86840383880152613e0f848284613bd1565b979650505050505050565b6040808252810184905260006060600586901b830181019083018783805b89811015613e8057868503605f190184528235368c900361011e19018112613e5e578283fd5b613e6a868d8301613d3b565b9550506020938401939290920191600101613e38565b505050508281036020840152613e0f818587613bd1565b634e487b7160e01b600052602160045260246000fd5b600060038610613ecd57634e487b7160e01b600052602160045260246000fd5b85825260806020830152613ee460808301866138fd565b6040830194909452506060015292915050565b602081526000612dac60208301846138fd565b604081526000613f1d6040830185613d3b565b90508260208301529392505050565b805180516001600160a01b031683526020810151602084015260408101516040840152606081015160608401526080810151608084015260a081015160a084015260c081015160c084015260e0810151613f9160e08501826001600160a01b03169052565b5061010081810151908401526101209081015190830152602081015161014083015260408101516101608301526060810151610180830152608001516101a090910152565b6000610200808352613fea818401876138fd565b9050613ff96020840186613f2c565b8281036101e084015261400c81856138fd565b9695505050505050565b600061020080835261402b8184018789613bd1565b905061403a6020840186613f2c565b8281036101e0840152613e0f81856138fd565b606081526000614061606083018789613bd1565b6001600160a01b03861660208401528281036040840152614083818587613bd1565b98975050505050505050565b600060033d11156140a85760046000803e5060005160e01c5b90565b600060443d10156140b95790565b6040516003193d81016004833e81513d6001600160401b0381602484011181841117156140e857505050505090565b82850191508151818111156141005750505050505090565b843d870101602082850101111561411a5750505050505090565b61412960208286010187613329565b509095945050505050565b6060815260006141476060830186613d3b565b60208301949094525060400152919050565b60006020828403121561416b57600080fd5b5051919050565b82815260606020820152600d60608201526c10504c8cc81c995d995c9d1959609a1b608082015260a06040820152600061081b60a08301846138fd565b600080604083850312156141c257600080fd5b82516001600160401b038111156141d857600080fd5b8301601f810185136141e957600080fd5b80516141f48161337e565b6040516142018282613329565b82815287602084860101111561421657600080fd5b6142278360208301602087016138d9565b6020969096015195979596505050505050565b82815260606020820152600d60608201526c10504cccc81c995d995c9d1959609a1b608082015260a06040820152600061081b60a08301846138fd565b6fffffffffffffffffffffffffffffffff198135818116916010851015613bc95760109490940360031b84901b169092169291505056fea2646970667358221220dd73864e46cb0a082281db8e6317bc3456bfef19bb5bf3ccdbc787cac4f62bef64736f6c634300081900336080604052348015600f57600080fd5b506101f38061001f6000396000f3fe608060405234801561001057600080fd5b506004361061002b5760003560e01c8063570e1a3614610030575b600080fd5b61004361003e3660046100ec565b61005f565b6040516001600160a01b03909116815260200160405180910390f35b60008061006f601482858761015e565b61007891610188565b60601c9050600061008c846014818861015e565b8080601f016020809104026020016040519081016040528093929190818152602001838380828437600092018290525084519495509360209350849250905082850182875af190506000519350806100e357600093505b50505092915050565b600080602083850312156100ff57600080fd5b823567ffffffffffffffff8082111561011757600080fd5b818501915085601f83011261012b57600080fd5b81358181111561013a57600080fd5b86602082850101111561014c57600080fd5b60209290920196919550909350505050565b6000808585111561016e57600080fd5b8386111561017b57600080fd5b5050820193919092039150565b6bffffffffffffffffffffffff1981358181169160148510156101b55780818660140360031b1b83161692505b50509291505056fea26469706673582212206dd015fe08730e548712d9aed746bc746c40cd40536c5da0df321e61dc56f3a964736f6c63430008190033","linkReferences":{}},"methodIdentifiers":{"_validateSenderAndPaymaster(bytes,address,bytes)":"957122ab","addStake(uint32)":"0396cb60","balanceOf(address)":"70a08231","delegateAndRevert(address,bytes)":"850aaf62","depositTo(address)":"b760faf9","deposits(address)":"fc7e286d","getDepositInfo(address)":"5287ce12","getGasConsumed(address,uint256)":"ee5a97c8","getNonce(address,uint192)":"35567e1a","getSenderAddress(bytes)":"9b249f69","getUserOpHash((address,uint256,bytes,bytes,bytes32,uint256,bytes32,bytes,bytes))":"22cdde4c","handleAggregatedOps(((address,uint256,bytes,bytes,bytes32,uint256,bytes32,bytes,bytes)[],address,bytes)[],address)":"dbed18e0","handleOps((address,uint256,bytes,bytes,bytes32,uint256,bytes32,bytes,bytes)[],address)":"765e827f","incrementNonce(uint192)":"0bd28e3b","innerHandleOp(bytes,((address,uint256,uint256,uint256,uint256,uint256,uint256,address,uint256,uint256),bytes32,uint256,uint256,uint256),bytes)":"0042dc53","nonceSequenceNumber(address,uint192)":"1b2e01b8","simulateHandleOp((address,uint256,bytes,bytes,bytes32,uint256,bytes32,bytes,bytes),address,bytes)":"97b2dcb9","simulateValidation((address,uint256,bytes,bytes,bytes32,uint256,bytes32,bytes,bytes))":"c3bce009","supportsInterface(bytes4)":"01ffc9a7","unlockStake()":"bb9fe6bf","withdrawStake(address)":"c23a5cea","withdrawTo(address,uint256)":"205c2878"},"id":230}