{"abi":[{"type":"function","name":"autoSave","inputs":[{"name":"params","type":"tuple","internalType":"struct AutoSavingToVault.Params","components":[{"name":"token","type":"address","internalType":"address"},{"name":"amountReceived","type":"uint256","internalType":"uint256"}]}],"outputs":[],"stateMutability":"nonpayable"},{"type":"function","name":"calcDepositAmount","inputs":[{"name":"amountReceived","type":"uint256","internalType":"uint256"},{"name":"percentage","type":"uint256","internalType":"uint256"}],"outputs":[{"name":"","type":"uint256","internalType":"uint256"}],"stateMutability":"pure"},{"type":"function","name":"getConfig","inputs":[{"name":"account","type":"address","internalType":"address"},{"name":"token","type":"address","internalType":"address"}],"outputs":[{"name":"","type":"tuple","internalType":"struct AutoSavingToVault.Config","components":[{"name":"percentage","type":"uint16","internalType":"uint16"},{"name":"vault","type":"address","internalType":"address"},{"name":"sqrtPriceLimitX96","type":"uint128","internalType":"uint128"}]}],"stateMutability":"view"},{"type":"function","name":"isInitialized","inputs":[{"name":"smartAccount","type":"address","internalType":"address"}],"outputs":[{"name":"","type":"bool","internalType":"bool"}],"stateMutability":"view"},{"type":"function","name":"isModuleType","inputs":[{"name":"typeID","type":"uint256","internalType":"uint256"}],"outputs":[{"name":"","type":"bool","internalType":"bool"}],"stateMutability":"pure"},{"type":"function","name":"name","inputs":[],"outputs":[{"name":"","type":"string","internalType":"string"}],"stateMutability":"pure"},{"type":"function","name":"onInstall","inputs":[{"name":"data","type":"bytes","internalType":"bytes"}],"outputs":[],"stateMutability":"nonpayable"},{"type":"function","name":"onUninstall","inputs":[{"name":"data","type":"bytes","internalType":"bytes"}],"outputs":[],"stateMutability":"nonpayable"},{"type":"function","name":"setConfig","inputs":[{"name":"token","type":"address","internalType":"address"},{"name":"config","type":"tuple","internalType":"struct AutoSavingToVault.Config","components":[{"name":"percentage","type":"uint16","internalType":"uint16"},{"name":"vault","type":"address","internalType":"address"},{"name":"sqrtPriceLimitX96","type":"uint128","internalType":"uint128"}]}],"outputs":[],"stateMutability":"nonpayable"},{"type":"function","name":"validateSessionParams","inputs":[{"name":"destinationContract","type":"address","internalType":"address"},{"name":"callValue","type":"uint256","internalType":"uint256"},{"name":"callData","type":"bytes","internalType":"bytes"},{"name":"_sessionKeyData","type":"bytes","internalType":"bytes"},{"name":"","type":"bytes","internalType":"bytes"}],"outputs":[{"name":"","type":"address","internalType":"address"}],"stateMutability":"nonpayable"},{"type":"function","name":"version","inputs":[],"outputs":[{"name":"","type":"string","internalType":"string"}],"stateMutability":"pure"},{"type":"event","name":"AutoSaveExecuted","inputs":[{"name":"smartAccount","type":"address","indexed":true,"internalType":"address"},{"name":"token","type":"address","indexed":true,"internalType":"address"},{"name":"amountReceived","type":"uint256","indexed":false,"internalType":"uint256"}],"anonymous":false},{"type":"error","name":"AlreadyInitialized","inputs":[{"name":"smartAccount","type":"address","internalType":"address"}]},{"type":"error","name":"NotInitialized","inputs":[{"name":"smartAccount","type":"address","internalType":"address"}]}],"bytecode":{"object":"0x6080604052348015600f57600080fd5b5061144f8061001f6000396000f3fe608060405234801561001057600080fd5b50600436106100a95760003560e01c8063bbdcbed611610071578063bbdcbed614610150578063c20bccb914610209578063d60b347f14610234578063e7cfd97a14610258578063ea8dbfb0146102da578063ecd05961146102ed57600080fd5b806306fdde03146100ae57806354fd4d50146100e65780636d61fe701461010757806371bad5d41461011c5780638a91b0e31461013d575b600080fd5b60408051808201909152600a8152694175746f536176696e6760b01b60208201525b6040516100dd9190610c24565b60405180910390f35b604080518082019091526005815264302e302e3160d81b60208201526100d0565b61011a610115366004610c80565b610301565b005b61012f61012a366004610cc2565b610406565b6040519081526020016100dd565b61011a61014b366004610c80565b610427565b6101d161015e366004610cfc565b6040805160608082018352600080835260208084018290529284018190526001600160a01b03958616815280835283812094861681529382529282902082519384018352805461ffff81168552620100009004909416908301526001909201546001600160801b03169181019190915290565b60408051825161ffff1681526020808401516001600160a01b031690820152918101516001600160801b0316908201526060016100dd565b61021c610217366004610d35565b6104c6565b6040516001600160a01b0390911681526020016100dd565b610248610242366004610deb565b50600090565b60405190151581526020016100dd565b61011a610266366004610ee7565b336000908152602081815260408083206001600160a01b039586168452825291829020835181549285015190951662010000026001600160b01b031990921661ffff909516949094171783550151600190910180546001600160801b039092166001600160801b0319909216919091179055565b61011a6102e8366004610f1d565b61053f565b6102486102fb366004610f35565b60021490565b600081900361030e575050565b60008061031d83850185610fea565b9150915060005b82518110156103ff5781818151811061033f5761033f6110b6565b6020026020010151600080336001600160a01b03166001600160a01b03168152602001908152602001600020600085848151811061037f5761037f6110b6565b6020908102919091018101516001600160a01b039081168352828201939093526040918201600020845181549286015190941662010000026001600160b01b031990921661ffff909416939093171782559190910151600191820180546001600160801b039092166001600160801b031990921691909117905501610324565b5050505050565b6000606461041483856110cc565b61041e91906110f1565b90505b92915050565b6000819003610434575050565b600061044282840184611113565b905060005b81518110156104c0573360009081526020819052604081208351909190849084908110610476576104766110b6565b6020908102919091018101516001600160a01b0316825281019190915260400160002080546001600160b01b0319168155600190810180546001600160801b031916905501610447565b50505050565b6000806104d585870187611148565b905060006104e6886004818c611195565b8101906104f391906111bf565b905081602001516001600160a01b031681600001516001600160a01b03161461051b57600080fd5b81604001518160200151111561053057600080fd5b50519998505050505050505050565b33600090815260208181526040822090829061055d90850185610deb565b6001600160a01b039081168252602080830193909352604091820160009081208351606081018552815461ffff8116808352620100009091049094168187018190526001909201546001600160801b03169481019490945292945091926105c8919086013590610406565b9050600080836001600160a01b03166338d52e0f6040518163ffffffff1660e01b8152600401602060405180830381865afa15801561060b573d6000803e3d6000fd5b505050506040513d601f19601f8201168201806040525081019061062f9190611217565b90506001600160a01b0381166106486020880188610deb565b6001600160a01b0316146106c757600061067e3361066960208a018a610deb565b84878a604001516001600160801b03166107ca565b9050600061068b8261086e565b9050806001815181106106a0576106a06110b6565b60200260200101518060200190518101906106bb9190611234565b945082935050506106d7565b6106d46020870187610deb565b91505b60408051600280825260608201909252600091816020015b6106f7610baa565b8152602001906001900390816106ef57905050905061071783868661087a565b8160008151811061072a5761072a6110b6565b60200260200101819052506107408585336108ed565b81600181518110610753576107536110b6565b60200260200101819052506107678161086e565b506107756020880188610deb565b6001600160a01b0316336001600160a01b03167f08e2ed806097a381d22900fff99d42ccd16283e24fdd2912277d39995588bb28866040516107b991815260200190565b60405180910390a350505050505050565b6040805160028082526060828101909352816020015b6107e8610baa565b8152602001906001900390816107e057905050905061081c8573e592427a0aece92de3edee1f18e0157c058615648561087a565b8160008151811061082f5761082f6110b6565b6020026020010181905250610847868686868661096f565b8160018151811061085a5761085a6110b6565b602002602001018190525095945050505050565b60606104213383610a7b565b610882610baa565b604080516060810182526001600160a01b038087168252600060208301528251908616602482015260448101859052909182019060640160408051601f198184030181529190526020810180516001600160e01b031663095ea7b360e01b1790529052949350505050565b6108f5610baa565b6040518060600160405280856001600160a01b0316815260200160008152602001848460405160240161093b9291909182526001600160a01b0316602082015260400190565b60408051601f198184030181529190526020810180516001600160e01b0316636e553f6560e01b1790529052949350505050565b610977610baa565b604080516060808201835273e592427a0aece92de3edee1f18e0157c058615648252600060208084018290528451610100810186526001600160a01b038b81168083528b8216938301938452610bb88389019081528e8316968401968752426080850190815260a085018d815260c086019788528c851660e09096019586528a516024810194909452955184166044840152905162ffffff166064830152955182166084820152945160a4860152915160c4850152915160e484015290511661010482015290918201906101240160408051601f198184030181529190526020810180516001600160e01b031663414bf38960e01b17905290529695505050505050565b60606000610a8f600160f81b828080610b16565b9050836001600160a01b031663d691c96482610aaa86610b81565b6040518363ffffffff1660e01b8152600401610ac792919061124d565b6000604051808303816000875af1158015610ae6573d6000803e3d6000fd5b505050506040513d6000823e601f3d908101601f19168201604052610b0e9190810190611266565b949350505050565b604080516001600160f81b03198087166020830152851660218201526000602282018190526001600160e01b03198516602683015269ffffffffffffffffffff198416602a8301529101604051602081830303815290604052610b789061136b565b95945050505050565b606081604051602001610b94919061138f565b6040516020818303038152906040529050919050565b604051806060016040528060006001600160a01b0316815260200160008152602001606081525090565b60005b83811015610bef578181015183820152602001610bd7565b50506000910152565b60008151808452610c10816020860160208601610bd4565b601f01601f19169290920160200192915050565b60208152600061041e6020830184610bf8565b60008083601f840112610c4957600080fd5b50813567ffffffffffffffff811115610c6157600080fd5b602083019150836020828501011115610c7957600080fd5b9250929050565b60008060208385031215610c9357600080fd5b823567ffffffffffffffff811115610caa57600080fd5b610cb685828601610c37565b90969095509350505050565b60008060408385031215610cd557600080fd5b50508035926020909101359150565b6001600160a01b0381168114610cf957600080fd5b50565b60008060408385031215610d0f57600080fd5b8235610d1a81610ce4565b91506020830135610d2a81610ce4565b809150509250929050565b60008060008060008060008060a0898b031215610d5157600080fd5b8835610d5c81610ce4565b975060208901359650604089013567ffffffffffffffff80821115610d8057600080fd5b610d8c8c838d01610c37565b909850965060608b0135915080821115610da557600080fd5b610db18c838d01610c37565b909650945060808b0135915080821115610dca57600080fd5b50610dd78b828c01610c37565b999c989b5096995094979396929594505050565b600060208284031215610dfd57600080fd5b8135610e0881610ce4565b9392505050565b634e487b7160e01b600052604160045260246000fd5b6040516060810167ffffffffffffffff81118282101715610e4857610e48610e0f565b60405290565b604051601f8201601f1916810167ffffffffffffffff81118282101715610e7757610e77610e0f565b604052919050565b600060608284031215610e9157600080fd5b610e99610e25565b9050813561ffff81168114610ead57600080fd5b81526020820135610ebd81610ce4565b602082015260408201356001600160801b0381168114610edc57600080fd5b604082015292915050565b60008060808385031215610efa57600080fd5b8235610f0581610ce4565b9150610f148460208501610e7f565b90509250929050565b600060408284031215610f2f57600080fd5b50919050565b600060208284031215610f4757600080fd5b5035919050565b600067ffffffffffffffff821115610f6857610f68610e0f565b5060051b60200190565b600082601f830112610f8357600080fd5b81356020610f98610f9383610f4e565b610e4e565b8083825260208201915060208460051b870101935086841115610fba57600080fd5b602086015b84811015610fdf578035610fd281610ce4565b8352918301918301610fbf565b509695505050505050565b60008060408385031215610ffd57600080fd5b823567ffffffffffffffff8082111561101557600080fd5b61102186838701610f72565b93506020915060208501358181111561103957600080fd5b85019050601f8101861361104c57600080fd5b803561105a610f9382610f4e565b80828252602082019150606060206060850286010193508984111561107e57600080fd5b6020850194505b838510156110a6576110978a86610e7f565b83529384019391850191611085565b5080955050505050509250929050565b634e487b7160e01b600052603260045260246000fd5b808202811582820484141761042157634e487b7160e01b600052601160045260246000fd5b60008261110e57634e487b7160e01b600052601260045260246000fd5b500490565b60006020828403121561112557600080fd5b813567ffffffffffffffff81111561113c57600080fd5b610b0e84828501610f72565b60006060828403121561115a57600080fd5b611162610e25565b823561116d81610ce4565b8152602083013561117d81610ce4565b60208201526040928301359281019290925250919050565b600080858511156111a557600080fd5b838611156111b257600080fd5b5050820193919092039150565b6000604082840312156111d157600080fd5b6040516040810181811067ffffffffffffffff821117156111f4576111f4610e0f565b604052823561120281610ce4565b81526020928301359281019290925250919050565b60006020828403121561122957600080fd5b8151610e0881610ce4565b60006020828403121561124657600080fd5b5051919050565b828152604060208201526000610b0e6040830184610bf8565b6000602080838503121561127957600080fd5b825167ffffffffffffffff8082111561129157600080fd5b8185019150601f86601f8401126112a757600080fd5b82516112b5610f9382610f4e565b81815260059190911b840185019085810190898311156112d457600080fd5b8686015b8381101561135d578051868111156112f05760008081fd5b8701603f81018c136113025760008081fd5b8881015160408882111561131857611318610e0f565b611329828901601f19168c01610e4e565b8281528e8284860101111561133e5760008081fd5b61134d838d8301848701610bd4565b86525050509187019187016112d8565b509998505050505050505050565b80516020808301519190811015610f2f5760001960209190910360031b1b16919050565b600060208083018184528085518083526040925060408601915060408160051b87010184880160005b8381101561140b57888303603f19018552815180516001600160a01b03168452878101518885015286015160608785018190526113f781860183610bf8565b9689019694505050908601906001016113b8565b50909897505050505050505056fea26469706673582212202fec9868423b9b18313eae88696e423b35983f7d9abf818bd2079a5de79f227564736f6c63430008190033","linkReferences":{}},"methodIdentifiers":{"autoSave((address,uint256))":"ea8dbfb0","calcDepositAmount(uint256,uint256)":"71bad5d4","getConfig(address,address)":"bbdcbed6","isInitialized(address)":"d60b347f","isModuleType(uint256)":"ecd05961","name()":"06fdde03","onInstall(bytes)":"6d61fe70","onUninstall(bytes)":"8a91b0e3","setConfig(address,(uint16,address,uint128))":"e7cfd97a","validateSessionParams(address,uint256,bytes,bytes,bytes)":"c20bccb9","version()":"54fd4d50"},"id":4}