{"abi":[{"type":"constructor","inputs":[{"name":"_underlying","type":"address","internalType":"contract ERC20"},{"name":"_name","type":"string","internalType":"string"},{"name":"_symbol","type":"string","internalType":"string"}],"stateMutability":"nonpayable"},{"type":"function","name":"DOMAIN_SEPARATOR","inputs":[],"outputs":[{"name":"","type":"bytes32","internalType":"bytes32"}],"stateMutability":"view"},{"type":"function","name":"afterDepositHookCalledCounter","inputs":[],"outputs":[{"name":"","type":"uint256","internalType":"uint256"}],"stateMutability":"view"},{"type":"function","name":"allowance","inputs":[{"name":"","type":"address","internalType":"address"},{"name":"","type":"address","internalType":"address"}],"outputs":[{"name":"","type":"uint256","internalType":"uint256"}],"stateMutability":"view"},{"type":"function","name":"approve","inputs":[{"name":"spender","type":"address","internalType":"address"},{"name":"amount","type":"uint256","internalType":"uint256"}],"outputs":[{"name":"","type":"bool","internalType":"bool"}],"stateMutability":"nonpayable"},{"type":"function","name":"asset","inputs":[],"outputs":[{"name":"","type":"address","internalType":"contract ERC20"}],"stateMutability":"view"},{"type":"function","name":"balanceOf","inputs":[{"name":"","type":"address","internalType":"address"}],"outputs":[{"name":"","type":"uint256","internalType":"uint256"}],"stateMutability":"view"},{"type":"function","name":"beforeWithdrawHookCalledCounter","inputs":[],"outputs":[{"name":"","type":"uint256","internalType":"uint256"}],"stateMutability":"view"},{"type":"function","name":"convertToAssets","inputs":[{"name":"shares","type":"uint256","internalType":"uint256"}],"outputs":[{"name":"","type":"uint256","internalType":"uint256"}],"stateMutability":"view"},{"type":"function","name":"convertToShares","inputs":[{"name":"assets","type":"uint256","internalType":"uint256"}],"outputs":[{"name":"","type":"uint256","internalType":"uint256"}],"stateMutability":"view"},{"type":"function","name":"decimals","inputs":[],"outputs":[{"name":"","type":"uint8","internalType":"uint8"}],"stateMutability":"view"},{"type":"function","name":"deposit","inputs":[{"name":"assets","type":"uint256","internalType":"uint256"},{"name":"receiver","type":"address","internalType":"address"}],"outputs":[{"name":"shares","type":"uint256","internalType":"uint256"}],"stateMutability":"nonpayable"},{"type":"function","name":"maxDeposit","inputs":[{"name":"","type":"address","internalType":"address"}],"outputs":[{"name":"","type":"uint256","internalType":"uint256"}],"stateMutability":"view"},{"type":"function","name":"maxMint","inputs":[{"name":"","type":"address","internalType":"address"}],"outputs":[{"name":"","type":"uint256","internalType":"uint256"}],"stateMutability":"view"},{"type":"function","name":"maxRedeem","inputs":[{"name":"owner","type":"address","internalType":"address"}],"outputs":[{"name":"","type":"uint256","internalType":"uint256"}],"stateMutability":"view"},{"type":"function","name":"maxWithdraw","inputs":[{"name":"owner","type":"address","internalType":"address"}],"outputs":[{"name":"","type":"uint256","internalType":"uint256"}],"stateMutability":"view"},{"type":"function","name":"mint","inputs":[{"name":"shares","type":"uint256","internalType":"uint256"},{"name":"receiver","type":"address","internalType":"address"}],"outputs":[{"name":"assets","type":"uint256","internalType":"uint256"}],"stateMutability":"nonpayable"},{"type":"function","name":"name","inputs":[],"outputs":[{"name":"","type":"string","internalType":"string"}],"stateMutability":"view"},{"type":"function","name":"nonces","inputs":[{"name":"","type":"address","internalType":"address"}],"outputs":[{"name":"","type":"uint256","internalType":"uint256"}],"stateMutability":"view"},{"type":"function","name":"permit","inputs":[{"name":"owner","type":"address","internalType":"address"},{"name":"spender","type":"address","internalType":"address"},{"name":"value","type":"uint256","internalType":"uint256"},{"name":"deadline","type":"uint256","internalType":"uint256"},{"name":"v","type":"uint8","internalType":"uint8"},{"name":"r","type":"bytes32","internalType":"bytes32"},{"name":"s","type":"bytes32","internalType":"bytes32"}],"outputs":[],"stateMutability":"nonpayable"},{"type":"function","name":"previewDeposit","inputs":[{"name":"assets","type":"uint256","internalType":"uint256"}],"outputs":[{"name":"","type":"uint256","internalType":"uint256"}],"stateMutability":"view"},{"type":"function","name":"previewMint","inputs":[{"name":"shares","type":"uint256","internalType":"uint256"}],"outputs":[{"name":"","type":"uint256","internalType":"uint256"}],"stateMutability":"view"},{"type":"function","name":"previewRedeem","inputs":[{"name":"shares","type":"uint256","internalType":"uint256"}],"outputs":[{"name":"","type":"uint256","internalType":"uint256"}],"stateMutability":"view"},{"type":"function","name":"previewWithdraw","inputs":[{"name":"assets","type":"uint256","internalType":"uint256"}],"outputs":[{"name":"","type":"uint256","internalType":"uint256"}],"stateMutability":"view"},{"type":"function","name":"redeem","inputs":[{"name":"shares","type":"uint256","internalType":"uint256"},{"name":"receiver","type":"address","internalType":"address"},{"name":"owner","type":"address","internalType":"address"}],"outputs":[{"name":"assets","type":"uint256","internalType":"uint256"}],"stateMutability":"nonpayable"},{"type":"function","name":"symbol","inputs":[],"outputs":[{"name":"","type":"string","internalType":"string"}],"stateMutability":"view"},{"type":"function","name":"totalAssets","inputs":[],"outputs":[{"name":"","type":"uint256","internalType":"uint256"}],"stateMutability":"view"},{"type":"function","name":"totalSupply","inputs":[],"outputs":[{"name":"","type":"uint256","internalType":"uint256"}],"stateMutability":"view"},{"type":"function","name":"transfer","inputs":[{"name":"to","type":"address","internalType":"address"},{"name":"amount","type":"uint256","internalType":"uint256"}],"outputs":[{"name":"","type":"bool","internalType":"bool"}],"stateMutability":"nonpayable"},{"type":"function","name":"transferFrom","inputs":[{"name":"from","type":"address","internalType":"address"},{"name":"to","type":"address","internalType":"address"},{"name":"amount","type":"uint256","internalType":"uint256"}],"outputs":[{"name":"","type":"bool","internalType":"bool"}],"stateMutability":"nonpayable"},{"type":"function","name":"withdraw","inputs":[{"name":"assets","type":"uint256","internalType":"uint256"},{"name":"receiver","type":"address","internalType":"address"},{"name":"owner","type":"address","internalType":"address"}],"outputs":[{"name":"shares","type":"uint256","internalType":"uint256"}],"stateMutability":"nonpayable"},{"type":"event","name":"Approval","inputs":[{"name":"owner","type":"address","indexed":true,"internalType":"address"},{"name":"spender","type":"address","indexed":true,"internalType":"address"},{"name":"amount","type":"uint256","indexed":false,"internalType":"uint256"}],"anonymous":false},{"type":"event","name":"Deposit","inputs":[{"name":"caller","type":"address","indexed":true,"internalType":"address"},{"name":"owner","type":"address","indexed":true,"internalType":"address"},{"name":"assets","type":"uint256","indexed":false,"internalType":"uint256"},{"name":"shares","type":"uint256","indexed":false,"internalType":"uint256"}],"anonymous":false},{"type":"event","name":"Transfer","inputs":[{"name":"from","type":"address","indexed":true,"internalType":"address"},{"name":"to","type":"address","indexed":true,"internalType":"address"},{"name":"amount","type":"uint256","indexed":false,"internalType":"uint256"}],"anonymous":false},{"type":"event","name":"Withdraw","inputs":[{"name":"caller","type":"address","indexed":true,"internalType":"address"},{"name":"receiver","type":"address","indexed":true,"internalType":"address"},{"name":"owner","type":"address","indexed":true,"internalType":"address"},{"name":"assets","type":"uint256","indexed":false,"internalType":"uint256"},{"name":"shares","type":"uint256","indexed":false,"internalType":"uint256"}],"anonymous":false}],"bytecode":{"object":"0x6101006040526000600655600060075534801561001b57600080fd5b50604051611a37380380611a3783398101604081905261003a91610245565b8282828181846001600160a01b031663313ce5676040518163ffffffff1660e01b8152600401602060405180830381865afa15801561007d573d6000803e3d6000fd5b505050506040513d601f19601f820116820180604052508101906100a191906102c7565b60006100ad848261037c565b5060016100ba838261037c565b5060ff81166080524660a0526100ce6100ed565b60c0525050506001600160a01b0390921660e052506104b19350505050565b60007f8b73c3c69bb8fe3d512ecc4cf759cc79239f7b179b0ffacaa9a75d522b39400f600060405161011f919061043b565b6040805191829003822060208301939093528101919091527fc89efdaa54c0f20c7adf612882df0950f5a951637e0307cdcb4c672f298b8bc660608201524660808201523060a082015260c00160405160208183030381529060405280519060200120905090565b634e487b7160e01b600052604160045260246000fd5b600082601f8301126101ae57600080fd5b81516001600160401b03808211156101c8576101c8610187565b604051601f8301601f19908116603f011681019082821181831017156101f0576101f0610187565b816040528381526020925086602085880101111561020d57600080fd5b600091505b8382101561022f5785820183015181830184015290820190610212565b6000602085830101528094505050505092915050565b60008060006060848603121561025a57600080fd5b83516001600160a01b038116811461027157600080fd5b60208501519093506001600160401b038082111561028e57600080fd5b61029a8783880161019d565b935060408601519150808211156102b057600080fd5b506102bd8682870161019d565b9150509250925092565b6000602082840312156102d957600080fd5b815160ff811681146102ea57600080fd5b9392505050565b600181811c9082168061030557607f821691505b60208210810361032557634e487b7160e01b600052602260045260246000fd5b50919050565b601f821115610377576000816000526020600020601f850160051c810160208610156103545750805b601f850160051c820191505b8181101561037357828155600101610360565b5050505b505050565b81516001600160401b0381111561039557610395610187565b6103a9816103a384546102f1565b8461032b565b602080601f8311600181146103de57600084156103c65750858301515b600019600386901b1c1916600185901b178555610373565b600085815260208120601f198616915b8281101561040d578886015182559484019460019091019084016103ee565b508582101561042b5787850151600019600388901b60f8161c191681555b5050505050600190811b01905550565b6000808354610449816102f1565b600182811680156104615760018114610476576104a5565b60ff19841687528215158302870194506104a5565b8760005260208060002060005b8581101561049c5781548a820152908401908201610483565b50505082870194505b50929695505050505050565b60805160a05160c05160e05161152a61050d600039600081816102ba015281816104a2015281816108000152818161089c01528181610a970152610be3015260006107760152600061074601526000610279015261152a6000f3fe608060405234801561001057600080fd5b50600436106101da5760003560e01c806394bf804d11610104578063c63d75b6116100a2578063d905777e11610071578063d905777e1461041a578063dd62ed3e14610443578063ef8b30f71461046e578063fc407ae71461048157600080fd5b8063c63d75b6146102f4578063c6e6f592146103df578063ce96cb77146103f2578063d505accf1461040557600080fd5b8063b3d7f6b9116100de578063b3d7f6b91461039d578063b460af94146103b0578063ba087652146103c3578063bc368a8a146103d657600080fd5b806394bf804d1461036f57806395d89b4114610382578063a9059cbb1461038a57600080fd5b8063313ce5671161017c5780634cdad5061161014b5780634cdad506146103095780636e553f651461031c57806370a082311461032f5780637ecebe001461034f57600080fd5b8063313ce567146102745780633644e515146102ad57806338d52e0f146102b5578063402d267d146102f457600080fd5b8063095ea7b3116101b8578063095ea7b3146102225780630a28a4771461024557806318160ddd1461025857806323b872dd1461026157600080fd5b806301e1d114146101df57806306fdde03146101fa57806307a2d13a1461020f575b600080fd5b6101e761048a565b6040519081526020015b60405180910390f35b61020261051a565b6040516101f19190611181565b6101e761021d3660046111d0565b6105a8565b610235610230366004611205565b6105d5565b60405190151581526020016101f1565b6101e76102533660046111d0565b610642565b6101e760025481565b61023561026f36600461122f565b610662565b61029b7f000000000000000000000000000000000000000000000000000000000000000081565b60405160ff90911681526020016101f1565b6101e7610742565b6102dc7f000000000000000000000000000000000000000000000000000000000000000081565b6040516001600160a01b0390911681526020016101f1565b6101e761030236600461126b565b5060001990565b6101e76103173660046111d0565b610798565b6101e761032a366004611286565b6107a3565b6101e761033d36600461126b565b60036020526000908152604090205481565b6101e761035d36600461126b565b60056020526000908152604090205481565b6101e761037d366004611286565b610882565b61020261091e565b610235610398366004611205565b61092b565b6101e76103ab3660046111d0565b610991565b6101e76103be3660046112b2565b6109b0565b6101e76103d13660046112b2565b610abe565b6101e760065481565b6101e76103ed3660046111d0565b610c0a565b6101e761040036600461126b565b610c2a565b6104186104133660046112ee565b610c4c565b005b6101e761042836600461126b565b6001600160a01b031660009081526003602052604090205490565b6101e7610451366004611361565b600460209081526000928352604080842090915290825290205481565b6101e761047c3660046111d0565b610e90565b6101e760075481565b6040516370a0823160e01b81523060048201526000907f00000000000000000000000000000000000000000000000000000000000000006001600160a01b0316906370a0823190602401602060405180830381865afa1580156104f1573d6000803e3d6000fd5b505050506040513d601f19601f82011682018060405250810190610515919061138b565b905090565b60008054610527906113a4565b80601f0160208091040260200160405190810160405280929190818152602001828054610553906113a4565b80156105a05780601f10610575576101008083540402835291602001916105a0565b820191906000526020600020905b81548152906001019060200180831161058357829003601f168201915b505050505081565b60025460009080156105cc576105c76105bf61048a565b849083610e9b565b6105ce565b825b9392505050565b3360008181526004602090815260408083206001600160a01b038716808552925280832085905551919290917f8c5be1e5ebec7d5bd14f71427d1e84f3dd0314c0f7b2291e5b200ac8c7c3b925906106309086815260200190565b60405180910390a35060015b92915050565b60025460009080156105cc576105c78161065a61048a565b859190610eb9565b6001600160a01b038316600090815260046020908152604080832033845290915281205460001981146106be5761069983826113f4565b6001600160a01b03861660009081526004602090815260408083203384529091529020555b6001600160a01b038516600090815260036020526040812080548592906106e69084906113f4565b90915550506001600160a01b03808516600081815260036020526040908190208054870190555190918716906000805160206114d58339815191529061072f9087815260200190565b60405180910390a3506001949350505050565b60007f0000000000000000000000000000000000000000000000000000000000000000461461077357610515610edf565b507f000000000000000000000000000000000000000000000000000000000000000090565b600061063c826105a8565b60006107ae83610e90565b9050806000036107f35760405162461bcd60e51b815260206004820152600b60248201526a5a45524f5f53484152455360a81b60448201526064015b60405180910390fd5b6108286001600160a01b037f000000000000000000000000000000000000000000000000000000000000000016333086610f79565b6108328282611015565b60408051848152602081018390526001600160a01b0384169133917fdcbc1c05240f31ff3ad067ef1ee35ce4997762752e3a095284754544f4c709d7910160405180910390a361063c838261106f565b600061088d83610991565b90506108c46001600160a01b037f000000000000000000000000000000000000000000000000000000000000000016333084610f79565b6108ce8284611015565b60408051828152602081018590526001600160a01b0384169133917fdcbc1c05240f31ff3ad067ef1ee35ce4997762752e3a095284754544f4c709d7910160405180910390a361063c818461106f565b60018054610527906113a4565b3360009081526003602052604081208054839190839061094c9084906113f4565b90915550506001600160a01b038316600081815260036020526040908190208054850190555133906000805160206114d5833981519152906106309086815260200190565b60025460009080156105cc576105c76109a861048a565b849083610eb9565b60006109bb84610642565b9050336001600160a01b03831614610a2b576001600160a01b03821660009081526004602090815260408083203384529091529020546000198114610a2957610a0482826113f4565b6001600160a01b03841660009081526004602090815260408083203384529091529020555b505b610a358482611088565b610a3f8282611098565b60408051858152602081018390526001600160a01b03808516929086169133917ffbde797d201c681b91056529119e0b02407c7bb96a4a2c75c01fc9667232c8db910160405180910390a46105ce6001600160a01b037f00000000000000000000000000000000000000000000000000000000000000001684866110fa565b6000336001600160a01b03831614610b2e576001600160a01b03821660009081526004602090815260408083203384529091529020546000198114610b2c57610b0785826113f4565b6001600160a01b03841660009081526004602090815260408083203384529091529020555b505b610b3784610798565b905080600003610b775760405162461bcd60e51b815260206004820152600b60248201526a5a45524f5f41535345545360a81b60448201526064016107ea565b610b818185611088565b610b8b8285611098565b60408051828152602081018690526001600160a01b03808516929086169133917ffbde797d201c681b91056529119e0b02407c7bb96a4a2c75c01fc9667232c8db910160405180910390a46105ce6001600160a01b037f00000000000000000000000000000000000000000000000000000000000000001684836110fa565b60025460009080156105cc576105c781610c2261048a565b859190610e9b565b6001600160a01b03811660009081526003602052604081205461063c906105a8565b42841015610c9c5760405162461bcd60e51b815260206004820152601760248201527f5045524d49545f444541444c494e455f4558504952454400000000000000000060448201526064016107ea565b60006001610ca8610742565b6001600160a01b038a811660008181526005602090815260409182902080546001810190915582517f6e71edae12b1b97f4d1f60370fef10105fa2faae0126114a169c64845d6126c98184015280840194909452938d166060840152608083018c905260a083019390935260c08083018b90528151808403909101815260e08301909152805192019190912061190160f01b6101008301526101028201929092526101228101919091526101420160408051601f198184030181528282528051602091820120600084529083018083525260ff871690820152606081018590526080810184905260a0016020604051602081039080840390855afa158015610db4573d6000803e3d6000fd5b5050604051601f1901519150506001600160a01b03811615801590610dea5750876001600160a01b0316816001600160a01b0316145b610e275760405162461bcd60e51b815260206004820152600e60248201526d24a72b20a624a22fa9a4a3a722a960911b60448201526064016107ea565b6001600160a01b0390811660009081526004602090815260408083208a8516808552908352928190208990555188815291928a16917f8c5be1e5ebec7d5bd14f71427d1e84f3dd0314c0f7b2291e5b200ac8c7c3b925910160405180910390a350505050505050565b600061063c82610c0a565b6000826000190484118302158202610eb257600080fd5b5091020490565b6000826000190484118302158202610ed057600080fd5b50910281810615159190040190565b60007f8b73c3c69bb8fe3d512ecc4cf759cc79239f7b179b0ffacaa9a75d522b39400f6000604051610f119190611407565b6040805191829003822060208301939093528101919091527fc89efdaa54c0f20c7adf612882df0950f5a951637e0307cdcb4c672f298b8bc660608201524660808201523060a082015260c00160405160208183030381529060405280519060200120905090565b60006040516323b872dd60e01b81526001600160a01b03851660048201526001600160a01b03841660248201528260448201526020600060648360008a5af13d15601f3d116001600051141617169150508061100e5760405162461bcd60e51b81526020600482015260146024820152731514905394d1915497d19493d357d1905253115160621b60448201526064016107ea565b5050505050565b806002600082825461102791906114a8565b90915550506001600160a01b0382166000818152600360209081526040808320805486019055518481526000805160206114d583398151915291015b60405180910390a35050565b6007805490600061107f836114bb565b91905055505050565b6006805490600061107f836114bb565b6001600160a01b038216600090815260036020526040812080548392906110c09084906113f4565b90915550506002805482900390556040518181526000906001600160a01b038416906000805160206114d583398151915290602001611063565b600060405163a9059cbb60e01b81526001600160a01b0384166004820152826024820152602060006044836000895af13d15601f3d116001600051141617169150508061117b5760405162461bcd60e51b815260206004820152600f60248201526e1514905394d1915497d19052531151608a1b60448201526064016107ea565b50505050565b60006020808352835180602085015260005b818110156111af57858101830151858201604001528201611193565b506000604082860101526040601f19601f8301168501019250505092915050565b6000602082840312156111e257600080fd5b5035919050565b80356001600160a01b038116811461120057600080fd5b919050565b6000806040838503121561121857600080fd5b611221836111e9565b946020939093013593505050565b60008060006060848603121561124457600080fd5b61124d846111e9565b925061125b602085016111e9565b9150604084013590509250925092565b60006020828403121561127d57600080fd5b6105ce826111e9565b6000806040838503121561129957600080fd5b823591506112a9602084016111e9565b90509250929050565b6000806000606084860312156112c757600080fd5b833592506112d7602085016111e9565b91506112e5604085016111e9565b90509250925092565b600080600080600080600060e0888a03121561130957600080fd5b611312886111e9565b9650611320602089016111e9565b95506040880135945060608801359350608088013560ff8116811461134457600080fd5b9699959850939692959460a0840135945060c09093013592915050565b6000806040838503121561137457600080fd5b61137d836111e9565b91506112a9602084016111e9565b60006020828403121561139d57600080fd5b5051919050565b600181811c908216806113b857607f821691505b6020821081036113d857634e487b7160e01b600052602260045260246000fd5b50919050565b634e487b7160e01b600052601160045260246000fd5b8181038181111561063c5761063c6113de565b60008083548160018260011c9150600183168061142557607f831692505b6020808410820361144457634e487b7160e01b86526022600452602486fd5b818015611458576001811461146d5761149a565b60ff198616895284151585028901965061149a565b60008a81526020902060005b868110156114925781548b820152908501908301611479565b505084890196505b509498975050505050505050565b8082018082111561063c5761063c6113de565b6000600182016114cd576114cd6113de565b506001019056feddf252ad1be2c89b69c2b068fc378daa952ba7f163c4a11628f55a4df523b3efa2646970667358221220b7fafddf6f1ccc8207b6c92330d3cd54a3de2e3ff4e9ec12af007a43ae1a028f64736f6c63430008190033","linkReferences":{}},"methodIdentifiers":{"DOMAIN_SEPARATOR()":"3644e515","afterDepositHookCalledCounter()":"fc407ae7","allowance(address,address)":"dd62ed3e","approve(address,uint256)":"095ea7b3","asset()":"38d52e0f","balanceOf(address)":"70a08231","beforeWithdrawHookCalledCounter()":"bc368a8a","convertToAssets(uint256)":"07a2d13a","convertToShares(uint256)":"c6e6f592","decimals()":"313ce567","deposit(uint256,address)":"6e553f65","maxDeposit(address)":"402d267d","maxMint(address)":"c63d75b6","maxRedeem(address)":"d905777e","maxWithdraw(address)":"ce96cb77","mint(uint256,address)":"94bf804d","name()":"06fdde03","nonces(address)":"7ecebe00","permit(address,address,uint256,uint256,uint8,bytes32,bytes32)":"d505accf","previewDeposit(uint256)":"ef8b30f7","previewMint(uint256)":"b3d7f6b9","previewRedeem(uint256)":"4cdad506","previewWithdraw(uint256)":"0a28a477","redeem(uint256,address,address)":"ba087652","symbol()":"95d89b41","totalAssets()":"01e1d114","totalSupply()":"18160ddd","transfer(address,uint256)":"a9059cbb","transferFrom(address,address,uint256)":"23b872dd","withdraw(uint256,address,address)":"b460af94"},"id":207}