{"abi":[{"type":"constructor","inputs":[],"stateMutability":"nonpayable"},{"type":"function","name":"_makeBootstrapConfig","inputs":[{"name":"module","type":"address","internalType":"address"},{"name":"data","type":"bytes","internalType":"bytes"}],"outputs":[{"name":"config","type":"tuple","internalType":"struct BootstrapConfig","components":[{"name":"module","type":"address","internalType":"address"},{"name":"data","type":"bytes","internalType":"bytes"}]}],"stateMutability":"pure"},{"type":"function","name":"accountFactory","inputs":[],"outputs":[{"name":"","type":"address","internalType":"contract MultiAccountFactory"}],"stateMutability":"view"},{"type":"function","name":"auxiliary","inputs":[],"outputs":[{"name":"entrypoint","type":"address","internalType":"contract IEntryPoint"},{"name":"gasSimulation","type":"address","internalType":"contract UserOpGasLog"},{"name":"fallbackHandler","type":"address","internalType":"contract ExtensibleFallbackHandler"},{"name":"bootstrap","type":"address","internalType":"contract Bootstrap"},{"name":"registry","type":"address","internalType":"contract MockRegistry"},{"name":"initialTrustedAttester","type":"address","internalType":"address"},{"name":"mockFactory","type":"address","internalType":"contract MockFactory"}],"stateMutability":"view"},{"type":"function","name":"bytes32ToString","inputs":[{"name":"_bytes32","type":"bytes32","internalType":"bytes32"}],"outputs":[{"name":"","type":"string","internalType":"string"}],"stateMutability":"pure"},{"type":"function","name":"defaultValidator","inputs":[],"outputs":[{"name":"","type":"address","internalType":"contract MockValidator"}],"stateMutability":"view"},{"type":"function","name":"makeBootstrapConfig","inputs":[{"name":"modules","type":"address[]","internalType":"address[]"},{"name":"datas","type":"bytes[]","internalType":"bytes[]"}],"outputs":[{"name":"configs","type":"tuple[]","internalType":"struct BootstrapConfig[]","components":[{"name":"module","type":"address","internalType":"address"},{"name":"data","type":"bytes","internalType":"bytes"}]}],"stateMutability":"pure"},{"type":"function","name":"makeBootstrapConfig","inputs":[{"name":"module","type":"address","internalType":"address"},{"name":"data","type":"bytes","internalType":"bytes"}],"outputs":[{"name":"config","type":"tuple[]","internalType":"struct BootstrapConfig[]","components":[{"name":"module","type":"address","internalType":"address"},{"name":"data","type":"bytes","internalType":"bytes"}]}],"stateMutability":"pure"}],"bytecode":{"object":"0x608060405234801561001057600080fd5b5061001961001e565b6108ee565b600754600160a01b900460ff1661004b576100376101c1565b6007805460ff60a01b1916600160a01b1790555b6007805460ff60a01b1916600160a01b17905560405161006a906107b6565b604051809103906000f080158015610086573d6000803e3d6000fd5b50600780546001600160a01b0319166001600160a01b03929092169190911790556040516100b3906107c4565b604051809103906000f0801580156100cf573d6000803e3d6000fd5b50600880546001600160a01b0319166001600160a01b0392909216918217905560408051808201909152601081526f2232b330bab63a2b30b634b230ba37b960811b6020820152610120919061048c565b60075461013e906001600160a01b0316678ac7230489e800006104f6565b600754610153906001600160a01b0316610538565b604051621cb65b60e51b8152620186a060048201526f71727de22e5e9d8baf0edac6f37da03290630396cb6090678ac7230489e80000906024016000604051808303818588803b1580156101a657600080fd5b505af11580156101ba573d6000803e3d6000fd5b5050505050565b6040516101cd906107d2565b604051809103906000f0801580156101e9573d6000803e3d6000fd5b50600680546001600160a01b0319166001600160a01b0392909216918217905560408051808201909152600c81526b4d6f636b20466163746f727960a01b6020820152610236919061048c565b604051610242906107e0565b604051809103906000f08015801561025e573d6000803e3d6000fd5b50600180546001600160a01b0319166001600160a01b0392909216919091179055610287610588565b600080546001600160a01b0319166001600160a01b0392909216918217905560408051808201909152600a815269115b9d1c9e541bda5b9d60b21b60208201526102d1919061048c565b6040516102dd906107ee565b604051809103906000f0801580156102f9573d6000803e3d6000fd5b50600380546001600160a01b0319166001600160a01b0392909216918217905560408051808201909152601081526f045524337353739426f6f7473747261760841b602082015261034a919061048c565b604051610356906107fc565b604051809103906000f080158015610372573d6000803e3d6000fd5b50600480546001600160a01b0319166001600160a01b0392909216918217905560408051808201909152600f81526e45524337343834526567697374727960881b60208201526103c2919061048c565b60408051808201909152601081526f2a393ab9ba32b21020ba3a32b9ba32b960811b60208201526103f290610675565b600580546001600160a01b0319166001600160a01b039290921691909117905560405161041e9061080a565b604051809103906000f08015801561043a573d6000803e3d6000fd5b50600280546001600160a01b0319166001600160a01b0392909216918217905560408051808201909152600f81526e2330b6363130b1b5a430b7323632b960891b602082015261048a919061048c565b565b6040516318caf8e360e31b815260008051602062019a0f8339815191529063c657c718906104c09085908590600401610876565b600060405180830381600087803b1580156104da57600080fd5b505af11580156104ee573d6000803e3d6000fd5b505050505050565b60405163c88a5e6d60e01b81526001600160a01b03831660048201526024810182905260008051602062019a0f8339815191529063c88a5e6d906044016104c0565b60405163ca669fa760e01b81526001600160a01b038216600482015260008051602062019a0f8339815191529063ca669fa790602401600060405180830381600087803b1580156101a657600080fd5b60008060405161059790610818565b604051809103906000f0801580156105b3573d6000803e3d6000fd5b5090506105f56f71727de22e5e9d8baf0edac6f37da032826001600160a01b0316803b806020016040519081016040528181526000908060200190933c610782565b60405163066ad14f60e21b81526001600160a01b03821660048201526f71727de22e5e9d8baf0edac6f37da032906319ab453c90602401600060405180830381600087803b15801561064657600080fd5b505af115801561065a573d6000803e3d6000fd5b505050506f71727de22e5e9d8baf0edac6f37da03291505090565b6000808260405160200161068991906108a2565b60408051808303601f190181529082905280516020909101206001625e79b760e01b0319825260048201819052915060008051602062019a0f8339815191529063ffa1864990602401602060405180830381865afa1580156106ef573d6000803e3d6000fd5b505050506040513d601f19601f8201168201806040525081019061071391906108be565b6040516318caf8e360e31b815290925060008051602062019a0f8339815191529063c657c7189061074a9085908790600401610876565b600060405180830381600087803b15801561076457600080fd5b505af1158015610778573d6000803e3d6000fd5b5050505050919050565b604051635a6b63c160e11b815260008051602062019a0f8339815191529063b4d6c782906104c09085908590600401610876565b61cbe180620010da83390190565b61034e806200dcbb83390190565b610436806200e00983390190565b614f99806200e43f83390190565b61133880620133d883390190565b610306806201471083390190565b6109e58062014a1683390190565b61461480620153fb83390190565b60005b83811015610841578181015183820152602001610829565b50506000910152565b60008151808452610862816020860160208601610826565b601f01601f19169290920160200192915050565b6001600160a01b038316815260406020820181905260009061089a9083018461084a565b949350505050565b600082516108b4818460208701610826565b9190910192915050565b6000602082840312156108d057600080fd5b81516001600160a01b03811681146108e757600080fd5b9392505050565b6107dc80620008fe6000396000f3fe608060405234801561001057600080fd5b506004361061007d5760003560e01c8063811fc0dc1161005b578063811fc0dc146101115780639201de551461012457806394e2c9e314610144578063cb802c551461015757600080fd5b8063619f811c14610082578063687cd9c1146100ab5780637967ae11146100d6575b600080fd5b61009561009036600461056d565b6101d8565b6040516100a291906106a2565b60405180910390f35b6007546100be906001600160a01b031681565b6040516001600160a01b0390911681526020016100a2565b6101046100e4366004610706565b604080518082019091526001600160a01b03929092168252602082015290565b6040516100a2919061074a565b61009561011f366004610706565b6102cc565b610137610132366004610764565b61036e565b6040516100a2919061077d565b6008546100be906001600160a01b031681565b60005460015460025460035460045460055460065461018f966001600160a01b03908116968116958116948116938116928116911687565b604080516001600160a01b039889168152968816602088015294871694860194909452918516606085015284166080840152831660a083015290911660c082015260e0016100a2565b6060825167ffffffffffffffff8111156101f4576101f46103e6565b60405190808252806020026020018201604052801561023a57816020015b6040805180820190915260008152606060208201528152602001906001900390816102125790505b50905060005b83518110156102c5576102a084828151811061025e5761025e610790565b602002602001015184838151811061027857610278610790565b6020026020010151604080518082019091526001600160a01b03929092168252602082015290565b8282815181106102b2576102b2610790565b6020908102919091010152600101610240565b5092915050565b604080516001808252818301909252606091816020015b6040805180820190915260008152606060208201528152602001906001900390816102e3579050509050828160008151811061032157610321610790565b6020026020010151600001906001600160a01b031690816001600160a01b031681525050818160008151811061035957610359610790565b60200260200101516020018190525092915050565b6040805160208082528183019092526060916000919060208201818036833701905050905060005b60208110156102c5578381602081106103b1576103b1610790565b1a60f81b8282815181106103c7576103c7610790565b60200101906001600160f81b031916908160001a905350600101610396565b634e487b7160e01b600052604160045260246000fd5b604051601f8201601f1916810167ffffffffffffffff81118282101715610425576104256103e6565b604052919050565b600067ffffffffffffffff821115610447576104476103e6565b5060051b60200190565b80356001600160a01b038116811461046857600080fd5b919050565b600082601f83011261047e57600080fd5b813567ffffffffffffffff811115610498576104986103e6565b6104ab601f8201601f19166020016103fc565b8181528460208386010111156104c057600080fd5b816020850160208301376000918101602001919091529392505050565b600082601f8301126104ee57600080fd5b813560206105036104fe8361042d565b6103fc565b82815260059290921b8401810191818101908684111561052257600080fd5b8286015b8481101561056257803567ffffffffffffffff8111156105465760008081fd5b6105548986838b010161046d565b845250918301918301610526565b509695505050505050565b6000806040838503121561058057600080fd5b823567ffffffffffffffff8082111561059857600080fd5b818501915085601f8301126105ac57600080fd5b813560206105bc6104fe8361042d565b82815260059290921b840181019181810190898411156105db57600080fd5b948201945b83861015610600576105f186610451565b825294820194908201906105e0565b9650508601359250508082111561061657600080fd5b50610623858286016104dd565b9150509250929050565b6000815180845260005b8181101561065357602081850181015186830182015201610637565b506000602082860101526020601f19601f83011685010191505092915050565b60018060a01b038151168252600060208201516040602085015261069a604085018261062d565b949350505050565b600060208083016020845280855180835260408601915060408160051b87010192506020870160005b828110156106f957603f198886030184526106e7858351610673565b945092850192908501906001016106cb565b5092979650505050505050565b6000806040838503121561071957600080fd5b61072283610451565b9150602083013567ffffffffffffffff81111561073e57600080fd5b6106238582860161046d565b60208152600061075d6020830184610673565b9392505050565b60006020828403121561077657600080fd5b5035919050565b60208152600061075d602083018461062d565b634e487b7160e01b600052603260045260246000fdfea26469706673582212207177791a1e0f4e367ee5d578b51dde390ae71309d766fd3237b2be73bf16148f64736f6c63430008190033608060405234801561001057600080fd5b5060405161001d906102b8565b604051809103906000f080158015610039573d6000803e3d6000fd5b50600880546001600160a01b0319166001600160a01b0392909216919091179055604051610066906102c5565b604051809103906000f080158015610082573d6000803e3d6000fd5b50600980546001600160a01b0319166001600160a01b03929092169190911790556040516100af906102d2565b604051809103906000f0801580156100cb573d6000803e3d6000fd5b50600a80546001600160a01b0319166001600160a01b03929092169190911790556040516100f8906102df565b604051809103906000f080158015610114573d6000803e3d6000fd5b50600b80546001600160a01b0319166001600160a01b0392909216919091179055604051610141906102ec565b604051809103906000f08015801561015d573d6000803e3d6000fd5b50600c80546001600160a01b0319166001600160a01b039290921691909117905560408051808201825260078152661111519055531560ca1b602082015290516334515cdb60e21b8152600091737109709ecfa91a80626ff3989d68f67f5b1dd12d9163d145736c916101d29160040161031d565b600060405180830381865afa1580156101ef573d6000803e3d6000fd5b505050506040513d6000823e601f3d908101601f191682016040526102179190810190610389565b905060405180604001604052806008815260200167534146453735373960c01b81525060405160200161024a9190610435565b60405160208183030381529060405280519060200120816040516020016102719190610435565b60405160208183030381529060405280519060200120036102a457600c805460ff60a01b1916600160a01b1790556102b2565b600c805460ff60a01b191690555b50610451565b612c038061145c83390190565b6130e88061405f83390190565b6115998061714783390190565b6131c9806186e083390190565b6113388061b8a983390190565b60005b838110156103145781810151838201526020016102fc565b50506000910152565b60408152600c60408201526b4143434f554e545f5459504560a01b6060820152608060208201526000825180608084015261035f8160a08501602087016102f9565b601f01601f19169190910160a00192915050565b634e487b7160e01b600052604160045260246000fd5b60006020828403121561039b57600080fd5b81516001600160401b03808211156103b257600080fd5b818401915084601f8301126103c657600080fd5b8151818111156103d8576103d8610373565b604051601f8201601f19908116603f0116810190838211818310171561040057610400610373565b8160405282815287602084870101111561041957600080fd5b61042a8360208301602088016102f9565b979650505050505050565b600082516104478184602087016102f9565b9190910192915050565b610ffc806104606000396000f3fe608060405234801561001057600080fd5b506004361061009e5760003560e01c8063a6a3f08a11610066578063a6a3f08a1461014c578063ae6d6eb01461015f578063d959fd0e14610172578063f45cc90414610185578063f8a593701461019857600080fd5b80633533bd47146100a357806356c717f5146100cc5780636d509d67146100ed5780639ca9c8fa146101185780639dca00321461012b575b600080fd5b6100b66100b1366004610a71565b6101ab565b6040516100c39190610b88565b60405180910390f35b6100df6100da366004610bb1565b6102cf565b6040519081526020016100c3565b6101006100fb366004610bb1565b610302565b6040516001600160a01b0390911681526020016100c3565b610100610126366004610bb1565b610334565b600c5461013f90600160a01b900460ff1681565b6040516100c39190610c82565b61010061015a366004610caa565b6103ca565b61010061016d366004610caa565b6103e1565b610100610180366004610bb1565b610423565b610100610193366004610bb1565b610465565b6101006101a6366004610caa565b61048d565b60606001600c54600160a01b900460ff1660018111156101cd576101cd610c6c565b0361024d57600a546040516001600160a01b03909116906101fe908a908a908a908a908a908a908a90602401610e3b565b60408051601f19818403018152918152602080830180516001600160e01b031663642219af60e01b179052905161023793929101610e99565b60405160208183030381529060405290506102c4565b600c546040516001600160a01b0390911690610279908a908a908a908a908a908a908a90602401610e3b565b60408051601f19818403018152918152602080830180516001600160e01b031663642219af60e01b17905290516102b293929101610e99565b60405160208183030381529060405290505b979650505050505050565b600082826040516020016102e4929190610ebd565b60405160208183030381529060405280519060200120905092915050565b60008061030f84846102cf565b600b5490915061032a906001600160a01b03168483306104d1565b9150505b92915050565b60008061034184846102cf565b600b549091506000906103609082906001600160a01b031686856104f5565b604051634b6a141960e01b81529091506001600160a01b03821690634b6a14199061038f908790600401610b88565b600060405180830381600087803b1580156103a957600080fd5b505af11580156103bd573d6000803e3d6000fd5b5092979650505050505050565b60006103d78484846105e3565b90505b9392505050565b60006103d78484848080601f01602080910402602001604051908101604052809392919081815260200183838082843760009201919091525061033492505050565b60006001600c54600160a01b900460ff16600181111561044557610445610c6c565b0361045b576104548383610465565b905061032e565b6104548383610302565b60008061047284846102cf565b60095490915061032a906001600160a01b03168483306104d1565b60006001600c54600160a01b900460ff1660018111156104af576104af610c6c565b036104c6576104bf8484846103ca565b90506103da565b6104bf8484846103e1565b6000806104de8686610927565b90506104eb818585610a03565b9695505050505050565b600060608303516040840351602085035185518060208801018051600283016c5af43d3d93803e606057fd5bf38a528a600d8b035278593da1005b363d3d373d3d3d3d610000806062363936013d738160481b1760218b03527f9e4ac34f21c619cefc926c8bd93b54bf5a39c7ab2127a895af1cc0691d7e3dff603a8b035272fd6100003d81600a3d39f336602c57343d527f6062820160781b1761ff9e82106059018b03528060f01b835288606c8201604c8c038ef5975050866105c25763301164256000526004601cfd5b90528652601f19860152603f19850152605f19909301929092525092915050565b6000806106268585858080601f0160208091040260200160405190810160405280939291908181526020018383808284376000920191909152506102cf92505050565b905060006106836000600960009054906101000a90046001600160a01b031687878080601f0160208091040260200160405190810160405280939291908181526020018383808284376000920191909152508892506104f5915050565b604080516002808252606082018352929350600092909160208301908036833701905050905062012345816000815181106106c0576106c0610ee3565b60200260200101906001600160a01b031690816001600160a01b03168152505062054321816001815181106106f7576106f7610ee3565b6001600160a01b03928316602091820292909201015260085460405163b63e800d60e01b81528483169263b63e800d92610744928692600292600092911690829081908190600401610ef9565b600060405180830381600087803b15801561075e57600080fd5b505af1158015610772573d6000803e3d6000fd5b50506040516303223eab60e11b81526001600160a01b0385166004820152737109709ecfa91a80626ff3989d68f67f5b1dd12d92506306447d569150602401600060405180830381600087803b1580156107cb57600080fd5b505af11580156107df573d6000803e3d6000fd5b505060085460405163610b592560e01b81526001600160a01b039182166004820152908516925063610b59259150602401600060405180830381600087803b15801561082a57600080fd5b505af115801561083e573d6000803e3d6000fd5b5050600854604051634b6a141960e01b81526001600160a01b039091169250634b6a141991506108749089908990600401610fb2565b600060405180830381600087803b15801561088e57600080fd5b505af11580156108a2573d6000803e3d6000fd5b505050507f885cb69240a935d632d79c317109709ecfa91a80626ff3989d68f67f5b1dd12d60001c6001600160a01b03166390c5013b6040518163ffffffff1660e01b8152600401600060405180830381600087803b15801561090457600080fd5b505af1158015610918573d6000803e3d6000fd5b50939998505050505050505050565b60006060820351604083035160208403518451806020870101805161ff9b83113d3d3e6c5af43d3d93803e606057fd5bf38852600c1988019890985260028201604881901b78593da1005b363d3d373d3d3d3d610000806062363936013d73176020198901527f9e4ac34f21c619cefc926c8bd93b54bf5a39c7ab2127a895af1cc0691d7e3dff6039198901526064830160781b716100003d81600a3d39f336602c57343d527f1760591989015260f01b8152606e8201604b198801209790528552601f19850152603f19840152605f19909201919091525090565b600060ff60005350603592835260601b60015260155260556000908120915290565b60008083601f840112610a3757600080fd5b50813567ffffffffffffffff811115610a4f57600080fd5b6020830191508360208260051b8501011115610a6a57600080fd5b9250929050565b60008060008060008060006080888a031215610a8c57600080fd5b873567ffffffffffffffff80821115610aa457600080fd5b610ab08b838c01610a25565b909950975060208a0135915080821115610ac957600080fd5b610ad58b838c01610a25565b909750955060408a0135915080821115610aee57600080fd5b908901906040828c031215610b0257600080fd5b90935060608901359080821115610b1857600080fd5b50610b258a828b01610a25565b989b979a50959850939692959293505050565b60005b83811015610b53578181015183820152602001610b3b565b50506000910152565b60008151808452610b74816020860160208601610b38565b601f01601f19169290920160200192915050565b6020815260006103da6020830184610b5c565b634e487b7160e01b600052604160045260246000fd5b60008060408385031215610bc457600080fd5b82359150602083013567ffffffffffffffff80821115610be357600080fd5b818501915085601f830112610bf757600080fd5b813581811115610c0957610c09610b9b565b604051601f8201601f19908116603f01168101908382118183101715610c3157610c31610b9b565b81604052828152886020848701011115610c4a57600080fd5b8260208601602083013760006020848301015280955050505050509250929050565b634e487b7160e01b600052602160045260246000fd5b6020810160028310610ca457634e487b7160e01b600052602160045260246000fd5b91905290565b600080600060408486031215610cbf57600080fd5b83359250602084013567ffffffffffffffff80821115610cde57600080fd5b818601915086601f830112610cf257600080fd5b813581811115610d0157600080fd5b876020828501011115610d1357600080fd5b6020830194508093505050509250925092565b81835281816020850137506000828201602090810191909152601f909101601f19169091010190565b600081356001600160a01b038116808214610d6957600080fd5b845250602082013536839003601e19018112610d8457600080fd5b820160208101903567ffffffffffffffff811115610da157600080fd5b803603821315610db057600080fd5b60406020860152610dc5604086018284610d26565b95945050505050565b6000838385526020808601955060208560051b830101846000805b88811015610e2d57858403601f19018a52823536899003603e19018112610e0e578283fd5b610e1a858a8301610d4f565b9a86019a94505091840191600101610de9565b509198975050505050505050565b608081526000610e4f60808301898b610dce565b8281036020840152610e6281888a610dce565b90508281036040840152610e768187610d4f565b90508281036060840152610e8b818587610dce565b9a9950505050505050505050565b6001600160a01b03831681526040602082018190526000906103d790830184610b5c565b82815260008251610ed5816020850160208701610b38565b919091016020019392505050565b634e487b7160e01b600052603260045260246000fd5b6101008082528851908201819052600090610120830190602090818c01845b82811015610f3d5781516001600160a01b031685529383019390830190600101610f18565b50505050886020840152610f5c60408401896001600160a01b03169052565b8281036060840152600081526001600160a01b038716608084015260200190506001600160a01b03851660a08301528360c0830152610fa660e08301846001600160a01b03169052565b98975050505050505050565b6020815260006103d7602083018486610d2656fea2646970667358221220dd968fc775159c95472306a481aac3bb44f44d5d32275244e83a57947dfe7b8e64736f6c634300081900336080604052348015600f57600080fd5b50612be48061001f6000396000f3fe60806040526004361061010d5760003560e01c80639cfd7cff11610095578063d691c96411610064578063d691c9641461039f578063e9ae5c53146103bf578063ea5f61d0146103d2578063f2dc691d146103f2578063f698da251461041257610114565b80639cfd7cff14610327578063a71763a814610349578063b0d691fe1461035c578063d03c79141461037f57610114565b80634b6a1419116100dc5780634b6a14191461029057806385571368146102a55780638acf4c6a146102d35780638dd7712f146103015780639517e29f1461031457610114565b80630a664dba146101be578063112d3a7d146102025780631626ba7e1461023257806319822f7c1461026f57610114565b3661011457005b60003560e01c63bc197c81811463f23a6e6182141763150b7a028214171561014057806020526020603cf35b50336000908152602081905260409020600101546001600160a01b03168061017b57604051632c4bc0b360e11b815260040160405180910390fd5b60006101b433833460003661018e610427565b6040516020016101a09392919061214a565b604051602081830303815290604052610433565b9050805160208201f35b3480156101ca57600080fd5b50336000908152600260205260409020546001600160a01b03165b6040516001600160a01b0390911681526020015b60405180910390f35b34801561020e57600080fd5b5061022261021d3660046121d1565b6104dc565b60405190151581526020016101f9565b34801561023e57600080fd5b5061025661024d36600461222c565b60009392505050565b6040516001600160e01b031990911681526020016101f9565b61028261027d366004612290565b61056c565b6040519081526020016101f9565b6102a361029e3660046122dd565b610638565b005b3480156102b157600080fd5b506102c56102c036600461231e565b6106d6565b6040516101f992919061234a565b3480156102df57600080fd5b50336000908152602081905260409020600101546001600160a01b03166101e5565b6102a361030f3660046123ad565b6106f3565b6102a36103223660046121d1565b6107e9565b34801561033357600080fd5b5061033c610970565b6040516101f99190612441565b6102a36103573660046121d1565b610a1f565b34801561036857600080fd5b506f71727de22e5e9d8baf0edac6f37da0326101e5565b34801561038b57600080fd5b5061022261039a366004612454565b610b46565b6103b26103ad36600461222c565b610b87565b6040516101f9919061246d565b6102a36103cd36600461222c565b610d22565b3480156103de57600080fd5b506102c56103ed36600461231e565b610e6e565b3480156103fe57600080fd5b5061022261040d366004612454565b610e98565b34801561041e57600080fd5b50610282610ee7565b60131936013560601c90565b60606000856001600160a01b0316635229073f86868660006040518563ffffffff1660e01b815260040161046a94939291906124d1565b6000604051808303816000875af1158015610489573d6000803e3d6000fd5b505050506040513d6000823e601f3d908101601f191682016040526104b191908101906125de565b92509050806104d357604051632b3f6d1160e21b815260040160405180910390fd5b50949350505050565b6000600185036104f6576104ef84610f40565b9050610564565b60028503610507576104ef84610f54565b6003850361053557336000908152602081905260409020600101546001600160a01b038086169116146104ef565b6004850361056057336000908152600260205260409020546001600160a01b038086169116146104ef565b5060005b949350505050565b60006020840135606081901c9061058282610f40565b6105985761058f86610f6d565b92505050610631565b60006105e3338460008a8a6040516024016105b4929190612699565b60408051601f198184030181529190526020810180516001600160e01b0316639700320360e01b179052610433565b9050808060200190518101906105f99190612798565b9350841561062d5761062d87356f71727de22e5e9d8baf0edac6f37da0328760405180602001604052806000815250611023565b5050505b9392505050565b6106406110bb565b60008061064f838501856127b1565b915091506000826001600160a01b03168260405161066d919061283e565b600060405180830381855af49150503d80600081146106a8576040519150601f19603f3d011682016040523d82523d6000602084013e6106ad565b606091505b50509050806106cf57604051631b79777760e11b815260040160405180910390fd5b5050505050565b606060006106e760013386866110e3565b915091505b9250929050565b6f71727de22e5e9d8baf0edac6f37da03261070c610427565b6001600160a01b031614806107395750610724610427565b6001600160a01b0316336001600160a01b0316145b61075657604051635629665f60e11b815260040160405180910390fd5b600030610766606085018561285a565b6107749160049082906128a0565b6040516107829291906128ca565b600060405180830381855af49150503d80600081146107bd576040519150601f19603f3d011682016040523d82523d6000602084013e6107c2565b606091505b50509050806107e457604051632b3f6d1160e21b815260040160405180910390fd5b505050565b6f71727de22e5e9d8baf0edac6f37da032610802610427565b6001600160a01b0316148061082f575061081a610427565b6001600160a01b0316336001600160a01b0316145b61084c57604051635629665f60e11b815260040160405180910390fd5b60018403610899576108948383838080601f0160208091040260200160405190810160405280939291908181526020018383808284376000920191909152506112a792505050565b610928565b600284036108e1576108948383838080601f0160208091040260200160405190810160405280939291908181526020018383808284376000920191909152506112fe92505050565b600384036108f45761089483838361132f565b600484036109075761089483838361137f565b60405163041c38b360e41b8152600481018590526024015b60405180910390fd5b604080518581526001600160a01b03851660208201527fd21d0b289f126c4b473ea641963e766833c2f13866e4ff480abd787c100ef12391015b60405180910390a150505050565b60606000336001600160a01b031663ffa1ad746040518163ffffffff1660e01b8152600401600060405180830381865afa1580156109b2573d6000803e3d6000fd5b505050506040513d6000823e601f3d908101601f191682016040526109da91908101906128da565b9050806040516020016109ed919061283e565b60408051601f1981840301815290829052610a0a91602001612922565b60405160208183030381529060405291505090565b6f71727de22e5e9d8baf0edac6f37da032610a38610427565b6001600160a01b03161480610a655750610a50610427565b6001600160a01b0316336001600160a01b0316145b610a8257604051635629665f60e11b815260040160405180910390fd5b60018403610acf57610aca8383838080601f01602080910402602001604051908101604052809392919081815260200183838082843760009201919091525061140392505050565b610b08565b60028403610ae257610aca838383611473565b60038403610af557610aca8383836114b8565b6004840361090757610aca8383836114f7565b604080518581526001600160a01b03851660208201527f341347516a9de374859dfda710fa4828b2d48cb57d4fbe4c1149612b8e02276e9101610962565b600081610b5781600160f81b61152d565b15610b655750600192915050565b610b7081600061152d565b15610b7e5750600192915050565b50600092915050565b6060610b99610b94610427565b610f54565b610bca57610ba5610427565b604051635c93ff2f60e11b81526001600160a01b03909116600482015260240161091f565b336000908152600260205260409020546001600160a01b03168015801590606090610bfb57610bf88361153f565b90505b86610c0a81600160f81b61152d565b15610c2d5786358701602081019035610c243383836115a9565b96505050610d11565b610c3881600061152d565b15610cec57600080366000610c4d8b8b6116b8565b6040805160018082528183019092529498509296509094509250816020015b6060815260200190600190039081610c6c579050509850610cc533858585858080601f01602080910402602001604051908101604052809392919081815260200183838082843760009201919091525061043392505050565b89600081518110610cd857610cd8612967565b602002602001018190525050505050610d11565b604051632e5bf3f960e21b81526001600160f81b03198216600482015260240161091f565b50811561062d5761062d8382611709565b336000908152600260205260409020546001600160a01b03168015801590606090610d5357610d508361153f565b90505b6f71727de22e5e9d8baf0edac6f37da032610d6c610427565b6001600160a01b03161480610d995750610d84610427565b6001600160a01b0316336001600160a01b0316145b610db657604051635629665f60e11b815260040160405180910390fd5b85610dc581600160f81b61152d565b15610de65785358601602081019035610ddf338383611770565b5050610e55565b610df181600061152d565b15610cec57600080366000610e068a8a6116b8565b9350935093509350610e5033858585858080601f01602080910402602001604051908101604052809392919081815260200183838082843760009201919091525061102392505050565b505050505b508115610e6657610e668382611709565b505050505050565b33600090815260208190526040812060609190610e8c818686611809565b92509250509250929050565b600060018203610eaa57506001919050565b60028203610eba57506001919050565b60038203610eca57506001919050565b60048203610eda57506001919050565b506000919050565b919050565b604080517f47e79534a245952e8b16893a336b85a3d9ea9fa8c573f3d803afb92a794692186020820152469181019190915230606082015260009060800160405160208183030381529060405280519060200120905090565b6000610f4e600133846119b5565b92915050565b33600090815260208190526040812061063181846119f9565b600080600080366000610f7f87611a33565b94509450945094509450610f91873590565b8551602087012060405163934f3a1160e01b81526001600160a01b03929092169163934f3a1191610fca9189908790879060040161297d565b60006040518083038186803b158015610fe257600080fd5b505afa925050508015610ff3575060015b61100a5761100360018486611c5a565b9550611019565b61101660008486611c5a565b95505b5050505050919050565b60405163468721a760e01b81526000906001600160a01b0386169063468721a7906110589087908790879087906004016124d1565b6020604051808303816000875af1158015611077573d6000803e3d6000fd5b505050506040513d601f19601f8201168201806040525081019061109b91906129b4565b9050806106cf57604051632b3f6d1160e21b815260040160405180910390fd5b336000818152602081905260409020906110d790600190611c92565b6110e081611d0d565b50565b606060006001600160a01b03841660011480159061110957506111078686866119b5565b155b1561113257604051637c84ecfb60e01b81526001600160a01b038516600482015260240161091f565b826000036111535760405163f725081760e01b815260040160405180910390fd5b826001600160401b0381111561116b5761116b61251c565b604051908082528060200260200182016040528015611194578160200160208202803683370190505b506001600160a01b038086166000908152602089815260408083208a85168452909152812054929450911691505b6001600160a01b038216158015906111e457506001600160a01b038216600114155b80156111ef57508381105b15611254578183828151811061120757611207612967565b6001600160a01b039283166020918202929092018101919091529281166000908152888452604080822089841683529094529290922054909116908061124c816129e5565b9150506111c2565b6001600160a01b03821660011480159061126e5750600081115b1561129a578261127f6001836129fe565b8151811061128f5761128f612967565b602002602001015191505b8083525094509492505050565b6112b360013384611d6a565b6112fa33836000846040516024016112cb9190612441565b60408051601f198184030181529190526020810180516001600160e01b03166306d61fe760e41b179052611023565b5050565b3360009081526020819052604090206113178184611e5f565b6107e433846000856040516024016112cb9190612441565b336000818152602081905260408082206001810180546001600160a01b0319166001600160a01b038916179055905190926113799290918791906112cb9088908890602401612a11565b50505050565b336000908152600260205260409020546001600160a01b031680156113c25760405163741cbe0360e01b81526001600160a01b038216600482015260240161091f565b3360008181526002602052604080822080546001600160a01b0319166001600160a01b03891617905551611379929187916112cb9088908890602401612a11565b6000808280602001905181019061141a9190612a25565b909250905061142c6001338487611f35565b61137933856000846040516024016114449190612441565b60408051601f198184030181529190526020810180516001600160e01b0316638a91b0e360e01b179052611023565b3360009081526020819052604081209080611490848601866127b1565b90925090506114a083838861202c565b610e6633876000846040516024016114449190612441565b336000818152602081905260408082206001810180546001600160a01b0319169055905190926113799290918791906114449088908890602401612a11565b3360008181526002602052604080822080546001600160a01b0319169055516107e4929186916114449087908790602401612a11565b6001600160f81b031990811691161490565b606061159633836000611550610427565b346000366040516024016115679493929190612a5f565b60408051601f198184030181529190526020810180516001600160e01b031663d68f602560e01b179052610433565b806020019051810190610f4e9190612a91565b606081806001600160401b038111156115c4576115c461251c565b6040519080825280602002602001820160405280156115f757816020015b60608152602001906001900390816115e25790505b50915060005b818110156116af573685858381811061161857611618612967565b905060200281019061162a9190612ac5565b90506116898761163d6020840184612adb565b602084013561164f604086018661285a565b8080601f01602080910402602001604051908101604052809392919081815260200183838082843760009201919091525061043392505050565b84838151811061169b5761169b612967565b6020908102919091010152506001016115fd565b50509392505050565b60008036816116ca60148287896128a0565b6116d391612af8565b60601c93506116e66034601487896128a0565b6116ef91612b2d565b92506116fe85603481896128a0565b949793965094505050565b6112fa33836000846000604051602001611724929190612b4b565b60408051601f198184030181529082905261174191602401612441565b60408051601f198184030181529190526020810180516001600160e01b0316630b9dfbed60e11b179052611023565b8060005b818110156106cf573684848381811061178f5761178f612967565b90506020028101906117a19190612ac5565b9050611800866117b46020840184612adb565b60208401356117c6604086018661285a565b8080601f01602080910402602001604051908101604052809392919081815260200183838082843760009201919091525061102392505050565b50600101611774565b606060006001600160a01b03841660011480159061182e575061182c85856119f9565b155b1561185757604051637c84ecfb60e01b81526001600160a01b038516600482015260240161091f565b826000036118785760405163f725081760e01b815260040160405180910390fd5b826001600160401b038111156118905761189061251c565b6040519080825280602002602001820160405280156118b9578160200160208202803683370190505b506001600160a01b03808616600090815260208890526040812054929450911691505b6001600160a01b038216158015906118fe57506001600160a01b038216600114155b801561190957508381105b15611963578183828151811061192157611921612967565b6001600160a01b03928316602091820292909201810191909152928116600090815292879052604090922054909116908061195b816129e5565b9150506118dc565b6001600160a01b03821660011480159061197d5750600081115b156119a9578261198e6001836129fe565b8151811061199e5761199e612967565b602002602001015191505b80835250935093915050565b600060016001600160a01b038316148015906105645750506001600160a01b0390811660009081526020938452604080822093831682529290935291205416151590565b600060016001600160a01b038316148015906106315750506001600160a01b03908116600090815260209290925260409091205416151590565b606060008036818181611a4a61010089018961285a565b9092509050611a5d6006600083856128a0565b611a6691612b80565b60d01c9550611a79600c600683856128a0565b611a8291612b80565b60d01c9450611a9481600c81856128a0565b9350935050506000604051806101c001604052807f84aa190356f56b8c87825f54884392a9907c23ee0f8e1ea86336b763faf021bd60001b8152602001886000016020810190611ae49190612adb565b6001600160a01b0316815260200188602001358152602001888060400190611b0c919061285a565b604051611b1a9291906128ca565b6040519081900390208152602001611b3560608a018a61285a565b604051611b439291906128ca565b60405180910390208152602001611b5989612101565b8152602001611b6789612116565b81526020018860a001358152602001611b7f89612126565b8152602001611b8d8961213b565b8152602001611b9f60e08a018a61285a565b604051611bad9291906128ca565b604051809103902081526020018665ffffffffffff1681526020018565ffffffffffff168152602001611bed6f71727de22e5e9d8baf0edac6f37da03290565b6001600160a01b031690526101c08120909150601960f81b600160f81b611c12610ee7565b6040516001600160f81b031993841660208201529290911660218301526022820152604281018290526062016040516020818303038152906040529650505091939590929450565b600060d08265ffffffffffff16901b60a08465ffffffffffff16901b85611c82576000611c85565b60015b60ff161717949350505050565b60016000908152602083815260408083206001600160a01b0380861685529252909120541615611cd5576040516329e42f3360e11b815260040160405180910390fd5b60016000818152602093845260408082206001600160a01b0394909416825292909352912080546001600160a01b0319169091179055565b60016000908152602082905260409020546001600160a01b031615611d45576040516329e42f3360e11b815260040160405180910390fd5b60016000818152602092909252604090912080546001600160a01b0319169091179055565b6001600160a01b0381161580611d8957506001600160a01b0381166001145b15611db257604051637c84ecfb60e01b81526001600160a01b038216600482015260240161091f565b6001600160a01b0381811660009081526020858152604080832086851684529091529020541615611e0157604051631034f46960e21b81526001600160a01b038216600482015260240161091f565b60016000908152602084815260408083206001600160a01b039586168085528184528285208054968816808752988552838620918652908452919093208054949095166001600160a01b031994851617909455528154169091179055565b6001600160a01b0381161580611e7e57506001600160a01b0381166001145b15611ea757604051637c84ecfb60e01b81526001600160a01b038216600482015260240161091f565b6001600160a01b038181166000908152602084905260409020541615611eeb57604051631034f46960e21b81526001600160a01b038216600482015260240161091f565b60016000818152602093909352604080842080546001600160a01b039485168087529286208054959091166001600160a01b03199586161790559190935280549091169091179055565b6001600160a01b0381161580611f5457506001600160a01b0381166001145b15611f7d57604051637c84ecfb60e01b81526001600160a01b038316600482015260240161091f565b6001600160a01b038281166000908152602086815260408083208785168452909152902054811690821614611fd057604051637c84ecfb60e01b81526001600160a01b038216600482015260240161091f565b6001600160a01b039081166000908152602085815260408083209584168084528683528184208054968616855297835281842090845282529091208054939092166001600160a01b031993841617909155919091528154169055565b6001600160a01b038116158061204b57506001600160a01b0381166001145b1561207457604051637c84ecfb60e01b81526001600160a01b038316600482015260240161091f565b6001600160a01b038281166000908152602085905260409020548116908216146120bc57604051637c84ecfb60e01b81526001600160a01b038216600482015260240161091f565b6001600160a01b0390811660008181526020949094526040808520805494841686529085208054949093166001600160a01b0319948516179092559092528154169055565b60006001600160801b03608083013516610f4e565b6000610f4e826080013560801c90565b60006001600160801b0360c083013516610f4e565b600060c082013560801c610f4e565b8284823760609190911b6bffffffffffffffffffffffff19169101908152601401919050565b6001600160a01b03811681146110e057600080fd5b8035610ee281612170565b60008083601f8401126121a257600080fd5b5081356001600160401b038111156121b957600080fd5b6020830191508360208285010111156106ec57600080fd5b600080600080606085870312156121e757600080fd5b8435935060208501356121f981612170565b925060408501356001600160401b0381111561221457600080fd5b61222087828801612190565b95989497509550505050565b60008060006040848603121561224157600080fd5b8335925060208401356001600160401b0381111561225e57600080fd5b61226a86828701612190565b9497909650939450505050565b6000610120828403121561228a57600080fd5b50919050565b6000806000606084860312156122a557600080fd5b83356001600160401b038111156122bb57600080fd5b6122c786828701612277565b9660208601359650604090950135949350505050565b600080602083850312156122f057600080fd5b82356001600160401b0381111561230657600080fd5b61231285828601612190565b90969095509350505050565b6000806040838503121561233157600080fd5b823561233c81612170565b946020939093013593505050565b604080825283519082018190526000906020906060840190828701845b8281101561238c5781516001600160a01b031684529284019290840190600101612367565b5050506001600160a01b039490941660209390930192909252509092915050565b600080604083850312156123c057600080fd5b82356001600160401b038111156123d657600080fd5b6123e285828601612277565b95602094909401359450505050565b60005b8381101561240c5781810151838201526020016123f4565b50506000910152565b6000815180845261242d8160208601602086016123f1565b601f01601f19169290920160200192915050565b6020815260006106316020830184612415565b60006020828403121561246657600080fd5b5035919050565b600060208083016020845280855180835260408601915060408160051b87010192506020870160005b828110156124c457603f198886030184526124b2858351612415565b94509285019290850190600101612496565b5092979650505050505050565b60018060a01b03851681528360208201526080604082015260006124f86080830185612415565b905060ff8316606083015295945050505050565b80518015158114610ee257600080fd5b634e487b7160e01b600052604160045260246000fd5b604051601f8201601f191681016001600160401b038111828210171561255a5761255a61251c565b604052919050565b60006001600160401b0382111561257b5761257b61251c565b50601f01601f191660200190565b600061259c61259784612562565b612532565b90508281528383830111156125b057600080fd5b6106318360208301846123f1565b600082601f8301126125cf57600080fd5b61063183835160208501612589565b600080604083850312156125f157600080fd5b6125fa8361250c565b915060208301516001600160401b0381111561261557600080fd5b612621858286016125be565b9150509250929050565b6000808335601e1984360301811261264257600080fd5b83016020810192503590506001600160401b0381111561266157600080fd5b8036038213156106ec57600080fd5b81835281816020850137506000828201602090810191909152601f909101601f19169091010190565b604081526126ba604082016126ad85612185565b6001600160a01b03169052565b6020830135606082015260006126d3604085018561262b565b6101208060808601526126eb61016086018385612670565b92506126fa606088018861262b565b9250603f19808786030160a0880152612714858584612670565b9450608089013560c088015260a089013560e0880152610100935060c08901358488015261274560e08a018a61262b565b925081888703018489015261275b868483612670565b95505061276a848a018a61262b565b9450925080878603016101408801525050612786838383612670565b93505050508260208301529392505050565b6000602082840312156127aa57600080fd5b5051919050565b600080604083850312156127c457600080fd5b82356127cf81612170565b915060208301356001600160401b038111156127ea57600080fd5b8301601f810185136127fb57600080fd5b803561280961259782612562565b81815286602083850101111561281e57600080fd5b816020840160208301376000602083830101528093505050509250929050565b600082516128508184602087016123f1565b9190910192915050565b6000808335601e1984360301811261287157600080fd5b8301803591506001600160401b0382111561288b57600080fd5b6020019150368190038213156106ec57600080fd5b600080858511156128b057600080fd5b838611156128bd57600080fd5b5050820193919092039150565b8183823760009101908152919050565b6000602082840312156128ec57600080fd5b81516001600160401b0381111561290257600080fd5b8201601f8101841361291357600080fd5b61056484825160208401612589565b637361666560e01b8152600082516129418160048501602087016123f1565b6e2e657263373537392e76302e302e3160881b6004939091019283015250601301919050565b634e487b7160e01b600052603260045260246000fd5b8481526060602082015260006129966060830186612415565b82810360408401526129a9818587612670565b979650505050505050565b6000602082840312156129c657600080fd5b6106318261250c565b634e487b7160e01b600052601160045260246000fd5b6000600182016129f7576129f76129cf565b5060010190565b81810381811115610f4e57610f4e6129cf565b602081526000610564602083018486612670565b60008060408385031215612a3857600080fd5b8251612a4381612170565b60208401519092506001600160401b0381111561261557600080fd5b60018060a01b0385168152836020820152606060408201526000612a87606083018486612670565b9695505050505050565b600060208284031215612aa357600080fd5b81516001600160401b03811115612ab957600080fd5b610564848285016125be565b60008235605e1983360301811261285057600080fd5b600060208284031215612aed57600080fd5b813561063181612170565b6bffffffffffffffffffffffff198135818116916014851015612b255780818660140360031b1b83161692505b505092915050565b80356020831015610f4e57600019602084900360031b1b1692915050565b606081526000612b5e6060830185612415565b8315156020840152828103604084015260008152602081019150509392505050565b6001600160d01b03198135818116916006851015612b255760069490940360031b84901b169092169291505056fea2646970667358221220a3350956e500125d7609add3fb7b6425e92019cf156c9069923c4da1b72b18c464736f6c634300081900336080604052348015600f57600080fd5b5060016004556130c4806100246000396000f3fe6080604052600436106101d15760003560e01c8063affed0e0116100f7578063e19a9dd911610095578063f08a032311610064578063f08a0323146105f5578063f698da2514610615578063f8dc5dd91461062a578063ffa1ad741461064a5761020d565b8063e19a9dd914610580578063e318b52b146105a0578063e75235b8146105c0578063e86637db146105d55761020d565b8063cc2f8452116100d1578063cc2f8452146104f2578063d4d9bdcd14610520578063d8d11f7814610540578063e009cfde146105605761020d565b8063affed0e01461049c578063b4faba09146104b2578063b63e800d146104d25761020d565b80635624b25b1161016f5780636a7612021161013e5780636a7612021461040f5780637d83297414610422578063934f3a111461045a578063a0e67e2b1461047a5761020d565b80635624b25b146103755780635ae6bd37146103a2578063610b5925146103cf578063694e80c3146103ef5761020d565b80632f54bf6e116101ab5780632f54bf6e146102ea5780633408e4701461030a578063468721a7146103275780635229073f146103475761020d565b80630d582f131461027357806312fb68e0146102955780632d9ad53d146102b55761020d565b3661020d5760405134815233907f3d0ce9bfc3ed7d6862dbb28b2dea94561fe714a1b4d019aa8af39730d1ad7c3d9060200160405180910390a2005b34801561021957600080fd5b507f6c9a6c4a39284e37ed1cf53d337577d14212a4870fb976a4366c693b939918d580548061024457005b36600080373360601b365260008060143601600080855af190503d6000803e8061026d573d6000fd5b503d6000f35b34801561027f57600080fd5b5061029361028e36600461259f565b61067b565b005b3480156102a157600080fd5b506102936102b036600461266e565b6107d3565b3480156102c157600080fd5b506102d56102d03660046126e3565b610c72565b60405190151581526020015b60405180910390f35b3480156102f657600080fd5b506102d56103053660046126e3565b610cad565b34801561031657600080fd5b50465b6040519081526020016102e1565b34801561033357600080fd5b506102d561034236600461270f565b610ce5565b34801561035357600080fd5b5061036761036236600461270f565b610dbe565b6040516102e19291906127bf565b34801561038157600080fd5b506103956103903660046127da565b610df4565b6040516102e191906127fc565b3480156103ae57600080fd5b506103196103bd36600461280f565b60076020526000908152604090205481565b3480156103db57600080fd5b506102936103ea3660046126e3565b610e70565b3480156103fb57600080fd5b5061029361040a36600461280f565b610fa9565b6102d561041d366004612871565b611047565b34801561042e57600080fd5b5061031961043d36600461259f565b600860209081526000928352604080842090915290825290205481565b34801561046657600080fd5b5061029361047536600461294a565b611392565b34801561048657600080fd5b5061048f6113dc565b6040516102e191906129fc565b3480156104a857600080fd5b5061031960055481565b3480156104be57600080fd5b506102936104cd366004612a0f565b6114cd565b3480156104de57600080fd5b506102936104ed366004612a5f565b6114f0565b3480156104fe57600080fd5b5061051261050d36600461259f565b6115f2565b6040516102e1929190612b54565b34801561052c57600080fd5b5061029361053b36600461280f565b6117ae565b34801561054c57600080fd5b5061031961055b366004612b7e565b611843565b34801561056c57600080fd5b5061029361057b366004612c3f565b611870565b34801561058c57600080fd5b5061029361059b3660046126e3565b611992565b3480156105ac57600080fd5b506102936105bb366004612c78565b611aa8565b3480156105cc57600080fd5b50600454610319565b3480156105e157600080fd5b506103956105f0366004612b7e565b611c83565b34801561060157600080fd5b506102936106103660046126e3565b611d5c565b34801561062157600080fd5b50610319611da4565b34801561063657600080fd5b50610293610645366004612cc3565b611dfb565b34801561065657600080fd5b5061039560405180604001604052806005815260200164312e342e3160d81b81525081565b610683611f66565b6001600160a01b038216158015906106a557506001600160a01b038216600114155b80156106ba57506001600160a01b0382163014155b6106df5760405162461bcd60e51b81526004016106d690612d04565b60405180910390fd5b6001600160a01b0382811660009081526002602052604090205416156107175760405162461bcd60e51b81526004016106d690612d23565b60026020527fe90b7bceb6e7df5418fb78d8ee546e97c83a08bbccc01a0644d599ccd2a7c2e080546001600160a01b038481166000818152604081208054939094166001600160a01b03199384161790935560018352835490911617909155600380549161078483612d58565b90915550506040516001600160a01b038316907f9465fa0c962cc76958e6373a993326400c1c94f8be2fe3a952adfa7f60b2ea2690600090a280600454146107cf576107cf81610fa9565b5050565b6107de816041611f9f565b825110156108165760405162461bcd60e51b8152602060048201526005602482015264047533032360dc1b60448201526064016106d6565b6000808060008060005b86811015610c66576041818102890160208101516040820151919092015160ff16955090935091506000849003610a2e57885160208a01208a1461088e5760405162461bcd60e51b8152602060048201526005602482015264475330323760d81b60448201526064016106d6565b919350839161089e876041611f9f565b8210156108d55760405162461bcd60e51b8152602060048201526005602482015264475330323160d81b60448201526064016106d6565b87516108e2836020611fdb565b11156109185760405162461bcd60e51b815260206004820152600560248201526423a998191960d91b60448201526064016106d6565b60208289018101518951909161093b908390610935908790611fdb565b90611fdb565b11156109715760405162461bcd60e51b8152602060048201526005602482015264475330323360d81b60448201526064016106d6565b6040516320c13b0b60e01b8082528a8501602001916001600160a01b038916906320c13b0b906109a7908f908690600401612d71565b602060405180830381865afa1580156109c4573d6000803e3d6000fd5b505050506040513d601f19601f820116820180604052508101906109e89190612d96565b6001600160e01b03191614610a275760405162461bcd60e51b815260206004820152600560248201526411d4cc0c8d60da1b60448201526064016106d6565b5050610bd5565b8360ff16600103610ab0579193508391336001600160a01b0384161480610a7757506001600160a01b03851660009081526008602090815260408083208d845290915290205415155b610aab5760405162461bcd60e51b8152602060048201526005602482015264475330323560d81b60448201526064016106d6565b610bd5565b601e8460ff161115610b75576040517f19457468657265756d205369676e6564204d6573736167653a0a3332000000006020820152603c81018b9052600190605c0160405160208183030381529060405280519060200120600486610b159190612dc0565b6040805160008152602081018083529390935260ff90911690820152606081018590526080810184905260a0016020604051602081039080840390855afa158015610b64573d6000803e3d6000fd5b505050602060405103519450610bd5565b6040805160008152602081018083528c905260ff861691810191909152606081018490526080810183905260019060a0016020604051602081039080840390855afa158015610bc8573d6000803e3d6000fd5b5050506020604051035194505b856001600160a01b0316856001600160a01b0316118015610c0f57506001600160a01b038581166000908152600260205260409020541615155b8015610c2557506001600160a01b038516600114155b610c595760405162461bcd60e51b815260206004820152600560248201526423a998191b60d91b60448201526064016106d6565b9394508493600101610820565b50505050505050505050565b600060016001600160a01b03831614801590610ca757506001600160a01b038281166000908152600160205260409020541615155b92915050565b60006001600160a01b038216600114801590610ca75750506001600160a01b0390811660009081526002602052604090205416151590565b600033600114801590610d0f5750336000908152600160205260409020546001600160a01b031615155b610d435760405162461bcd60e51b815260206004820152600560248201526411d4cc4c0d60da1b60448201526064016106d6565b610d5285858585600019611ff7565b90508015610d8a5760405133907f6895c13664aa4f67288b25d7a21d7aaa34916e355fb9b6fae0a139a9085becb890600090a2610db6565b60405133907facd2c8702804128fdb0db2bb49f6d127dd0181c13fd45dbfe16de0930e2bd37590600090a25b949350505050565b60006060610dce86868686610ce5565b915060405160203d0181016040523d81523d6000602083013e8091505094509492505050565b60606000610e03836020612dd9565b67ffffffffffffffff811115610e1b57610e1b6125cb565b6040519080825280601f01601f191660200182016040528015610e45576020820181803683370190505b50905060005b83811015610e685784810154602080830284010152600101610e4b565b509392505050565b610e78611f66565b6001600160a01b03811615801590610e9a57506001600160a01b038116600114155b610ece5760405162461bcd60e51b8152602060048201526005602482015264475331303160d81b60448201526064016106d6565b6001600160a01b038181166000908152600160205260409020541615610f1e5760405162461bcd60e51b815260206004820152600560248201526423a998981960d91b60448201526064016106d6565b600160208190527fcc69885fda6bcc1a4ace058b4a62bf5e179ea78fd58a1ccd71c22cc9b688792f80546001600160a01b03848116600081815260408082208054949095166001600160a01b031994851617909455948552835490911681179092555190917fecdf3a3effea5783a3c4c2140e677577666428d44ed9d474a0b3a4c9943f844091a250565b610fb1611f66565b600354811115610fd35760405162461bcd60e51b81526004016106d690612df0565b600181101561100c5760405162461bcd60e51b815260206004820152600560248201526423a999181960d91b60448201526064016106d6565b60048190556040518181527f610f7ff2b304ae8903c3de74c60c6ab1f7d6226b3f52c5161905bb5ad4039c939060200160405180910390a150565b60008060006110618e8e8e8e8e8e8e8e8e8e600554611c83565b60058054919250600061107383612d58565b909155505080516020820120915061108c828286611392565b5060006110b77f4a204f620c8c5ccdca3fd54d003badd85ba500436a431f0cbda4f558c93c34c85490565b90506001600160a01b0381161561113d57806001600160a01b03166375f0bb528f8f8f8f8f8f8f8f8f8f8f336040518d63ffffffff1660e01b815260040161110a9c9b9a99989796959493929190612e47565b600060405180830381600087803b15801561112457600080fd5b505af1158015611138573d6000803e3d6000fd5b505050505b61116961114c8a6109c4612f0c565b603f6111598c6040612dd9565b6111639190612f1f565b9061203e565b611175906101f4612f0c565b5a10156111ac5760405162461bcd60e51b8152602060048201526005602482015264047533031360dc1b60448201526064016106d6565b60005a905061121d8f8f8f8f8080601f016020809104026020016040519081016040528093929190818152602001838380828437600081840152601f19601f820116905080830192505050505050508e8c60001461120a578e611ff7565b6109c45a6112189190612f41565b611ff7565b935061122a5a8290612055565b9050838061123757508915155b8061124157508715155b6112755760405162461bcd60e51b8152602060048201526005602482015264475330313360d81b60448201526064016106d6565b6000881561128d5761128a828b8b8b8b612070565b90505b84156112d257837f442e715f626346e8c54381002da614f62bee8d27386535b2521ec8540898556e826040516112c591815260200190565b60405180910390a261130d565b837f23428b18acfb3ea64b08dc0c1d296ea9c09702c09083ca5272e64d115b687d238260405161130491815260200190565b60405180910390a25b50506001600160a01b0381161561138157604051631264e26d60e31b81526004810183905283151560248201526001600160a01b03821690639327136890604401600060405180830381600087803b15801561136857600080fd5b505af115801561137c573d6000803e3d6000fd5b505050505b50509b9a5050505050505050505050565b600454806113ca5760405162461bcd60e51b8152602060048201526005602482015264475330303160d81b60448201526064016106d6565b6113d6848484846107d3565b50505050565b6060600060035467ffffffffffffffff8111156113fb576113fb6125cb565b604051908082528060200260200182016040528015611424578160200160208202803683370190505b506001600090815260026020527fe90b7bceb6e7df5418fb78d8ee546e97c83a08bbccc01a0644d599ccd2a7c2e054919250906001600160a01b03165b6001600160a01b0381166001146114c5578083838151811061148557611485612f54565b6001600160a01b039283166020918202929092018101919091529181166000908152600290925260409091205416816114bd81612d58565b925050611461565b509092915050565b600080825160208401855af480600052503d6020523d600060403e60403d016000fd5b61152e8a8a808060200260200160405190810160405280939291908181526020018383602002808284376000920191909152508c9250612176915050565b6001600160a01b038416156115465761154684612352565b6115868787878080601f0160208091040260200160405190810160405280939291908181526020018383808284376000920191909152506123b692505050565b811561159d5761159b82600060018685612070565b505b336001600160a01b03167f141df868a6331af528e38c83b7aa03edc19be66e37ae67f9285bf4f8e3c6a1a88b8b8b8b896040516115de959493929190612f6a565b60405180910390a250505050505050505050565b606060006001600160a01b03841660011480611612575061161284610c72565b6116465760405162461bcd60e51b8152602060048201526005602482015264475331303560d81b60448201526064016106d6565b6000831161167e5760405162461bcd60e51b815260206004820152600560248201526423a998981b60d91b60448201526064016106d6565b8267ffffffffffffffff811115611697576116976125cb565b6040519080825280602002602001820160405280156116c0578160200160208202803683370190505b506001600160a01b03808616600090815260016020526040812054929450911691505b6001600160a01b0382161580159061170557506001600160a01b038216600114155b801561171057508381105b1561176b578183828151811061172857611728612f54565b6001600160a01b0392831660209182029290920181019190915292811660009081526001909352604090922054909116908061176381612d58565b9150506116e3565b6001600160a01b0382166001146117a35782611788600183612f41565b8151811061179857611798612f54565b602002602001015191505b808352509250929050565b336000908152600260205260409020546001600160a01b03166117fb5760405162461bcd60e51b8152602060048201526005602482015264047533033360dc1b60448201526064016106d6565b336000818152600860209081526040808320858452909152808220600190555183917ff2a0eb156472d1440255b0d7c1e19cc07115d1051fe605b0dce69acfec884d9c91a350565b60006118588c8c8c8c8c8c8c8c8c8c8c611c83565b8051906020012090509b9a5050505050505050505050565b611878611f66565b6001600160a01b0381161580159061189a57506001600160a01b038116600114155b6118ce5760405162461bcd60e51b8152602060048201526005602482015264475331303160d81b60448201526064016106d6565b6001600160a01b038281166000908152600160205260409020548116908216146119225760405162461bcd60e51b8152602060048201526005602482015264475331303360d81b60448201526064016106d6565b6001600160a01b03818116600081815260016020526040808220805487861684528284208054919096166001600160a01b0319918216179095558383528054909416909355915190917faab4fa2b463f581b2b32cb3b7e3b704b9ce37cc209b5fb4d77e593ace405427691a25050565b61199a611f66565b6001600160a01b03811615611a4c576040516301ffc9a760e01b815263736bd41d60e11b60048201526001600160a01b038216906301ffc9a790602401602060405180830381865afa1580156119f4573d6000803e3d6000fd5b505050506040513d601f19601f82011682018060405250810190611a189190612fd6565b611a4c5760405162461bcd60e51b8152602060048201526005602482015264047533330360dc1b60448201526064016106d6565b7f4a204f620c8c5ccdca3fd54d003badd85ba500436a431f0cbda4f558c93c34c88181556040516001600160a01b038316907f1151116914515bc0891ff9047a6cb32cf902546f83066499bcf8ba33d2353fa290600090a25050565b611ab0611f66565b6001600160a01b03811615801590611ad257506001600160a01b038116600114155b8015611ae757506001600160a01b0381163014155b611b035760405162461bcd60e51b81526004016106d690612d04565b6001600160a01b038181166000908152600260205260409020541615611b3b5760405162461bcd60e51b81526004016106d690612d23565b6001600160a01b03821615801590611b5d57506001600160a01b038216600114155b611b795760405162461bcd60e51b81526004016106d690612d04565b6001600160a01b03838116600090815260026020526040902054811690831614611bcd5760405162461bcd60e51b8152602060048201526005602482015264475332303560d81b60448201526064016106d6565b6001600160a01b03828116600081815260026020526040808220805486861680855283852080549288166001600160a01b03199384161790559589168452828420805482169096179095558383528054909416909355915190917ff8d49fc529812e9a7c5c50e69c20f0dccc0db8fa95c98bc58cc9a4f1c1299eaf91a26040516001600160a01b038216907f9465fa0c962cc76958e6373a993326400c1c94f8be2fe3a952adfa7f60b2ea2690600090a2505050565b606060007fbb8310d486368db6bd6f849402fdd73ad53d316b5a4b2644ad6efe0f941286d860001b8d8d8d8d604051611cbd929190612ff8565b604051908190038120611ce3949392918e908e908e908e908e908e908e90602001613008565b60408051601f1981840301815291905280516020909101209050601960f81b600160f81b611d0f611da4565b6040516001600160f81b031993841660208201529290911660218301526022820152604281018290526062016040516020818303038152906040529150509b9a5050505050505050505050565b611d64611f66565b611d6d81612352565b6040516001600160a01b038216907f5ac6c46c93c8d0e53714ba3b53db3e7c046da994313d7ed0d192028bc7c228b090600090a250565b60007f47e79534a245952e8b16893a336b85a3d9ea9fa8c573f3d803afb92a794692184660408051602081019390935282015230606082015260800160405160208183030381529060405280519060200120905090565b611e03611f66565b806001600354611e139190612f41565b1015611e315760405162461bcd60e51b81526004016106d690612df0565b6001600160a01b03821615801590611e5357506001600160a01b038216600114155b611e6f5760405162461bcd60e51b81526004016106d690612d04565b6001600160a01b03838116600090815260026020526040902054811690831614611ec35760405162461bcd60e51b8152602060048201526005602482015264475332303560d81b60448201526064016106d6565b6001600160a01b03828116600081815260026020526040808220805488861684529183208054929095166001600160a01b03199283161790945591815282549091169091556003805491611f1683613077565b90915550506040516001600160a01b038316907ff8d49fc529812e9a7c5c50e69c20f0dccc0db8fa95c98bc58cc9a4f1c1299eaf90600090a28060045414611f6157611f6181610fa9565b505050565b333014611f9d5760405162461bcd60e51b8152602060048201526005602482015264475330333160d81b60448201526064016106d6565b565b600082600003611fb157506000610ca7565b6000611fbd8385612dd9565b905082611fca8583612f1f565b14611fd457600080fd5b9392505050565b600080611fe88385612f0c565b905083811015611fd457600080fd5b6000600183600181111561200d5761200d612e0f565b03612025576000808551602087018986f49050612035565b600080855160208701888a87f190505b95945050505050565b60008183101561204e5781611fd4565b5090919050565b60008282111561206457600080fd5b6000610db68385612f41565b6000806001600160a01b03831615612088578261208a565b325b90506001600160a01b03841661211d576120bc3a86106120aa573a6120ac565b855b6120b68989611fdb565b90611f9f565b6040519092506001600160a01b0382169083156108fc029084906000818181858888f193505050506121185760405162461bcd60e51b8152602060048201526005602482015264475330313160d81b60448201526064016106d6565b61216c565b61212b856120b68989611fdb565b91506121388482846124e8565b61216c5760405162461bcd60e51b815260206004820152600560248201526423a998189960d91b60448201526064016106d6565b5095945050505050565b600454156121ae5760405162461bcd60e51b8152602060048201526005602482015264047533230360dc1b60448201526064016106d6565b81518111156121cf5760405162461bcd60e51b81526004016106d690612df0565b60018110156122085760405162461bcd60e51b815260206004820152600560248201526423a999181960d91b60448201526064016106d6565b600160005b835181101561231f57600084828151811061222a5761222a612f54565b6020026020010151905060006001600160a01b0316816001600160a01b03161415801561226157506001600160a01b038116600114155b801561227657506001600160a01b0381163014155b80156122945750806001600160a01b0316836001600160a01b031614155b6122b05760405162461bcd60e51b81526004016106d690612d04565b6001600160a01b0381811660009081526002602052604090205416156122e85760405162461bcd60e51b81526004016106d690612d23565b6001600160a01b03928316600090815260026020526040902080546001600160a01b0319169382169390931790925560010161220d565b506001600160a01b0316600090815260026020526040902080546001600160a01b03191660011790559051600355600455565b306001600160a01b038216036123925760405162461bcd60e51b8152602060048201526005602482015264047533430360dc1b60448201526064016106d6565b7f6c9a6c4a39284e37ed1cf53d337577d14212a4870fb976a4366c693b939918d555565b600160008190526020527fcc69885fda6bcc1a4ace058b4a62bf5e179ea78fd58a1ccd71c22cc9b688792f546001600160a01b0316156124205760405162461bcd60e51b8152602060048201526005602482015264047533130360dc1b60448201526064016106d6565b6001600081905260208190527fcc69885fda6bcc1a4ace058b4a62bf5e179ea78fd58a1ccd71c22cc9b688792f80546001600160a01b03191690911790556001600160a01b038216156107cf57813b6124a35760405162461bcd60e51b815260206004820152600560248201526423a998181960d91b60448201526064016106d6565b6124b4826000836001600019611ff7565b6107cf5760405162461bcd60e51b8152602060048201526005602482015264047533030360dc1b60448201526064016106d6565b604080516001600160a01b03841660248201526044808201849052825180830390910181526064909101909152602080820180516001600160e01b031663a9059cbb60e01b1781528251600093929184919082896127105a03f13d801561255a5760208114612562576000935061256d565b81935061256d565b600051158215171593505b5050509392505050565b6001600160a01b038116811461258c57600080fd5b50565b803561259a81612577565b919050565b600080604083850312156125b257600080fd5b82356125bd81612577565b946020939093013593505050565b634e487b7160e01b600052604160045260246000fd5b600082601f8301126125f257600080fd5b813567ffffffffffffffff8082111561260d5761260d6125cb565b604051601f8301601f19908116603f01168101908282118183101715612635576126356125cb565b8160405283815286602085880101111561264e57600080fd5b836020870160208301376000602085830101528094505050505092915050565b6000806000806080858703121561268457600080fd5b84359350602085013567ffffffffffffffff808211156126a357600080fd5b6126af888389016125e1565b945060408701359150808211156126c557600080fd5b506126d2878288016125e1565b949793965093946060013593505050565b6000602082840312156126f557600080fd5b8135611fd481612577565b80356002811061259a57600080fd5b6000806000806080858703121561272557600080fd5b843561273081612577565b935060208501359250604085013567ffffffffffffffff81111561275357600080fd5b61275f878288016125e1565b92505061276e60608601612700565b905092959194509250565b6000815180845260005b8181101561279f57602081850181015186830182015201612783565b506000602082860101526020601f19601f83011685010191505092915050565b8215158152604060208201526000610db66040830184612779565b600080604083850312156127ed57600080fd5b50508035926020909101359150565b602081526000611fd46020830184612779565b60006020828403121561282157600080fd5b5035919050565b60008083601f84011261283a57600080fd5b50813567ffffffffffffffff81111561285257600080fd5b60208301915083602082850101111561286a57600080fd5b9250929050565b60008060008060008060008060008060006101408c8e03121561289357600080fd5b61289c8c61258f565b9a5060208c0135995067ffffffffffffffff8060408e013511156128bf57600080fd5b6128cf8e60408f01358f01612828565b909a5098506128e060608e01612700565b975060808d0135965060a08d0135955060c08d0135945061290360e08e0161258f565b93506129126101008e0161258f565b9250806101208e0135111561292657600080fd5b506129388d6101208e01358e016125e1565b90509295989b509295989b9093969950565b60008060006060848603121561295f57600080fd5b83359250602084013567ffffffffffffffff8082111561297e57600080fd5b61298a878388016125e1565b935060408601359150808211156129a057600080fd5b506129ad868287016125e1565b9150509250925092565b60008151808452602080850194506020840160005b838110156129f15781516001600160a01b0316875295820195908201906001016129cc565b509495945050505050565b602081526000611fd460208301846129b7565b60008060408385031215612a2257600080fd5b8235612a2d81612577565b9150602083013567ffffffffffffffff811115612a4957600080fd5b612a55858286016125e1565b9150509250929050565b6000806000806000806000806000806101008b8d031215612a7f57600080fd5b8a3567ffffffffffffffff80821115612a9757600080fd5b818d0191508d601f830112612aab57600080fd5b813581811115612aba57600080fd5b8e60208260051b8501011115612acf57600080fd5b60208381019d50909b508d01359950612aea60408e0161258f565b985060608d0135915080821115612b0057600080fd5b50612b0d8d828e01612828565b9097509550612b20905060808c0161258f565b9350612b2e60a08c0161258f565b925060c08b01359150612b4360e08c0161258f565b90509295989b9194979a5092959850565b604081526000612b6760408301856129b7565b905060018060a01b03831660208301529392505050565b60008060008060008060008060008060006101408c8e031215612ba057600080fd5b8b35612bab81612577565b9a5060208c0135995060408c013567ffffffffffffffff811115612bce57600080fd5b612bda8e828f01612828565b909a509850612bed905060608d01612700565b965060808c0135955060a08c0135945060c08c0135935060e08c0135612c1281612577565b92506101008c0135612c2381612577565b809250506101208c013590509295989b509295989b9093969950565b60008060408385031215612c5257600080fd5b8235612c5d81612577565b91506020830135612c6d81612577565b809150509250929050565b600080600060608486031215612c8d57600080fd5b8335612c9881612577565b92506020840135612ca881612577565b91506040840135612cb881612577565b809150509250925092565b600080600060608486031215612cd857600080fd5b8335612ce381612577565b92506020840135612cf381612577565b929592945050506040919091013590565b602080825260059082015264475332303360d81b604082015260600190565b60208082526005908201526411d4cc8c0d60da1b604082015260600190565b634e487b7160e01b600052601160045260246000fd5b600060018201612d6a57612d6a612d42565b5060010190565b604081526000612d846040830185612779565b82810360208401526120358185612779565b600060208284031215612da857600080fd5b81516001600160e01b031981168114611fd457600080fd5b60ff8281168282160390811115610ca757610ca7612d42565b8082028115828204841417610ca757610ca7612d42565b602080825260059082015264475332303160d81b604082015260600190565b634e487b7160e01b600052602160045260246000fd5b60028110612e4357634e487b7160e01b600052602160045260246000fd5b9052565b6001600160a01b038d168152602081018c90526101606040820181905281018a905260006101808b8d828501376000838d01820152601f8c01601f19168301612e93606085018d612e25565b8a60808501528960a08501528860c0850152612eba60e08501896001600160a01b03169052565b6001600160a01b0387166101008501528184820301610120850152612ee182820187612779565b92505050612efb6101408301846001600160a01b03169052565b9d9c50505050505050505050505050565b80820180821115610ca757610ca7612d42565b600082612f3c57634e487b7160e01b600052601260045260246000fd5b500490565b81810381811115610ca757610ca7612d42565b634e487b7160e01b600052603260045260246000fd5b6080808252810185905260008660a08301825b88811015612fad578235612f9081612577565b6001600160a01b0316825260209283019290910190600101612f7d565b50602084019690965250506001600160a01b039283166040820152911660609091015292915050565b600060208284031215612fe857600080fd5b81518015158114611fd457600080fd5b8183823760009101908152919050565b8b81526001600160a01b038b81166020830152604082018b9052606082018a905261016082019061303c608084018b612e25565b60a083019890985260c082019690965260e0810194909452918516610100840152909316610120820152610140019190915295945050505050565b60008161308657613086612d42565b50600019019056fea264697066735822122029f6c135c38c4cbe408b6396bf700bb200fb3b40cfb3e8c290ecef57e229d05c64736f6c634300081900336080604052348015600f57600080fd5b5061157a8061001f6000396000f3fe60806040526004361061007f5760003560e01c8063855713681161004e57806385571368146101e35780638acf4c6a14610211578063b0d691fe1461023f578063ea5f61d01461026257610086565b80630a664dba146101305780635e87556d14610174578063642219af146101a15780636b0d5cc4146101c357610086565b3661008657005b60003560e01c63bc197c81811463f23a6e6182141763150b7a02821417156100b257806020526020603cf35b50336000908152602081905260409020600101546001600160a01b0316806100ed57604051632c4bc0b360e11b815260040160405180910390fd5b6000610126338334843660131981013560601c60405160200161011293929190610eb9565b604051602081830303815290604052610282565b9050805160208201f35b34801561013c57600080fd5b50336000908152600260205260409020546001600160a01b03165b6040516001600160a01b0390911681526020015b60405180910390f35b34801561018057600080fd5b5061019461018f366004610f24565b61032b565b60405161016b919061103b565b3480156101ad57600080fd5b506101c16101bc366004610f24565b6103b4565b005b3480156101cf57600080fd5b506101c16101de366004611066565b61066a565b3480156101ef57600080fd5b506102036101fe3660046110eb565b6106af565b60405161016b929190611117565b34801561021d57600080fd5b50336000908152602081905260409020600101546001600160a01b0316610157565b34801561024b57600080fd5b506f71727de22e5e9d8baf0edac6f37da032610157565b34801561026e57600080fd5b5061020361027d3660046110eb565b6106cc565b60606000856001600160a01b0316635229073f86868660006040518563ffffffff1660e01b81526004016102b9949392919061117a565b6000604051808303816000875af11580156102d8573d6000803e3d6000fd5b505050506040513d6000823e601f3d908101601f1916820160405261030091908101906111e0565b925090508061032257604051632b3f6d1160e21b815260040160405180910390fd5b50949350505050565b606030306001600160a01b031663642219af8a8a8a8a8a8a8a60405160240161035a97969594939291906113b0565b604051602081830303815290604052915060e01b6020820180516001600160e01b03838183161783525050505060405160200161039892919061140e565b6040516020818303038152906040529050979650505050505050565b60005b86811015610468576104608888838181106103d4576103d4611432565b90506020028101906103e69190611448565b6103f4906020810190611468565b89898481811061040657610406611432565b90506020028101906104189190611448565b61042690602081019061148c565b8080601f0160208091040260200160405190810160405280939291908181526020018383808284376000920191909152506106f692505050565b6001016103b7565b5060005b8481101561055f57600086868381811061048857610488611432565b905060200281019061049a9190611448565b6104a8906020810190611468565b6001600160a01b031614610557576105578686838181106104cb576104cb611432565b90506020028101906104dd9190611448565b6104eb906020810190611468565b8787848181106104fd576104fd611432565b905060200281019061050f9190611448565b61051d90602081019061148c565b8080601f01602080910402602001604051908101604052809392919081815260200183838082843760009201919091525061074d92505050565b60010161046c565b50600061056f6020850185611468565b6001600160a01b03161461059f5761059f61058d6020850185611468565b61059a602086018661148c565b61077e565b60005b818110156106605760008383838181106105be576105be611432565b90506020028101906105d09190611448565b6105de906020810190611468565b6001600160a01b0316146106585761065883838381811061060157610601611432565b90506020028101906106139190611448565b610621906020810190611468565b84848481811061063357610633611432565b90506020028101906106459190611448565b61065390602081019061148c565b61080d565b6001016105a2565b5050505050505050565b6106aa8383838080601f0160208091040260200160405190810160405280939291908181526020018383808284376000920191909152506106f692505050565b505050565b606060006106c06001338686610857565b915091505b9250929050565b336000908152602081905260408120606091906106ea818686610a1c565b92509250509250929050565b61070260013384610bc9565b610749338360008460405160240161071a919061103b565b60408051601f198184030181529190526020810180516001600160e01b03166306d61fe760e41b179052610cbe565b5050565b3360009081526020819052604090206107668184610d5d565b6106aa338460008560405160240161071a919061103b565b336000908152600260205260409020546001600160a01b031680156107c65760405163741cbe0360e01b81526001600160a01b03821660048201526024015b60405180910390fd5b3360008181526002602052604080822080546001600160a01b0319166001600160a01b038916179055516108079291879161071a90889088906024016114d3565b50505050565b336000818152602081905260408082206001810180546001600160a01b0319166001600160a01b0389161790559051909261080792909187919061071a90889088906024016114d3565b606060006001600160a01b03841660011480159061087d575061087b868686610e33565b155b156108a657604051637c84ecfb60e01b81526001600160a01b03851660048201526024016107bd565b826000036108c75760405163f725081760e01b815260040160405180910390fd5b8267ffffffffffffffff8111156108e0576108e06111ca565b604051908082528060200260200182016040528015610909578160200160208202803683370190505b506001600160a01b038086166000908152602089815260408083208a85168452909152812054929450911691505b6001600160a01b0382161580159061095957506001600160a01b038216600114155b801561096457508381105b156109c9578183828151811061097c5761097c611432565b6001600160a01b03928316602091820292909201810191909152928116600090815288845260408082208984168352909452929092205490911690806109c1816114fd565b915050610937565b6001600160a01b0382166001148015906109e35750600081115b15610a0f57826109f4600183611516565b81518110610a0457610a04611432565b602002602001015191505b8083525094509492505050565b606060006001600160a01b038416600114801590610a415750610a3f8585610e7b565b155b15610a6a57604051637c84ecfb60e01b81526001600160a01b03851660048201526024016107bd565b82600003610a8b5760405163f725081760e01b815260040160405180910390fd5b8267ffffffffffffffff811115610aa457610aa46111ca565b604051908082528060200260200182016040528015610acd578160200160208202803683370190505b506001600160a01b03808616600090815260208890526040812054929450911691505b6001600160a01b03821615801590610b1257506001600160a01b038216600114155b8015610b1d57508381105b15610b775781838281518110610b3557610b35611432565b6001600160a01b039283166020918202929092018101919091529281166000908152928790526040909220549091169080610b6f816114fd565b915050610af0565b6001600160a01b038216600114801590610b915750600081115b15610bbd5782610ba2600183611516565b81518110610bb257610bb2611432565b602002602001015191505b80835250935093915050565b6001600160a01b0381161580610be857506001600160a01b0381166001145b15610c1157604051637c84ecfb60e01b81526001600160a01b03821660048201526024016107bd565b6001600160a01b0381811660009081526020858152604080832086851684529091529020541615610c6057604051631034f46960e21b81526001600160a01b03821660048201526024016107bd565b60016000908152602084815260408083206001600160a01b039586168085528184528285208054968816808752988552838620918652908452919093208054949095166001600160a01b031994851617909455528154169091179055565b60405163468721a760e01b81526000906001600160a01b0386169063468721a790610cf390879087908790879060040161117a565b6020604051808303816000875af1158015610d12573d6000803e3d6000fd5b505050506040513d601f19601f82011682018060405250810190610d369190611529565b905080610d5657604051632b3f6d1160e21b815260040160405180910390fd5b5050505050565b6001600160a01b0381161580610d7c57506001600160a01b0381166001145b15610da557604051637c84ecfb60e01b81526001600160a01b03821660048201526024016107bd565b6001600160a01b038181166000908152602084905260409020541615610de957604051631034f46960e21b81526001600160a01b03821660048201526024016107bd565b60016000818152602093909352604080842080546001600160a01b039485168087529286208054959091166001600160a01b03199586161790559190935280549091169091179055565b600060016001600160a01b03831614801590610e7357506001600160a01b0382811660009081526020868152604080832087851684529091529020541615155b949350505050565b600060016001600160a01b03831614801590610eb057506001600160a01b038281166000908152602085905260409020541615155b90505b92915050565b8284823760609190911b6bffffffffffffffffffffffff19169101908152601401919050565b60008083601f840112610ef157600080fd5b50813567ffffffffffffffff811115610f0957600080fd5b6020830191508360208260051b85010111156106c557600080fd5b60008060008060008060006080888a031215610f3f57600080fd5b873567ffffffffffffffff80821115610f5757600080fd5b610f638b838c01610edf565b909950975060208a0135915080821115610f7c57600080fd5b610f888b838c01610edf565b909750955060408a0135915080821115610fa157600080fd5b908901906040828c031215610fb557600080fd5b90935060608901359080821115610fcb57600080fd5b50610fd88a828b01610edf565b989b979a50959850939692959293505050565b60005b83811015611006578181015183820152602001610fee565b50506000910152565b60008151808452611027816020860160208601610feb565b601f01601f19169290920160200192915050565b602081526000610eb0602083018461100f565b6001600160a01b038116811461106357600080fd5b50565b60008060006040848603121561107b57600080fd5b83356110868161104e565b9250602084013567ffffffffffffffff808211156110a357600080fd5b818601915086601f8301126110b757600080fd5b8135818111156110c657600080fd5b8760208285010111156110d857600080fd5b6020830194508093505050509250925092565b600080604083850312156110fe57600080fd5b82356111098161104e565b946020939093013593505050565b604080825283519082018190526000906020906060840190828701845b828110156111595781516001600160a01b031684529284019290840190600101611134565b5050506001600160a01b039490941660209390930192909252509092915050565b60018060a01b03851681528360208201526080604082015260006111a1608083018561100f565b905060ff8316606083015295945050505050565b805180151581146111c557600080fd5b919050565b634e487b7160e01b600052604160045260246000fd5b600080604083850312156111f357600080fd5b6111fc836111b5565b9150602083015167ffffffffffffffff8082111561121957600080fd5b818501915085601f83011261122d57600080fd5b81518181111561123f5761123f6111ca565b604051601f8201601f19908116603f01168101908382118183101715611267576112676111ca565b8160405282815288602084870101111561128057600080fd5b611291836020830160208801610feb565b80955050505050509250929050565b81835281816020850137506000828201602090810191909152601f909101601f19169091010190565b600081356112d68161104e565b6001600160a01b03168352602082013536839003601e190181126112f957600080fd5b820160208101903567ffffffffffffffff81111561131657600080fd5b80360382131561132557600080fd5b6040602086015261133a6040860182846112a0565b95945050505050565b6000838385526020808601955060208560051b830101846000805b888110156113a257858403601f19018a52823536899003603e19018112611383578283fd5b61138f858a83016112c9565b9a86019a9450509184019160010161135e565b509198975050505050505050565b6080815260006113c460808301898b611343565b82810360208401526113d781888a611343565b905082810360408401526113eb81876112c9565b90508281036060840152611400818587611343565b9a9950505050505050505050565b6001600160a01b0383168152604060208201819052600090610e739083018461100f565b634e487b7160e01b600052603260045260246000fd5b60008235603e1983360301811261145e57600080fd5b9190910192915050565b60006020828403121561147a57600080fd5b81356114858161104e565b9392505050565b6000808335601e198436030181126114a357600080fd5b83018035915067ffffffffffffffff8211156114be57600080fd5b6020019150368190038213156106c557600080fd5b602081526000610e736020830184866112a0565b634e487b7160e01b600052601160045260246000fd5b60006001820161150f5761150f6114e7565b5060010190565b81810381811115610eb357610eb36114e7565b60006020828403121561153b57600080fd5b610eb0826111b556fea26469706673582212203ef36878cb3b0827cb2c9c4df48e460b84ee8b041bf18ed4738b5232eaabf92064736f6c634300081900336080604052348015600f57600080fd5b506131aa8061001f6000396000f3fe6080604052600436106101025760003560e01c80639cfd7cff11610095578063d691c96411610064578063d691c9641461041b578063e9ae5c531461043b578063ea5f61d01461044e578063eac9b20d1461046e578063f2dc691d1461052457610109565b80639cfd7cff14610379578063a71763a8146103c5578063b0d691fe146103d8578063d03c7914146103fb57610109565b80634b6a1419116100d15780634b6a14191461031257806385571368146103255780638dd7712f146103535780639517e29f1461036657610109565b80630a664dba14610256578063112d3a7d146102885780631626ba7e146102b857806319822f7c146102f157610109565b3661010957005b60003560e01c63bc197c81811463f23a6e6182141763150b7a028214171561013557806020526020603cf35b50600080356001600160e01b03191681526000805160206130f58339815191526020526040902080546001600160a01b03811690600160a01b900460f81b816101a457604051632464e76d60e11b81526001600160e01b03196000351660048201526024015b60405180910390fd5b6101b281607f60f91b610544565b156102065760408051368101909152366000823760408051601481019091523360601b90526000803660140183865afa90506101f43d60408051918201905290565b3d6000823e81610202573d81fd5b3d81f35b610211816000610544565b156102545760408051368101909152366000823760408051601481019091523360601b9052600080366014018382875af190506101f43d60408051918201905290565b005b34801561026257600080fd5b5061026b61055b565b6040516001600160a01b0390911681526020015b60405180910390f35b34801561029457600080fd5b506102a86102a3366004612876565b610578565b604051901515815260200161027f565b3480156102c457600080fd5b506102d86102d33660046128d1565b61060e565b6040516001600160e01b0319909116815260200161027f565b6103046102ff366004612935565b6106e4565b60405190815260200161027f565b610254610320366004612982565b6107ca565b34801561033157600080fd5b506103456103403660046129c3565b610854565b60405161027f9291906129ef565b610254610361366004612a52565b61087f565b610254610374366004612876565b61094f565b34801561038557600080fd5b50604080518082018252601b81527f754d53412e616476616e6365642f77697468486f6f6b2e76302e3100000000006020820152905161027f9190612ae6565b6102546103d3366004612876565b610d0b565b3480156103e457600080fd5b506f71727de22e5e9d8baf0edac6f37da03261026b565b34801561040757600080fd5b506102a8610416366004612af9565b610f09565b61042e6104293660046128d1565b610fa8565b60405161027f9190612b12565b6102546104493660046128d1565b6115d3565b34801561045a57600080fd5b506103456104693660046129c3565b611a1d565b34801561047a57600080fd5b506104f6610489366004612b8c565b604080518082018252600080825260209182018190526001600160e01b03199390931683526000805160206130f58339815191528152918190208151808301909252546001600160a01b0381168252600160a01b900460f81b6001600160f81b0319169181019190915290565b6040805182516001600160a01b031681526020928301516001600160f81b031916928101929092520161027f565b34801561053057600080fd5b506102a861053f366004612af9565b611a3b565b6001600160f81b0319828116908216145b92915050565b60006105736000805160206131358339815191525490565b905090565b6000600185036105925761058b84611a8a565b9050610606565b600285036105a35761058b84611aac565b600385036105f15761058b6105ba83850185612b8c565b6001600160e01b03191660009081526000805160206130f583398151915260205260409020546001600160a01b0386811691161490565b600485036106025761058b84611ac7565b5060005b949350505050565b60008061061e6014828587612ba9565b61062791612bd3565b60601c905061063581611a8a565b61065d57604051635c93ff2f60e11b81526001600160a01b038216600482015260240161019b565b6001600160a01b03811663f551e2ee338761067b876014818b612ba9565b6040518563ffffffff1660e01b815260040161069a9493929190612c2f565b602060405180830381865afa1580156106b7573d6000803e3d6000fd5b505050506040513d601f19601f820116820180604052508101906106db9190612c61565b95945050505050565b6000336f71727de22e5e9d8baf0edac6f37da0321461071657604051635629665f60e11b815260040160405180910390fd5b816020850135606081901c9061072b82611a8a565b61073a576001935050506107b0565b604051639700320360e01b81526001600160a01b03831690639700320390610768908a908a90600401612cc3565b6020604051808303816000875af1158015610787573d6000803e3d6000fd5b505050506040513d601f19601f820116820180604052508101906107ab9190612dc2565b935050505b80156107c25760003860003884335af1505b509392505050565b6107d2611af9565b6000806107e183850185612e48565b915091506000826001600160a01b0316826040516107ff9190612eda565b600060405180830381855af49150503d806000811461083a576040519150601f19603f3d011682016040523d82523d6000602084013e61083f565b606091505b505090508061084d57600080fd5b5050505050565b60606000600080516020613155833981519152610872818686611b2b565b92509250505b9250929050565b336f71727de22e5e9d8baf0edac6f37da032146108af57604051635629665f60e11b815260040160405180910390fd5b3660006108bf6060850185612ef6565b6108cd916004908290612ba9565b915091506000306001600160a01b031683836040516108ed929190612f3c565b600060405180830381855af49150503d8060008114610928576040519150601f19603f3d011682016040523d82523d6000602084013e61092d565b606091505b505090508061084d57604051632b3f6d1160e21b815260040160405180910390fd5b336f71727de22e5e9d8baf0edac6f37da032148061096c57503330145b61098957604051635629665f60e11b815260040160405180910390fd5b60006109a16000805160206131358339815191525490565b90506001600160a01b038116610aee5760405163ecd0596160e01b8152600481018690526001600160a01b0385169063ecd0596190602401602060405180830381865afa1580156109f6573d6000803e3d6000fd5b505050506040513d601f19601f82011682018060405250810190610a1a9190612f4c565b610a3a576040516369c9a24560e11b81526004810186905260240161019b565b60018503610a5257610a4d848484611cd7565b610aa7565b60028503610a6557610a4d848484611d56565b60038503610a7857610a4d848484611d6f565b60048503610a8b57610a4d848484611ee6565b60405163041c38b360e41b81526004810186905260240161019b565b604080518681526001600160a01b03861660208201527fd21d0b289f126c4b473ea641963e766833c2f13866e4ff480abd787c100ef12391015b60405180910390a161084d565b60405163d68f602560e01b81526000906001600160a01b0383169063d68f602590610b23903390349086903690600401612c2f565b6000604051808303816000875af1158015610b42573d6000803e3d6000fd5b505050506040513d6000823e601f3d908101601f19168201604052610b6a9190810190612f6e565b60405163ecd0596160e01b8152600481018890529091506001600160a01b0386169063ecd0596190602401602060405180830381865afa158015610bb2573d6000803e3d6000fd5b505050506040513d601f19601f82011682018060405250810190610bd69190612f4c565b610bf6576040516369c9a24560e11b81526004810187905260240161019b565b60018603610c0e57610c09858585611cd7565b610c63565b60028603610c2157610c09858585611d56565b60038603610c3457610c09858585611d6f565b60048603610c4757610c09858585611ee6565b60405163041c38b360e41b81526004810187905260240161019b565b604080518781526001600160a01b03871660208201527fd21d0b289f126c4b473ea641963e766833c2f13866e4ff480abd787c100ef12391015b60405180910390a1604051630b9dfbed60e11b81526001600160a01b0383169063173bf7da90610cd1908490600401612ae6565b600060405180830381600087803b158015610ceb57600080fd5b505af1158015610cff573d6000803e3d6000fd5b50505050505050505050565b336f71727de22e5e9d8baf0edac6f37da0321480610d2857503330145b610d4557604051635629665f60e11b815260040160405180910390fd5b6000610d5d6000805160206131358339815191525490565b90506001600160a01b038116610dfc5760018503610d8557610d80848484611f49565b610dbe565b60028503610d9857610d80848484611fa3565b60038503610dab57610d80848484611fc1565b60048503610a8b57610d80848484612201565b604080518681526001600160a01b03861660208201527f341347516a9de374859dfda710fa4828b2d48cb57d4fbe4c1149612b8e02276e9101610ae1565b60405163d68f602560e01b81526000906001600160a01b0383169063d68f602590610e31903390349086903690600401612c2f565b6000604051808303816000875af1158015610e50573d6000803e3d6000fd5b505050506040513d6000823e601f3d908101601f19168201604052610e789190810190612f6e565b905060018603610e9257610e8d858585611f49565b610ecb565b60028603610ea557610e8d858585611fa3565b60038603610eb857610e8d858585611fc1565b60048603610c4757610e8d858585612201565b604080518781526001600160a01b03871660208201527f341347516a9de374859dfda710fa4828b2d48cb57d4fbe4c1149612b8e02276e9101610c9d565b600081600881901b610f1f82600160f81b610544565b15610f2d5760019250610f70565b610f38826000610544565b15610f465760019250610f70565b610f58826001600160f81b0319610544565b15610f665760019250610f70565b5060009392505050565b610f7b816000610544565b15610f895760019250610fa1565b610f9781600160f81b610544565b15610f6657600192505b5050919050565b6060600080516020613115833981519152610fc3813361227d565b610fe257604051635c93ff2f60e11b815233600482015260240161019b565b6000610ffa6000805160206131358339815191525490565b90506001600160a01b0381166112ba5785600881901b61101e82600160f81b610544565b1561108d5786358701602081019035611038836000610544565b1561104e5761104782826122b7565b9650611086565b61105c83600160f81b610544565b1561106b57611047828261238f565b826040516308c3ee0360e11b815260040161019b9190612fdb565b50506112b3565b611098826000610544565b156111e6576000803660006110ad8b8b6124bc565b6040805160018082528183019092529498509296509094509250816020015b60608152602001906001900390816110cc57905050985060006110ef8682610544565b15611123576111008585858561250d565b8a60008151811061111357611113612ff0565b60200260200101819052506111dc565b61113186600160f81b610544565b156111c15761114285858585612543565b8b60008151811061115557611155612ff0565b60209081029190910101529050806111bc577fe723f28f104e46b47fd3531f3608374ac226bcf3ddda334a23a266453e0efdb760008b60008151811061119d5761119d612ff0565b60200260200101516040516111b3929190613006565b60405180910390a15b6111dc565b856040516308c3ee0360e11b815260040161019b9190612fdb565b50505050506112b3565b6111f8826001600160f81b0319610544565b1561129857600061120c601482898b612ba9565b61121591612bd3565b60601c905036600061122a896014818d612ba9565b909250905061123a846000610544565b156112505761124a838383612575565b50611290565b61125e84600160f81b610544565b156112755761126e8383836125a9565b5050611290565b836040516308c3ee0360e11b815260040161019b9190612fdb565b5050506112b3565b81604051632e5bf3f960e21b815260040161019b9190612fdb565b50506115ca565b60405163d68f602560e01b81526000906001600160a01b0383169063d68f6025906112ef903390349086903690600401612c2f565b6000604051808303816000875af115801561130e573d6000803e3d6000fd5b505050506040513d6000823e601f3d908101601f191682016040526113369190810190612f6e565b905086600881901b61134c82600160f81b610544565b156113a05787358801602081019035611366836000610544565b1561137c5761137582826122b7565b9750611399565b61138a83600160f81b610544565b1561106b57611375828261238f565b5050611568565b6113ab826000610544565b156114d9576000803660006113c08c8c6124bc565b6040805160018082528183019092529498509296509094509250816020015b60608152602001906001900390816113df57905050995060006114028682610544565b15611436576114138585858561250d565b8b60008151811061142657611426612ff0565b60200260200101819052506114cf565b61144486600160f81b610544565b156111c15761145585858585612543565b8c60008151811061146857611468612ff0565b60209081029190910101529050806114cf577fe723f28f104e46b47fd3531f3608374ac226bcf3ddda334a23a266453e0efdb760008c6000815181106114b0576114b0612ff0565b60200260200101516040516114c6929190613006565b60405180910390a15b5050505050611568565b6114eb826001600160f81b0319610544565b156112985760006114ff6014828a8c612ba9565b61150891612bd3565b60601c905036600061151d8a6014818e612ba9565b909250905061152d846000610544565b156115435761153d838383612575565b50611564565b61155184600160f81b610544565b15611275576115618383836125a9565b50505b5050505b5050604051630b9dfbed60e11b81526001600160a01b0383169063173bf7da90611596908490600401612ae6565b600060405180830381600087803b1580156115b057600080fd5b505af11580156115c4573d6000803e3d6000fd5b50505050505b50509392505050565b336f71727de22e5e9d8baf0edac6f37da03214806115f057503330145b61160d57604051635629665f60e11b815260040160405180910390fd5b60006116256000805160206131358339815191525490565b90506001600160a01b0381166117c95783600881901b61164982600160f81b610544565b1561169c5784358501602081019035611663836000610544565b156116785761167282826122b7565b50611695565b61168683600160f81b610544565b1561106b57611672828261238f565b50506117c2565b6116a7826000610544565b15611733576000803660006116bc89896124bc565b93509350935093506116d285600060f81b610544565b156116e9576116e38484848461250d565b5061172a565b6116f785600160f81b610544565b1561170f5761170884848484612543565b505061172a565b846040516308c3ee0360e11b815260040161019b9190612fdb565b505050506117c2565b611745826001600160f81b0319610544565b156112985760006117596014828789612ba9565b61176291612bd3565b60601c9050366000611777876014818b612ba9565b9092509050611787846000610544565b1561179d57611797838383612575565b506117be565b6117ab84600160f81b610544565b15611275576117bb8383836125a9565b50505b5050505b5050611a17565b60405163d68f602560e01b81526000906001600160a01b0383169063d68f6025906117fe903390349086903690600401612c2f565b6000604051808303816000875af115801561181d573d6000803e3d6000fd5b505050506040513d6000823e601f3d908101601f191682016040526118459190810190612f6e565b905084600881901b61185b82600160f81b610544565b156118ae5785358601602081019035611875836000610544565b1561188a5761188482826122b7565b506118a7565b61189883600160f81b610544565b1561106b57611884828261238f565b50506119b5565b6118b9826000610544565b15611926576000803660006118ce8a8a6124bc565b93509350935093506118e485600060f81b610544565b156118fb576118f58484848461250d565b5061191d565b61190985600160f81b610544565b1561170f5761191a84848484612543565b50505b505050506119b5565b611938826001600160f81b0319610544565b1561129857600061194c601482888a612ba9565b61195591612bd3565b60601c905036600061196a886014818c612ba9565b909250905061197a846000610544565b156119905761198a838383612575565b506119b1565b61199e84600160f81b610544565b15611275576119ae8383836125a9565b50505b5050505b5050604051630b9dfbed60e11b81526001600160a01b0383169063173bf7da906119e3908490600401612ae6565b600060405180830381600087803b1580156119fd57600080fd5b505af1158015611a11573d6000803e3d6000fd5b50505050505b50505050565b60606000600080516020613115833981519152610872818686611b2b565b600060018203611a4d57506001919050565b60028203611a5d57506001919050565b60038203611a6d57506001919050565b60048203611a7d57506001919050565b506000919050565b919050565b6000600080516020613155833981519152611aa5818461227d565b9392505050565b6000600080516020613115833981519152611aa5818461227d565b6000816001600160a01b0316611ae96000805160206131358339815191525490565b6001600160a01b03161492915050565b600080516020613155833981519152611b1f6000805160206131158339815191526125d9565b611b28816125d9565b50565b606060006001600160a01b038416600114801590611b505750611b4e858561227d565b155b15611b7957604051637c84ecfb60e01b81526001600160a01b038516600482015260240161019b565b82600003611b9a5760405163f725081760e01b815260040160405180910390fd5b826001600160401b03811115611bb257611bb2612ddb565b604051908082528060200260200182016040528015611bdb578160200160208202803683370190505b506001600160a01b03808616600090815260208890526040812054929450911691505b6001600160a01b03821615801590611c2057506001600160a01b038216600114155b8015611c2b57508381105b15611c855781838281518110611c4357611c43612ff0565b6001600160a01b039283166020918202929092018101919091529281166000908152928790526040909220549091169080611c7d81613035565b915050611bfe565b6001600160a01b038216600114801590611c9f5750600081115b15611ccb5782611cb060018361304e565b81518110611cc057611cc0612ff0565b602002602001015191505b80835250935093915050565b600080516020613155833981519152611cf08185612636565b6040516306d61fe760e41b81526001600160a01b03851690636d61fe7090611d1e9086908690600401613061565b600060405180830381600087803b158015611d3857600080fd5b505af1158015611d4c573d6000803e3d6000fd5b5050505050505050565b600080516020613115833981519152611cf08185612636565b6000611d7e6004828486612ba9565b611d8791613075565b9050600083836004818110611d9e57611d9e612ff0565b909101356001600160f81b031916915060009050611dbf8460058188612ba9565b8080601f016020809104026020016040519081016040528093929190818152602001838380828437600092019190915250929350611e02925085915061270c9050565b15611e4f5760405162461bcd60e51b815260206004820152601e60248201527f46756e6374696f6e2073656c6563746f7220616c726561647920757365640000604482015260640161019b565b6040805180820182526001600160a01b038881168083526001600160f81b0319861660208085019182526001600160e01b0319891660009081526000805160206130f583398151915290915285902093518454915160f81c600160a01b026001600160a81b03199092169316929092179190911790915590516306d61fe760e41b8152636d61fe7090610cd1908490600401612ae6565b6000611efe6000805160206131358339815191525490565b90506001600160a01b03811615611f335760405163741cbe0360e01b81526001600160a01b038216600482015260240161019b565b611cf08460008051602061313583398151915255565b600080516020613155833981519152600080611f6785850186612e48565b9092509050611f77838388612740565b604051638a91b0e360e01b81526001600160a01b03871690638a91b0e390610cd1908490600401612ae6565b600080516020613115833981519152600080611f6785850186612e48565b6000611fd06004828486612ba9565b611fd991613075565b90506000611fea8360048187612ba9565b8080601f01602080910402602001604051908101604052809392919081815260200183838082843760009201919091525092935061202d925084915061270c9050565b6120795760405162461bcd60e51b815260206004820152601a60248201527f46756e6374696f6e2073656c6563746f72206e6f742075736564000000000000604482015260640161019b565b6001600160e01b0319821660009081526000805160206130f583398151915260209081526040918290208251808401909352546001600160a01b03808216808552600160a01b90920460f81b6001600160f81b03191692840192909252908716146121395760405162461bcd60e51b815260206004820152602a60248201527f46756e6374696f6e2073656c6563746f72206e6f74207573656420627920746860448201526934b9903430b7323632b960b11b606482015260840161019b565b60208181015160408051808201825260008082528185018181526001600160e01b0319891682526000805160206130f583398151915290955282902090518154945160f81c600160a01b026001600160a81b03199095166001600160a01b039182161794909417905551638a91b0e360e01b81529091881690638a91b0e3906121c6908690600401612ae6565b600060405180830381600087803b1580156121e057600080fd5b505af11580156121f4573d6000803e3d6000fd5b5050505050505050505050565b612218600060008051602061313583398151915255565b604051638a91b0e360e01b81526001600160a01b03841690638a91b0e3906122469085908590600401613061565b600060405180830381600087803b15801561226057600080fd5b505af1158015612274573d6000803e3d6000fd5b50505050505050565b600060016001600160a01b03831614801590611aa55750506001600160a01b03908116600090815260209290925260409091205416151590565b606081806001600160401b038111156122d2576122d2612ddb565b60405190808252806020026020018201604052801561230557816020015b60608152602001906001900390816122f05790505b50915060005b81811015612387573685858381811061232657612326612ff0565b905060200281019061233891906130a3565b905061236161234a60208301836130b9565b602083013561235c6040850185612ef6565b61250d565b84838151811061237357612373612ff0565b60209081029190910101525060010161230b565b505092915050565b606081806001600160401b038111156123aa576123aa612ddb565b6040519080825280602002602001820160405280156123dd57816020015b60608152602001906001900390816123c85790505b50915060005b8181101561238757368585838181106123fe576123fe612ff0565b905060200281019061241091906130a3565b9050600061243b61242460208401846130b9565b60208401356124366040860186612ef6565b612543565b86858151811061244d5761244d612ff0565b60209081029190910101529050806124b2577fe723f28f104e46b47fd3531f3608374ac226bcf3ddda334a23a266453e0efdb78386858151811061249357612493612ff0565b60200260200101516040516124a9929190613006565b60405180910390a15b50506001016123e3565b60008036816124ce6014828789612ba9565b6124d791612bd3565b60601c93506124ea603460148789612ba9565b6124f3916130d6565b92506125028560348189612ba9565b949793965094505050565b60405181838237600038838387895af161252a573d6000823e3d81fd5b3d8152602081013d6000823e3d01604052949350505050565b604051600090828482376000388483888a5af11591503d8152602081013d6000823e3d81016040525094509492505050565b604051818382376000388383875af4612591573d6000823e3d81fd5b3d8152602081013d6000823e3d016040529392505050565b604051600090828482376000388483885af41591503d8152602081013d6000823e3d810160405250935093915050565b60016000908152602082905260409020546001600160a01b031615612611576040516329e42f3360e11b815260040160405180910390fd5b60016000818152602092909252604090912080546001600160a01b0319169091179055565b6001600160a01b038116158061265557506001600160a01b0381166001145b1561267e57604051637c84ecfb60e01b81526001600160a01b038216600482015260240161019b565b6001600160a01b0381811660009081526020849052604090205416156126c257604051631034f46960e21b81526001600160a01b038216600482015260240161019b565b60016000818152602093909352604080842080546001600160a01b039485168087529286208054959091166001600160a01b03199586161790559190935280549091169091179055565b6001600160e01b03191660009081526000805160206130f583398151915260205260409020546001600160a01b0316151590565b6001600160a01b038116158061275f57506001600160a01b0381166001145b1561278857604051637c84ecfb60e01b81526001600160a01b038316600482015260240161019b565b6001600160a01b038281166000908152602085905260409020548116908216146127d057604051637c84ecfb60e01b81526001600160a01b038216600482015260240161019b565b6001600160a01b0390811660008181526020949094526040808520805494841686529085208054949093166001600160a01b0319948516179092559092528154169055565b6001600160a01b0381168114611b2857600080fd5b8035611a8581612815565b60008083601f84011261284757600080fd5b5081356001600160401b0381111561285e57600080fd5b60208301915083602082850101111561087857600080fd5b6000806000806060858703121561288c57600080fd5b84359350602085013561289e81612815565b925060408501356001600160401b038111156128b957600080fd5b6128c587828801612835565b95989497509550505050565b6000806000604084860312156128e657600080fd5b8335925060208401356001600160401b0381111561290357600080fd5b61290f86828701612835565b9497909650939450505050565b6000610120828403121561292f57600080fd5b50919050565b60008060006060848603121561294a57600080fd5b83356001600160401b0381111561296057600080fd5b61296c8682870161291c565b9660208601359650604090950135949350505050565b6000806020838503121561299557600080fd5b82356001600160401b038111156129ab57600080fd5b6129b785828601612835565b90969095509350505050565b600080604083850312156129d657600080fd5b82356129e181612815565b946020939093013593505050565b604080825283519082018190526000906020906060840190828701845b82811015612a315781516001600160a01b031684529284019290840190600101612a0c565b5050506001600160a01b039490941660209390930192909252509092915050565b60008060408385031215612a6557600080fd5b82356001600160401b03811115612a7b57600080fd5b612a878582860161291c565b95602094909401359450505050565b60005b83811015612ab1578181015183820152602001612a99565b50506000910152565b60008151808452612ad2816020860160208601612a96565b601f01601f19169290920160200192915050565b602081526000611aa56020830184612aba565b600060208284031215612b0b57600080fd5b5035919050565b600060208083016020845280855180835260408601915060408160051b87010192506020870160005b82811015612b6957603f19888603018452612b57858351612aba565b94509285019290850190600101612b3b565b5092979650505050505050565b6001600160e01b031981168114611b2857600080fd5b600060208284031215612b9e57600080fd5b8135611aa581612b76565b60008085851115612bb957600080fd5b83861115612bc657600080fd5b5050820193919092039150565b6bffffffffffffffffffffffff1981358181169160148510156123875760149490940360031b84901b1690921692915050565b81835281816020850137506000828201602090810191909152601f909101601f19169091010190565b60018060a01b0385168152836020820152606060408201526000612c57606083018486612c06565b9695505050505050565b600060208284031215612c7357600080fd5b8151611aa581612b76565b6000808335601e19843603018112612c9557600080fd5b83016020810192503590506001600160401b03811115612cb457600080fd5b80360382131561087857600080fd5b60408152612ce460408201612cd78561282a565b6001600160a01b03169052565b602083013560608201526000612cfd6040850185612c7e565b610120806080860152612d1561016086018385612c06565b9250612d246060880188612c7e565b9250603f19808786030160a0880152612d3e858584612c06565b9450608089013560c088015260a089013560e0880152610100935060c089013584880152612d6f60e08a018a612c7e565b9250818887030184890152612d85868483612c06565b955050612d94848a018a612c7e565b9450925080878603016101408801525050612db0838383612c06565b93505050508260208301529392505050565b600060208284031215612dd457600080fd5b5051919050565b634e487b7160e01b600052604160045260246000fd5b604051601f8201601f191681016001600160401b0381118282101715612e1957612e19612ddb565b604052919050565b60006001600160401b03821115612e3a57612e3a612ddb565b50601f01601f191660200190565b60008060408385031215612e5b57600080fd5b8235612e6681612815565b915060208301356001600160401b03811115612e8157600080fd5b8301601f81018513612e9257600080fd5b8035612ea5612ea082612e21565b612df1565b818152866020838501011115612eba57600080fd5b816020840160208301376000602083830101528093505050509250929050565b60008251612eec818460208701612a96565b9190910192915050565b6000808335601e19843603018112612f0d57600080fd5b8301803591506001600160401b03821115612f2757600080fd5b60200191503681900382131561087857600080fd5b8183823760009101908152919050565b600060208284031215612f5e57600080fd5b81518015158114611aa557600080fd5b600060208284031215612f8057600080fd5b81516001600160401b03811115612f9657600080fd5b8201601f81018413612fa757600080fd5b8051612fb5612ea082612e21565b818152856020838501011115612fca57600080fd5b6106db826020830160208601612a96565b6001600160f81b031991909116815260200190565b634e487b7160e01b600052603260045260246000fd5b8281526040602082015260006106066040830184612aba565b634e487b7160e01b600052601160045260246000fd5b6000600182016130475761304761301f565b5060010190565b818103818111156105555761055561301f565b602081526000610606602083018486612c06565b6001600160e01b031981358181169160048510156123875760049490940360031b84901b1690921692915050565b60008235605e19833603018112612eec57600080fd5b6000602082840312156130cb57600080fd5b8135611aa581612815565b8035602083101561055557600019602084900360031b1b169291505056fef88ce1fdb7fb1cbd3282e49729100fa3f2d6ee9f797961fe4fb1871cea89ea04f88ce1fdb7fb1cbd3282e49729100fa3f2d6ee9f797961fe4fb1871cea89ea0336e05829dd1b9a4411d96a3549582172d7f071c1c0db5c573fcf94eb28431608f88ce1fdb7fb1cbd3282e49729100fa3f2d6ee9f797961fe4fb1871cea89ea02a26469706673582212203cec6b0c3aa4904a6439b3581bbca54c51cc7ac503375b7a8b34871128ef91a264736f6c634300081900336080604052348015600f57600080fd5b506113198061001f6000396000f3fe60806040526004361061007f5760003560e01c8063855713681161004e5780638557136814610272578063b0d691fe146102a0578063ea5f61d0146102c3578063eac9b20d146102e357610086565b80630a664dba146101d35780635e87556d14610205578063642219af146102325780636b0d5cc41461025257610086565b3661008657005b60003560e01c63bc197c81811463f23a6e6182141763150b7a02821417156100b257806020526020603cf35b50600080356001600160e01b03191681526000805160206112c48339815191526020526040902080546001600160a01b03811690600160a01b900460f81b8161012157604051632464e76d60e11b81526001600160e01b03196000351660048201526024015b60405180910390fd5b61012f81607f60f91b610399565b156101835760408051368101909152366000823760408051601481019091523360601b90526000803660140183865afa90506101713d60408051918201905290565b3d6000823e8161017f573d81fd5b3d81f35b61018e816000610399565b156101d15760408051368101909152366000823760408051601481019091523360601b9052600080366014018382875af190506101713d60408051918201905290565b005b3480156101df57600080fd5b506101e86103b0565b6040516001600160a01b0390911681526020015b60405180910390f35b34801561021157600080fd5b50610225610220366004610d53565b6103df565b6040516101fc9190610e60565b34801561023e57600080fd5b506101d161024d366004610d53565b610468565b34801561025e57600080fd5b506101d161026d366004610e8b565b6106b4565b34801561027e57600080fd5b5061029261028d366004610f10565b6106c4565b6040516101fc929190610f3c565b3480156102ac57600080fd5b506f71727de22e5e9d8baf0edac6f37da0326101e8565b3480156102cf57600080fd5b506102926102de366004610f10565b610701565b3480156102ef57600080fd5b5061036b6102fe366004610f9f565b604080518082018252600080825260209182018190526001600160e01b03199390931683526000805160206112c48339815191528152918190208151808301909252546001600160a01b0381168252600160a01b900460f81b6001600160f81b0319169181019190915290565b6040805182516001600160a01b031681526020928301516001600160f81b03191692810192909252016101fc565b6001600160f81b0319828116908216145b92915050565b60006103da7f36e05829dd1b9a4411d96a3549582172d7f071c1c0db5c573fcf94eb284316085490565b905090565b606030306001600160a01b031663642219af8a8a8a8a8a8a8a60405160240161040e97969594939291906110d9565b604051602081830303815290604052915060e01b6020820180516001600160e01b03838183161783525050505060405160200161044c929190611137565b6040516020818303038152906040529050979650505050505050565b60005b868110156104e7576104df88888381811061048857610488611163565b905060200281019061049a9190611179565b6104a8906020810190611199565b8989848181106104ba576104ba611163565b90506020028101906104cc9190611179565b6104da9060208101906111b6565b610731565b60010161046b565b5060005b848110156105a957600086868381811061050757610507611163565b90506020028101906105199190611179565b610527906020810190611199565b6001600160a01b0316146105a1576105a186868381811061054a5761054a611163565b905060200281019061055c9190611179565b61056a906020810190611199565b87878481811061057c5761057c611163565b905060200281019061058e9190611179565b61059c9060208101906111b6565b6107b8565b6001016104eb565b5060006105b96020850185611199565b6001600160a01b0316146105e9576105e96105d76020850185611199565b6105e460208601866111b6565b6107e3565b60005b818110156106aa57600083838381811061060857610608611163565b905060200281019061061a9190611179565b610628906020810190611199565b6001600160a01b0316146106a2576106a283838381811061064b5761064b611163565b905060200281019061065d9190611179565b61066b906020810190611199565b84848481811061067d5761067d611163565b905060200281019061068f9190611179565b61069d9060208101906111b6565b61086a565b6001016105ec565b5050505050505050565b6106bf838383610731565b505050565b606060007ff88ce1fdb7fb1cbd3282e49729100fa3f2d6ee9f797961fe4fb1871cea89ea026106f4818686610a1b565b92509250505b9250929050565b606060007ff88ce1fdb7fb1cbd3282e49729100fa3f2d6ee9f797961fe4fb1871cea89ea036106f4818686610a1b565b7ff88ce1fdb7fb1cbd3282e49729100fa3f2d6ee9f797961fe4fb1871cea89ea0261075c8185610bc8565b6040516306d61fe760e41b81526001600160a01b03851690636d61fe709061078a90869086906004016111fd565b600060405180830381600087803b1580156107a457600080fd5b505af11580156106aa573d6000803e3d6000fd5b7ff88ce1fdb7fb1cbd3282e49729100fa3f2d6ee9f797961fe4fb1871cea89ea0361075c8185610bc8565b600061080d7f36e05829dd1b9a4411d96a3549582172d7f071c1c0db5c573fcf94eb284316085490565b90506001600160a01b038116156108425760405163741cbe0360e01b81526001600160a01b0382166004820152602401610118565b61075c847f36e05829dd1b9a4411d96a3549582172d7f071c1c0db5c573fcf94eb2843160855565b60006108796004828486611211565b6108829161123b565b905060008383600481811061089957610899611163565b909101356001600160f81b0319169150600090506108ba8460058188611211565b8080601f0160208091040260200160405190810160405280939291908181526020018383808284376000920191909152509293506108fd9250859150610c9e9050565b1561094a5760405162461bcd60e51b815260206004820152601e60248201527f46756e6374696f6e2073656c6563746f7220616c7265616479207573656400006044820152606401610118565b6040805180820182526001600160a01b038881168083526001600160f81b0319861660208085019182526001600160e01b0319891660009081526000805160206112c483398151915290915285902093518454915160f81c600160a01b026001600160a81b03199092169316929092179190911790915590516306d61fe760e41b8152636d61fe70906109e1908490600401610e60565b600060405180830381600087803b1580156109fb57600080fd5b505af1158015610a0f573d6000803e3d6000fd5b50505050505050505050565b606060006001600160a01b038416600114801590610a405750610a3e8585610cd2565b155b15610a6957604051637c84ecfb60e01b81526001600160a01b0385166004820152602401610118565b82600003610a8a5760405163f725081760e01b815260040160405180910390fd5b8267ffffffffffffffff811115610aa357610aa361126b565b604051908082528060200260200182016040528015610acc578160200160208202803683370190505b506001600160a01b03808616600090815260208890526040812054929450911691505b6001600160a01b03821615801590610b1157506001600160a01b038216600114155b8015610b1c57508381105b15610b765781838281518110610b3457610b34611163565b6001600160a01b039283166020918202929092018101919091529281166000908152928790526040909220549091169080610b6e81611297565b915050610aef565b6001600160a01b038216600114801590610b905750600081115b15610bbc5782610ba16001836112b0565b81518110610bb157610bb1611163565b602002602001015191505b80835250935093915050565b6001600160a01b0381161580610be757506001600160a01b0381166001145b15610c1057604051637c84ecfb60e01b81526001600160a01b0382166004820152602401610118565b6001600160a01b038181166000908152602084905260409020541615610c5457604051631034f46960e21b81526001600160a01b0382166004820152602401610118565b60016000818152602093909352604080842080546001600160a01b039485168087529286208054959091166001600160a01b03199586161790559190935280549091169091179055565b6001600160e01b03191660009081526000805160206112c483398151915260205260409020546001600160a01b0316151590565b600060016001600160a01b03831614801590610d0757506001600160a01b038281166000908152602085905260409020541615155b9392505050565b60008083601f840112610d2057600080fd5b50813567ffffffffffffffff811115610d3857600080fd5b6020830191508360208260051b85010111156106fa57600080fd5b60008060008060008060006080888a031215610d6e57600080fd5b873567ffffffffffffffff80821115610d8657600080fd5b610d928b838c01610d0e565b909950975060208a0135915080821115610dab57600080fd5b610db78b838c01610d0e565b909750955060408a0135915080821115610dd057600080fd5b908901906040828c031215610de457600080fd5b90935060608901359080821115610dfa57600080fd5b50610e078a828b01610d0e565b989b979a50959850939692959293505050565b6000815180845260005b81811015610e4057602081850181015186830182015201610e24565b506000602082860101526020601f19601f83011685010191505092915050565b602081526000610d076020830184610e1a565b6001600160a01b0381168114610e8857600080fd5b50565b600080600060408486031215610ea057600080fd5b8335610eab81610e73565b9250602084013567ffffffffffffffff80821115610ec857600080fd5b818601915086601f830112610edc57600080fd5b813581811115610eeb57600080fd5b876020828501011115610efd57600080fd5b6020830194508093505050509250925092565b60008060408385031215610f2357600080fd5b8235610f2e81610e73565b946020939093013593505050565b604080825283519082018190526000906020906060840190828701845b82811015610f7e5781516001600160a01b031684529284019290840190600101610f59565b5050506001600160a01b039490941660209390930192909252509092915050565b600060208284031215610fb157600080fd5b81356001600160e01b031981168114610d0757600080fd5b81835281816020850137506000828201602090810191909152601f909101601f19169091010190565b60008135610fff81610e73565b6001600160a01b03168352602082013536839003601e1901811261102257600080fd5b820160208101903567ffffffffffffffff81111561103f57600080fd5b80360382131561104e57600080fd5b60406020860152611063604086018284610fc9565b95945050505050565b6000838385526020808601955060208560051b830101846000805b888110156110cb57858403601f19018a52823536899003603e190181126110ac578283fd5b6110b8858a8301610ff2565b9a86019a94505091840191600101611087565b509198975050505050505050565b6080815260006110ed60808301898b61106c565b828103602084015261110081888a61106c565b905082810360408401526111148187610ff2565b9050828103606084015261112981858761106c565b9a9950505050505050505050565b6001600160a01b038316815260406020820181905260009061115b90830184610e1a565b949350505050565b634e487b7160e01b600052603260045260246000fd5b60008235603e1983360301811261118f57600080fd5b9190910192915050565b6000602082840312156111ab57600080fd5b8135610d0781610e73565b6000808335601e198436030181126111cd57600080fd5b83018035915067ffffffffffffffff8211156111e857600080fd5b6020019150368190038213156106fa57600080fd5b60208152600061115b602083018486610fc9565b6000808585111561122157600080fd5b8386111561122e57600080fd5b5050820193919092039150565b6001600160e01b031981358181169160048510156112635780818660040360031b1b83161692505b505092915050565b634e487b7160e01b600052604160045260246000fd5b634e487b7160e01b600052601160045260246000fd5b6000600182016112a9576112a9611281565b5060010190565b818103818111156103aa576103aa61128156fef88ce1fdb7fb1cbd3282e49729100fa3f2d6ee9f797961fe4fb1871cea89ea04a26469706673582212205d42d3b6c4a7f6aab5e88c39867375d15f3b9f26693cebce03e26373fb10307c64736f6c634300081900336080604052348015600f57600080fd5b5061032f8061001f6000396000f3fe608060405234801561001057600080fd5b50600436106100625760003560e01c80636d61fe70146100675780638a91b0e314610067578063970032031461007b578063d60b347f146100a1578063ecd05961146100c5578063f551e2ee146100d9575b600080fd5b6100796100753660046101c2565b5050565b005b61008e610089366004610204565b610110565b6040519081526020015b60405180910390f35b6100b56100af36600461026b565b50600090565b6040519015158152602001610098565b6100b56100d3366004610286565b60011490565b6100f76100e736600461029f565b630b135d3f60e11b949350505050565b6040516001600160e01b03199091168152602001610098565b6000610125600065ffffffffffff600061012c565b9392505050565b6000610139848484610141565b949350505050565b600060d08265ffffffffffff16901b60a08465ffffffffffff16901b8561016957600061016c565b60015b60ff161717949350505050565b60008083601f84011261018b57600080fd5b50813567ffffffffffffffff8111156101a357600080fd5b6020830191508360208285010111156101bb57600080fd5b9250929050565b600080602083850312156101d557600080fd5b823567ffffffffffffffff8111156101ec57600080fd5b6101f885828601610179565b90969095509350505050565b6000806040838503121561021757600080fd5b823567ffffffffffffffff81111561022e57600080fd5b8301610120818603121561024157600080fd5b946020939093013593505050565b80356001600160a01b038116811461026657600080fd5b919050565b60006020828403121561027d57600080fd5b6101258261024f565b60006020828403121561029857600080fd5b5035919050565b600080600080606085870312156102b557600080fd5b6102be8561024f565b935060208501359250604085013567ffffffffffffffff8111156102e157600080fd5b6102ed87828801610179565b9598949750955050505056fea2646970667358221220556f85ad296a2de623b3fa1f2c08585ba1d41c8b2e4dfd9546867b6ea268502264736f6c63430008190033608060405234801561001057600080fd5b50600060405161001f9061011c565b604051809103906000f08015801561003b573d6000803e3d6000fd5b50905061008173e592427a0aece92de3edee1f18e0157c05861564826001600160a01b0316803b806020016040519081016040528181526000908060200190933c6100ad565b50600080546001600160a01b03191673e592427a0aece92de3edee1f18e0157c05861564179055610188565b604051635a6b63c160e11b8152737109709ecfa91a80626ff3989d68f67f5b1dd12d9063b4d6c782906100e69085908590600401610129565b600060405180830381600087803b15801561010057600080fd5b505af1158015610114573d6000803e3d6000fd5b505050505050565b61020f8061022783390190565b60018060a01b03831681526000602060406020840152835180604085015260005b818110156101665785810183015185820160600152820161014a565b506000606082860101526060601f19601f830116850101925050509392505050565b6091806101966000396000f3fe6080604052348015600f57600080fd5b506004361060285760003560e01c80632681f7e414602d575b600080fd5b600054603f906001600160a01b031681565b6040516001600160a01b03909116815260200160405180910390f3fea264697066735822122066180e4d5e832317bbaafeb0bd9505336a748d259002679ae24dba16fc2044ff64736f6c634300081900336080604052348015600f57600080fd5b506101f08061001f6000396000f3fe60806040526004361061004a5760003560e01c8063414bf3891461004f578063c04b8d5914610076578063db3e21981461004f578063f28c049814610076578063fa461e331461008b575b600080fd5b61006461005d3660046100c7565b60a0013590565b60405190815260200160405180910390f35b6100646100843660046100fd565b6060013590565b34801561009757600080fd5b506100ac6100a636600461013a565b50505050565b005b600061010082840312156100c157600080fd5b50919050565b600061010082840312156100da57600080fd5b6100e483836100ae565b9392505050565b600060a082840312156100c157600080fd5b60006020828403121561010f57600080fd5b813567ffffffffffffffff81111561012657600080fd5b610132848285016100eb565b949350505050565b6000806000806060858703121561015057600080fd5b8435935060208501359250604085013567ffffffffffffffff8082111561017657600080fd5b818701915087601f83011261018a57600080fd5b81358181111561019957600080fd5b8860208285010111156101ab57600080fd5b9598949750506020019450505056fea2646970667358221220f27747877f49681616ebecb150fc90f231ab9ad0941bb5b372c228e18e89618564736f6c6343000819003360a0604052604051600e906046565b604051809103906000f0801580156029573d6000803e3d6000fd5b506001600160a01b0316608052348015604157600080fd5b506053565b6145ae806109eb83390190565b60805161097061007b6000396000818160df0152818161012001526101df01526109706000f3fe608060405234801561001057600080fd5b506004361061004c5760003560e01c806355a76a3a146100515780637010416e1461007e5780637680fd41146100b957806395f76bdd146100da575b600080fd5b61006461005f36600461040e565b610119565b604080519283526020830191909152015b60405180910390f35b61006461008c366004610564565b60009081526020818152604091829020825180840190935280548084526001909101549290910182905291565b6100cc6100c736600461040e565b6101da565b604051908152602001610075565b6101017f000000000000000000000000000000000000000000000000000000000000000081565b6040516001600160a01b039091168152602001610075565b60008060007f00000000000000000000000000000000000000000000000000000000000000006001600160a01b03166397b2dcb98887876040518463ffffffff1660e01b815260040161016e93929190610677565b6000604051808303816000875af115801561018d573d6000803e3d6000fd5b505050506040513d6000823e601f3d908101601f191682016040526101b591908101906106f8565b6020908101516000978852908790526040909620600101869055509095939450505050565b6000807f00000000000000000000000000000000000000000000000000000000000000006001600160a01b031663c3bce009876040518263ffffffff1660e01b815260040161022991906107a5565b6000604051808303816000875af1158015610248573d6000803e3d6000fd5b505050506040513d6000823e601f3d908101601f191682016040526102709190810190610830565b51516000958652602086905260409095208590555092949350505050565b634e487b7160e01b600052604160045260246000fd5b604051610120810167ffffffffffffffff811182821017156102c8576102c861028e565b60405290565b60405160c0810167ffffffffffffffff811182821017156102c8576102c861028e565b6040805190810167ffffffffffffffff811182821017156102c8576102c861028e565b60405160a0810167ffffffffffffffff811182821017156102c8576102c861028e565b604051601f8201601f1916810167ffffffffffffffff811182821017156103605761036061028e565b604052919050565b6001600160a01b038116811461037d57600080fd5b50565b803561038b81610368565b919050565b600067ffffffffffffffff8211156103aa576103aa61028e565b50601f01601f191660200190565b600082601f8301126103c957600080fd5b81356103dc6103d782610390565b610337565b8181528460208386010111156103f157600080fd5b816020850160208301376000918101602001919091529392505050565b6000806000806080858703121561042457600080fd5b843567ffffffffffffffff8082111561043c57600080fd5b90860190610120828903121561045157600080fd5b6104596102a4565b61046283610380565b81526020830135602082015260408301358281111561048057600080fd5b61048c8a8286016103b8565b6040830152506060830135828111156104a457600080fd5b6104b08a8286016103b8565b6060830152506080830135608082015260a083013560a082015260c083013560c082015260e0830135828111156104e657600080fd5b6104f28a8286016103b8565b60e083015250610100808401358381111561050c57600080fd5b6105188b8287016103b8565b828401525050809650506020870135945061053560408801610380565b9350606087013591508082111561054b57600080fd5b50610558878288016103b8565b91505092959194509250565b60006020828403121561057657600080fd5b5035919050565b60005b83811015610598578181015183820152602001610580565b50506000910152565b600081518084526105b981602086016020860161057d565b601f01601f19169290920160200192915050565b80516001600160a01b031682526000610120602083015160208501526040830151816040860152610600828601826105a1565b9150506060830151848203606086015261061a82826105a1565b9150506080830151608085015260a083015160a085015260c083015160c085015260e083015184820360e086015261065282826105a1565b915050610100808401518583038287015261066d83826105a1565b9695505050505050565b60608152600061068a60608301866105cd565b6001600160a01b0385166020840152828103604084015261066d81856105a1565b600082601f8301126106bc57600080fd5b81516106ca6103d782610390565b8181528460208386010111156106df57600080fd5b6106f082602083016020870161057d565b949350505050565b60006020828403121561070a57600080fd5b815167ffffffffffffffff8082111561072257600080fd5b9083019060c0828603121561073657600080fd5b61073e6102ce565b825181526020830151602082015260408301516040820152606083015160608201526080830151801515811461077357600080fd5b608082015260a08301518281111561078a57600080fd5b610796878286016106ab565b60a08301525095945050505050565b6020815260006107b860208301846105cd565b9392505050565b6000604082840312156107d157600080fd5b6107d96102f1565b9050815181526020820151602082015292915050565b60006060828403121561080157600080fd5b6108096102f1565b9050815161081681610368565b815261082583602084016107bf565b602082015292915050565b60006020828403121561084257600080fd5b815167ffffffffffffffff8082111561085a57600080fd5b90830190610140828603121561086f57600080fd5b610877610314565b82518281111561088657600080fd5b830160a0818803121561089857600080fd5b6108a0610314565b815181526020820151602082015260408201516040820152606082015160608201526080820151848111156108d457600080fd5b6108e0898285016106ab565b6080830152508252506108f686602085016107bf565b602082015261090886606085016107bf565b604082015261091a8660a085016107bf565b606082015261092c8660e085016107ef565b60808201529594505050505056fea26469706673582212206e716de5f258c51c33749074f99c7332b29d804372574bbc135c55cef6cd3d3364736f6c6343000819003360a0604052604051600e906093565b604051809103906000f0801580156029573d6000803e3d6000fd5b506001600160a01b0390811660805260408051808201825260008082528251808401909352808352602080840191825282018390529051600480546001600160a01b03191691909416179092555160055551600655348015608957600080fd5b50600160025560a0565b6102128061439c83390190565b6080516142e46100b8600039600050506142e46000f3fe6080604052600436106101385760003560e01c8063850aaf62116100ab578063bb9fe6bf1161006f578063bb9fe6bf146104c9578063c23a5cea146104de578063c3bce009146104fe578063dbed18e01461052b578063ee5a97c81461054b578063fc7e286d1461058e57600080fd5b8063850aaf6214610429578063957122ab1461044957806397b2dcb9146104695780639b249f6914610496578063b760faf9146104b657600080fd5b8063205c2878116100fd578063205c28781461021b57806322cdde4c1461023b57806335567e1a1461025b5780635287ce12146102bb57806370a08231146103d3578063765e827f1461040957600080fd5b806242dc531461014d57806301ffc9a7146101805780630396cb60146101b05780630bd28e3b146101c35780631b2e01b8146101e357600080fd5b366101485761014633610636565b005b600080fd5b34801561015957600080fd5b5061016d6101683660046134f4565b610657565b6040519081526020015b60405180910390f35b34801561018c57600080fd5b506101a061019b3660046135b9565b610823565b6040519015158152602001610177565b6101466101be3660046135e3565b6108ab565b3480156101cf57600080fd5b506101466101de366004613620565b610b3a565b3480156101ef57600080fd5b5061016d6101fe36600461363b565b600160209081526000928352604080842090915290825290205481565b34801561022757600080fd5b50610146610236366004613670565b610b71565b34801561024757600080fd5b5061016d6102563660046136b5565b610cc2565b34801561026757600080fd5b5061016d61027636600461363b565b6001600160a01b03821660009081526001602090815260408083206001600160c01b038516845290915290819020549082901b67ffffffffffffffff19161792915050565b3480156102c757600080fd5b506103786102d63660046136e9565b6040805160a081018252600080825260208201819052918101829052606081018290526080810191909152506001600160a01b031660009081526020818152604091829020825160a0810184528154815260019091015460ff811615159282019290925261010082046001600160701b031692810192909252600160781b810463ffffffff166060830152600160981b900465ffffffffffff16608082015290565b6040516101779190600060a082019050825182526020830151151560208301526001600160701b03604084015116604083015263ffffffff606084015116606083015265ffffffffffff608084015116608083015292915050565b3480156103df57600080fd5b5061016d6103ee3660046136e9565b6001600160a01b031660009081526020819052604090205490565b34801561041557600080fd5b5061014661042436600461374a565b610d04565b34801561043557600080fd5b506101466104443660046137a0565b610e80565b34801561045557600080fd5b506101466104643660046137f4565b610eff565b34801561047557600080fd5b50610489610484366004613878565b610ffc565b6040516101779190613929565b3480156104a257600080fd5b506101466104b1366004613978565b61112e565b6101466104c43660046136e9565b610636565b3480156104d557600080fd5b506101466111d9565b3480156104ea57600080fd5b506101466104f93660046136e9565b61130d565b34801561050a57600080fd5b5061051e6105193660046136b5565b611531565b60405161017791906139b9565b34801561053757600080fd5b5061014661054636600461374a565b6116e7565b34801561055757600080fd5b5061016d610566366004613670565b6001600160a01b03919091166000908152600360209081526040808320938352929052205490565b34801561059a57600080fd5b506105f36105a93660046136e9565b6000602081905290815260409020805460019091015460ff81169061010081046001600160701b031690600160781b810463ffffffff1690600160981b900465ffffffffffff1685565b6040805195865293151560208601526001600160701b039092169284019290925263ffffffff909116606083015265ffffffffffff16608082015260a001610177565b60015b600581101561064a57600101610639565b61065382611b00565b5050565b6000805a90503330146106b15760405162461bcd60e51b815260206004820152601760248201527f4141393220696e7465726e616c2063616c6c206f6e6c7900000000000000000060448201526064015b60405180910390fd5b8451606081015160a082015181016127100160405a603f02816106d6576106d6613a8c565b0410156106ee5763deaddead60e01b60005260206000fd5b8751600090156107c35760005a90506000610710856000015160008d87611b49565b905061074d856000015160025a6107279086613ab8565b6001600160a01b0390921660009081526003602090815260408083209383529290522055565b806107c057600061075f610800611b61565b8051909150156107ba5785600001516001600160a01b03168b602001517f1c4fada7374c0a9ee8841fc38afe82932dc0f8e69012e927f061a8bae611a2018860200151846040516107b1929190613acb565b60405180910390a35b60019350505b50505b600088608001515a8603019050610813828a8a8a8080601f016020809104026020016040519081016040528093929190818152602001838380828437600092019190915250879250611b8d915050565b955050505050505b949350505050565b60006001600160e01b0319821663307e35b760e11b148061085457506001600160e01b0319821663122a0e9b60e31b145b8061086f57506001600160e01b0319821663cf28ef9760e01b145b8061088a57506001600160e01b03198216633e84f02160e01b145b806108a557506301ffc9a760e01b6001600160e01b03198316145b92915050565b33600090815260208190526040902063ffffffff821661090d5760405162461bcd60e51b815260206004820152601a60248201527f6d757374207370656369667920756e7374616b652064656c617900000000000060448201526064016106a8565b600181015463ffffffff600160781b909104811690831610156109725760405162461bcd60e51b815260206004820152601c60248201527f63616e6e6f7420646563726561736520756e7374616b652074696d650000000060448201526064016106a8565b600181015460009061099390349061010090046001600160701b0316613ae4565b9050600081116109da5760405162461bcd60e51b81526020600482015260126024820152711b9bc81cdd185ad9481cdc1958da599a595960721b60448201526064016106a8565b6001600160701b03811115610a225760405162461bcd60e51b815260206004820152600e60248201526d7374616b65206f766572666c6f7760901b60448201526064016106a8565b6040805160a08101825283548152600160208083018281526001600160701b0386811685870190815263ffffffff8a811660608801818152600060808a0181815233808352828a52918c90209a518b55965199909801805494519151965165ffffffffffff16600160981b0265ffffffffffff60981b1997909416600160781b029690961669ffffffffffffffffffff60781b1991909516610100026effffffffffffffffffffffffffff0019991515999099166effffffffffffffffffffffffffffff1990941693909317979097179190911691909117179055835185815290810192909252917fa5ae833d0bb1dcd632d98a8b70973e8516812898e19bf27b70071ebc8dc52c01910160405180910390a2505050565b3360009081526001602090815260408083206001600160c01b03851684529091528120805491610b6983613af7565b919050555050565b3360009081526020819052604090208054821115610bd15760405162461bcd60e51b815260206004820152601960248201527f576974686472617720616d6f756e7420746f6f206c617267650000000000000060448201526064016106a8565b8054610bde908390613ab8565b8155604080516001600160a01b03851681526020810184905233917fd1c19fbcd4551a5edfb66d43d2e337c04837afda3482b42bdf569a8fccdae5fb910160405180910390a26000836001600160a01b03168360405160006040518083038185875af1925050503d8060008114610c71576040519150601f19603f3d011682016040523d82523d6000602084013e610c76565b606091505b5050905080610cbc5760405162461bcd60e51b81526020600482015260126024820152716661696c656420746f20776974686472617760701b60448201526064016106a8565b50505050565b6000610ccd82611d50565b6040805160208101929092523090820152466060820152608001604051602081830303815290604052805190602001209050919050565b610d0c611d69565b816000816001600160401b03811115610d2757610d276132ee565b604051908082528060200260200182016040528015610d6057816020015b610d4d613169565b815260200190600190039081610d455790505b50905060005b82811015610dd9576000828281518110610d8257610d82613b10565b60200260200101519050600080610dbd848a8a87818110610da557610da5613b10565b9050602002810190610db79190613b26565b85611d91565b91509150610dce8483836000611f97565b505050600101610d66565b506040516000907fbb47ee3e183a558b1a2ff0874b079f3fc5478b7454eacf2bfc5af2ff5878f972908290a160005b83811015610e6357610e5781888884818110610e2657610e26613b10565b9050602002810190610e389190613b26565b858481518110610e4a57610e4a613b10565b6020026020010151612133565b90910190600101610e08565b50610e6e84826123ef565b505050610e7b6001600255565b505050565b600080846001600160a01b03168484604051610e9d929190613b47565b600060405180830381855af49150503d8060008114610ed8576040519150601f19603f3d011682016040523d82523d6000602084013e610edd565b606091505b50915091508181604051632650415560e21b81526004016106a8929190613b57565b83158015610f1557506001600160a01b0383163b155b15610f625760405162461bcd60e51b815260206004820152601960248201527f41413230206163636f756e74206e6f74206465706c6f7965640000000000000060448201526064016106a8565b60148110610fda576000610f796014828486613b72565b610f8291613b9c565b60601c9050803b600003610fd85760405162461bcd60e51b815260206004820152601b60248201527f41413330207061796d6173746572206e6f74206465706c6f796564000000000060448201526064016106a8565b505b60405162461bcd60e51b815260206004820152600060248201526044016106a8565b6110376040518060c0016040528060008152602001600081526020016000815260200160008152602001600015158152602001606081525090565b61103f611d69565b611047613169565b611050866124e8565b60008061105f60008985611d91565b91509150600061107160008a86612133565b9050600060606001600160a01b038a16156110e957896001600160a01b031689896040516110a0929190613b47565b6000604051808303816000865af19150503d80600081146110dd576040519150601f19603f3d011682016040523d82523d6000602084013e6110e2565b606091505b5090925090505b6040518060c0016040528087608001518152602001848152602001868152602001858152602001831515815260200182815250965050505050505061081b6001600255565b60006111426007546001600160a01b031690565b6001600160a01b031663570e1a3684846040518363ffffffff1660e01b815260040161116f929190613bfa565b6020604051808303816000875af115801561118e573d6000803e3d6000fd5b505050506040513d601f19601f820116820180604052508101906111b29190613c0e565b604051633653dc0360e11b81526001600160a01b03821660048201529091506024016106a8565b33600090815260208190526040812060018101549091600160781b90910463ffffffff1690036112385760405162461bcd60e51b815260206004820152600a6024820152691b9bdd081cdd185ad95960b21b60448201526064016106a8565b600181015460ff166112805760405162461bcd60e51b8152602060048201526011602482015270616c726561647920756e7374616b696e6760781b60448201526064016106a8565b600181015460009061129f90600160781b900463ffffffff1642613c2b565b60018301805460ff65ffffffffffff60981b011916600160981b65ffffffffffff841690810260ff19169190911790915560405190815290915033907ffa9b3c14cc825c412c9ed81b3ba365a5b459439403f18829e572ed53a4180f0a906020015b60405180910390a25050565b336000908152602081905260409020600181015461010090046001600160701b0316806113735760405162461bcd60e51b81526020600482015260146024820152734e6f207374616b6520746f20776974686472617760601b60448201526064016106a8565b6001820154600160981b900465ffffffffffff166113d35760405162461bcd60e51b815260206004820152601d60248201527f6d7573742063616c6c20756e6c6f636b5374616b65282920666972737400000060448201526064016106a8565b600182015442600160981b90910465ffffffffffff1611156114375760405162461bcd60e51b815260206004820152601b60248201527f5374616b65207769746864726177616c206973206e6f7420647565000000000060448201526064016106a8565b600182018054610100600160c81b0319169055604080516001600160a01b03851681526020810183905233917fb7c918e0e249f999e965cafeb6c664271b3f4317d296461500e71da39f0cbda3910160405180910390a26000836001600160a01b03168260405160006040518083038185875af1925050503d80600081146114db576040519150601f19603f3d011682016040523d82523d6000602084013e6114e0565b606091505b5050905080610cbc5760405162461bcd60e51b815260206004820152601860248201527f6661696c656420746f207769746864726177207374616b65000000000000000060448201526064016106a8565b611539613201565b611541613169565b61154a836124e8565b60008061155960008685611d91565b915091506000611570846000015160e00151612630565b84515190915060009061158290612630565b90506115a1604051806040016040528060008152602001600081525090565b3660006115b160408b018b613c51565b9092509050600060148210156115c85760006115e3565b6115d6601460008486613b72565b6115df91613b9c565b60601c5b90506115ee81612630565b9350505050600085905060006040518060a0016040528089608001518152602001896040015181526020018881526020018781526020016116308a6060015190565b90526040805180820182526004546001600160a01b0390811682528251808401909352600554835260065460208481019190915282019290925291925083161580159061168757506001836001600160a01b031614155b156116b4576040518060400160405280846001600160a01b031681526020016116af85612630565b905290505b6040805160a081018252928352602083019590955293810192909252506060810192909252608082015295945050505050565b6116ef611d69565b816000805b8281101561185c573686868381811061170f5761170f613b10565b90506020028101906117219190613c97565b90503660006117308380613cad565b9092509050600061174760408501602086016136e9565b90506000196001600160a01b038216016117a35760405162461bcd60e51b815260206004820152601760248201527f4141393620696e76616c69642061676772656761746f7200000000000000000060448201526064016106a8565b6001600160a01b03811615611840576001600160a01b038116632dd8113384846117d06040890189613c51565b6040518563ffffffff1660e01b81526004016117ef9493929190613e1a565b60006040518083038186803b15801561180757600080fd5b505afa925050508015611818575060015b6118405760405163086a9f7560e41b81526001600160a01b03821660048201526024016106a8565b61184a8287613ae4565b955050600190930192506116f4915050565b506000816001600160401b03811115611877576118776132ee565b6040519080825280602002602001820160405280156118b057816020015b61189d613169565b8152602001906001900390816118955790505b5090506000805b8481101561198d57368888838181106118d2576118d2613b10565b90506020028101906118e49190613c97565b90503660006118f38380613cad565b9092509050600061190a60408501602086016136e9565b90508160005b8181101561197b57600089898151811061192c5761192c613b10565b6020026020010151905060008061194f8b898987818110610da557610da5613b10565b9150915061195f84838389611f97565b8a61196981613af7565b9b505060019093019250611910915050565b5050600190940193506118b792505050565b506040517fbb47ee3e183a558b1a2ff0874b079f3fc5478b7454eacf2bfc5af2ff5878f97290600090a150600080805b85811015611abb57368989838181106119d8576119d8613b10565b90506020028101906119ea9190613c97565b90506119fc60408201602083016136e9565b6001600160a01b03167f575ff3acadd5ab348fe1855e217e0f3678f8d767d7494c9f9fefbee2e17cca4d60405160405180910390a2366000611a3e8380613cad565b90925090508060005b81811015611aaa57611a8988858584818110611a6557611a65613b10565b9050602002810190611a779190613b26565b8b8b81518110610e4a57610e4a613b10565b611a939088613ae4565b965087611a9f81613af7565b985050600101611a47565b5050600190930192506119bd915050565b506040516000907f575ff3acadd5ab348fe1855e217e0f3678f8d767d7494c9f9fefbee2e17cca4d908290a2611af186826123ef565b5050505050610e7b6001600255565b6000611b0c8234612682565b9050816001600160a01b03167f2da466a7b24304f47e87fa2e1e5a81b9831ce54fec19055ce277ca2f39ba42c48260405161130191815260200190565b6000806000845160208601878987f195945050505050565b60603d82811115611b6f5750815b604051602082018101604052818152816000602083013e9392505050565b6000805a855190915060009081611ba3826126b5565b60e08301519091506001600160a01b038116611bc25782519350611c7e565b809350600088511115611c7e57868202955060028a6002811115611be857611be8613e97565b14611c7e5760a0830151604051637c627b2160e01b81526001600160a01b03831691637c627b2191611c24908e908d908c908990600401613ead565b600060405180830381600088803b158015611c3e57600080fd5b5087f193505050508015611c50575060015b611c7e576000611c61610800611b61565b905080604051632b5e552f60e21b81526004016106a89190613ef7565b5a60a0840151606085015160808c015192880399909901980190880380821115611cb1576064600a828403020498909801975b50506040890151878302965086811015611d0d5760028b6002811115611cd957611cd9613e97565b03611cfc57809650611cea8a6126df565b611cf78a6000898b61272e565b611d42565b63deadaa5160e01b60005260206000fd5b868103611d1a8682612682565b506000808d6002811115611d3057611d30613e97565b149050611d3f8c828b8d61272e565b50505b505050505050949350505050565b6000611d5b826127a9565b805190602001209050919050565b6002805403611d8b57604051633ee5aeb560e01b815260040160405180910390fd5b60028055565b60008060005a8451909150611da68682612861565b611daf86610cc2565b6020860152604081015161012082015161010083015160a08401516080850151606086015160c0870151861717171717176effffffffffffffffffffffffffffff811115611e3f5760405162461bcd60e51b815260206004820152601860248201527f41413934206761732076616c756573206f766572666c6f77000000000000000060448201526064016106a8565b6000611e6e8460c081015160a08201516080830151606084015160408501516101009095015194010101010290565b9050611e7d8a8a8a848761296f565b9650611e9184600001518560200151612b3d565b611ee75789604051631101335b60e11b81526004016106a8918152604060208201819052601a908201527f4141323520696e76616c6964206163636f756e74206e6f6e6365000000000000606082015260800190565b825a86031115611f435789604051631101335b60e11b81526004016106a8918152604060208201819052601e908201527f41413236206f76657220766572696669636174696f6e4761734c696d69740000606082015260800190565b60e08401516060906001600160a01b031615611f6a57611f658b8b8b85612b8a565b975090505b604089018290528060608a015260a08a01355a870301896080018181525050505050505050935093915050565b600080611fa385612d48565b91509150816001600160a01b0316836001600160a01b0316146120095785604051631101335b60e11b81526004016106a89181526040602082018190526014908201527320a0991a1039b4b3b730ba3ab9329032b93937b960611b606082015260800190565b80156120615785604051631101335b60e11b81526004016106a89181526040602082018190526017908201527f414132322065787069726564206f72206e6f7420647565000000000000000000606082015260800190565b600061206c85612d48565b925090506001600160a01b038116156120c85786604051631101335b60e11b81526004016106a89181526040602082018190526014908201527320a0999a1039b4b3b730ba3ab9329032b93937b960611b606082015260800190565b811561212a5786604051631101335b60e11b81526004016106a89181526040602082018190526021908201527f41413332207061796d61737465722065787069726564206f72206e6f742064756060820152606560f81b608082015260a00190565b50505050505050565b6000805a90506000612146846060015190565b604051909150600090368261215e60608a018a613c51565b915091506060600082600381111561217557843591505b506372288ed160e01b6001600160e01b03198216016122235760008b8b602001516040516024016121a7929190613f0a565b60408051601f198184030181529181526020820180516001600160e01b0316638dd7712f60e01b1790525190915030906242dc53906121ee9084908f908d90602401613fd6565b604051602081830303815290604052915060e01b6020820180516001600160e01b038381831617835250505050925050612278565b306001600160a01b03166242dc5385858d8b6040516024016122489493929190614016565b604051602081830303815290604052915060e01b6020820180516001600160e01b03838183161783525050505091505b602060008351602085016000305af195506000519850846040525050505050806123e55760003d806020036122b35760206000803e60005191505b5063deaddead60e01b81036123065787604051631101335b60e11b81526004016106a8918152604060208201819052600f908201526e41413935206f7574206f662067617360881b606082015260800190565b63deadaa5160e01b810361235757600086608001515a6123269087613ab8565b6123309190613ae4565b6040880151909150612341886126df565b61234e886000838561272e565b95506123e39050565b855180516020808901519201516001600160a01b0390911691907ff62676f440ff169a3a9afdbf812e89e7f95975ee8e5c31214ffdef631c5f47929061239e610800611b61565b6040516123ac929190613acb565b60405180910390a3600086608001515a6123c69087613ab8565b6123d09190613ae4565b90506123df6002888684611b8d565b9550505b505b5050509392505050565b6001600160a01b0382166124455760405162461bcd60e51b815260206004820152601860248201527f4141393020696e76616c69642062656e6566696369617279000000000000000060448201526064016106a8565b6000826001600160a01b03168260405160006040518083038185875af1925050503d8060008114612492576040519150601f19603f3d011682016040523d82523d6000602084013e612497565b606091505b5050905080610e7b5760405162461bcd60e51b815260206004820152601f60248201527f41413931206661696c65642073656e6420746f2062656e65666963696172790060448201526064016106a8565b61255b6040516135a560f21b60208201526bffffffffffffffffffffffff193060601b166022820152600160f81b603682015260009060370160408051808303601f190181529190528051602090910120600780546001600160a01b0319166001600160a01b0390921691909117905550565b3063957122ab61256e6040840184613c51565b61257b60208601866136e9565b61258860e0870187613c51565b6040518663ffffffff1660e01b81526004016125a895949392919061404d565b60006040518083038186803b1580156125c057600080fd5b505afa9250505080156125d1575060015b61262d576125dd61408f565b806308c379a00361262157506125f16140ab565b806125fc5750612623565b80511561065357600081604051631101335b60e11b81526004016106a8929190613acb565b505b3d6000803e3d6000fd5b50565b604080518082018252600080825260208083018281526001600160a01b03959095168252819052919091206001015461010081046001600160701b03168252600160781b900463ffffffff1690915290565b6001600160a01b0382166000908152602081905260408120805482906126a9908590613ae4565b91829055509392505050565b610100810151610120820151600091908082036126d3575092915050565b61081b82488301612d9b565b80518051602080840151928101516040519081526001600160a01b0390921692917f67b4fa9642f42120bf031f3051d1824b0fe25627945b27b8a6a65d5761d5482e910160405180910390a350565b835160e081015181516020808801519301516040516001600160a01b039384169492909316927f49628fd1471006c1482da88028e9ce4dbb080b815c9b0344d39e5a8e6ec1419f9161279b9189908990899093845291151560208401526040830152606082015260800190565b60405180910390a450505050565b60608135602083013560006127c96127c46040870187613c51565b612db3565b905060006127dd6127c46060880188613c51565b9050608086013560a087013560c088013560006128006127c460e08c018c613c51565b604080516001600160a01b039a909a1660208b015289810198909852606089019690965250608087019390935260a086019190915260c085015260e08401526101008084019190915281518084039091018152610120909201905292915050565b61286e60208301836136e9565b6001600160a01b03168152602082810135908201526001600160801b036080808401358281166060850152811c604084015260a084013560c0808501919091528401359182166101008401521c6101208201523660006128d160e0850185613c51565b9092509050801561295457603481101561292d5760405162461bcd60e51b815260206004820152601d60248201527f4141393320696e76616c6964207061796d6173746572416e644461746100000060448201526064016106a8565b6129378282612dc6565b60a086015260808501526001600160a01b031660e0840152610cbc565b600060e084018190526080840181905260a084015250505050565b825180516000919061298e888761298960408b018b613c51565b612e2e565b60e082015160006001600160a01b0382166129d2576001600160a01b0383166000908152602081905260409020548781116129cb578088036129ce565b60005b9150505b60005a60208a01516040516306608bdf60e21b81529192506001600160a01b038616916319822f7c918a91612a0d918f918890600401614134565b60206040518083038160008887f193505050508015612a49575060408051601f3d908101601f19168201909252612a4691810190614159565b60015b612a74578a612a59610800611b61565b6040516365c8fd4d60e01b81526004016106a8929190614172565b809650612aa68560015a85036001600160a01b0390921660009081526003602090815260408083209383529290522055565b506001600160a01b038316612b2f576001600160a01b03841660009081526020819052604090208054808a1115612b29578c604051631101335b60e11b81526004016106a89181526040602082018190526017908201527f41413231206469646e2774207061792070726566756e64000000000000000000606082015260800190565b89900390555b505050505095945050505050565b6001600160a01b038216600090815260016020908152604080832084821c80855292528220805484916001600160401b038316919085612b7c83613af7565b909155501495945050505050565b60606000805a855160e08101516001600160a01b03811660009081526020819052604090208054939450919290919087811015612c13578a604051631101335b60e11b81526004016106a8918152604060208201819052601e908201527f41413331207061796d6173746572206465706f73697420746f6f206c6f770000606082015260800190565b8781038260000181905550600084608001519050836001600160a01b03166352b7512c828d8d602001518d6040518563ffffffff1660e01b8152600401612c5c93929190614134565b60006040518083038160008887f193505050508015612c9d57506040513d6000823e601f3d908101601f19168201604052612c9a91908101906141af565b60015b612cc8578b612cad610800611b61565b6040516365c8fd4d60e01b81526004016106a892919061423a565b9098509650805a87031115612d39578b604051631101335b60e11b81526004016106a89181526040602082018190526027908201527f41413336206f766572207061796d6173746572566572696669636174696f6e47606082015266185cd31a5b5a5d60ca1b608082015260a00190565b50505050505094509492505050565b60008082600003612d5e57506000928392509050565b6000612d69846130f8565b9050806040015165ffffffffffff16421180612d905750806020015165ffffffffffff1642105b905194909350915050565b6000818310612daa5781612dac565b825b9392505050565b6000604051828085833790209392505050565b60008080612dd76014828688613b72565b612de091613b9c565b60601c612df1602460148789613b72565b612dfa91614277565b60801c612e0b60346024888a613b72565b612e1491614277565b9194506001600160801b0316925060801c90509250925092565b8015610cbc578251516001600160a01b0381163b15612e995784604051631101335b60e11b81526004016106a8918152604060208201819052601f908201527f414131302073656e64657220616c726561647920636f6e737472756374656400606082015260800190565b60005a90506000612eb26007546001600160a01b031690565b6001600160a01b031663570e1a3687600001516040015187876040518463ffffffff1660e01b8152600401612ee8929190613bfa565b60206040518083038160008887f1158015612f07573d6000803e3d6000fd5b50505050506040513d601f19601f82011682018060405250810190612f2c9190613c0e565b9050612f3f8360005a6107279086613ab8565b6001600160a01b038116612f9f5786604051631101335b60e11b81526004016106a8918152604060208201819052601b908201527f4141313320696e6974436f6465206661696c6564206f72204f4f470000000000606082015260800190565b826001600160a01b0316816001600160a01b0316146130095786604051631101335b60e11b81526004016106a891815260406020808301829052908201527f4141313420696e6974436f6465206d7573742072657475726e2073656e646572606082015260800190565b806001600160a01b03163b60000361306c5786604051631101335b60e11b81526004016106a891815260406020808301829052908201527f4141313520696e6974436f6465206d757374206372656174652073656e646572606082015260800190565b600061307b6014828789613b72565b61308491613b9c565b60601c9050836001600160a01b031687602001517fd51a9c61267aa6196961883ecf5ff2da6619c37dac0fa92122513fb32c032d2d838a6000015160e001516040516130e69291906001600160a01b0392831681529116602082015260400190565b60405180910390a35050505050505050565b60408051606081018252600080825260208201819052918101919091528160a081901c65ffffffffffff8116600003613134575065ffffffffffff5b604080516060810182526001600160a01b03909316835260d09490941c602083015265ffffffffffff16928101929092525090565b6040518060a001604052806131dc60405180610140016040528060006001600160a01b0316815260200160008152602001600081526020016000815260200160008152602001600081526020016000815260200160006001600160a01b0316815260200160008152602001600081525090565b8152602001600080191681526020016000815260200160008152602001600081525090565b6040518060a0016040528061323e6040518060a0016040528060008152602001600081526020016000815260200160008152602001606081525090565b8152602001613260604051806040016040528060008152602001600081525090565b8152602001613282604051806040016040528060008152602001600081525090565b81526020016132a4604051806040016040528060008152602001600081525090565b81526020016132b16132b6565b905290565b604051806040016040528060006001600160a01b031681526020016132b1604051806040016040528060008152602001600081525090565b634e487b7160e01b600052604160045260246000fd5b60a081018181106001600160401b0382111715613323576133236132ee565b60405250565b601f8201601f191681016001600160401b038111828210171561334e5761334e6132ee565b6040525050565b60405161014081016001600160401b0381118282101715613378576133786132ee565b60405290565b60006001600160401b03821115613397576133976132ee565b50601f01601f191660200190565b6001600160a01b038116811461262d57600080fd5b80356133c5816133a5565b919050565b60008183036101c08112156133de57600080fd5b6040516133ea81613304565b809250610140808312156133fd57600080fd5b613405613355565b9250613410856133ba565b83526020850135602084015260408501356040840152606085013560608401526080850135608084015260a085013560a084015260c085013560c084015261345a60e086016133ba565b60e084015261010085810135908401526101208086013590840152918152908301356020820152610160830135604082015261018083013560608201526101a090920135608090920191909152919050565b60008083601f8401126134be57600080fd5b5081356001600160401b038111156134d557600080fd5b6020830191508360208285010111156134ed57600080fd5b9250929050565b600080600080610200858703121561350b57600080fd5b84356001600160401b038082111561352257600080fd5b818701915087601f83011261353657600080fd5b81356135418161337e565b60405161354e8282613329565b8281528a602084870101111561356357600080fd5b8260208601602083013760006020848301015280985050505061358988602089016133ca565b94506101e08701359150808211156135a057600080fd5b506135ad878288016134ac565b95989497509550505050565b6000602082840312156135cb57600080fd5b81356001600160e01b031981168114612dac57600080fd5b6000602082840312156135f557600080fd5b813563ffffffff81168114612dac57600080fd5b80356001600160c01b03811681146133c557600080fd5b60006020828403121561363257600080fd5b612dac82613609565b6000806040838503121561364e57600080fd5b8235613659816133a5565b915061366760208401613609565b90509250929050565b6000806040838503121561368357600080fd5b823561368e816133a5565b946020939093013593505050565b600061012082840312156136af57600080fd5b50919050565b6000602082840312156136c757600080fd5b81356001600160401b038111156136dd57600080fd5b61081b8482850161369c565b6000602082840312156136fb57600080fd5b8135612dac816133a5565b60008083601f84011261371857600080fd5b5081356001600160401b0381111561372f57600080fd5b6020830191508360208260051b85010111156134ed57600080fd5b60008060006040848603121561375f57600080fd5b83356001600160401b0381111561377557600080fd5b61378186828701613706565b9094509250506020840135613795816133a5565b809150509250925092565b6000806000604084860312156137b557600080fd5b83356137c0816133a5565b925060208401356001600160401b038111156137db57600080fd5b6137e7868287016134ac565b9497909650939450505050565b60008060008060006060868803121561380c57600080fd5b85356001600160401b038082111561382357600080fd5b61382f89838a016134ac565b909750955060208801359150613844826133a5565b9093506040870135908082111561385a57600080fd5b50613867888289016134ac565b969995985093965092949392505050565b6000806000806060858703121561388e57600080fd5b84356001600160401b03808211156138a557600080fd5b6138b18883890161369c565b9550602087013591506138c3826133a5565b909350604086013590808211156135a057600080fd5b60005b838110156138f45781810151838201526020016138dc565b50506000910152565b600081518084526139158160208601602086016138d9565b601f01601f19169290920160200192915050565b60208152815160208201526020820151604082015260408201516060820152606082015160808201526080820151151560a0820152600060a083015160c08084015261081b60e08401826138fd565b6000806020838503121561398b57600080fd5b82356001600160401b038111156139a157600080fd5b6139ad858286016134ac565b90969095509350505050565b602080825282516101408383015280516101608401529081015161018083015260408101516101a083015260608101516101c08301526080015160a06101e0830152600090613a0c6102008401826138fd565b90506020840151613a2a604085018280518252602090810151910152565b506040840151805160808581019190915260209182015160a08601526060860151805160c087015282015160e086015285015180516001600160a01b031661010086015280820151805161012087015290910151610140850152509392505050565b634e487b7160e01b600052601260045260246000fd5b634e487b7160e01b600052601160045260246000fd5b818103818111156108a5576108a5613aa2565b82815260406020820152600061081b60408301846138fd565b808201808211156108a5576108a5613aa2565b600060018201613b0957613b09613aa2565b5060010190565b634e487b7160e01b600052603260045260246000fd5b6000823561011e19833603018112613b3d57600080fd5b9190910192915050565b8183823760009101908152919050565b821515815260406020820152600061081b60408301846138fd565b60008085851115613b8257600080fd5b83861115613b8f57600080fd5b5050820193919092039150565b6bffffffffffffffffffffffff198135818116916014851015613bc95780818660140360031b1b83161692505b505092915050565b81835281816020850137506000828201602090810191909152601f909101601f19169091010190565b60208152600061081b602083018486613bd1565b600060208284031215613c2057600080fd5b8151612dac816133a5565b65ffffffffffff818116838216019080821115613c4a57613c4a613aa2565b5092915050565b6000808335601e19843603018112613c6857600080fd5b8301803591506001600160401b03821115613c8257600080fd5b6020019150368190038213156134ed57600080fd5b60008235605e19833603018112613b3d57600080fd5b6000808335601e19843603018112613cc457600080fd5b8301803591506001600160401b03821115613cde57600080fd5b6020019150600581901b36038213156134ed57600080fd5b6000808335601e19843603018112613d0d57600080fd5b83016020810192503590506001600160401b03811115613d2c57600080fd5b8036038213156134ed57600080fd5b6000610120613d5a84613d4d856133ba565b6001600160a01b03169052565b60208301356020850152613d716040840184613cf6565b826040870152613d848387018284613bd1565b92505050613d956060840184613cf6565b8583036060870152613da8838284613bd1565b925050506080830135608085015260a083013560a085015260c083013560c0850152613dd760e0840184613cf6565b85830360e0870152613dea838284613bd1565b92505050610100613dfd81850185613cf6565b86840383880152613e0f848284613bd1565b979650505050505050565b6040808252810184905260006060600586901b830181019083018783805b89811015613e8057868503605f190184528235368c900361011e19018112613e5e578283fd5b613e6a868d8301613d3b565b9550506020938401939290920191600101613e38565b505050508281036020840152613e0f818587613bd1565b634e487b7160e01b600052602160045260246000fd5b600060038610613ecd57634e487b7160e01b600052602160045260246000fd5b85825260806020830152613ee460808301866138fd565b6040830194909452506060015292915050565b602081526000612dac60208301846138fd565b604081526000613f1d6040830185613d3b565b90508260208301529392505050565b805180516001600160a01b031683526020810151602084015260408101516040840152606081015160608401526080810151608084015260a081015160a084015260c081015160c084015260e0810151613f9160e08501826001600160a01b03169052565b5061010081810151908401526101209081015190830152602081015161014083015260408101516101608301526060810151610180830152608001516101a090910152565b6000610200808352613fea818401876138fd565b9050613ff96020840186613f2c565b8281036101e084015261400c81856138fd565b9695505050505050565b600061020080835261402b8184018789613bd1565b905061403a6020840186613f2c565b8281036101e0840152613e0f81856138fd565b606081526000614061606083018789613bd1565b6001600160a01b03861660208401528281036040840152614083818587613bd1565b98975050505050505050565b600060033d11156140a85760046000803e5060005160e01c5b90565b600060443d10156140b95790565b6040516003193d81016004833e81513d6001600160401b0381602484011181841117156140e857505050505090565b82850191508151818111156141005750505050505090565b843d870101602082850101111561411a5750505050505090565b61412960208286010187613329565b509095945050505050565b6060815260006141476060830186613d3b565b60208301949094525060400152919050565b60006020828403121561416b57600080fd5b5051919050565b82815260606020820152600d60608201526c10504c8cc81c995d995c9d1959609a1b608082015260a06040820152600061081b60a08301846138fd565b600080604083850312156141c257600080fd5b82516001600160401b038111156141d857600080fd5b8301601f810185136141e957600080fd5b80516141f48161337e565b6040516142018282613329565b82815287602084860101111561421657600080fd5b6142278360208301602087016138d9565b6020969096015195979596505050505050565b82815260606020820152600d60608201526c10504cccc81c995d995c9d1959609a1b608082015260a06040820152600061081b60a08301846138fd565b6fffffffffffffffffffffffffffffffff198135818116916010851015613bc95760109490940360031b84901b169092169291505056fea2646970667358221220dd73864e46cb0a082281db8e6317bc3456bfef19bb5bf3ccdbc787cac4f62bef64736f6c634300081900336080604052348015600f57600080fd5b506101f38061001f6000396000f3fe608060405234801561001057600080fd5b506004361061002b5760003560e01c8063570e1a3614610030575b600080fd5b61004361003e3660046100ec565b61005f565b6040516001600160a01b03909116815260200160405180910390f35b60008061006f601482858761015e565b61007891610188565b60601c9050600061008c846014818861015e565b8080601f016020809104026020016040519081016040528093929190818152602001838380828437600092018290525084519495509360209350849250905082850182875af190506000519350806100e357600093505b50505092915050565b600080602083850312156100ff57600080fd5b823567ffffffffffffffff8082111561011757600080fd5b818501915085601f83011261012b57600080fd5b81358181111561013a57600080fd5b86602082850101111561014c57600080fd5b60209290920196919550909350505050565b6000808585111561016e57600080fd5b8386111561017b57600080fd5b5050820193919092039150565b6bffffffffffffffffffffffff1981358181169160148510156101b55780818660140360031b1b83161692505b50509291505056fea26469706673582212206dd015fe08730e548712d9aed746bc746c40cd40536c5da0df321e61dc56f3a964736f6c634300081900336080604052348015600f57600080fd5b506113198061001f6000396000f3fe60806040526004361061007f5760003560e01c8063855713681161004e5780638557136814610272578063b0d691fe146102a0578063ea5f61d0146102c3578063eac9b20d146102e357610086565b80630a664dba146101d35780635e87556d14610205578063642219af146102325780636b0d5cc41461025257610086565b3661008657005b60003560e01c63bc197c81811463f23a6e6182141763150b7a02821417156100b257806020526020603cf35b50600080356001600160e01b03191681526000805160206112c48339815191526020526040902080546001600160a01b03811690600160a01b900460f81b8161012157604051632464e76d60e11b81526001600160e01b03196000351660048201526024015b60405180910390fd5b61012f81607f60f91b610399565b156101835760408051368101909152366000823760408051601481019091523360601b90526000803660140183865afa90506101713d60408051918201905290565b3d6000823e8161017f573d81fd5b3d81f35b61018e816000610399565b156101d15760408051368101909152366000823760408051601481019091523360601b9052600080366014018382875af190506101713d60408051918201905290565b005b3480156101df57600080fd5b506101e86103b0565b6040516001600160a01b0390911681526020015b60405180910390f35b34801561021157600080fd5b50610225610220366004610d53565b6103df565b6040516101fc9190610e60565b34801561023e57600080fd5b506101d161024d366004610d53565b610468565b34801561025e57600080fd5b506101d161026d366004610e8b565b6106b4565b34801561027e57600080fd5b5061029261028d366004610f10565b6106c4565b6040516101fc929190610f3c565b3480156102ac57600080fd5b506f71727de22e5e9d8baf0edac6f37da0326101e8565b3480156102cf57600080fd5b506102926102de366004610f10565b610701565b3480156102ef57600080fd5b5061036b6102fe366004610f9f565b604080518082018252600080825260209182018190526001600160e01b03199390931683526000805160206112c48339815191528152918190208151808301909252546001600160a01b0381168252600160a01b900460f81b6001600160f81b0319169181019190915290565b6040805182516001600160a01b031681526020928301516001600160f81b03191692810192909252016101fc565b6001600160f81b0319828116908216145b92915050565b60006103da7f36e05829dd1b9a4411d96a3549582172d7f071c1c0db5c573fcf94eb284316085490565b905090565b606030306001600160a01b031663642219af8a8a8a8a8a8a8a60405160240161040e97969594939291906110d9565b604051602081830303815290604052915060e01b6020820180516001600160e01b03838183161783525050505060405160200161044c929190611137565b6040516020818303038152906040529050979650505050505050565b60005b868110156104e7576104df88888381811061048857610488611163565b905060200281019061049a9190611179565b6104a8906020810190611199565b8989848181106104ba576104ba611163565b90506020028101906104cc9190611179565b6104da9060208101906111b6565b610731565b60010161046b565b5060005b848110156105a957600086868381811061050757610507611163565b90506020028101906105199190611179565b610527906020810190611199565b6001600160a01b0316146105a1576105a186868381811061054a5761054a611163565b905060200281019061055c9190611179565b61056a906020810190611199565b87878481811061057c5761057c611163565b905060200281019061058e9190611179565b61059c9060208101906111b6565b6107b8565b6001016104eb565b5060006105b96020850185611199565b6001600160a01b0316146105e9576105e96105d76020850185611199565b6105e460208601866111b6565b6107e3565b60005b818110156106aa57600083838381811061060857610608611163565b905060200281019061061a9190611179565b610628906020810190611199565b6001600160a01b0316146106a2576106a283838381811061064b5761064b611163565b905060200281019061065d9190611179565b61066b906020810190611199565b84848481811061067d5761067d611163565b905060200281019061068f9190611179565b61069d9060208101906111b6565b61086a565b6001016105ec565b5050505050505050565b6106bf838383610731565b505050565b606060007ff88ce1fdb7fb1cbd3282e49729100fa3f2d6ee9f797961fe4fb1871cea89ea026106f4818686610a1b565b92509250505b9250929050565b606060007ff88ce1fdb7fb1cbd3282e49729100fa3f2d6ee9f797961fe4fb1871cea89ea036106f4818686610a1b565b7ff88ce1fdb7fb1cbd3282e49729100fa3f2d6ee9f797961fe4fb1871cea89ea0261075c8185610bc8565b6040516306d61fe760e41b81526001600160a01b03851690636d61fe709061078a90869086906004016111fd565b600060405180830381600087803b1580156107a457600080fd5b505af11580156106aa573d6000803e3d6000fd5b7ff88ce1fdb7fb1cbd3282e49729100fa3f2d6ee9f797961fe4fb1871cea89ea0361075c8185610bc8565b600061080d7f36e05829dd1b9a4411d96a3549582172d7f071c1c0db5c573fcf94eb284316085490565b90506001600160a01b038116156108425760405163741cbe0360e01b81526001600160a01b0382166004820152602401610118565b61075c847f36e05829dd1b9a4411d96a3549582172d7f071c1c0db5c573fcf94eb2843160855565b60006108796004828486611211565b6108829161123b565b905060008383600481811061089957610899611163565b909101356001600160f81b0319169150600090506108ba8460058188611211565b8080601f0160208091040260200160405190810160405280939291908181526020018383808284376000920191909152509293506108fd9250859150610c9e9050565b1561094a5760405162461bcd60e51b815260206004820152601e60248201527f46756e6374696f6e2073656c6563746f7220616c7265616479207573656400006044820152606401610118565b6040805180820182526001600160a01b038881168083526001600160f81b0319861660208085019182526001600160e01b0319891660009081526000805160206112c483398151915290915285902093518454915160f81c600160a01b026001600160a81b03199092169316929092179190911790915590516306d61fe760e41b8152636d61fe70906109e1908490600401610e60565b600060405180830381600087803b1580156109fb57600080fd5b505af1158015610a0f573d6000803e3d6000fd5b50505050505050505050565b606060006001600160a01b038416600114801590610a405750610a3e8585610cd2565b155b15610a6957604051637c84ecfb60e01b81526001600160a01b0385166004820152602401610118565b82600003610a8a5760405163f725081760e01b815260040160405180910390fd5b8267ffffffffffffffff811115610aa357610aa361126b565b604051908082528060200260200182016040528015610acc578160200160208202803683370190505b506001600160a01b03808616600090815260208890526040812054929450911691505b6001600160a01b03821615801590610b1157506001600160a01b038216600114155b8015610b1c57508381105b15610b765781838281518110610b3457610b34611163565b6001600160a01b039283166020918202929092018101919091529281166000908152928790526040909220549091169080610b6e81611297565b915050610aef565b6001600160a01b038216600114801590610b905750600081115b15610bbc5782610ba16001836112b0565b81518110610bb157610bb1611163565b602002602001015191505b80835250935093915050565b6001600160a01b0381161580610be757506001600160a01b0381166001145b15610c1057604051637c84ecfb60e01b81526001600160a01b0382166004820152602401610118565b6001600160a01b038181166000908152602084905260409020541615610c5457604051631034f46960e21b81526001600160a01b0382166004820152602401610118565b60016000818152602093909352604080842080546001600160a01b039485168087529286208054959091166001600160a01b03199586161790559190935280549091169091179055565b6001600160e01b03191660009081526000805160206112c483398151915260205260409020546001600160a01b0316151590565b600060016001600160a01b03831614801590610d0757506001600160a01b038281166000908152602085905260409020541615155b9392505050565b60008083601f840112610d2057600080fd5b50813567ffffffffffffffff811115610d3857600080fd5b6020830191508360208260051b85010111156106fa57600080fd5b60008060008060008060006080888a031215610d6e57600080fd5b873567ffffffffffffffff80821115610d8657600080fd5b610d928b838c01610d0e565b909950975060208a0135915080821115610dab57600080fd5b610db78b838c01610d0e565b909750955060408a0135915080821115610dd057600080fd5b908901906040828c031215610de457600080fd5b90935060608901359080821115610dfa57600080fd5b50610e078a828b01610d0e565b989b979a50959850939692959293505050565b6000815180845260005b81811015610e4057602081850181015186830182015201610e24565b506000602082860101526020601f19601f83011685010191505092915050565b602081526000610d076020830184610e1a565b6001600160a01b0381168114610e8857600080fd5b50565b600080600060408486031215610ea057600080fd5b8335610eab81610e73565b9250602084013567ffffffffffffffff80821115610ec857600080fd5b818601915086601f830112610edc57600080fd5b813581811115610eeb57600080fd5b876020828501011115610efd57600080fd5b6020830194508093505050509250925092565b60008060408385031215610f2357600080fd5b8235610f2e81610e73565b946020939093013593505050565b604080825283519082018190526000906020906060840190828701845b82811015610f7e5781516001600160a01b031684529284019290840190600101610f59565b5050506001600160a01b039490941660209390930192909252509092915050565b600060208284031215610fb157600080fd5b81356001600160e01b031981168114610d0757600080fd5b81835281816020850137506000828201602090810191909152601f909101601f19169091010190565b60008135610fff81610e73565b6001600160a01b03168352602082013536839003601e1901811261102257600080fd5b820160208101903567ffffffffffffffff81111561103f57600080fd5b80360382131561104e57600080fd5b60406020860152611063604086018284610fc9565b95945050505050565b6000838385526020808601955060208560051b830101846000805b888110156110cb57858403601f19018a52823536899003603e190181126110ac578283fd5b6110b8858a8301610ff2565b9a86019a94505091840191600101611087565b509198975050505050505050565b6080815260006110ed60808301898b61106c565b828103602084015261110081888a61106c565b905082810360408401526111148187610ff2565b9050828103606084015261112981858761106c565b9a9950505050505050505050565b6001600160a01b038316815260406020820181905260009061115b90830184610e1a565b949350505050565b634e487b7160e01b600052603260045260246000fd5b60008235603e1983360301811261118f57600080fd5b9190910192915050565b6000602082840312156111ab57600080fd5b8135610d0781610e73565b6000808335601e198436030181126111cd57600080fd5b83018035915067ffffffffffffffff8211156111e857600080fd5b6020019150368190038213156106fa57600080fd5b60208152600061115b602083018486610fc9565b6000808585111561122157600080fd5b8386111561122e57600080fd5b5050820193919092039150565b6001600160e01b031981358181169160048510156112635780818660040360031b1b83161692505b505092915050565b634e487b7160e01b600052604160045260246000fd5b634e487b7160e01b600052601160045260246000fd5b6000600182016112a9576112a9611281565b5060010190565b818103818111156103aa576103aa61128156fef88ce1fdb7fb1cbd3282e49729100fa3f2d6ee9f797961fe4fb1871cea89ea04a26469706673582212205d42d3b6c4a7f6aab5e88c39867375d15f3b9f26693cebce03e26373fb10307c64736f6c634300081900336080604052348015600f57600080fd5b506102e78061001f6000396000f3fe608060405234801561001057600080fd5b50600436106100365760003560e01c806361e559791461003b578063b3154db014610064575b600080fd5b61004e610049366004610144565b610089565b60405161005b9190610224565b60405180910390f35b61007b610072366004610268565b61053992915050565b60405190815260200161005b565b815160609060008167ffffffffffffffff8111156100a9576100a961012e565b6040519080825280602002602001820160405280156100d2578160200160208202803683370190505b50905060005b82811015610108576104d28282815181106100f5576100f561029b565b60209081029190910101526001016100d8565b5095945050505050565b80356001600160a01b038116811461012957600080fd5b919050565b634e487b7160e01b600052604160045260246000fd5b60008060006060848603121561015957600080fd5b61016284610112565b925060208085013567ffffffffffffffff8082111561018057600080fd5b818701915087601f83011261019457600080fd5b8135818111156101a6576101a661012e565b8060051b604051601f19603f830116810181811085821117156101cb576101cb61012e565b60405291825284820192508381018501918a8311156101e957600080fd5b938501935b8285101561020e576101ff85610112565b845293850193928501926101ee565b979a979950505050604095909501359450505050565b6020808252825182820181905260009190848201906040850190845b8181101561025c57835183529284019291840191600101610240565b50909695505050505050565b6000806040838503121561027b57600080fd5b61028483610112565b915061029260208401610112565b90509250929050565b634e487b7160e01b600052603260045260246000fdfea2646970667358221220871139d1e5247410800f965252e690f01934e519d5ae4223e023cbb01ced366064736f6c634300081900336080604052348015600f57600080fd5b506109c68061001f6000396000f3fe608060405234801561001057600080fd5b50600436106100625760003560e01c80636d61fe70146102dc5780638a91b0e3146102f1578063a81fca7214610303578063cad1f3a014610316578063d60b347f14610368578063ecd059611461038c575b600036606060188210156100bd5760405162461bcd60e51b815260206004820152601760248201527f696e76616c6964206d6574686f642073656c6563746f7200000000000000000060448201526064015b60405180910390fd5b336000908152602081815260408083206001600160e01b0319843516845290915280822081518083019092528054829060ff166001811115610101576101016104f8565b6001811115610112576101126104f8565b815290546001600160a01b0361010090910481166020928301529082015191925060131936013560601c911661017b5760405162461bcd60e51b815260206004820152600e60248201526d125b9d985b1a590813595d1a1bd960921b60448201526064016100b4565b600082516001811115610190576101906104f8565b036102335760208201516001600160a01b03166325d6803f338360008080366101ba60148261050e565b926101c793929190610535565b6040518663ffffffff1660e01b81526004016101e795949392919061055f565b600060405180830381865afa158015610204573d6000803e3d6000fd5b505050506040513d6000823e601f3d908101601f1916820160405261022c91908101906105fa565b92506102cf565b60208201516001600160a01b03166325d6803f3383600080803661025860148261050e565b9261026593929190610535565b6040518663ffffffff1660e01b815260040161028595949392919061055f565b6000604051808303816000875af11580156102a4573d6000803e3d6000fd5b505050506040513d6000823e601f3d908101601f191682016040526102cc91908101906105fa565b92505b5050915050805190602001f35b6102ef6102ea3660046106a6565b6103a0565b005b6102ef6102ff3660046106a6565b5050565b6102ef6103113660046107c1565b6103fd565b6103516103243660046107e4565b600060208181529281526040808220909352908152205460ff81169061010090046001600160a01b031682565b60405161035f929190610839565b60405180910390f35b61037c61037636600461085f565b50600090565b604051901515815260200161035f565b61037c61039a36600461087a565b60031490565b60008190036103ad575050565b60006103bb82840184610893565b805190915060005b818110156103f6576103ee338483815181106103e1576103e1610943565b602002602001015161040a565b6001016103c3565b5050505050565b610407338261040a565b50565b60405180604001604052808260200151600181111561042b5761042b6104f8565b81526040808401516001600160a01b039081166020938401528516600090815280835281812085516001600160e01b0319168252909252902081518154829060ff191660018381811115610481576104816104f8565b02179055506020918201518154610100600160a81b0319166101006001600160a01b0392831602179091558251918301516040808501519051928616937fe77ab6b9b19bf67d57dc56c9a8aaabfe43bdf94594a6c248d6e135cf719205bc936104ec93919290610959565b60405180910390a25050565b634e487b7160e01b600052602160045260246000fd5b8181038181111561052f57634e487b7160e01b600052601160045260246000fd5b92915050565b6000808585111561054557600080fd5b8386111561055257600080fd5b5050820193919092039150565b6001600160a01b038681168252851660208201526040810184905260806060820181905281018290526000828460a0840137600060a0848401015260a0601f19601f85011683010190509695505050505050565b634e487b7160e01b600052604160045260246000fd5b604051601f8201601f1916810167ffffffffffffffff811182821017156105f2576105f26105b3565b604052919050565b6000602080838503121561060d57600080fd5b825167ffffffffffffffff8082111561062557600080fd5b818501915085601f83011261063957600080fd5b81518181111561064b5761064b6105b3565b61065d601f8201601f191685016105c9565b9150808252868482850101111561067357600080fd5b60005b81811015610691578381018501518382018601528401610676565b50600090820190930192909252509392505050565b600080602083850312156106b957600080fd5b823567ffffffffffffffff808211156106d157600080fd5b818501915085601f8301126106e557600080fd5b8135818111156106f457600080fd5b86602082850101111561070657600080fd5b60209290920196919550909350505050565b80356001600160e01b03198116811461073057600080fd5b919050565b80356001600160a01b038116811461073057600080fd5b60006060828403121561075e57600080fd5b6040516060810181811067ffffffffffffffff82111715610781576107816105b3565b60405290508061079083610718565b81526020830135600281106107a457600080fd5b60208201526107b560408401610735565b60408201525092915050565b6000606082840312156107d357600080fd5b6107dd838361074c565b9392505050565b600080604083850312156107f757600080fd5b61080083610735565b915061080e60208401610718565b90509250929050565b6002811061083557634e487b7160e01b600052602160045260246000fd5b9052565b604081016108478285610817565b6001600160a01b039290921660209190910152919050565b60006020828403121561087157600080fd5b6107dd82610735565b60006020828403121561088c57600080fd5b5035919050565b600060208083850312156108a657600080fd5b823567ffffffffffffffff808211156108be57600080fd5b818501915085601f8301126108d257600080fd5b8135818111156108e4576108e46105b3565b6108f2848260051b016105c9565b8181528481019250606091820284018501918883111561091157600080fd5b938501935b8285101561093757610928898661074c565b84529384019392850192610916565b50979650505050505050565b634e487b7160e01b600052603260045260246000fd5b6001600160e01b031984168152606081016109776020830185610817565b6001600160a01b0392909216604091909101529291505056fea26469706673582212208c9ddcde41de546b02fea2f82c4e2ac977e7476416d73a4c637826a04e0d102364736f6c6343000819003360a0604052604051600e9060a1565b604051809103906000f0801580156029573d6000803e3d6000fd5b506001600160a01b039081166080526040805180820182526000808252825180840190935280835260208381019182528201839052905160048054919094166001600160a01b0319918216179093559051600555516006556008805490911630179055348015609757600080fd5b50600160025560ae565b6102128061440283390190565b60805161433c6100c66000396000505061433c6000f3fe6080604052600436106101435760003560e01c8063765e827f116100b6578063bb9fe6bf1161006f578063bb9fe6bf146104f4578063c23a5cea14610509578063c3bce00914610529578063dbed18e014610556578063ee5a97c814610576578063fc7e286d146105b957600080fd5b8063765e827f14610434578063850aaf6214610454578063957122ab1461047457806397b2dcb9146104945780639b249f69146104c1578063b760faf9146104e157600080fd5b80631b2e01b8116101085780631b2e01b81461020e578063205c28781461024657806322cdde4c1461026657806335567e1a146102865780635287ce12146102e657806370a08231146103fe57600080fd5b806242dc531461015857806301ffc9a71461018b5780630396cb60146101bb5780630bd28e3b146101ce57806319ab453c146101ee57600080fd5b366101535761015133610661565b005b600080fd5b34801561016457600080fd5b5061017861017336600461354c565b610682565b6040519081526020015b60405180910390f35b34801561019757600080fd5b506101ab6101a6366004613611565b61084e565b6040519015158152602001610182565b6101516101c936600461363b565b6108d6565b3480156101da57600080fd5b506101516101e9366004613678565b610b65565b3480156101fa57600080fd5b50610151610209366004613693565b610b9c565b34801561021a57600080fd5b506101786102293660046136b0565b600160209081526000928352604080842090915290825290205481565b34801561025257600080fd5b506101516102613660046136e5565b610bc2565b34801561027257600080fd5b5061017861028136600461372a565b610d13565b34801561029257600080fd5b506101786102a13660046136b0565b6001600160a01b03821660009081526001602090815260408083206001600160c01b038516845290915290819020549082901b67ffffffffffffffff19161792915050565b3480156102f257600080fd5b506103a3610301366004613693565b6040805160a081018252600080825260208201819052918101829052606081018290526080810191909152506001600160a01b031660009081526020818152604091829020825160a0810184528154815260019091015460ff811615159282019290925261010082046001600160701b031692810192909252600160781b810463ffffffff166060830152600160981b900465ffffffffffff16608082015290565b6040516101829190600060a082019050825182526020830151151560208301526001600160701b03604084015116604083015263ffffffff606084015116606083015265ffffffffffff608084015116608083015292915050565b34801561040a57600080fd5b50610178610419366004613693565b6001600160a01b031660009081526020819052604090205490565b34801561044057600080fd5b5061015161044f3660046137a2565b610d55565b34801561046057600080fd5b5061015161046f3660046137f8565b610ed1565b34801561048057600080fd5b5061015161048f36600461384c565b610f50565b3480156104a057600080fd5b506104b46104af3660046138d0565b61104d565b6040516101829190613981565b3480156104cd57600080fd5b506101516104dc3660046139d0565b61117f565b6101516104ef366004613693565b610661565b34801561050057600080fd5b5061015161122a565b34801561051557600080fd5b50610151610524366004613693565b61135e565b34801561053557600080fd5b5061054961054436600461372a565b611582565b6040516101829190613a11565b34801561056257600080fd5b506101516105713660046137a2565b611738565b34801561058257600080fd5b506101786105913660046136e5565b6001600160a01b03919091166000908152600360209081526040808320938352929052205490565b3480156105c557600080fd5b5061061e6105d4366004613693565b6000602081905290815260409020805460019091015460ff81169061010081046001600160701b031690600160781b810463ffffffff1690600160981b900465ffffffffffff1685565b6040805195865293151560208601526001600160701b039092169284019290925263ffffffff909116606083015265ffffffffffff16608082015260a001610182565b60015b600581101561067557600101610664565b61067e82611b51565b5050565b6000805a90503330146106dc5760405162461bcd60e51b815260206004820152601760248201527f4141393220696e7465726e616c2063616c6c206f6e6c7900000000000000000060448201526064015b60405180910390fd5b8451606081015160a082015181016127100160405a603f028161070157610701613ae4565b0410156107195763deaddead60e01b60005260206000fd5b8751600090156107ee5760005a9050600061073b856000015160008d87611b9a565b9050610778856000015160025a6107529086613b10565b6001600160a01b0390921660009081526003602090815260408083209383529290522055565b806107eb57600061078a610800611bb2565b8051909150156107e55785600001516001600160a01b03168b602001517f1c4fada7374c0a9ee8841fc38afe82932dc0f8e69012e927f061a8bae611a2018860200151846040516107dc929190613b23565b60405180910390a35b60019350505b50505b600088608001515a860301905061083e828a8a8a8080601f016020809104026020016040519081016040528093929190818152602001838380828437600092019190915250879250611bde915050565b955050505050505b949350505050565b60006001600160e01b0319821663307e35b760e11b148061087f57506001600160e01b0319821663122a0e9b60e31b145b8061089a57506001600160e01b0319821663cf28ef9760e01b145b806108b557506001600160e01b03198216633e84f02160e01b145b806108d057506301ffc9a760e01b6001600160e01b03198316145b92915050565b33600090815260208190526040902063ffffffff82166109385760405162461bcd60e51b815260206004820152601a60248201527f6d757374207370656369667920756e7374616b652064656c617900000000000060448201526064016106d3565b600181015463ffffffff600160781b9091048116908316101561099d5760405162461bcd60e51b815260206004820152601c60248201527f63616e6e6f7420646563726561736520756e7374616b652074696d650000000060448201526064016106d3565b60018101546000906109be90349061010090046001600160701b0316613b3c565b905060008111610a055760405162461bcd60e51b81526020600482015260126024820152711b9bc81cdd185ad9481cdc1958da599a595960721b60448201526064016106d3565b6001600160701b03811115610a4d5760405162461bcd60e51b815260206004820152600e60248201526d7374616b65206f766572666c6f7760901b60448201526064016106d3565b6040805160a08101825283548152600160208083018281526001600160701b0386811685870190815263ffffffff8a811660608801818152600060808a0181815233808352828a52918c90209a518b55965199909801805494519151965165ffffffffffff16600160981b0265ffffffffffff60981b1997909416600160781b029690961669ffffffffffffffffffff60781b1991909516610100026effffffffffffffffffffffffffff0019991515999099166effffffffffffffffffffffffffffff1990941693909317979097179190911691909117179055835185815290810192909252917fa5ae833d0bb1dcd632d98a8b70973e8516812898e19bf27b70071ebc8dc52c01910160405180910390a2505050565b3360009081526001602090815260408083206001600160c01b03851684529091528120805491610b9483613b4f565b919050555050565b600880546001600160a01b0319166001600160a01b038316179055610bbf611da1565b50565b3360009081526020819052604090208054821115610c225760405162461bcd60e51b815260206004820152601960248201527f576974686472617720616d6f756e7420746f6f206c617267650000000000000060448201526064016106d3565b8054610c2f908390613b10565b8155604080516001600160a01b03851681526020810184905233917fd1c19fbcd4551a5edfb66d43d2e337c04837afda3482b42bdf569a8fccdae5fb910160405180910390a26000836001600160a01b03168360405160006040518083038185875af1925050503d8060008114610cc2576040519150601f19603f3d011682016040523d82523d6000602084013e610cc7565b606091505b5050905080610d0d5760405162461bcd60e51b81526020600482015260126024820152716661696c656420746f20776974686472617760701b60448201526064016106d3565b50505050565b6000610d1e82611e16565b6040805160208101929092523090820152466060820152608001604051602081830303815290604052805190602001209050919050565b610d5d611e2f565b816000816001600160401b03811115610d7857610d78613346565b604051908082528060200260200182016040528015610db157816020015b610d9e6131c1565b815260200190600190039081610d965790505b50905060005b82811015610e2a576000828281518110610dd357610dd3613b68565b60200260200101519050600080610e0e848a8a87818110610df657610df6613b68565b9050602002810190610e089190613b7e565b85611e57565b91509150610e1f848383600061205d565b505050600101610db7565b506040516000907fbb47ee3e183a558b1a2ff0874b079f3fc5478b7454eacf2bfc5af2ff5878f972908290a160005b83811015610eb457610ea881888884818110610e7757610e77613b68565b9050602002810190610e899190613b7e565b858481518110610e9b57610e9b613b68565b60200260200101516121f9565b90910190600101610e59565b50610ebf84826124b5565b505050610ecc6001600255565b505050565b600080846001600160a01b03168484604051610eee929190613b9f565b600060405180830381855af49150503d8060008114610f29576040519150601f19603f3d011682016040523d82523d6000602084013e610f2e565b606091505b50915091508181604051632650415560e21b81526004016106d3929190613baf565b83158015610f6657506001600160a01b0383163b155b15610fb35760405162461bcd60e51b815260206004820152601960248201527f41413230206163636f756e74206e6f74206465706c6f7965640000000000000060448201526064016106d3565b6014811061102b576000610fca6014828486613bca565b610fd391613bf4565b60601c9050803b6000036110295760405162461bcd60e51b815260206004820152601b60248201527f41413330207061796d6173746572206e6f74206465706c6f796564000000000060448201526064016106d3565b505b60405162461bcd60e51b815260206004820152600060248201526044016106d3565b6110886040518060c0016040528060008152602001600081526020016000815260200160008152602001600015158152602001606081525090565b611090611e2f565b6110986131c1565b6110a1866125ae565b6000806110b060008985611e57565b9150915060006110c260008a866121f9565b9050600060606001600160a01b038a161561113a57896001600160a01b031689896040516110f1929190613b9f565b6000604051808303816000865af19150503d806000811461112e576040519150601f19603f3d011682016040523d82523d6000602084013e611133565b606091505b5090925090505b6040518060c001604052808760800151815260200184815260200186815260200185815260200183151581526020018281525096505050505050506108466001600255565b60006111936009546001600160a01b031690565b6001600160a01b031663570e1a3684846040518363ffffffff1660e01b81526004016111c0929190613c52565b6020604051808303816000875af11580156111df573d6000803e3d6000fd5b505050506040513d601f19601f820116820180604052508101906112039190613c66565b604051633653dc0360e11b81526001600160a01b03821660048201529091506024016106d3565b33600090815260208190526040812060018101549091600160781b90910463ffffffff1690036112895760405162461bcd60e51b815260206004820152600a6024820152691b9bdd081cdd185ad95960b21b60448201526064016106d3565b600181015460ff166112d15760405162461bcd60e51b8152602060048201526011602482015270616c726561647920756e7374616b696e6760781b60448201526064016106d3565b60018101546000906112f090600160781b900463ffffffff1642613c83565b60018301805460ff65ffffffffffff60981b011916600160981b65ffffffffffff841690810260ff19169190911790915560405190815290915033907ffa9b3c14cc825c412c9ed81b3ba365a5b459439403f18829e572ed53a4180f0a906020015b60405180910390a25050565b336000908152602081905260409020600181015461010090046001600160701b0316806113c45760405162461bcd60e51b81526020600482015260146024820152734e6f207374616b6520746f20776974686472617760601b60448201526064016106d3565b6001820154600160981b900465ffffffffffff166114245760405162461bcd60e51b815260206004820152601d60248201527f6d7573742063616c6c20756e6c6f636b5374616b65282920666972737400000060448201526064016106d3565b600182015442600160981b90910465ffffffffffff1611156114885760405162461bcd60e51b815260206004820152601b60248201527f5374616b65207769746864726177616c206973206e6f7420647565000000000060448201526064016106d3565b600182018054610100600160c81b0319169055604080516001600160a01b03851681526020810183905233917fb7c918e0e249f999e965cafeb6c664271b3f4317d296461500e71da39f0cbda3910160405180910390a26000836001600160a01b03168260405160006040518083038185875af1925050503d806000811461152c576040519150601f19603f3d011682016040523d82523d6000602084013e611531565b606091505b5050905080610d0d5760405162461bcd60e51b815260206004820152601860248201527f6661696c656420746f207769746864726177207374616b65000000000000000060448201526064016106d3565b61158a613259565b6115926131c1565b61159b836125ae565b6000806115aa60008685611e57565b9150915060006115c1846000015160e00151612688565b8451519091506000906115d390612688565b90506115f2604051806040016040528060008152602001600081525090565b36600061160260408b018b613ca9565b909250905060006014821015611619576000611634565b611627601460008486613bca565b61163091613bf4565b60601c5b905061163f81612688565b9350505050600085905060006040518060a0016040528089608001518152602001896040015181526020018881526020018781526020016116818a6060015190565b90526040805180820182526004546001600160a01b039081168252825180840190935260055483526006546020848101919091528201929092529192508316158015906116d857506001836001600160a01b031614155b15611705576040518060400160405280846001600160a01b0316815260200161170085612688565b905290505b6040805160a081018252928352602083019590955293810192909252506060810192909252608082015295945050505050565b611740611e2f565b816000805b828110156118ad573686868381811061176057611760613b68565b90506020028101906117729190613cef565b90503660006117818380613d05565b909250905060006117986040850160208601613693565b90506000196001600160a01b038216016117f45760405162461bcd60e51b815260206004820152601760248201527f4141393620696e76616c69642061676772656761746f7200000000000000000060448201526064016106d3565b6001600160a01b03811615611891576001600160a01b038116632dd8113384846118216040890189613ca9565b6040518563ffffffff1660e01b81526004016118409493929190613e72565b60006040518083038186803b15801561185857600080fd5b505afa925050508015611869575060015b6118915760405163086a9f7560e41b81526001600160a01b03821660048201526024016106d3565b61189b8287613b3c565b95505060019093019250611745915050565b506000816001600160401b038111156118c8576118c8613346565b60405190808252806020026020018201604052801561190157816020015b6118ee6131c1565b8152602001906001900390816118e65790505b5090506000805b848110156119de573688888381811061192357611923613b68565b90506020028101906119359190613cef565b90503660006119448380613d05565b9092509050600061195b6040850160208601613693565b90508160005b818110156119cc57600089898151811061197d5761197d613b68565b602002602001015190506000806119a08b898987818110610df657610df6613b68565b915091506119b08483838961205d565b8a6119ba81613b4f565b9b505060019093019250611961915050565b50506001909401935061190892505050565b506040517fbb47ee3e183a558b1a2ff0874b079f3fc5478b7454eacf2bfc5af2ff5878f97290600090a150600080805b85811015611b0c5736898983818110611a2957611a29613b68565b9050602002810190611a3b9190613cef565b9050611a4d6040820160208301613693565b6001600160a01b03167f575ff3acadd5ab348fe1855e217e0f3678f8d767d7494c9f9fefbee2e17cca4d60405160405180910390a2366000611a8f8380613d05565b90925090508060005b81811015611afb57611ada88858584818110611ab657611ab6613b68565b9050602002810190611ac89190613b7e565b8b8b81518110610e9b57610e9b613b68565b611ae49088613b3c565b965087611af081613b4f565b985050600101611a98565b505060019093019250611a0e915050565b506040516000907f575ff3acadd5ab348fe1855e217e0f3678f8d767d7494c9f9fefbee2e17cca4d908290a2611b4286826124b5565b5050505050610ecc6001600255565b6000611b5d82346126da565b9050816001600160a01b03167f2da466a7b24304f47e87fa2e1e5a81b9831ce54fec19055ce277ca2f39ba42c48260405161135291815260200190565b6000806000845160208601878987f195945050505050565b60603d82811115611bc05750815b604051602082018101604052818152816000602083013e9392505050565b6000805a855190915060009081611bf48261270d565b60e08301519091506001600160a01b038116611c135782519350611ccf565b809350600088511115611ccf57868202955060028a6002811115611c3957611c39613eef565b14611ccf5760a0830151604051637c627b2160e01b81526001600160a01b03831691637c627b2191611c75908e908d908c908990600401613f05565b600060405180830381600088803b158015611c8f57600080fd5b5087f193505050508015611ca1575060015b611ccf576000611cb2610800611bb2565b905080604051632b5e552f60e21b81526004016106d39190613f4f565b5a60a0840151606085015160808c015192880399909901980190880380821115611d02576064600a828403020498909801975b50506040890151878302965086811015611d5e5760028b6002811115611d2a57611d2a613eef565b03611d4d57809650611d3b8a612737565b611d488a6000898b612786565b611d93565b63deadaa5160e01b60005260206000fd5b868103611d6b86826126da565b506000808d6002811115611d8157611d81613eef565b149050611d908c828b8d612786565b50505b505050505050949350505050565b6008546040516135a560f21b602082015260609190911b6bffffffffffffffffffffffff19166022820152600160f81b603682015260009060370160408051808303601f190181529190528051602090910120600980546001600160a01b0319166001600160a01b0390921691909117905550565b6000611e2182612801565b805190602001209050919050565b6002805403611e5157604051633ee5aeb560e01b815260040160405180910390fd5b60028055565b60008060005a8451909150611e6c86826128b9565b611e7586610d13565b6020860152604081015161012082015161010083015160a08401516080850151606086015160c0870151861717171717176effffffffffffffffffffffffffffff811115611f055760405162461bcd60e51b815260206004820152601860248201527f41413934206761732076616c756573206f766572666c6f77000000000000000060448201526064016106d3565b6000611f348460c081015160a08201516080830151606084015160408501516101009095015194010101010290565b9050611f438a8a8a84876129c7565b9650611f5784600001518560200151612b95565b611fad5789604051631101335b60e11b81526004016106d3918152604060208201819052601a908201527f4141323520696e76616c6964206163636f756e74206e6f6e6365000000000000606082015260800190565b825a860311156120095789604051631101335b60e11b81526004016106d3918152604060208201819052601e908201527f41413236206f76657220766572696669636174696f6e4761734c696d69740000606082015260800190565b60e08401516060906001600160a01b0316156120305761202b8b8b8b85612be2565b975090505b604089018290528060608a015260a08a01355a870301896080018181525050505050505050935093915050565b60008061206985612da0565b91509150816001600160a01b0316836001600160a01b0316146120cf5785604051631101335b60e11b81526004016106d39181526040602082018190526014908201527320a0991a1039b4b3b730ba3ab9329032b93937b960611b606082015260800190565b80156121275785604051631101335b60e11b81526004016106d39181526040602082018190526017908201527f414132322065787069726564206f72206e6f7420647565000000000000000000606082015260800190565b600061213285612da0565b925090506001600160a01b0381161561218e5786604051631101335b60e11b81526004016106d39181526040602082018190526014908201527320a0999a1039b4b3b730ba3ab9329032b93937b960611b606082015260800190565b81156121f05786604051631101335b60e11b81526004016106d39181526040602082018190526021908201527f41413332207061796d61737465722065787069726564206f72206e6f742064756060820152606560f81b608082015260a00190565b50505050505050565b6000805a9050600061220c846060015190565b604051909150600090368261222460608a018a613ca9565b915091506060600082600381111561223b57843591505b506372288ed160e01b6001600160e01b03198216016122e95760008b8b6020015160405160240161226d929190613f62565b60408051601f198184030181529181526020820180516001600160e01b0316638dd7712f60e01b1790525190915030906242dc53906122b49084908f908d9060240161402e565b604051602081830303815290604052915060e01b6020820180516001600160e01b03838183161783525050505092505061233e565b306001600160a01b03166242dc5385858d8b60405160240161230e949392919061406e565b604051602081830303815290604052915060e01b6020820180516001600160e01b03838183161783525050505091505b602060008351602085016000305af195506000519850846040525050505050806124ab5760003d806020036123795760206000803e60005191505b5063deaddead60e01b81036123cc5787604051631101335b60e11b81526004016106d3918152604060208201819052600f908201526e41413935206f7574206f662067617360881b606082015260800190565b63deadaa5160e01b810361241d57600086608001515a6123ec9087613b10565b6123f69190613b3c565b604088015190915061240788612737565b6124148860008385612786565b95506124a99050565b855180516020808901519201516001600160a01b0390911691907ff62676f440ff169a3a9afdbf812e89e7f95975ee8e5c31214ffdef631c5f479290612464610800611bb2565b604051612472929190613b23565b60405180910390a3600086608001515a61248c9087613b10565b6124969190613b3c565b90506124a56002888684611bde565b9550505b505b5050509392505050565b6001600160a01b03821661250b5760405162461bcd60e51b815260206004820152601860248201527f4141393020696e76616c69642062656e6566696369617279000000000000000060448201526064016106d3565b6000826001600160a01b03168260405160006040518083038185875af1925050503d8060008114612558576040519150601f19603f3d011682016040523d82523d6000602084013e61255d565b606091505b5050905080610ecc5760405162461bcd60e51b815260206004820152601f60248201527f41413931206661696c65642073656e6420746f2062656e65666963696172790060448201526064016106d3565b6125b6611da1565b3063957122ab6125c96040840184613ca9565b6125d66020860186613693565b6125e360e0870187613ca9565b6040518663ffffffff1660e01b81526004016126039594939291906140a5565b60006040518083038186803b15801561261b57600080fd5b505afa92505050801561262c575060015b610bbf576126386140e7565b806308c379a00361267c575061264c614103565b80612657575061267e565b80511561067e57600081604051631101335b60e11b81526004016106d3929190613b23565b505b3d6000803e3d6000fd5b604080518082018252600080825260208083018281526001600160a01b03959095168252819052919091206001015461010081046001600160701b03168252600160781b900463ffffffff1690915290565b6001600160a01b038216600090815260208190526040812080548290612701908590613b3c565b91829055509392505050565b6101008101516101208201516000919080820361272b575092915050565b61084682488301612df3565b80518051602080840151928101516040519081526001600160a01b0390921692917f67b4fa9642f42120bf031f3051d1824b0fe25627945b27b8a6a65d5761d5482e910160405180910390a350565b835160e081015181516020808801519301516040516001600160a01b039384169492909316927f49628fd1471006c1482da88028e9ce4dbb080b815c9b0344d39e5a8e6ec1419f916127f39189908990899093845291151560208401526040830152606082015260800190565b60405180910390a450505050565b606081356020830135600061282161281c6040870187613ca9565b612e0b565b9050600061283561281c6060880188613ca9565b9050608086013560a087013560c0880135600061285861281c60e08c018c613ca9565b604080516001600160a01b039a909a1660208b015289810198909852606089019690965250608087019390935260a086019190915260c085015260e08401526101008084019190915281518084039091018152610120909201905292915050565b6128c66020830183613693565b6001600160a01b03168152602082810135908201526001600160801b036080808401358281166060850152811c604084015260a084013560c0808501919091528401359182166101008401521c61012082015236600061292960e0850185613ca9565b909250905080156129ac5760348110156129855760405162461bcd60e51b815260206004820152601d60248201527f4141393320696e76616c6964207061796d6173746572416e644461746100000060448201526064016106d3565b61298f8282612e1e565b60a086015260808501526001600160a01b031660e0840152610d0d565b600060e084018190526080840181905260a084015250505050565b82518051600091906129e688876129e160408b018b613ca9565b612e86565b60e082015160006001600160a01b038216612a2a576001600160a01b038316600090815260208190526040902054878111612a2357808803612a26565b60005b9150505b60005a60208a01516040516306608bdf60e21b81529192506001600160a01b038616916319822f7c918a91612a65918f91889060040161418c565b60206040518083038160008887f193505050508015612aa1575060408051601f3d908101601f19168201909252612a9e918101906141b1565b60015b612acc578a612ab1610800611bb2565b6040516365c8fd4d60e01b81526004016106d39291906141ca565b809650612afe8560015a85036001600160a01b0390921660009081526003602090815260408083209383529290522055565b506001600160a01b038316612b87576001600160a01b03841660009081526020819052604090208054808a1115612b81578c604051631101335b60e11b81526004016106d39181526040602082018190526017908201527f41413231206469646e2774207061792070726566756e64000000000000000000606082015260800190565b89900390555b505050505095945050505050565b6001600160a01b038216600090815260016020908152604080832084821c80855292528220805484916001600160401b038316919085612bd483613b4f565b909155501495945050505050565b60606000805a855160e08101516001600160a01b03811660009081526020819052604090208054939450919290919087811015612c6b578a604051631101335b60e11b81526004016106d3918152604060208201819052601e908201527f41413331207061796d6173746572206465706f73697420746f6f206c6f770000606082015260800190565b8781038260000181905550600084608001519050836001600160a01b03166352b7512c828d8d602001518d6040518563ffffffff1660e01b8152600401612cb49392919061418c565b60006040518083038160008887f193505050508015612cf557506040513d6000823e601f3d908101601f19168201604052612cf29190810190614207565b60015b612d20578b612d05610800611bb2565b6040516365c8fd4d60e01b81526004016106d3929190614292565b9098509650805a87031115612d91578b604051631101335b60e11b81526004016106d39181526040602082018190526027908201527f41413336206f766572207061796d6173746572566572696669636174696f6e47606082015266185cd31a5b5a5d60ca1b608082015260a00190565b50505050505094509492505050565b60008082600003612db657506000928392509050565b6000612dc184613150565b9050806040015165ffffffffffff16421180612de85750806020015165ffffffffffff1642105b905194909350915050565b6000818310612e025781612e04565b825b9392505050565b6000604051828085833790209392505050565b60008080612e2f6014828688613bca565b612e3891613bf4565b60601c612e49602460148789613bca565b612e52916142cf565b60801c612e6360346024888a613bca565b612e6c916142cf565b9194506001600160801b0316925060801c90509250925092565b8015610d0d578251516001600160a01b0381163b15612ef15784604051631101335b60e11b81526004016106d3918152604060208201819052601f908201527f414131302073656e64657220616c726561647920636f6e737472756374656400606082015260800190565b60005a90506000612f0a6009546001600160a01b031690565b6001600160a01b031663570e1a3687600001516040015187876040518463ffffffff1660e01b8152600401612f40929190613c52565b60206040518083038160008887f1158015612f5f573d6000803e3d6000fd5b50505050506040513d601f19601f82011682018060405250810190612f849190613c66565b9050612f978360005a6107529086613b10565b6001600160a01b038116612ff75786604051631101335b60e11b81526004016106d3918152604060208201819052601b908201527f4141313320696e6974436f6465206661696c6564206f72204f4f470000000000606082015260800190565b826001600160a01b0316816001600160a01b0316146130615786604051631101335b60e11b81526004016106d391815260406020808301829052908201527f4141313420696e6974436f6465206d7573742072657475726e2073656e646572606082015260800190565b806001600160a01b03163b6000036130c45786604051631101335b60e11b81526004016106d391815260406020808301829052908201527f4141313520696e6974436f6465206d757374206372656174652073656e646572606082015260800190565b60006130d36014828789613bca565b6130dc91613bf4565b60601c9050836001600160a01b031687602001517fd51a9c61267aa6196961883ecf5ff2da6619c37dac0fa92122513fb32c032d2d838a6000015160e0015160405161313e9291906001600160a01b0392831681529116602082015260400190565b60405180910390a35050505050505050565b60408051606081018252600080825260208201819052918101919091528160a081901c65ffffffffffff811660000361318c575065ffffffffffff5b604080516060810182526001600160a01b03909316835260d09490941c602083015265ffffffffffff16928101929092525090565b6040518060a0016040528061323460405180610140016040528060006001600160a01b0316815260200160008152602001600081526020016000815260200160008152602001600081526020016000815260200160006001600160a01b0316815260200160008152602001600081525090565b8152602001600080191681526020016000815260200160008152602001600081525090565b6040518060a001604052806132966040518060a0016040528060008152602001600081526020016000815260200160008152602001606081525090565b81526020016132b8604051806040016040528060008152602001600081525090565b81526020016132da604051806040016040528060008152602001600081525090565b81526020016132fc604051806040016040528060008152602001600081525090565b815260200161330961330e565b905290565b604051806040016040528060006001600160a01b03168152602001613309604051806040016040528060008152602001600081525090565b634e487b7160e01b600052604160045260246000fd5b60a081018181106001600160401b038211171561337b5761337b613346565b60405250565b601f8201601f191681016001600160401b03811182821017156133a6576133a6613346565b6040525050565b60405161014081016001600160401b03811182821017156133d0576133d0613346565b60405290565b60006001600160401b038211156133ef576133ef613346565b50601f01601f191660200190565b6001600160a01b0381168114610bbf57600080fd5b803561341d816133fd565b919050565b60008183036101c081121561343657600080fd5b6040516134428161335c565b8092506101408083121561345557600080fd5b61345d6133ad565b925061346885613412565b83526020850135602084015260408501356040840152606085013560608401526080850135608084015260a085013560a084015260c085013560c08401526134b260e08601613412565b60e084015261010085810135908401526101208086013590840152918152908301356020820152610160830135604082015261018083013560608201526101a090920135608090920191909152919050565b60008083601f84011261351657600080fd5b5081356001600160401b0381111561352d57600080fd5b60208301915083602082850101111561354557600080fd5b9250929050565b600080600080610200858703121561356357600080fd5b84356001600160401b038082111561357a57600080fd5b818701915087601f83011261358e57600080fd5b8135613599816133d6565b6040516135a68282613381565b8281528a60208487010111156135bb57600080fd5b826020860160208301376000602084830101528098505050506135e18860208901613422565b94506101e08701359150808211156135f857600080fd5b5061360587828801613504565b95989497509550505050565b60006020828403121561362357600080fd5b81356001600160e01b031981168114612e0457600080fd5b60006020828403121561364d57600080fd5b813563ffffffff81168114612e0457600080fd5b80356001600160c01b038116811461341d57600080fd5b60006020828403121561368a57600080fd5b612e0482613661565b6000602082840312156136a557600080fd5b8135612e04816133fd565b600080604083850312156136c357600080fd5b82356136ce816133fd565b91506136dc60208401613661565b90509250929050565b600080604083850312156136f857600080fd5b8235613703816133fd565b946020939093013593505050565b6000610120828403121561372457600080fd5b50919050565b60006020828403121561373c57600080fd5b81356001600160401b0381111561375257600080fd5b61084684828501613711565b60008083601f84011261377057600080fd5b5081356001600160401b0381111561378757600080fd5b6020830191508360208260051b850101111561354557600080fd5b6000806000604084860312156137b757600080fd5b83356001600160401b038111156137cd57600080fd5b6137d98682870161375e565b90945092505060208401356137ed816133fd565b809150509250925092565b60008060006040848603121561380d57600080fd5b8335613818816133fd565b925060208401356001600160401b0381111561383357600080fd5b61383f86828701613504565b9497909650939450505050565b60008060008060006060868803121561386457600080fd5b85356001600160401b038082111561387b57600080fd5b61388789838a01613504565b90975095506020880135915061389c826133fd565b909350604087013590808211156138b257600080fd5b506138bf88828901613504565b969995985093965092949392505050565b600080600080606085870312156138e657600080fd5b84356001600160401b03808211156138fd57600080fd5b61390988838901613711565b95506020870135915061391b826133fd565b909350604086013590808211156135f857600080fd5b60005b8381101561394c578181015183820152602001613934565b50506000910152565b6000815180845261396d816020860160208601613931565b601f01601f19169290920160200192915050565b60208152815160208201526020820151604082015260408201516060820152606082015160808201526080820151151560a0820152600060a083015160c08084015261084660e0840182613955565b600080602083850312156139e357600080fd5b82356001600160401b038111156139f957600080fd5b613a0585828601613504565b90969095509350505050565b602080825282516101408383015280516101608401529081015161018083015260408101516101a083015260608101516101c08301526080015160a06101e0830152600090613a64610200840182613955565b90506020840151613a82604085018280518252602090810151910152565b506040840151805160808581019190915260209182015160a08601526060860151805160c087015282015160e086015285015180516001600160a01b031661010086015280820151805161012087015290910151610140850152509392505050565b634e487b7160e01b600052601260045260246000fd5b634e487b7160e01b600052601160045260246000fd5b818103818111156108d0576108d0613afa565b8281526040602082015260006108466040830184613955565b808201808211156108d0576108d0613afa565b600060018201613b6157613b61613afa565b5060010190565b634e487b7160e01b600052603260045260246000fd5b6000823561011e19833603018112613b9557600080fd5b9190910192915050565b8183823760009101908152919050565b82151581526040602082015260006108466040830184613955565b60008085851115613bda57600080fd5b83861115613be757600080fd5b5050820193919092039150565b6bffffffffffffffffffffffff198135818116916014851015613c215780818660140360031b1b83161692505b505092915050565b81835281816020850137506000828201602090810191909152601f909101601f19169091010190565b602081526000610846602083018486613c29565b600060208284031215613c7857600080fd5b8151612e04816133fd565b65ffffffffffff818116838216019080821115613ca257613ca2613afa565b5092915050565b6000808335601e19843603018112613cc057600080fd5b8301803591506001600160401b03821115613cda57600080fd5b60200191503681900382131561354557600080fd5b60008235605e19833603018112613b9557600080fd5b6000808335601e19843603018112613d1c57600080fd5b8301803591506001600160401b03821115613d3657600080fd5b6020019150600581901b360382131561354557600080fd5b6000808335601e19843603018112613d6557600080fd5b83016020810192503590506001600160401b03811115613d8457600080fd5b80360382131561354557600080fd5b6000610120613db284613da585613412565b6001600160a01b03169052565b60208301356020850152613dc96040840184613d4e565b826040870152613ddc8387018284613c29565b92505050613ded6060840184613d4e565b8583036060870152613e00838284613c29565b925050506080830135608085015260a083013560a085015260c083013560c0850152613e2f60e0840184613d4e565b85830360e0870152613e42838284613c29565b92505050610100613e5581850185613d4e565b86840383880152613e67848284613c29565b979650505050505050565b6040808252810184905260006060600586901b830181019083018783805b89811015613ed857868503605f190184528235368c900361011e19018112613eb6578283fd5b613ec2868d8301613d93565b9550506020938401939290920191600101613e90565b505050508281036020840152613e67818587613c29565b634e487b7160e01b600052602160045260246000fd5b600060038610613f2557634e487b7160e01b600052602160045260246000fd5b85825260806020830152613f3c6080830186613955565b6040830194909452506060015292915050565b602081526000612e046020830184613955565b604081526000613f756040830185613d93565b90508260208301529392505050565b805180516001600160a01b031683526020810151602084015260408101516040840152606081015160608401526080810151608084015260a081015160a084015260c081015160c084015260e0810151613fe960e08501826001600160a01b03169052565b5061010081810151908401526101209081015190830152602081015161014083015260408101516101608301526060810151610180830152608001516101a090910152565b600061020080835261404281840187613955565b90506140516020840186613f84565b8281036101e08401526140648185613955565b9695505050505050565b60006102008083526140838184018789613c29565b90506140926020840186613f84565b8281036101e0840152613e678185613955565b6060815260006140b9606083018789613c29565b6001600160a01b038616602084015282810360408401526140db818587613c29565b98975050505050505050565b600060033d11156141005760046000803e5060005160e01c5b90565b600060443d10156141115790565b6040516003193d81016004833e81513d6001600160401b03816024840111818411171561414057505050505090565b82850191508151818111156141585750505050505090565b843d87010160208285010111156141725750505050505090565b61418160208286010187613381565b509095945050505050565b60608152600061419f6060830186613d93565b60208301949094525060400152919050565b6000602082840312156141c357600080fd5b5051919050565b82815260606020820152600d60608201526c10504c8cc81c995d995c9d1959609a1b608082015260a06040820152600061084660a0830184613955565b6000806040838503121561421a57600080fd5b82516001600160401b0381111561423057600080fd5b8301601f8101851361424157600080fd5b805161424c816133d6565b6040516142598282613381565b82815287602084860101111561426e57600080fd5b61427f836020830160208701613931565b6020969096015195979596505050505050565b82815260606020820152600d60608201526c10504cccc81c995d995c9d1959609a1b608082015260a06040820152600061084660a0830184613955565b6fffffffffffffffffffffffffffffffff198135818116916010851015613c215760109490940360031b84901b169092169291505056fea2646970667358221220cddbcc6dbcdf4b9621a4ce58ac09ae09379be97cb47c581a1b54d8fc7551d0bd64736f6c634300081900336080604052348015600f57600080fd5b506101f38061001f6000396000f3fe608060405234801561001057600080fd5b506004361061002b5760003560e01c8063570e1a3614610030575b600080fd5b61004361003e3660046100ec565b61005f565b6040516001600160a01b03909116815260200160405180910390f35b60008061006f601482858761015e565b61007891610188565b60601c9050600061008c846014818861015e565b8080601f016020809104026020016040519081016040528093929190818152602001838380828437600092018290525084519495509360209350849250905082850182875af190506000519350806100e357600093505b50505092915050565b600080602083850312156100ff57600080fd5b823567ffffffffffffffff8082111561011757600080fd5b818501915085601f83011261012b57600080fd5b81358181111561013a57600080fd5b86602082850101111561014c57600080fd5b60209290920196919550909350505050565b6000808585111561016e57600080fd5b8386111561017b57600080fd5b5050820193919092039150565b6bffffffffffffffffffffffff1981358181169160148510156101b55780818660140360031b1b83161692505b50509291505056fea26469706673582212206dd015fe08730e548712d9aed746bc746c40cd40536c5da0df321e61dc56f3a964736f6c634300081900330000000000000000000000007109709ecfa91a80626ff3989d68f67f5b1dd12d","linkReferences":{}},"methodIdentifiers":{"_makeBootstrapConfig(address,bytes)":"7967ae11","accountFactory()":"687cd9c1","auxiliary()":"cb802c55","bytes32ToString(bytes32)":"9201de55","defaultValidator()":"94e2c9e3","makeBootstrapConfig(address,bytes)":"811fc0dc","makeBootstrapConfig(address[],bytes[])":"619f811c"},"id":198}