{"abi":[{"type":"function","name":"check","inputs":[{"name":"executor","type":"address","internalType":"address"},{"name":"trustedAuthority","type":"address","internalType":"address"}],"outputs":[{"name":"listedAt","type":"uint256","internalType":"uint256"}],"stateMutability":"view"},{"type":"function","name":"checkN","inputs":[{"name":"module","type":"address","internalType":"address"},{"name":"attesters","type":"address[]","internalType":"address[]"},{"name":"threshold","type":"uint256","internalType":"uint256"}],"outputs":[{"name":"","type":"uint256[]","internalType":"uint256[]"}],"stateMutability":"view"}],"bytecode":{"object":"0x6080604052348015600f57600080fd5b506102e78061001f6000396000f3fe608060405234801561001057600080fd5b50600436106100365760003560e01c806361e559791461003b578063b3154db014610064575b600080fd5b61004e610049366004610144565b610089565b60405161005b9190610224565b60405180910390f35b61007b610072366004610268565b61053992915050565b60405190815260200161005b565b815160609060008167ffffffffffffffff8111156100a9576100a961012e565b6040519080825280602002602001820160405280156100d2578160200160208202803683370190505b50905060005b82811015610108576104d28282815181106100f5576100f561029b565b60209081029190910101526001016100d8565b5095945050505050565b80356001600160a01b038116811461012957600080fd5b919050565b634e487b7160e01b600052604160045260246000fd5b60008060006060848603121561015957600080fd5b61016284610112565b925060208085013567ffffffffffffffff8082111561018057600080fd5b818701915087601f83011261019457600080fd5b8135818111156101a6576101a661012e565b8060051b604051601f19603f830116810181811085821117156101cb576101cb61012e565b60405291825284820192508381018501918a8311156101e957600080fd5b938501935b8285101561020e576101ff85610112565b845293850193928501926101ee565b979a979950505050604095909501359450505050565b6020808252825182820181905260009190848201906040850190845b8181101561025c57835183529284019291840191600101610240565b50909695505050505050565b6000806040838503121561027b57600080fd5b61028483610112565b915061029260208401610112565b90509250929050565b634e487b7160e01b600052603260045260246000fdfea2646970667358221220943666d4201edc40e4df505bf7da79a17cce1c016f28222fcc21261db121c32764736f6c63430008190033","linkReferences":{}},"methodIdentifiers":{"check(address,address)":"b3154db0","checkN(address,address[],uint256)":"61e55979"},"id":81}