{"abi":[{"type":"fallback","stateMutability":"nonpayable"},{"type":"function","name":"fallbackHandlers","inputs":[{"name":"account","type":"address","internalType":"address"},{"name":"","type":"bytes4","internalType":"bytes4"}],"outputs":[{"name":"fallbackType","type":"uint8","internalType":"enum ExtensibleFallbackHandler.FallBackType"},{"name":"handler","type":"address","internalType":"address"}],"stateMutability":"view"},{"type":"function","name":"isInitialized","inputs":[{"name":"smartAccount","type":"address","internalType":"address"}],"outputs":[{"name":"","type":"bool","internalType":"bool"}],"stateMutability":"pure"},{"type":"function","name":"isModuleType","inputs":[{"name":"isType","type":"uint256","internalType":"uint256"}],"outputs":[{"name":"","type":"bool","internalType":"bool"}],"stateMutability":"pure"},{"type":"function","name":"onInstall","inputs":[{"name":"data","type":"bytes","internalType":"bytes"}],"outputs":[],"stateMutability":"nonpayable"},{"type":"function","name":"onUninstall","inputs":[{"name":"data","type":"bytes","internalType":"bytes"}],"outputs":[],"stateMutability":"nonpayable"},{"type":"function","name":"setFunctionSig","inputs":[{"name":"params","type":"tuple","internalType":"struct ExtensibleFallbackHandler.Params","components":[{"name":"selector","type":"bytes4","internalType":"bytes4"},{"name":"fallbackType","type":"uint8","internalType":"enum ExtensibleFallbackHandler.FallBackType"},{"name":"handler","type":"address","internalType":"address"}]}],"outputs":[],"stateMutability":"nonpayable"},{"type":"event","name":"RemovedFunctionSelector","inputs":[{"name":"account","type":"address","indexed":true,"internalType":"address"},{"name":"selector","type":"bytes4","indexed":false,"internalType":"bytes4"}],"anonymous":false},{"type":"event","name":"SetFunctionSig","inputs":[{"name":"account","type":"address","indexed":true,"internalType":"address"},{"name":"selector","type":"bytes4","indexed":false,"internalType":"bytes4"},{"name":"fallbackType","type":"uint8","indexed":false,"internalType":"enum ExtensibleFallbackHandler.FallBackType"},{"name":"handler","type":"address","indexed":false,"internalType":"address"}],"anonymous":false},{"type":"error","name":"AlreadyInitialized","inputs":[{"name":"smartAccount","type":"address","internalType":"address"}]},{"type":"error","name":"ERC2771Unauthorized","inputs":[]},{"type":"error","name":"NotInitialized","inputs":[{"name":"smartAccount","type":"address","internalType":"address"}]}],"bytecode":{"object":"0x6080604052348015600f57600080fd5b506109c68061001f6000396000f3fe608060405234801561001057600080fd5b50600436106100625760003560e01c80636d61fe70146102dc5780638a91b0e3146102f1578063a81fca7214610303578063cad1f3a014610316578063d60b347f14610368578063ecd059611461038c575b600036606060188210156100bd5760405162461bcd60e51b815260206004820152601760248201527f696e76616c6964206d6574686f642073656c6563746f7200000000000000000060448201526064015b60405180910390fd5b336000908152602081815260408083206001600160e01b0319843516845290915280822081518083019092528054829060ff166001811115610101576101016104f8565b6001811115610112576101126104f8565b815290546001600160a01b0361010090910481166020928301529082015191925060131936013560601c911661017b5760405162461bcd60e51b815260206004820152600e60248201526d125b9d985b1a590813595d1a1bd960921b60448201526064016100b4565b600082516001811115610190576101906104f8565b036102335760208201516001600160a01b03166325d6803f338360008080366101ba60148261050e565b926101c793929190610535565b6040518663ffffffff1660e01b81526004016101e795949392919061055f565b600060405180830381865afa158015610204573d6000803e3d6000fd5b505050506040513d6000823e601f3d908101601f1916820160405261022c91908101906105fa565b92506102cf565b60208201516001600160a01b03166325d6803f3383600080803661025860148261050e565b9261026593929190610535565b6040518663ffffffff1660e01b815260040161028595949392919061055f565b6000604051808303816000875af11580156102a4573d6000803e3d6000fd5b505050506040513d6000823e601f3d908101601f191682016040526102cc91908101906105fa565b92505b5050915050805190602001f35b6102ef6102ea3660046106a6565b6103a0565b005b6102ef6102ff3660046106a6565b5050565b6102ef6103113660046107c1565b6103fd565b6103516103243660046107e4565b600060208181529281526040808220909352908152205460ff81169061010090046001600160a01b031682565b60405161035f929190610839565b60405180910390f35b61037c61037636600461085f565b50600090565b604051901515815260200161035f565b61037c61039a36600461087a565b60031490565b60008190036103ad575050565b60006103bb82840184610893565b805190915060005b818110156103f6576103ee338483815181106103e1576103e1610943565b602002602001015161040a565b6001016103c3565b5050505050565b610407338261040a565b50565b60405180604001604052808260200151600181111561042b5761042b6104f8565b81526040808401516001600160a01b039081166020938401528516600090815280835281812085516001600160e01b0319168252909252902081518154829060ff191660018381811115610481576104816104f8565b02179055506020918201518154610100600160a81b0319166101006001600160a01b0392831602179091558251918301516040808501519051928616937fe77ab6b9b19bf67d57dc56c9a8aaabfe43bdf94594a6c248d6e135cf719205bc936104ec93919290610959565b60405180910390a25050565b634e487b7160e01b600052602160045260246000fd5b8181038181111561052f57634e487b7160e01b600052601160045260246000fd5b92915050565b6000808585111561054557600080fd5b8386111561055257600080fd5b5050820193919092039150565b6001600160a01b038681168252851660208201526040810184905260806060820181905281018290526000828460a0840137600060a0848401015260a0601f19601f85011683010190509695505050505050565b634e487b7160e01b600052604160045260246000fd5b604051601f8201601f1916810167ffffffffffffffff811182821017156105f2576105f26105b3565b604052919050565b6000602080838503121561060d57600080fd5b825167ffffffffffffffff8082111561062557600080fd5b818501915085601f83011261063957600080fd5b81518181111561064b5761064b6105b3565b61065d601f8201601f191685016105c9565b9150808252868482850101111561067357600080fd5b60005b81811015610691578381018501518382018601528401610676565b50600090820190930192909252509392505050565b600080602083850312156106b957600080fd5b823567ffffffffffffffff808211156106d157600080fd5b818501915085601f8301126106e557600080fd5b8135818111156106f457600080fd5b86602082850101111561070657600080fd5b60209290920196919550909350505050565b80356001600160e01b03198116811461073057600080fd5b919050565b80356001600160a01b038116811461073057600080fd5b60006060828403121561075e57600080fd5b6040516060810181811067ffffffffffffffff82111715610781576107816105b3565b60405290508061079083610718565b81526020830135600281106107a457600080fd5b60208201526107b560408401610735565b60408201525092915050565b6000606082840312156107d357600080fd5b6107dd838361074c565b9392505050565b600080604083850312156107f757600080fd5b61080083610735565b915061080e60208401610718565b90509250929050565b6002811061083557634e487b7160e01b600052602160045260246000fd5b9052565b604081016108478285610817565b6001600160a01b039290921660209190910152919050565b60006020828403121561087157600080fd5b6107dd82610735565b60006020828403121561088c57600080fd5b5035919050565b600060208083850312156108a657600080fd5b823567ffffffffffffffff808211156108be57600080fd5b818501915085601f8301126108d257600080fd5b8135818111156108e4576108e46105b3565b6108f2848260051b016105c9565b8181528481019250606091820284018501918883111561091157600080fd5b938501935b8285101561093757610928898661074c565b84529384019392850192610916565b50979650505050505050565b634e487b7160e01b600052603260045260246000fd5b6001600160e01b031984168152606081016109776020830185610817565b6001600160a01b0392909216604091909101529291505056fea2646970667358221220899b77da8d5eef3c2214a8de461f50e7d61e21733ea5119dcaedf3d138d9d8a064736f6c63430008190033","linkReferences":{}},"methodIdentifiers":{"fallbackHandlers(address,bytes4)":"cad1f3a0","isInitialized(address)":"d60b347f","isModuleType(uint256)":"ecd05961","onInstall(bytes)":"6d61fe70","onUninstall(bytes)":"8a91b0e3","setFunctionSig((bytes4,uint8,address))":"a81fca72"},"id":41}