{"abi":[{"type":"function","name":"isInitialized","inputs":[{"name":"smartAccount","type":"address","internalType":"address"}],"outputs":[{"name":"","type":"bool","internalType":"bool"}],"stateMutability":"pure"},{"type":"function","name":"isModuleType","inputs":[{"name":"typeID","type":"uint256","internalType":"uint256"}],"outputs":[{"name":"","type":"bool","internalType":"bool"}],"stateMutability":"pure"},{"type":"function","name":"onInstall","inputs":[{"name":"data","type":"bytes","internalType":"bytes"}],"outputs":[],"stateMutability":"nonpayable"},{"type":"function","name":"onUninstall","inputs":[{"name":"data","type":"bytes","internalType":"bytes"}],"outputs":[],"stateMutability":"nonpayable"},{"type":"function","name":"postCheck","inputs":[{"name":"","type":"bytes","internalType":"bytes"}],"outputs":[],"stateMutability":"nonpayable"},{"type":"function","name":"preCheck","inputs":[{"name":"msgSender","type":"address","internalType":"address"},{"name":"msgValue","type":"uint256","internalType":"uint256"},{"name":"msgData","type":"bytes","internalType":"bytes"}],"outputs":[{"name":"hookData","type":"bytes","internalType":"bytes"}],"stateMutability":"nonpayable"},{"type":"error","name":"AlreadyInitialized","inputs":[{"name":"smartAccount","type":"address","internalType":"address"}]},{"type":"error","name":"NotInitialized","inputs":[{"name":"smartAccount","type":"address","internalType":"address"}]}],"bytecode":{"object":"0x6080604052348015600f57600080fd5b5061029e8061001f6000396000f3fe608060405234801561001057600080fd5b50600436106100625760003560e01c8063173bf7da146100675780636d61fe70146100675780638a91b0e314610067578063d60b347f1461007b578063d68f6025146100a4578063ecd05961146100c9575b600080fd5b610079610075366004610126565b5050565b005b61008f610089366004610184565b50600090565b60405190151581526020015b60405180910390f35b6100bc6100b23660046101a6565b6060949350505050565b60405161009b9190610200565b61008f6100d736600461024f565b60041490565b60008083601f8401126100ef57600080fd5b50813567ffffffffffffffff81111561010757600080fd5b60208301915083602082850101111561011f57600080fd5b9250929050565b6000806020838503121561013957600080fd5b823567ffffffffffffffff81111561015057600080fd5b61015c858286016100dd565b90969095509350505050565b80356001600160a01b038116811461017f57600080fd5b919050565b60006020828403121561019657600080fd5b61019f82610168565b9392505050565b600080600080606085870312156101bc57600080fd5b6101c585610168565b935060208501359250604085013567ffffffffffffffff8111156101e857600080fd5b6101f4878288016100dd565b95989497509550505050565b60006020808352835180602085015260005b8181101561022e57858101830151858201604001528201610212565b506000604082860101526040601f19601f8301168501019250505092915050565b60006020828403121561026157600080fd5b503591905056fea26469706673582212208149c6c3b93245f0db3787c8e9586f831c9b597b45da05daa1b602914e003f0664736f6c63430008190033","linkReferences":{}},"methodIdentifiers":{"isInitialized(address)":"d60b347f","isModuleType(uint256)":"ecd05961","onInstall(bytes)":"6d61fe70","onUninstall(bytes)":"8a91b0e3","postCheck(bytes)":"173bf7da","preCheck(address,uint256,bytes)":"d68f6025"},"id":12}